{
	"contracts/Donation.sol": {
		"Donation": {
			"abi": [
				{
					"inputs": [
						{
							"internalType": "address",
							"name": "_donationReceiver",
							"type": "address"
						},
						{
							"internalType": "string",
							"name": "_description",
							"type": "string"
						}
					],
					"stateMutability": "payable",
					"type": "constructor"
				},
				{
					"inputs": [
						{
							"internalType": "address",
							"name": "caller",
							"type": "address"
						}
					],
					"name": "NotAnOwnerError",
					"type": "error"
				},
				{
					"inputs": [
						{
							"internalType": "address",
							"name": "owner",
							"type": "address"
						}
					],
					"name": "OwnableInvalidOwner",
					"type": "error"
				},
				{
					"inputs": [
						{
							"internalType": "address",
							"name": "account",
							"type": "address"
						}
					],
					"name": "OwnableUnauthorizedAccount",
					"type": "error"
				},
				{
					"inputs": [
						{
							"internalType": "address",
							"name": "caller",
							"type": "address"
						}
					],
					"name": "ZeroAmountError",
					"type": "error"
				},
				{
					"anonymous": false,
					"inputs": [
						{
							"indexed": true,
							"internalType": "address",
							"name": "previousOwner",
							"type": "address"
						},
						{
							"indexed": true,
							"internalType": "address",
							"name": "newOwner",
							"type": "address"
						}
					],
					"name": "OwnershipTransferred",
					"type": "event"
				},
				{
					"anonymous": false,
					"inputs": [
						{
							"indexed": true,
							"internalType": "address",
							"name": "from",
							"type": "address"
						},
						{
							"indexed": false,
							"internalType": "uint256",
							"name": "value",
							"type": "uint256"
						}
					],
					"name": "Transfer",
					"type": "event"
				},
				{
					"inputs": [],
					"name": "description",
					"outputs": [
						{
							"internalType": "string",
							"name": "",
							"type": "string"
						}
					],
					"stateMutability": "view",
					"type": "function"
				},
				{
					"inputs": [],
					"name": "donate",
					"outputs": [],
					"stateMutability": "payable",
					"type": "function"
				},
				{
					"inputs": [],
					"name": "donationsReceiver",
					"outputs": [
						{
							"internalType": "address",
							"name": "",
							"type": "address"
						}
					],
					"stateMutability": "view",
					"type": "function"
				},
				{
					"inputs": [],
					"name": "getDonators",
					"outputs": [
						{
							"internalType": "address[]",
							"name": "",
							"type": "address[]"
						}
					],
					"stateMutability": "view",
					"type": "function"
				},
				{
					"inputs": [],
					"name": "getSumOfDonations",
					"outputs": [
						{
							"internalType": "uint256",
							"name": "",
							"type": "uint256"
						}
					],
					"stateMutability": "view",
					"type": "function"
				},
				{
					"inputs": [],
					"name": "owner",
					"outputs": [
						{
							"internalType": "address",
							"name": "",
							"type": "address"
						}
					],
					"stateMutability": "view",
					"type": "function"
				},
				{
					"inputs": [],
					"name": "renounceOwnership",
					"outputs": [],
					"stateMutability": "nonpayable",
					"type": "function"
				},
				{
					"inputs": [
						{
							"internalType": "uint256",
							"name": "amount",
							"type": "uint256"
						}
					],
					"name": "sendFundsToReceiver",
					"outputs": [],
					"stateMutability": "nonpayable",
					"type": "function"
				},
				{
					"inputs": [
						{
							"internalType": "address",
							"name": "newOwner",
							"type": "address"
						}
					],
					"name": "transferOwnership",
					"outputs": [],
					"stateMutability": "nonpayable",
					"type": "function"
				},
				{
					"stateMutability": "payable",
					"type": "receive"
				}
			],
			"devdoc": {
				"errors": {
					"OwnableInvalidOwner(address)": [
						{
							"details": "The owner is not a valid owner account. (eg. `address(0)`)"
						}
					],
					"OwnableUnauthorizedAccount(address)": [
						{
							"details": "The caller account is not authorized to perform an operation."
						}
					]
				},
				"kind": "dev",
				"methods": {
					"owner()": {
						"details": "Returns the address of the current owner."
					},
					"renounceOwnership()": {
						"details": "Leaves the contract without owner. It will not be possible to call `onlyOwner` functions. Can only be called by the current owner. NOTE: Renouncing ownership will leave the contract without an owner, thereby disabling any functionality that is only available to the owner."
					},
					"transferOwnership(address)": {
						"details": "Transfers ownership of the contract to a new account (`newOwner`). Can only be called by the current owner."
					}
				},
				"version": 1
			},
			"evm": {
				"assembly": "    /* \"contracts/Donation.sol\":109:1759  contract Donation is Ownable {... */\n  mstore(0x40, 0xa0)\n    /* \"contracts/Donation.sol\":515:700  constructor(address _donationReceiver, string memory _description) Ownable(msg.sender) payable {... */\n  mload(0x40)\n  sub(codesize, bytecodeSize)\n  dup1\n  bytecodeSize\n  dup4\n  codecopy\n  dup2\n  dup2\n  add\n  0x40\n  mstore\n  dup2\n  add\n  swap1\n  tag_1\n  swap2\n  swap1\n  tag_2\n  jump\t// in\ntag_1:\n    /* \"contracts/Donation.sol\":590:600  msg.sender */\n  caller\n    /* \"@openzeppelin/contracts/access/Ownable.sol\":1297:1298  0 */\n  0x00\n    /* \"@openzeppelin/contracts/access/Ownable.sol\":1273:1299  initialOwner == address(0) */\n  0xffffffffffffffffffffffffffffffffffffffff\n  and\n    /* \"@openzeppelin/contracts/access/Ownable.sol\":1273:1285  initialOwner */\n  dup2\n    /* \"@openzeppelin/contracts/access/Ownable.sol\":1273:1299  initialOwner == address(0) */\n  0xffffffffffffffffffffffffffffffffffffffff\n  and\n  sub\n    /* \"@openzeppelin/contracts/access/Ownable.sol\":1269:1364  if (initialOwner == address(0)) {... */\n  tag_6\n  jumpi\n    /* \"@openzeppelin/contracts/access/Ownable.sol\":1350:1351  0 */\n  0x00\n    /* \"@openzeppelin/contracts/access/Ownable.sol\":1322:1353  OwnableInvalidOwner(address(0)) */\n  mload(0x40)\n  0x1e4fbdf700000000000000000000000000000000000000000000000000000000\n  dup2\n  mstore\n  0x04\n  add\n  tag_7\n  swap2\n  swap1\n  tag_8\n  jump\t// in\ntag_7:\n  mload(0x40)\n  dup1\n  swap2\n  sub\n  swap1\n  revert\n    /* \"@openzeppelin/contracts/access/Ownable.sol\":1269:1364  if (initialOwner == address(0)) {... */\ntag_6:\n    /* \"@openzeppelin/contracts/access/Ownable.sol\":1373:1405  _transferOwnership(initialOwner) */\n  tag_9\n    /* \"@openzeppelin/contracts/access/Ownable.sol\":1392:1404  initialOwner */\n  dup2\n    /* \"@openzeppelin/contracts/access/Ownable.sol\":1373:1391  _transferOwnership */\n  shl(0x20, tag_10)\n    /* \"@openzeppelin/contracts/access/Ownable.sol\":1373:1405  _transferOwnership(initialOwner) */\n  0x20\n  shr\n  jump\t// in\ntag_9:\n    /* \"@openzeppelin/contracts/access/Ownable.sol\":1225:1412  constructor(address initialOwner) {... */\n  pop\n    /* \"contracts/Donation.sol\":634:646  _description */\n  dup1\n    /* \"contracts/Donation.sol\":620:631  description */\n  0x04\n    /* \"contracts/Donation.sol\":620:646  description = _description */\n  swap1\n  dup2\n  tag_12\n  swap2\n  swap1\n  tag_13\n  jump\t// in\ntag_12:\n  pop\n    /* \"contracts/Donation.sol\":676:693  _donationReceiver */\n  dup2\n    /* \"contracts/Donation.sol\":656:693  donationsReceiver = _donationReceiver */\n  0xffffffffffffffffffffffffffffffffffffffff\n  and\n  0x80\n  dup2\n  0xffffffffffffffffffffffffffffffffffffffff\n  and\n  dup2\n  mstore\n  pop\n  pop\n    /* \"contracts/Donation.sol\":515:700  constructor(address _donationReceiver, string memory _description) Ownable(msg.sender) payable {... */\n  pop\n  pop\n    /* \"contracts/Donation.sol\":109:1759  contract Donation is Ownable {... */\n  jump(tag_14)\n    /* \"@openzeppelin/contracts/access/Ownable.sol\":2912:3099  function _transferOwnership(address newOwner) internal virtual {... */\ntag_10:\n    /* \"@openzeppelin/contracts/access/Ownable.sol\":2985:3001  address oldOwner */\n  0x00\n    /* \"@openzeppelin/contracts/access/Ownable.sol\":3004:3010  _owner */\n  dup1\n  0x00\n  swap1\n  sload\n  swap1\n  0x0100\n  exp\n  swap1\n  div\n  0xffffffffffffffffffffffffffffffffffffffff\n  and\n    /* \"@openzeppelin/contracts/access/Ownable.sol\":2985:3010  address oldOwner = _owner */\n  swap1\n  pop\n    /* \"@openzeppelin/contracts/access/Ownable.sol\":3029:3037  newOwner */\n  dup2\n    /* \"@openzeppelin/contracts/access/Ownable.sol\":3020:3026  _owner */\n  0x00\n  dup1\n    /* \"@openzeppelin/contracts/access/Ownable.sol\":3020:3037  _owner = newOwner */\n  0x0100\n  exp\n  dup2\n  sload\n  dup2\n  0xffffffffffffffffffffffffffffffffffffffff\n  mul\n  not\n  and\n  swap1\n  dup4\n  0xffffffffffffffffffffffffffffffffffffffff\n  and\n  mul\n  or\n  swap1\n  sstore\n  pop\n    /* \"@openzeppelin/contracts/access/Ownable.sol\":3083:3091  newOwner */\n  dup2\n    /* \"@openzeppelin/contracts/access/Ownable.sol\":3052:3092  OwnershipTransferred(oldOwner, newOwner) */\n  0xffffffffffffffffffffffffffffffffffffffff\n  and\n    /* \"@openzeppelin/contracts/access/Ownable.sol\":3073:3081  oldOwner */\n  dup2\n    /* \"@openzeppelin/contracts/access/Ownable.sol\":3052:3092  OwnershipTransferred(oldOwner, newOwner) */\n  0xffffffffffffffffffffffffffffffffffffffff\n  and\n  0x8be0079c531659141344cd1fd0a4f28419497f9722a3daafe3b4186f6b6457e0\n  mload(0x40)\n  mload(0x40)\n  dup1\n  swap2\n  sub\n  swap1\n  log3\n    /* \"@openzeppelin/contracts/access/Ownable.sol\":2975:3099  {... */\n  pop\n    /* \"@openzeppelin/contracts/access/Ownable.sol\":2912:3099  function _transferOwnership(address newOwner) internal virtual {... */\n  pop\n  jump\t// out\n    /* \"#utility.yul\":7:82   */\ntag_16:\n    /* \"#utility.yul\":40:46   */\n  0x00\n    /* \"#utility.yul\":73:75   */\n  0x40\n    /* \"#utility.yul\":67:76   */\n  mload\n    /* \"#utility.yul\":57:76   */\n  swap1\n  pop\n    /* \"#utility.yul\":7:82   */\n  swap1\n  jump\t// out\n    /* \"#utility.yul\":88:205   */\ntag_17:\n    /* \"#utility.yul\":197:198   */\n  0x00\n    /* \"#utility.yul\":194:195   */\n  dup1\n    /* \"#utility.yul\":187:199   */\n  revert\n    /* \"#utility.yul\":211:328   */\ntag_18:\n    /* \"#utility.yul\":320:321   */\n  0x00\n    /* \"#utility.yul\":317:318   */\n  dup1\n    /* \"#utility.yul\":310:322   */\n  revert\n    /* \"#utility.yul\":334:460   */\ntag_19:\n    /* \"#utility.yul\":371:378   */\n  0x00\n    /* \"#utility.yul\":411:453   */\n  0xffffffffffffffffffffffffffffffffffffffff\n    /* \"#utility.yul\":404:409   */\n  dup3\n    /* \"#utility.yul\":400:454   */\n  and\n    /* \"#utility.yul\":389:454   */\n  swap1\n  pop\n    /* \"#utility.yul\":334:460   */\n  swap2\n  swap1\n  pop\n  jump\t// out\n    /* \"#utility.yul\":466:562   */\ntag_20:\n    /* \"#utility.yul\":503:510   */\n  0x00\n    /* \"#utility.yul\":532:556   */\n  tag_59\n    /* \"#utility.yul\":550:555   */\n  dup3\n    /* \"#utility.yul\":532:556   */\n  tag_19\n  jump\t// in\ntag_59:\n    /* \"#utility.yul\":521:556   */\n  swap1\n  pop\n    /* \"#utility.yul\":466:562   */\n  swap2\n  swap1\n  pop\n  jump\t// out\n    /* \"#utility.yul\":568:690   */\ntag_21:\n    /* \"#utility.yul\":641:665   */\n  tag_61\n    /* \"#utility.yul\":659:664   */\n  dup2\n    /* \"#utility.yul\":641:665   */\n  tag_20\n  jump\t// in\ntag_61:\n    /* \"#utility.yul\":634:639   */\n  dup2\n    /* \"#utility.yul\":631:666   */\n  eq\n    /* \"#utility.yul\":621:684   */\n  tag_62\n  jumpi\n    /* \"#utility.yul\":680:681   */\n  0x00\n    /* \"#utility.yul\":677:678   */\n  dup1\n    /* \"#utility.yul\":670:682   */\n  revert\n    /* \"#utility.yul\":621:684   */\ntag_62:\n    /* \"#utility.yul\":568:690   */\n  pop\n  jump\t// out\n    /* \"#utility.yul\":696:839   */\ntag_22:\n    /* \"#utility.yul\":753:758   */\n  0x00\n    /* \"#utility.yul\":784:790   */\n  dup2\n    /* \"#utility.yul\":778:791   */\n  mload\n    /* \"#utility.yul\":769:791   */\n  swap1\n  pop\n    /* \"#utility.yul\":800:833   */\n  tag_64\n    /* \"#utility.yul\":827:832   */\n  dup2\n    /* \"#utility.yul\":800:833   */\n  tag_21\n  jump\t// in\ntag_64:\n    /* \"#utility.yul\":696:839   */\n  swap3\n  swap2\n  pop\n  pop\n  jump\t// out\n    /* \"#utility.yul\":845:962   */\ntag_23:\n    /* \"#utility.yul\":954:955   */\n  0x00\n    /* \"#utility.yul\":951:952   */\n  dup1\n    /* \"#utility.yul\":944:956   */\n  revert\n    /* \"#utility.yul\":968:1085   */\ntag_24:\n    /* \"#utility.yul\":1077:1078   */\n  0x00\n    /* \"#utility.yul\":1074:1075   */\n  dup1\n    /* \"#utility.yul\":1067:1079   */\n  revert\n    /* \"#utility.yul\":1091:1193   */\ntag_25:\n    /* \"#utility.yul\":1132:1138   */\n  0x00\n    /* \"#utility.yul\":1183:1185   */\n  0x1f\n    /* \"#utility.yul\":1179:1186   */\n  not\n    /* \"#utility.yul\":1174:1176   */\n  0x1f\n    /* \"#utility.yul\":1167:1172   */\n  dup4\n    /* \"#utility.yul\":1163:1177   */\n  add\n    /* \"#utility.yul\":1159:1187   */\n  and\n    /* \"#utility.yul\":1149:1187   */\n  swap1\n  pop\n    /* \"#utility.yul\":1091:1193   */\n  swap2\n  swap1\n  pop\n  jump\t// out\n    /* \"#utility.yul\":1199:1379   */\ntag_26:\n    /* \"#utility.yul\":1247:1324   */\n  0x4e487b7100000000000000000000000000000000000000000000000000000000\n    /* \"#utility.yul\":1244:1245   */\n  0x00\n    /* \"#utility.yul\":1237:1325   */\n  mstore\n    /* \"#utility.yul\":1344:1348   */\n  0x41\n    /* \"#utility.yul\":1341:1342   */\n  0x04\n    /* \"#utility.yul\":1334:1349   */\n  mstore\n    /* \"#utility.yul\":1368:1372   */\n  0x24\n    /* \"#utility.yul\":1365:1366   */\n  0x00\n    /* \"#utility.yul\":1358:1373   */\n  revert\n    /* \"#utility.yul\":1385:1666   */\ntag_27:\n    /* \"#utility.yul\":1468:1495   */\n  tag_70\n    /* \"#utility.yul\":1490:1494   */\n  dup3\n    /* \"#utility.yul\":1468:1495   */\n  tag_25\n  jump\t// in\ntag_70:\n    /* \"#utility.yul\":1460:1466   */\n  dup2\n    /* \"#utility.yul\":1456:1496   */\n  add\n    /* \"#utility.yul\":1598:1604   */\n  dup2\n    /* \"#utility.yul\":1586:1596   */\n  dup2\n    /* \"#utility.yul\":1583:1605   */\n  lt\n    /* \"#utility.yul\":1562:1580   */\n  0xffffffffffffffff\n    /* \"#utility.yul\":1550:1560   */\n  dup3\n    /* \"#utility.yul\":1547:1581   */\n  gt\n    /* \"#utility.yul\":1544:1606   */\n  or\n    /* \"#utility.yul\":1541:1629   */\n  iszero\n  tag_71\n  jumpi\n    /* \"#utility.yul\":1609:1627   */\n  tag_72\n  tag_26\n  jump\t// in\ntag_72:\n    /* \"#utility.yul\":1541:1629   */\ntag_71:\n    /* \"#utility.yul\":1649:1659   */\n  dup1\n    /* \"#utility.yul\":1645:1647   */\n  0x40\n    /* \"#utility.yul\":1638:1660   */\n  mstore\n    /* \"#utility.yul\":1428:1666   */\n  pop\n    /* \"#utility.yul\":1385:1666   */\n  pop\n  pop\n  jump\t// out\n    /* \"#utility.yul\":1672:1801   */\ntag_28:\n    /* \"#utility.yul\":1706:1712   */\n  0x00\n    /* \"#utility.yul\":1733:1753   */\n  tag_74\n  tag_16\n  jump\t// in\ntag_74:\n    /* \"#utility.yul\":1723:1753   */\n  swap1\n  pop\n    /* \"#utility.yul\":1762:1795   */\n  tag_75\n    /* \"#utility.yul\":1790:1794   */\n  dup3\n    /* \"#utility.yul\":1782:1788   */\n  dup3\n    /* \"#utility.yul\":1762:1795   */\n  tag_27\n  jump\t// in\ntag_75:\n    /* \"#utility.yul\":1672:1801   */\n  swap2\n  swap1\n  pop\n  jump\t// out\n    /* \"#utility.yul\":1807:2115   */\ntag_29:\n    /* \"#utility.yul\":1869:1873   */\n  0x00\n    /* \"#utility.yul\":1959:1977   */\n  0xffffffffffffffff\n    /* \"#utility.yul\":1951:1957   */\n  dup3\n    /* \"#utility.yul\":1948:1978   */\n  gt\n    /* \"#utility.yul\":1945:2001   */\n  iszero\n  tag_77\n  jumpi\n    /* \"#utility.yul\":1981:1999   */\n  tag_78\n  tag_26\n  jump\t// in\ntag_78:\n    /* \"#utility.yul\":1945:2001   */\ntag_77:\n    /* \"#utility.yul\":2019:2048   */\n  tag_79\n    /* \"#utility.yul\":2041:2047   */\n  dup3\n    /* \"#utility.yul\":2019:2048   */\n  tag_25\n  jump\t// in\ntag_79:\n    /* \"#utility.yul\":2011:2048   */\n  swap1\n  pop\n    /* \"#utility.yul\":2103:2107   */\n  0x20\n    /* \"#utility.yul\":2097:2101   */\n  dup2\n    /* \"#utility.yul\":2093:2108   */\n  add\n    /* \"#utility.yul\":2085:2108   */\n  swap1\n  pop\n    /* \"#utility.yul\":1807:2115   */\n  swap2\n  swap1\n  pop\n  jump\t// out\n    /* \"#utility.yul\":2121:2367   */\ntag_30:\n    /* \"#utility.yul\":2202:2203   */\n  0x00\n    /* \"#utility.yul\":2212:2325   */\ntag_81:\n    /* \"#utility.yul\":2226:2232   */\n  dup4\n    /* \"#utility.yul\":2223:2224   */\n  dup2\n    /* \"#utility.yul\":2220:2233   */\n  lt\n    /* \"#utility.yul\":2212:2325   */\n  iszero\n  tag_83\n  jumpi\n    /* \"#utility.yul\":2311:2312   */\n  dup1\n    /* \"#utility.yul\":2306:2309   */\n  dup3\n    /* \"#utility.yul\":2302:2313   */\n  add\n    /* \"#utility.yul\":2296:2314   */\n  mload\n    /* \"#utility.yul\":2292:2293   */\n  dup2\n    /* \"#utility.yul\":2287:2290   */\n  dup5\n    /* \"#utility.yul\":2283:2294   */\n  add\n    /* \"#utility.yul\":2276:2315   */\n  mstore\n    /* \"#utility.yul\":2248:2250   */\n  0x20\n    /* \"#utility.yul\":2245:2246   */\n  dup2\n    /* \"#utility.yul\":2241:2251   */\n  add\n    /* \"#utility.yul\":2236:2251   */\n  swap1\n  pop\n    /* \"#utility.yul\":2212:2325   */\n  jump(tag_81)\ntag_83:\n    /* \"#utility.yul\":2359:2360   */\n  0x00\n    /* \"#utility.yul\":2350:2356   */\n  dup5\n    /* \"#utility.yul\":2345:2348   */\n  dup5\n    /* \"#utility.yul\":2341:2357   */\n  add\n    /* \"#utility.yul\":2334:2361   */\n  mstore\n    /* \"#utility.yul\":2183:2367   */\n  pop\n    /* \"#utility.yul\":2121:2367   */\n  pop\n  pop\n  pop\n  jump\t// out\n    /* \"#utility.yul\":2373:2807   */\ntag_31:\n    /* \"#utility.yul\":2462:2467   */\n  0x00\n    /* \"#utility.yul\":2487:2553   */\n  tag_85\n    /* \"#utility.yul\":2503:2552   */\n  tag_86\n    /* \"#utility.yul\":2545:2551   */\n  dup5\n    /* \"#utility.yul\":2503:2552   */\n  tag_29\n  jump\t// in\ntag_86:\n    /* \"#utility.yul\":2487:2553   */\n  tag_28\n  jump\t// in\ntag_85:\n    /* \"#utility.yul\":2478:2553   */\n  swap1\n  pop\n    /* \"#utility.yul\":2576:2582   */\n  dup3\n    /* \"#utility.yul\":2569:2574   */\n  dup2\n    /* \"#utility.yul\":2562:2583   */\n  mstore\n    /* \"#utility.yul\":2614:2618   */\n  0x20\n    /* \"#utility.yul\":2607:2612   */\n  dup2\n    /* \"#utility.yul\":2603:2619   */\n  add\n    /* \"#utility.yul\":2652:2655   */\n  dup5\n    /* \"#utility.yul\":2643:2649   */\n  dup5\n    /* \"#utility.yul\":2638:2641   */\n  dup5\n    /* \"#utility.yul\":2634:2650   */\n  add\n    /* \"#utility.yul\":2631:2656   */\n  gt\n    /* \"#utility.yul\":2628:2740   */\n  iszero\n  tag_87\n  jumpi\n    /* \"#utility.yul\":2659:2738   */\n  tag_88\n  tag_24\n  jump\t// in\ntag_88:\n    /* \"#utility.yul\":2628:2740   */\ntag_87:\n    /* \"#utility.yul\":2749:2801   */\n  tag_89\n    /* \"#utility.yul\":2794:2800   */\n  dup5\n    /* \"#utility.yul\":2789:2792   */\n  dup3\n    /* \"#utility.yul\":2784:2787   */\n  dup6\n    /* \"#utility.yul\":2749:2801   */\n  tag_30\n  jump\t// in\ntag_89:\n    /* \"#utility.yul\":2468:2807   */\n  pop\n    /* \"#utility.yul\":2373:2807   */\n  swap4\n  swap3\n  pop\n  pop\n  pop\n  jump\t// out\n    /* \"#utility.yul\":2827:3182   */\ntag_32:\n    /* \"#utility.yul\":2894:2899   */\n  0x00\n    /* \"#utility.yul\":2943:2946   */\n  dup3\n    /* \"#utility.yul\":2936:2940   */\n  0x1f\n    /* \"#utility.yul\":2928:2934   */\n  dup4\n    /* \"#utility.yul\":2924:2941   */\n  add\n    /* \"#utility.yul\":2920:2947   */\n  slt\n    /* \"#utility.yul\":2910:3032   */\n  tag_91\n  jumpi\n    /* \"#utility.yul\":2951:3030   */\n  tag_92\n  tag_23\n  jump\t// in\ntag_92:\n    /* \"#utility.yul\":2910:3032   */\ntag_91:\n    /* \"#utility.yul\":3061:3067   */\n  dup2\n    /* \"#utility.yul\":3055:3068   */\n  mload\n    /* \"#utility.yul\":3086:3176   */\n  tag_93\n    /* \"#utility.yul\":3172:3175   */\n  dup5\n    /* \"#utility.yul\":3164:3170   */\n  dup3\n    /* \"#utility.yul\":3157:3161   */\n  0x20\n    /* \"#utility.yul\":3149:3155   */\n  dup7\n    /* \"#utility.yul\":3145:3162   */\n  add\n    /* \"#utility.yul\":3086:3176   */\n  tag_31\n  jump\t// in\ntag_93:\n    /* \"#utility.yul\":3077:3176   */\n  swap2\n  pop\n    /* \"#utility.yul\":2900:3182   */\n  pop\n    /* \"#utility.yul\":2827:3182   */\n  swap3\n  swap2\n  pop\n  pop\n  jump\t// out\n    /* \"#utility.yul\":3188:3868   */\ntag_2:\n    /* \"#utility.yul\":3277:3283   */\n  0x00\n    /* \"#utility.yul\":3285:3291   */\n  dup1\n    /* \"#utility.yul\":3334:3336   */\n  0x40\n    /* \"#utility.yul\":3322:3331   */\n  dup4\n    /* \"#utility.yul\":3313:3320   */\n  dup6\n    /* \"#utility.yul\":3309:3332   */\n  sub\n    /* \"#utility.yul\":3305:3337   */\n  slt\n    /* \"#utility.yul\":3302:3421   */\n  iszero\n  tag_95\n  jumpi\n    /* \"#utility.yul\":3340:3419   */\n  tag_96\n  tag_17\n  jump\t// in\ntag_96:\n    /* \"#utility.yul\":3302:3421   */\ntag_95:\n    /* \"#utility.yul\":3460:3461   */\n  0x00\n    /* \"#utility.yul\":3485:3549   */\n  tag_97\n    /* \"#utility.yul\":3541:3548   */\n  dup6\n    /* \"#utility.yul\":3532:3538   */\n  dup3\n    /* \"#utility.yul\":3521:3530   */\n  dup7\n    /* \"#utility.yul\":3517:3539   */\n  add\n    /* \"#utility.yul\":3485:3549   */\n  tag_22\n  jump\t// in\ntag_97:\n    /* \"#utility.yul\":3475:3549   */\n  swap3\n  pop\n    /* \"#utility.yul\":3431:3559   */\n  pop\n    /* \"#utility.yul\":3619:3621   */\n  0x20\n    /* \"#utility.yul\":3608:3617   */\n  dup4\n    /* \"#utility.yul\":3604:3622   */\n  add\n    /* \"#utility.yul\":3598:3623   */\n  mload\n    /* \"#utility.yul\":3650:3668   */\n  0xffffffffffffffff\n    /* \"#utility.yul\":3642:3648   */\n  dup2\n    /* \"#utility.yul\":3639:3669   */\n  gt\n    /* \"#utility.yul\":3636:3753   */\n  iszero\n  tag_98\n  jumpi\n    /* \"#utility.yul\":3672:3751   */\n  tag_99\n  tag_18\n  jump\t// in\ntag_99:\n    /* \"#utility.yul\":3636:3753   */\ntag_98:\n    /* \"#utility.yul\":3777:3851   */\n  tag_100\n    /* \"#utility.yul\":3843:3850   */\n  dup6\n    /* \"#utility.yul\":3834:3840   */\n  dup3\n    /* \"#utility.yul\":3823:3832   */\n  dup7\n    /* \"#utility.yul\":3819:3841   */\n  add\n    /* \"#utility.yul\":3777:3851   */\n  tag_32\n  jump\t// in\ntag_100:\n    /* \"#utility.yul\":3767:3851   */\n  swap2\n  pop\n    /* \"#utility.yul\":3569:3861   */\n  pop\n    /* \"#utility.yul\":3188:3868   */\n  swap3\n  pop\n  swap3\n  swap1\n  pop\n  jump\t// out\n    /* \"#utility.yul\":3874:3992   */\ntag_33:\n    /* \"#utility.yul\":3961:3985   */\n  tag_102\n    /* \"#utility.yul\":3979:3984   */\n  dup2\n    /* \"#utility.yul\":3961:3985   */\n  tag_20\n  jump\t// in\ntag_102:\n    /* \"#utility.yul\":3956:3959   */\n  dup3\n    /* \"#utility.yul\":3949:3986   */\n  mstore\n    /* \"#utility.yul\":3874:3992   */\n  pop\n  pop\n  jump\t// out\n    /* \"#utility.yul\":3998:4220   */\ntag_8:\n    /* \"#utility.yul\":4091:4095   */\n  0x00\n    /* \"#utility.yul\":4129:4131   */\n  0x20\n    /* \"#utility.yul\":4118:4127   */\n  dup3\n    /* \"#utility.yul\":4114:4132   */\n  add\n    /* \"#utility.yul\":4106:4132   */\n  swap1\n  pop\n    /* \"#utility.yul\":4142:4213   */\n  tag_104\n    /* \"#utility.yul\":4210:4211   */\n  0x00\n    /* \"#utility.yul\":4199:4208   */\n  dup4\n    /* \"#utility.yul\":4195:4212   */\n  add\n    /* \"#utility.yul\":4186:4192   */\n  dup5\n    /* \"#utility.yul\":4142:4213   */\n  tag_33\n  jump\t// in\ntag_104:\n    /* \"#utility.yul\":3998:4220   */\n  swap3\n  swap2\n  pop\n  pop\n  jump\t// out\n    /* \"#utility.yul\":4226:4325   */\ntag_34:\n    /* \"#utility.yul\":4278:4284   */\n  0x00\n    /* \"#utility.yul\":4312:4317   */\n  dup2\n    /* \"#utility.yul\":4306:4318   */\n  mload\n    /* \"#utility.yul\":4296:4318   */\n  swap1\n  pop\n    /* \"#utility.yul\":4226:4325   */\n  swap2\n  swap1\n  pop\n  jump\t// out\n    /* \"#utility.yul\":4331:4511   */\ntag_35:\n    /* \"#utility.yul\":4379:4456   */\n  0x4e487b7100000000000000000000000000000000000000000000000000000000\n    /* \"#utility.yul\":4376:4377   */\n  0x00\n    /* \"#utility.yul\":4369:4457   */\n  mstore\n    /* \"#utility.yul\":4476:4480   */\n  0x22\n    /* \"#utility.yul\":4473:4474   */\n  0x04\n    /* \"#utility.yul\":4466:4481   */\n  mstore\n    /* \"#utility.yul\":4500:4504   */\n  0x24\n    /* \"#utility.yul\":4497:4498   */\n  0x00\n    /* \"#utility.yul\":4490:4505   */\n  revert\n    /* \"#utility.yul\":4517:4837   */\ntag_36:\n    /* \"#utility.yul\":4561:4567   */\n  0x00\n    /* \"#utility.yul\":4598:4599   */\n  0x02\n    /* \"#utility.yul\":4592:4596   */\n  dup3\n    /* \"#utility.yul\":4588:4600   */\n  div\n    /* \"#utility.yul\":4578:4600   */\n  swap1\n  pop\n    /* \"#utility.yul\":4645:4646   */\n  0x01\n    /* \"#utility.yul\":4639:4643   */\n  dup3\n    /* \"#utility.yul\":4635:4647   */\n  and\n    /* \"#utility.yul\":4666:4684   */\n  dup1\n    /* \"#utility.yul\":4656:4737   */\n  tag_108\n  jumpi\n    /* \"#utility.yul\":4722:4726   */\n  0x7f\n    /* \"#utility.yul\":4714:4720   */\n  dup3\n    /* \"#utility.yul\":4710:4727   */\n  and\n    /* \"#utility.yul\":4700:4727   */\n  swap2\n  pop\n    /* \"#utility.yul\":4656:4737   */\ntag_108:\n    /* \"#utility.yul\":4784:4786   */\n  0x20\n    /* \"#utility.yul\":4776:4782   */\n  dup3\n    /* \"#utility.yul\":4773:4787   */\n  lt\n    /* \"#utility.yul\":4753:4771   */\n  dup2\n    /* \"#utility.yul\":4750:4788   */\n  sub\n    /* \"#utility.yul\":4747:4831   */\n  tag_109\n  jumpi\n    /* \"#utility.yul\":4803:4821   */\n  tag_110\n  tag_35\n  jump\t// in\ntag_110:\n    /* \"#utility.yul\":4747:4831   */\ntag_109:\n    /* \"#utility.yul\":4568:4837   */\n  pop\n    /* \"#utility.yul\":4517:4837   */\n  swap2\n  swap1\n  pop\n  jump\t// out\n    /* \"#utility.yul\":4843:4984   */\ntag_37:\n    /* \"#utility.yul\":4892:4896   */\n  0x00\n    /* \"#utility.yul\":4915:4918   */\n  dup2\n    /* \"#utility.yul\":4907:4918   */\n  swap1\n  pop\n    /* \"#utility.yul\":4938:4941   */\n  dup2\n    /* \"#utility.yul\":4935:4936   */\n  0x00\n    /* \"#utility.yul\":4928:4942   */\n  mstore\n    /* \"#utility.yul\":4972:4976   */\n  0x20\n    /* \"#utility.yul\":4969:4970   */\n  0x00\n    /* \"#utility.yul\":4959:4977   */\n  keccak256\n    /* \"#utility.yul\":4951:4977   */\n  swap1\n  pop\n    /* \"#utility.yul\":4843:4984   */\n  swap2\n  swap1\n  pop\n  jump\t// out\n    /* \"#utility.yul\":4990:5083   */\ntag_38:\n    /* \"#utility.yul\":5027:5033   */\n  0x00\n    /* \"#utility.yul\":5074:5076   */\n  0x20\n    /* \"#utility.yul\":5069:5071   */\n  0x1f\n    /* \"#utility.yul\":5062:5067   */\n  dup4\n    /* \"#utility.yul\":5058:5072   */\n  add\n    /* \"#utility.yul\":5054:5077   */\n  div\n    /* \"#utility.yul\":5044:5077   */\n  swap1\n  pop\n    /* \"#utility.yul\":4990:5083   */\n  swap2\n  swap1\n  pop\n  jump\t// out\n    /* \"#utility.yul\":5089:5196   */\ntag_39:\n    /* \"#utility.yul\":5133:5141   */\n  0x00\n    /* \"#utility.yul\":5183:5188   */\n  dup3\n    /* \"#utility.yul\":5177:5181   */\n  dup3\n    /* \"#utility.yul\":5173:5189   */\n  shl\n    /* \"#utility.yul\":5152:5189   */\n  swap1\n  pop\n    /* \"#utility.yul\":5089:5196   */\n  swap3\n  swap2\n  pop\n  pop\n  jump\t// out\n    /* \"#utility.yul\":5202:5595   */\ntag_40:\n    /* \"#utility.yul\":5271:5277   */\n  0x00\n    /* \"#utility.yul\":5321:5322   */\n  0x08\n    /* \"#utility.yul\":5309:5319   */\n  dup4\n    /* \"#utility.yul\":5305:5323   */\n  mul\n    /* \"#utility.yul\":5344:5441   */\n  tag_115\n    /* \"#utility.yul\":5374:5440   */\n  0xffffffffffffffffffffffffffffffffffffffffffffffffffffffffffffffff\n    /* \"#utility.yul\":5363:5372   */\n  dup3\n    /* \"#utility.yul\":5344:5441   */\n  tag_39\n  jump\t// in\ntag_115:\n    /* \"#utility.yul\":5462:5501   */\n  tag_116\n    /* \"#utility.yul\":5492:5500   */\n  dup7\n    /* \"#utility.yul\":5481:5490   */\n  dup4\n    /* \"#utility.yul\":5462:5501   */\n  tag_39\n  jump\t// in\ntag_116:\n    /* \"#utility.yul\":5450:5501   */\n  swap6\n  pop\n    /* \"#utility.yul\":5534:5538   */\n  dup1\n    /* \"#utility.yul\":5530:5539   */\n  not\n    /* \"#utility.yul\":5523:5528   */\n  dup5\n    /* \"#utility.yul\":5519:5540   */\n  and\n    /* \"#utility.yul\":5510:5540   */\n  swap4\n  pop\n    /* \"#utility.yul\":5583:5587   */\n  dup1\n    /* \"#utility.yul\":5573:5581   */\n  dup7\n    /* \"#utility.yul\":5569:5588   */\n  and\n    /* \"#utility.yul\":5562:5567   */\n  dup5\n    /* \"#utility.yul\":5559:5589   */\n  or\n    /* \"#utility.yul\":5549:5589   */\n  swap3\n  pop\n    /* \"#utility.yul\":5278:5595   */\n  pop\n  pop\n    /* \"#utility.yul\":5202:5595   */\n  swap4\n  swap3\n  pop\n  pop\n  pop\n  jump\t// out\n    /* \"#utility.yul\":5601:5678   */\ntag_41:\n    /* \"#utility.yul\":5638:5645   */\n  0x00\n    /* \"#utility.yul\":5667:5672   */\n  dup2\n    /* \"#utility.yul\":5656:5672   */\n  swap1\n  pop\n    /* \"#utility.yul\":5601:5678   */\n  swap2\n  swap1\n  pop\n  jump\t// out\n    /* \"#utility.yul\":5684:5744   */\ntag_42:\n    /* \"#utility.yul\":5712:5715   */\n  0x00\n    /* \"#utility.yul\":5733:5738   */\n  dup2\n    /* \"#utility.yul\":5726:5738   */\n  swap1\n  pop\n    /* \"#utility.yul\":5684:5744   */\n  swap2\n  swap1\n  pop\n  jump\t// out\n    /* \"#utility.yul\":5750:5892   */\ntag_43:\n    /* \"#utility.yul\":5800:5809   */\n  0x00\n    /* \"#utility.yul\":5833:5886   */\n  tag_120\n    /* \"#utility.yul\":5851:5885   */\n  tag_121\n    /* \"#utility.yul\":5860:5884   */\n  tag_122\n    /* \"#utility.yul\":5878:5883   */\n  dup5\n    /* \"#utility.yul\":5860:5884   */\n  tag_41\n  jump\t// in\ntag_122:\n    /* \"#utility.yul\":5851:5885   */\n  tag_42\n  jump\t// in\ntag_121:\n    /* \"#utility.yul\":5833:5886   */\n  tag_41\n  jump\t// in\ntag_120:\n    /* \"#utility.yul\":5820:5886   */\n  swap1\n  pop\n    /* \"#utility.yul\":5750:5892   */\n  swap2\n  swap1\n  pop\n  jump\t// out\n    /* \"#utility.yul\":5898:5973   */\ntag_44:\n    /* \"#utility.yul\":5941:5944   */\n  0x00\n    /* \"#utility.yul\":5962:5967   */\n  dup2\n    /* \"#utility.yul\":5955:5967   */\n  swap1\n  pop\n    /* \"#utility.yul\":5898:5973   */\n  swap2\n  swap1\n  pop\n  jump\t// out\n    /* \"#utility.yul\":5979:6248   */\ntag_45:\n    /* \"#utility.yul\":6089:6128   */\n  tag_125\n    /* \"#utility.yul\":6120:6127   */\n  dup4\n    /* \"#utility.yul\":6089:6128   */\n  tag_43\n  jump\t// in\ntag_125:\n    /* \"#utility.yul\":6150:6241   */\n  tag_126\n    /* \"#utility.yul\":6199:6240   */\n  tag_127\n    /* \"#utility.yul\":6223:6239   */\n  dup3\n    /* \"#utility.yul\":6199:6240   */\n  tag_44\n  jump\t// in\ntag_127:\n    /* \"#utility.yul\":6191:6197   */\n  dup5\n    /* \"#utility.yul\":6184:6188   */\n  dup5\n    /* \"#utility.yul\":6178:6189   */\n  sload\n    /* \"#utility.yul\":6150:6241   */\n  tag_40\n  jump\t// in\ntag_126:\n    /* \"#utility.yul\":6144:6148   */\n  dup3\n    /* \"#utility.yul\":6137:6242   */\n  sstore\n    /* \"#utility.yul\":6055:6248   */\n  pop\n    /* \"#utility.yul\":5979:6248   */\n  pop\n  pop\n  pop\n  jump\t// out\n    /* \"#utility.yul\":6254:6327   */\ntag_46:\n    /* \"#utility.yul\":6299:6302   */\n  0x00\n    /* \"#utility.yul\":6254:6327   */\n  swap1\n  jump\t// out\n    /* \"#utility.yul\":6333:6522   */\ntag_47:\n    /* \"#utility.yul\":6410:6442   */\n  tag_130\n  tag_46\n  jump\t// in\ntag_130:\n    /* \"#utility.yul\":6451:6516   */\n  tag_131\n    /* \"#utility.yul\":6509:6515   */\n  dup2\n    /* \"#utility.yul\":6501:6507   */\n  dup5\n    /* \"#utility.yul\":6495:6499   */\n  dup5\n    /* \"#utility.yul\":6451:6516   */\n  tag_45\n  jump\t// in\ntag_131:\n    /* \"#utility.yul\":6386:6522   */\n  pop\n    /* \"#utility.yul\":6333:6522   */\n  pop\n  pop\n  jump\t// out\n    /* \"#utility.yul\":6528:6714   */\ntag_48:\n    /* \"#utility.yul\":6588:6708   */\ntag_133:\n    /* \"#utility.yul\":6605:6608   */\n  dup2\n    /* \"#utility.yul\":6598:6603   */\n  dup2\n    /* \"#utility.yul\":6595:6609   */\n  lt\n    /* \"#utility.yul\":6588:6708   */\n  iszero\n  tag_135\n  jumpi\n    /* \"#utility.yul\":6659:6698   */\n  tag_136\n    /* \"#utility.yul\":6696:6697   */\n  0x00\n    /* \"#utility.yul\":6689:6694   */\n  dup3\n    /* \"#utility.yul\":6659:6698   */\n  tag_47\n  jump\t// in\ntag_136:\n    /* \"#utility.yul\":6632:6633   */\n  0x01\n    /* \"#utility.yul\":6625:6630   */\n  dup2\n    /* \"#utility.yul\":6621:6634   */\n  add\n    /* \"#utility.yul\":6612:6634   */\n  swap1\n  pop\n    /* \"#utility.yul\":6588:6708   */\n  jump(tag_133)\ntag_135:\n    /* \"#utility.yul\":6528:6714   */\n  pop\n  pop\n  jump\t// out\n    /* \"#utility.yul\":6720:7263   */\ntag_49:\n    /* \"#utility.yul\":6821:6823   */\n  0x1f\n    /* \"#utility.yul\":6816:6819   */\n  dup3\n    /* \"#utility.yul\":6813:6824   */\n  gt\n    /* \"#utility.yul\":6810:7256   */\n  iszero\n  tag_138\n  jumpi\n    /* \"#utility.yul\":6855:6893   */\n  tag_139\n    /* \"#utility.yul\":6887:6892   */\n  dup2\n    /* \"#utility.yul\":6855:6893   */\n  tag_37\n  jump\t// in\ntag_139:\n    /* \"#utility.yul\":6939:6968   */\n  tag_140\n    /* \"#utility.yul\":6957:6967   */\n  dup5\n    /* \"#utility.yul\":6939:6968   */\n  tag_38\n  jump\t// in\ntag_140:\n    /* \"#utility.yul\":6929:6937   */\n  dup2\n    /* \"#utility.yul\":6925:6969   */\n  add\n    /* \"#utility.yul\":7122:7124   */\n  0x20\n    /* \"#utility.yul\":7110:7120   */\n  dup6\n    /* \"#utility.yul\":7107:7125   */\n  lt\n    /* \"#utility.yul\":7104:7153   */\n  iszero\n  tag_141\n  jumpi\n    /* \"#utility.yul\":7143:7151   */\n  dup2\n    /* \"#utility.yul\":7128:7151   */\n  swap1\n  pop\n    /* \"#utility.yul\":7104:7153   */\ntag_141:\n    /* \"#utility.yul\":7166:7246   */\n  tag_142\n    /* \"#utility.yul\":7222:7244   */\n  tag_143\n    /* \"#utility.yul\":7240:7243   */\n  dup6\n    /* \"#utility.yul\":7222:7244   */\n  tag_38\n  jump\t// in\ntag_143:\n    /* \"#utility.yul\":7212:7220   */\n  dup4\n    /* \"#utility.yul\":7208:7245   */\n  add\n    /* \"#utility.yul\":7195:7206   */\n  dup3\n    /* \"#utility.yul\":7166:7246   */\n  tag_48\n  jump\t// in\ntag_142:\n    /* \"#utility.yul\":6825:7256   */\n  pop\n  pop\n    /* \"#utility.yul\":6810:7256   */\ntag_138:\n    /* \"#utility.yul\":6720:7263   */\n  pop\n  pop\n  pop\n  jump\t// out\n    /* \"#utility.yul\":7269:7386   */\ntag_50:\n    /* \"#utility.yul\":7323:7331   */\n  0x00\n    /* \"#utility.yul\":7373:7378   */\n  dup3\n    /* \"#utility.yul\":7367:7371   */\n  dup3\n    /* \"#utility.yul\":7363:7379   */\n  shr\n    /* \"#utility.yul\":7342:7379   */\n  swap1\n  pop\n    /* \"#utility.yul\":7269:7386   */\n  swap3\n  swap2\n  pop\n  pop\n  jump\t// out\n    /* \"#utility.yul\":7392:7561   */\ntag_51:\n    /* \"#utility.yul\":7436:7442   */\n  0x00\n    /* \"#utility.yul\":7469:7520   */\n  tag_146\n    /* \"#utility.yul\":7517:7518   */\n  0x00\n    /* \"#utility.yul\":7513:7519   */\n  not\n    /* \"#utility.yul\":7505:7510   */\n  dup5\n    /* \"#utility.yul\":7502:7503   */\n  0x08\n    /* \"#utility.yul\":7498:7511   */\n  mul\n    /* \"#utility.yul\":7469:7520   */\n  tag_50\n  jump\t// in\ntag_146:\n    /* \"#utility.yul\":7465:7521   */\n  not\n    /* \"#utility.yul\":7550:7554   */\n  dup1\n    /* \"#utility.yul\":7544:7548   */\n  dup4\n    /* \"#utility.yul\":7540:7555   */\n  and\n    /* \"#utility.yul\":7530:7555   */\n  swap2\n  pop\n    /* \"#utility.yul\":7443:7561   */\n  pop\n    /* \"#utility.yul\":7392:7561   */\n  swap3\n  swap2\n  pop\n  pop\n  jump\t// out\n    /* \"#utility.yul\":7566:7861   */\ntag_52:\n    /* \"#utility.yul\":7642:7646   */\n  0x00\n    /* \"#utility.yul\":7788:7817   */\n  tag_148\n    /* \"#utility.yul\":7813:7816   */\n  dup4\n    /* \"#utility.yul\":7807:7811   */\n  dup4\n    /* \"#utility.yul\":7788:7817   */\n  tag_51\n  jump\t// in\ntag_148:\n    /* \"#utility.yul\":7780:7817   */\n  swap2\n  pop\n    /* \"#utility.yul\":7850:7853   */\n  dup3\n    /* \"#utility.yul\":7847:7848   */\n  0x02\n    /* \"#utility.yul\":7843:7854   */\n  mul\n    /* \"#utility.yul\":7837:7841   */\n  dup3\n    /* \"#utility.yul\":7834:7855   */\n  or\n    /* \"#utility.yul\":7826:7855   */\n  swap1\n  pop\n    /* \"#utility.yul\":7566:7861   */\n  swap3\n  swap2\n  pop\n  pop\n  jump\t// out\n    /* \"#utility.yul\":7866:9261   */\ntag_13:\n    /* \"#utility.yul\":7983:8020   */\n  tag_150\n    /* \"#utility.yul\":8016:8019   */\n  dup3\n    /* \"#utility.yul\":7983:8020   */\n  tag_34\n  jump\t// in\ntag_150:\n    /* \"#utility.yul\":8085:8103   */\n  0xffffffffffffffff\n    /* \"#utility.yul\":8077:8083   */\n  dup2\n    /* \"#utility.yul\":8074:8104   */\n  gt\n    /* \"#utility.yul\":8071:8127   */\n  iszero\n  tag_151\n  jumpi\n    /* \"#utility.yul\":8107:8125   */\n  tag_152\n  tag_26\n  jump\t// in\ntag_152:\n    /* \"#utility.yul\":8071:8127   */\ntag_151:\n    /* \"#utility.yul\":8151:8189   */\n  tag_153\n    /* \"#utility.yul\":8183:8187   */\n  dup3\n    /* \"#utility.yul\":8177:8188   */\n  sload\n    /* \"#utility.yul\":8151:8189   */\n  tag_36\n  jump\t// in\ntag_153:\n    /* \"#utility.yul\":8236:8303   */\n  tag_154\n    /* \"#utility.yul\":8296:8302   */\n  dup3\n    /* \"#utility.yul\":8288:8294   */\n  dup3\n    /* \"#utility.yul\":8282:8286   */\n  dup6\n    /* \"#utility.yul\":8236:8303   */\n  tag_49\n  jump\t// in\ntag_154:\n    /* \"#utility.yul\":8330:8331   */\n  0x00\n    /* \"#utility.yul\":8354:8358   */\n  0x20\n    /* \"#utility.yul\":8341:8358   */\n  swap1\n  pop\n    /* \"#utility.yul\":8386:8388   */\n  0x1f\n    /* \"#utility.yul\":8378:8384   */\n  dup4\n    /* \"#utility.yul\":8375:8389   */\n  gt\n    /* \"#utility.yul\":8403:8404   */\n  0x01\n    /* \"#utility.yul\":8398:9016   */\n  dup2\n  eq\n  tag_156\n  jumpi\n    /* \"#utility.yul\":9060:9061   */\n  0x00\n    /* \"#utility.yul\":9077:9083   */\n  dup5\n    /* \"#utility.yul\":9074:9151   */\n  iszero\n  tag_157\n  jumpi\n    /* \"#utility.yul\":9126:9135   */\n  dup3\n    /* \"#utility.yul\":9121:9124   */\n  dup8\n    /* \"#utility.yul\":9117:9136   */\n  add\n    /* \"#utility.yul\":9111:9137   */\n  mload\n    /* \"#utility.yul\":9102:9137   */\n  swap1\n  pop\n    /* \"#utility.yul\":9074:9151   */\ntag_157:\n    /* \"#utility.yul\":9177:9244   */\n  tag_158\n    /* \"#utility.yul\":9237:9243   */\n  dup6\n    /* \"#utility.yul\":9230:9235   */\n  dup3\n    /* \"#utility.yul\":9177:9244   */\n  tag_52\n  jump\t// in\ntag_158:\n    /* \"#utility.yul\":9171:9175   */\n  dup7\n    /* \"#utility.yul\":9164:9245   */\n  sstore\n    /* \"#utility.yul\":9033:9255   */\n  pop\n    /* \"#utility.yul\":8368:9255   */\n  jump(tag_155)\n    /* \"#utility.yul\":8398:9016   */\ntag_156:\n    /* \"#utility.yul\":8450:8454   */\n  0x1f\n    /* \"#utility.yul\":8446:8455   */\n  not\n    /* \"#utility.yul\":8438:8444   */\n  dup5\n    /* \"#utility.yul\":8434:8456   */\n  and\n    /* \"#utility.yul\":8484:8521   */\n  tag_159\n    /* \"#utility.yul\":8516:8520   */\n  dup7\n    /* \"#utility.yul\":8484:8521   */\n  tag_37\n  jump\t// in\ntag_159:\n    /* \"#utility.yul\":8543:8544   */\n  0x00\n    /* \"#utility.yul\":8557:8765   */\ntag_160:\n    /* \"#utility.yul\":8571:8578   */\n  dup3\n    /* \"#utility.yul\":8568:8569   */\n  dup2\n    /* \"#utility.yul\":8565:8579   */\n  lt\n    /* \"#utility.yul\":8557:8765   */\n  iszero\n  tag_162\n  jumpi\n    /* \"#utility.yul\":8650:8659   */\n  dup5\n    /* \"#utility.yul\":8645:8648   */\n  dup10\n    /* \"#utility.yul\":8641:8660   */\n  add\n    /* \"#utility.yul\":8635:8661   */\n  mload\n    /* \"#utility.yul\":8627:8633   */\n  dup3\n    /* \"#utility.yul\":8620:8662   */\n  sstore\n    /* \"#utility.yul\":8701:8702   */\n  0x01\n    /* \"#utility.yul\":8693:8699   */\n  dup3\n    /* \"#utility.yul\":8689:8703   */\n  add\n    /* \"#utility.yul\":8679:8703   */\n  swap2\n  pop\n    /* \"#utility.yul\":8748:8750   */\n  0x20\n    /* \"#utility.yul\":8737:8746   */\n  dup6\n    /* \"#utility.yul\":8733:8751   */\n  add\n    /* \"#utility.yul\":8720:8751   */\n  swap5\n  pop\n    /* \"#utility.yul\":8594:8598   */\n  0x20\n    /* \"#utility.yul\":8591:8592   */\n  dup2\n    /* \"#utility.yul\":8587:8599   */\n  add\n    /* \"#utility.yul\":8582:8599   */\n  swap1\n  pop\n    /* \"#utility.yul\":8557:8765   */\n  jump(tag_160)\ntag_162:\n    /* \"#utility.yul\":8793:8799   */\n  dup7\n    /* \"#utility.yul\":8784:8791   */\n  dup4\n    /* \"#utility.yul\":8781:8800   */\n  lt\n    /* \"#utility.yul\":8778:8957   */\n  iszero\n  tag_163\n  jumpi\n    /* \"#utility.yul\":8851:8860   */\n  dup5\n    /* \"#utility.yul\":8846:8849   */\n  dup10\n    /* \"#utility.yul\":8842:8861   */\n  add\n    /* \"#utility.yul\":8836:8862   */\n  mload\n    /* \"#utility.yul\":8894:8942   */\n  tag_164\n    /* \"#utility.yul\":8936:8940   */\n  0x1f\n    /* \"#utility.yul\":8928:8934   */\n  dup10\n    /* \"#utility.yul\":8924:8941   */\n  and\n    /* \"#utility.yul\":8913:8922   */\n  dup3\n    /* \"#utility.yul\":8894:8942   */\n  tag_51\n  jump\t// in\ntag_164:\n    /* \"#utility.yul\":8886:8892   */\n  dup4\n    /* \"#utility.yul\":8879:8943   */\n  sstore\n    /* \"#utility.yul\":8801:8957   */\n  pop\n    /* \"#utility.yul\":8778:8957   */\ntag_163:\n    /* \"#utility.yul\":9003:9004   */\n  0x01\n    /* \"#utility.yul\":8999:9000   */\n  0x02\n    /* \"#utility.yul\":8991:8997   */\n  dup9\n    /* \"#utility.yul\":8987:9001   */\n  mul\n    /* \"#utility.yul\":8983:9005   */\n  add\n    /* \"#utility.yul\":8977:8981   */\n  dup9\n    /* \"#utility.yul\":8970:9006   */\n  sstore\n    /* \"#utility.yul\":8405:9016   */\n  pop\n  pop\n  pop\n    /* \"#utility.yul\":8368:9255   */\ntag_155:\n  pop\n    /* \"#utility.yul\":7958:9261   */\n  pop\n  pop\n  pop\n    /* \"#utility.yul\":7866:9261   */\n  pop\n  pop\n  jump\t// out\n    /* \"contracts/Donation.sol\":109:1759  contract Donation is Ownable {... */\ntag_14:\n  mload(0x80)\n  codecopy(0x00, dataOffset(sub_0), dataSize(sub_0))\n  0x00\n  assignImmutable(\"0x9d6b7fbd0ded42ab14e47300e428df3f38e4fbb3a7f790d898a87bff4f86606b\")\n  return(0x00, dataSize(sub_0))\nstop\n\nsub_0: assembly {\n        /* \"contracts/Donation.sol\":109:1759  contract Donation is Ownable {... */\n      mstore(0x40, 0x80)\n      jumpi(tag_1, lt(calldatasize, 0x04))\n      shr(0xe0, calldataload(0x00))\n      dup1\n      0xbf1482fa\n      gt\n      tag_12\n      jumpi\n      dup1\n      0xbf1482fa\n      eq\n      tag_7\n      jumpi\n      dup1\n      0xd5ee1557\n      eq\n      tag_8\n      jumpi\n      dup1\n      0xed88c68e\n      eq\n      tag_9\n      jumpi\n      dup1\n      0xf2fde38b\n      eq\n      tag_10\n      jumpi\n      dup1\n      0xf3a01489\n      eq\n      tag_11\n      jumpi\n      jump(tag_2)\n    tag_12:\n      dup1\n      0x0bcd177e\n      eq\n      tag_3\n      jumpi\n      dup1\n      0x715018a6\n      eq\n      tag_4\n      jumpi\n      dup1\n      0x7284e416\n      eq\n      tag_5\n      jumpi\n      dup1\n      0x8da5cb5b\n      eq\n      tag_6\n      jumpi\n      jump(tag_2)\n    tag_1:\n      jumpi(tag_2, calldatasize)\n        /* \"contracts/Donation.sol\":1727:1737  msg.sender */\n      caller\n        /* \"contracts/Donation.sol\":1718:1749  Transfer(msg.sender, msg.value) */\n      0xffffffffffffffffffffffffffffffffffffffff\n      and\n      0x69ca02dd4edd7bf0a4abb9ed3b7af3f14778db5d61921c7dc7cd545266326de2\n        /* \"contracts/Donation.sol\":1739:1748  msg.value */\n      callvalue\n        /* \"contracts/Donation.sol\":1718:1749  Transfer(msg.sender, msg.value) */\n      mload(0x40)\n      tag_15\n      swap2\n      swap1\n      tag_16\n      jump\t// in\n    tag_15:\n      mload(0x40)\n      dup1\n      swap2\n      sub\n      swap1\n      log2\n        /* \"contracts/Donation.sol\":109:1759  contract Donation is Ownable {... */\n      stop\n    tag_2:\n      0x00\n      dup1\n      revert\n        /* \"contracts/Donation.sol\":1082:1450  function sendFundsToReceiver(uint256 amount) external onlyOwner {... */\n    tag_3:\n      callvalue\n      dup1\n      iszero\n      tag_17\n      jumpi\n      0x00\n      dup1\n      revert\n    tag_17:\n      pop\n      tag_18\n      0x04\n      dup1\n      calldatasize\n      sub\n      dup2\n      add\n      swap1\n      tag_19\n      swap2\n      swap1\n      tag_20\n      jump\t// in\n    tag_19:\n      tag_21\n      jump\t// in\n    tag_18:\n      stop\n        /* \"@openzeppelin/contracts/access/Ownable.sol\":2293:2394  function renounceOwnership() public virtual onlyOwner {... */\n    tag_4:\n      callvalue\n      dup1\n      iszero\n      tag_22\n      jumpi\n      0x00\n      dup1\n      revert\n    tag_22:\n      pop\n      tag_23\n      tag_24\n      jump\t// in\n    tag_23:\n      stop\n        /* \"contracts/Donation.sol\":281:306  string public description */\n    tag_5:\n      callvalue\n      dup1\n      iszero\n      tag_25\n      jumpi\n      0x00\n      dup1\n      revert\n    tag_25:\n      pop\n      tag_26\n      tag_27\n      jump\t// in\n    tag_26:\n      mload(0x40)\n      tag_28\n      swap2\n      swap1\n      tag_29\n      jump\t// in\n    tag_28:\n      mload(0x40)\n      dup1\n      swap2\n      sub\n      swap1\n      return\n        /* \"@openzeppelin/contracts/access/Ownable.sol\":1638:1723  function owner() public view virtual returns (address) {... */\n    tag_6:\n      callvalue\n      dup1\n      iszero\n      tag_30\n      jumpi\n      0x00\n      dup1\n      revert\n    tag_30:\n      pop\n      tag_31\n      tag_32\n      jump\t// in\n    tag_31:\n      mload(0x40)\n      tag_33\n      swap2\n      swap1\n      tag_34\n      jump\t// in\n    tag_33:\n      mload(0x40)\n      dup1\n      swap2\n      sub\n      swap1\n      return\n        /* \"contracts/Donation.sol\":1460:1562  function getDonators() external view returns(address[] memory){... */\n    tag_7:\n      callvalue\n      dup1\n      iszero\n      tag_35\n      jumpi\n      0x00\n      dup1\n      revert\n    tag_35:\n      pop\n      tag_36\n      tag_37\n      jump\t// in\n    tag_36:\n      mload(0x40)\n      tag_38\n      swap2\n      swap1\n      tag_39\n      jump\t// in\n    tag_38:\n      mload(0x40)\n      dup1\n      swap2\n      sub\n      swap1\n      return\n        /* \"contracts/Donation.sol\":233:275  address public immutable donationsReceiver */\n    tag_8:\n      callvalue\n      dup1\n      iszero\n      tag_40\n      jumpi\n      0x00\n      dup1\n      revert\n    tag_40:\n      pop\n      tag_41\n      tag_42\n      jump\t// in\n    tag_41:\n      mload(0x40)\n      tag_43\n      swap2\n      swap1\n      tag_34\n      jump\t// in\n    tag_43:\n      mload(0x40)\n      dup1\n      swap2\n      sub\n      swap1\n      return\n        /* \"contracts/Donation.sol\":706:1076  function donate() external payable {... */\n    tag_9:\n      tag_44\n      tag_45\n      jump\t// in\n    tag_44:\n      stop\n        /* \"@openzeppelin/contracts/access/Ownable.sol\":2543:2758  function transferOwnership(address newOwner) public virtual onlyOwner {... */\n    tag_10:\n      callvalue\n      dup1\n      iszero\n      tag_46\n      jumpi\n      0x00\n      dup1\n      revert\n    tag_46:\n      pop\n      tag_47\n      0x04\n      dup1\n      calldatasize\n      sub\n      dup2\n      add\n      swap1\n      tag_48\n      swap2\n      swap1\n      tag_49\n      jump\t// in\n    tag_48:\n      tag_50\n      jump\t// in\n    tag_47:\n      stop\n        /* \"contracts/Donation.sol\":1567:1670  function getSumOfDonations() external view returns(uint256){... */\n    tag_11:\n      callvalue\n      dup1\n      iszero\n      tag_51\n      jumpi\n      0x00\n      dup1\n      revert\n    tag_51:\n      pop\n      tag_52\n      tag_53\n      jump\t// in\n    tag_52:\n      mload(0x40)\n      tag_54\n      swap2\n      swap1\n      tag_16\n      jump\t// in\n    tag_54:\n      mload(0x40)\n      dup1\n      swap2\n      sub\n      swap1\n      return\n        /* \"contracts/Donation.sol\":1082:1450  function sendFundsToReceiver(uint256 amount) external onlyOwner {... */\n    tag_21:\n        /* \"@openzeppelin/contracts/access/Ownable.sol\":1531:1544  _checkOwner() */\n      tag_56\n        /* \"@openzeppelin/contracts/access/Ownable.sol\":1531:1542  _checkOwner */\n      tag_57\n        /* \"@openzeppelin/contracts/access/Ownable.sol\":1531:1544  _checkOwner() */\n      jump\t// in\n    tag_56:\n        /* \"contracts/Donation.sol\":1169:1190  address(this).balance */\n      selfbalance\n        /* \"contracts/Donation.sol\":1160:1166  amount */\n      dup2\n        /* \"contracts/Donation.sol\":1160:1190  amount > address(this).balance */\n      gt\n        /* \"contracts/Donation.sol\":1156:1251  if (amount > address(this).balance ){... */\n      iszero\n      tag_59\n      jumpi\n        /* \"contracts/Donation.sol\":1229:1239  msg.sender */\n      caller\n        /* \"contracts/Donation.sol\":1213:1240  ZeroAmountError(msg.sender) */\n      mload(0x40)\n      0x30e8fb4300000000000000000000000000000000000000000000000000000000\n      dup2\n      mstore\n      0x04\n      add\n      tag_60\n      swap2\n      swap1\n      tag_34\n      jump\t// in\n    tag_60:\n      mload(0x40)\n      dup1\n      swap2\n      sub\n      swap1\n      revert\n        /* \"contracts/Donation.sol\":1156:1251  if (amount > address(this).balance ){... */\n    tag_59:\n        /* \"contracts/Donation.sol\":1260:1269  bool sent */\n      0x00\n        /* \"contracts/Donation.sol\":1280:1297  donationsReceiver */\n      immutable(\"0x9d6b7fbd0ded42ab14e47300e428df3f38e4fbb3a7f790d898a87bff4f86606b\")\n        /* \"contracts/Donation.sol\":1272:1303  payable(donationsReceiver).send */\n      0xffffffffffffffffffffffffffffffffffffffff\n      and\n        /* \"contracts/Donation.sol\":1272:1311  payable(donationsReceiver).send(amount) */\n      0x08fc\n        /* \"contracts/Donation.sol\":1304:1310  amount */\n      dup4\n        /* \"contracts/Donation.sol\":1272:1311  payable(donationsReceiver).send(amount) */\n      swap1\n      dup2\n      iszero\n      mul\n      swap1\n      mload(0x40)\n      0x00\n      mload(0x40)\n      dup1\n      dup4\n      sub\n      dup2\n      dup6\n      dup9\n      dup9\n      call\n      swap4\n      pop\n      pop\n      pop\n      pop\n        /* \"contracts/Donation.sol\":1260:1311  bool sent = payable(donationsReceiver).send(amount) */\n      swap1\n      pop\n        /* \"contracts/Donation.sol\":1334:1338  sent */\n      dup1\n        /* \"contracts/Donation.sol\":1331:1435  if(sent){... */\n      iszero\n      tag_62\n      jumpi\n        /* \"contracts/Donation.sol\":1367:1377  msg.sender */\n      caller\n        /* \"contracts/Donation.sol\":1358:1386  Transfer(msg.sender, amount) */\n      0xffffffffffffffffffffffffffffffffffffffff\n      and\n      0x69ca02dd4edd7bf0a4abb9ed3b7af3f14778db5d61921c7dc7cd545266326de2\n        /* \"contracts/Donation.sol\":1379:1385  amount */\n      dup4\n        /* \"contracts/Donation.sol\":1358:1386  Transfer(msg.sender, amount) */\n      mload(0x40)\n      tag_63\n      swap2\n      swap1\n      tag_16\n      jump\t// in\n    tag_63:\n      mload(0x40)\n      dup1\n      swap2\n      sub\n      swap1\n      log2\n        /* \"contracts/Donation.sol\":1331:1435  if(sent){... */\n      jump(tag_64)\n    tag_62:\n        /* \"contracts/Donation.sol\":1416:1424  revert() */\n      0x00\n      dup1\n      revert\n        /* \"contracts/Donation.sol\":1331:1435  if(sent){... */\n    tag_64:\n        /* \"contracts/Donation.sol\":1146:1450  {... */\n      pop\n        /* \"contracts/Donation.sol\":1082:1450  function sendFundsToReceiver(uint256 amount) external onlyOwner {... */\n      pop\n      jump\t// out\n        /* \"@openzeppelin/contracts/access/Ownable.sol\":2293:2394  function renounceOwnership() public virtual onlyOwner {... */\n    tag_24:\n        /* \"@openzeppelin/contracts/access/Ownable.sol\":1531:1544  _checkOwner() */\n      tag_66\n        /* \"@openzeppelin/contracts/access/Ownable.sol\":1531:1542  _checkOwner */\n      tag_57\n        /* \"@openzeppelin/contracts/access/Ownable.sol\":1531:1544  _checkOwner() */\n      jump\t// in\n    tag_66:\n        /* \"@openzeppelin/contracts/access/Ownable.sol\":2357:2387  _transferOwnership(address(0)) */\n      tag_68\n        /* \"@openzeppelin/contracts/access/Ownable.sol\":2384:2385  0 */\n      0x00\n        /* \"@openzeppelin/contracts/access/Ownable.sol\":2357:2375  _transferOwnership */\n      tag_69\n        /* \"@openzeppelin/contracts/access/Ownable.sol\":2357:2387  _transferOwnership(address(0)) */\n      jump\t// in\n    tag_68:\n        /* \"@openzeppelin/contracts/access/Ownable.sol\":2293:2394  function renounceOwnership() public virtual onlyOwner {... */\n      jump\t// out\n        /* \"contracts/Donation.sol\":281:306  string public description */\n    tag_27:\n      0x04\n      dup1\n      sload\n      tag_70\n      swap1\n      tag_71\n      jump\t// in\n    tag_70:\n      dup1\n      0x1f\n      add\n      0x20\n      dup1\n      swap2\n      div\n      mul\n      0x20\n      add\n      mload(0x40)\n      swap1\n      dup2\n      add\n      0x40\n      mstore\n      dup1\n      swap3\n      swap2\n      swap1\n      dup2\n      dup2\n      mstore\n      0x20\n      add\n      dup3\n      dup1\n      sload\n      tag_72\n      swap1\n      tag_71\n      jump\t// in\n    tag_72:\n      dup1\n      iszero\n      tag_73\n      jumpi\n      dup1\n      0x1f\n      lt\n      tag_74\n      jumpi\n      0x0100\n      dup1\n      dup4\n      sload\n      div\n      mul\n      dup4\n      mstore\n      swap2\n      0x20\n      add\n      swap2\n      jump(tag_73)\n    tag_74:\n      dup3\n      add\n      swap2\n      swap1\n      0x00\n      mstore\n      keccak256(0x00, 0x20)\n      swap1\n    tag_75:\n      dup2\n      sload\n      dup2\n      mstore\n      swap1\n      0x01\n      add\n      swap1\n      0x20\n      add\n      dup1\n      dup4\n      gt\n      tag_75\n      jumpi\n      dup3\n      swap1\n      sub\n      0x1f\n      and\n      dup3\n      add\n      swap2\n    tag_73:\n      pop\n      pop\n      pop\n      pop\n      pop\n      dup2\n      jump\t// out\n        /* \"@openzeppelin/contracts/access/Ownable.sol\":1638:1723  function owner() public view virtual returns (address) {... */\n    tag_32:\n        /* \"@openzeppelin/contracts/access/Ownable.sol\":1684:1691  address */\n      0x00\n        /* \"@openzeppelin/contracts/access/Ownable.sol\":1710:1716  _owner */\n      dup1\n      0x00\n      swap1\n      sload\n      swap1\n      0x0100\n      exp\n      swap1\n      div\n      0xffffffffffffffffffffffffffffffffffffffff\n      and\n        /* \"@openzeppelin/contracts/access/Ownable.sol\":1703:1716  return _owner */\n      swap1\n      pop\n        /* \"@openzeppelin/contracts/access/Ownable.sol\":1638:1723  function owner() public view virtual returns (address) {... */\n      swap1\n      jump\t// out\n        /* \"contracts/Donation.sol\":1460:1562  function getDonators() external view returns(address[] memory){... */\n    tag_37:\n        /* \"contracts/Donation.sol\":1505:1521  address[] memory */\n      0x60\n        /* \"contracts/Donation.sol\":1539:1555  charityAddresses */\n      0x03\n        /* \"contracts/Donation.sol\":1532:1555  return charityAddresses */\n      dup1\n      sload\n      dup1\n      0x20\n      mul\n      0x20\n      add\n      mload(0x40)\n      swap1\n      dup2\n      add\n      0x40\n      mstore\n      dup1\n      swap3\n      swap2\n      swap1\n      dup2\n      dup2\n      mstore\n      0x20\n      add\n      dup3\n      dup1\n      sload\n      dup1\n      iszero\n      tag_78\n      jumpi\n      0x20\n      mul\n      dup3\n      add\n      swap2\n      swap1\n      0x00\n      mstore\n      keccak256(0x00, 0x20)\n      swap1\n    tag_79:\n      dup2\n      0x00\n      swap1\n      sload\n      swap1\n      0x0100\n      exp\n      swap1\n      div\n      0xffffffffffffffffffffffffffffffffffffffff\n      and\n      0xffffffffffffffffffffffffffffffffffffffff\n      and\n      dup2\n      mstore\n      0x20\n      add\n      swap1\n      0x01\n      add\n      swap1\n      dup1\n      dup4\n      gt\n      tag_79\n      jumpi\n    tag_78:\n      pop\n      pop\n      pop\n      pop\n      pop\n      swap1\n      pop\n        /* \"contracts/Donation.sol\":1460:1562  function getDonators() external view returns(address[] memory){... */\n      swap1\n      jump\t// out\n        /* \"contracts/Donation.sol\":233:275  address public immutable donationsReceiver */\n    tag_42:\n      immutable(\"0x9d6b7fbd0ded42ab14e47300e428df3f38e4fbb3a7f790d898a87bff4f86606b\")\n      dup2\n      jump\t// out\n        /* \"contracts/Donation.sol\":706:1076  function donate() external payable {... */\n    tag_45:\n        /* \"contracts/Donation.sol\":767:768  0 */\n      0x00\n        /* \"contracts/Donation.sol\":754:763  msg.value */\n      callvalue\n        /* \"contracts/Donation.sol\":754:768  msg.value <= 0 */\n      gt\n        /* \"contracts/Donation.sol\":751:830  if(msg.value <= 0) { ... */\n      tag_81\n      jumpi\n        /* \"contracts/Donation.sol\":808:818  msg.sender */\n      caller\n        /* \"contracts/Donation.sol\":792:819  ZeroAmountError(msg.sender) */\n      mload(0x40)\n      0x30e8fb4300000000000000000000000000000000000000000000000000000000\n      dup2\n      mstore\n      0x04\n      add\n      tag_82\n      swap2\n      swap1\n      tag_34\n      jump\t// in\n    tag_82:\n      mload(0x40)\n      dup1\n      swap2\n      sub\n      swap1\n      revert\n        /* \"contracts/Donation.sol\":751:830  if(msg.value <= 0) { ... */\n    tag_81:\n        /* \"contracts/Donation.sol\":868:869  0 */\n      0x00\n        /* \"contracts/Donation.sol\":842:852  _donations */\n      0x05\n        /* \"contracts/Donation.sol\":842:864  _donations[msg.sender] */\n      0x00\n        /* \"contracts/Donation.sol\":853:863  msg.sender */\n      caller\n        /* \"contracts/Donation.sol\":842:864  _donations[msg.sender] */\n      0xffffffffffffffffffffffffffffffffffffffff\n      and\n      0xffffffffffffffffffffffffffffffffffffffff\n      and\n      dup2\n      mstore\n      0x20\n      add\n      swap1\n      dup2\n      mstore\n      0x20\n      add\n      0x00\n      keccak256\n      sload\n        /* \"contracts/Donation.sol\":842:869  _donations[msg.sender] == 0 */\n      sub\n        /* \"contracts/Donation.sol\":839:928  if(_donations[msg.sender] == 0){... */\n      tag_83\n      jumpi\n        /* \"contracts/Donation.sol\":884:900  charityAddresses */\n      0x03\n        /* \"contracts/Donation.sol\":906:916  msg.sender */\n      caller\n        /* \"contracts/Donation.sol\":884:917  charityAddresses.push(msg.sender) */\n      swap1\n      dup1\n      0x01\n      dup2\n      sload\n      add\n      dup1\n      dup3\n      sstore\n      dup1\n      swap2\n      pop\n      pop\n      0x01\n      swap1\n      sub\n      swap1\n      0x00\n      mstore\n      keccak256(0x00, 0x20)\n      add\n      0x00\n      swap1\n      swap2\n      swap1\n      swap2\n      swap1\n      swap2\n      0x0100\n      exp\n      dup2\n      sload\n      dup2\n      0xffffffffffffffffffffffffffffffffffffffff\n      mul\n      not\n      and\n      swap1\n      dup4\n      0xffffffffffffffffffffffffffffffffffffffff\n      and\n      mul\n      or\n      swap1\n      sstore\n      pop\n        /* \"contracts/Donation.sol\":839:928  if(_donations[msg.sender] == 0){... */\n    tag_83:\n        /* \"contracts/Donation.sol\":963:972  msg.value */\n      callvalue\n        /* \"contracts/Donation.sol\":937:947  _donations */\n      0x05\n        /* \"contracts/Donation.sol\":937:959  _donations[msg.sender] */\n      0x00\n        /* \"contracts/Donation.sol\":948:958  msg.sender */\n      caller\n        /* \"contracts/Donation.sol\":937:959  _donations[msg.sender] */\n      0xffffffffffffffffffffffffffffffffffffffff\n      and\n      0xffffffffffffffffffffffffffffffffffffffff\n      and\n      dup2\n      mstore\n      0x20\n      add\n      swap1\n      dup2\n      mstore\n      0x20\n      add\n      0x00\n      keccak256\n      0x00\n        /* \"contracts/Donation.sol\":937:972  _donations[msg.sender] += msg.value */\n      dup3\n      dup3\n      sload\n      tag_85\n      swap2\n      swap1\n      tag_86\n      jump\t// in\n    tag_85:\n      swap3\n      pop\n      pop\n      dup2\n      swap1\n      sstore\n      pop\n        /* \"contracts/Donation.sol\":1006:1015  msg.value */\n      callvalue\n        /* \"contracts/Donation.sol\":982:1002  totalDonationsAmount */\n      0x01\n      0x00\n        /* \"contracts/Donation.sol\":982:1015  totalDonationsAmount += msg.value */\n      dup3\n      dup3\n      sload\n      tag_87\n      swap2\n      swap1\n      tag_86\n      jump\t// in\n    tag_87:\n      swap3\n      pop\n      pop\n      dup2\n      swap1\n      sstore\n      pop\n        /* \"contracts/Donation.sol\":1039:1049  msg.sender */\n      caller\n        /* \"contracts/Donation.sol\":1030:1061  Transfer(msg.sender, msg.value) */\n      0xffffffffffffffffffffffffffffffffffffffff\n      and\n      0x69ca02dd4edd7bf0a4abb9ed3b7af3f14778db5d61921c7dc7cd545266326de2\n        /* \"contracts/Donation.sol\":1051:1060  msg.value */\n      callvalue\n        /* \"contracts/Donation.sol\":1030:1061  Transfer(msg.sender, msg.value) */\n      mload(0x40)\n      tag_88\n      swap2\n      swap1\n      tag_16\n      jump\t// in\n    tag_88:\n      mload(0x40)\n      dup1\n      swap2\n      sub\n      swap1\n      log2\n        /* \"contracts/Donation.sol\":706:1076  function donate() external payable {... */\n      jump\t// out\n        /* \"@openzeppelin/contracts/access/Ownable.sol\":2543:2758  function transferOwnership(address newOwner) public virtual onlyOwner {... */\n    tag_50:\n        /* \"@openzeppelin/contracts/access/Ownable.sol\":1531:1544  _checkOwner() */\n      tag_90\n        /* \"@openzeppelin/contracts/access/Ownable.sol\":1531:1542  _checkOwner */\n      tag_57\n        /* \"@openzeppelin/contracts/access/Ownable.sol\":1531:1544  _checkOwner() */\n      jump\t// in\n    tag_90:\n        /* \"@openzeppelin/contracts/access/Ownable.sol\":2647:2648  0 */\n      0x00\n        /* \"@openzeppelin/contracts/access/Ownable.sol\":2627:2649  newOwner == address(0) */\n      0xffffffffffffffffffffffffffffffffffffffff\n      and\n        /* \"@openzeppelin/contracts/access/Ownable.sol\":2627:2635  newOwner */\n      dup2\n        /* \"@openzeppelin/contracts/access/Ownable.sol\":2627:2649  newOwner == address(0) */\n      0xffffffffffffffffffffffffffffffffffffffff\n      and\n      sub\n        /* \"@openzeppelin/contracts/access/Ownable.sol\":2623:2714  if (newOwner == address(0)) {... */\n      tag_92\n      jumpi\n        /* \"@openzeppelin/contracts/access/Ownable.sol\":2700:2701  0 */\n      0x00\n        /* \"@openzeppelin/contracts/access/Ownable.sol\":2672:2703  OwnableInvalidOwner(address(0)) */\n      mload(0x40)\n      0x1e4fbdf700000000000000000000000000000000000000000000000000000000\n      dup2\n      mstore\n      0x04\n      add\n      tag_93\n      swap2\n      swap1\n      tag_34\n      jump\t// in\n    tag_93:\n      mload(0x40)\n      dup1\n      swap2\n      sub\n      swap1\n      revert\n        /* \"@openzeppelin/contracts/access/Ownable.sol\":2623:2714  if (newOwner == address(0)) {... */\n    tag_92:\n        /* \"@openzeppelin/contracts/access/Ownable.sol\":2723:2751  _transferOwnership(newOwner) */\n      tag_94\n        /* \"@openzeppelin/contracts/access/Ownable.sol\":2742:2750  newOwner */\n      dup2\n        /* \"@openzeppelin/contracts/access/Ownable.sol\":2723:2741  _transferOwnership */\n      tag_69\n        /* \"@openzeppelin/contracts/access/Ownable.sol\":2723:2751  _transferOwnership(newOwner) */\n      jump\t// in\n    tag_94:\n        /* \"@openzeppelin/contracts/access/Ownable.sol\":2543:2758  function transferOwnership(address newOwner) public virtual onlyOwner {... */\n      pop\n      jump\t// out\n        /* \"contracts/Donation.sol\":1567:1670  function getSumOfDonations() external view returns(uint256){... */\n    tag_53:\n        /* \"contracts/Donation.sol\":1618:1625  uint256 */\n      0x00\n        /* \"contracts/Donation.sol\":1643:1663  totalDonationsAmount */\n      sload(0x01)\n        /* \"contracts/Donation.sol\":1636:1663  return totalDonationsAmount */\n      swap1\n      pop\n        /* \"contracts/Donation.sol\":1567:1670  function getSumOfDonations() external view returns(uint256){... */\n      swap1\n      jump\t// out\n        /* \"@openzeppelin/contracts/access/Ownable.sol\":1796:1958  function _checkOwner() internal view virtual {... */\n    tag_57:\n        /* \"@openzeppelin/contracts/access/Ownable.sol\":1866:1878  _msgSender() */\n      tag_97\n        /* \"@openzeppelin/contracts/access/Ownable.sol\":1866:1876  _msgSender */\n      tag_98\n        /* \"@openzeppelin/contracts/access/Ownable.sol\":1866:1878  _msgSender() */\n      jump\t// in\n    tag_97:\n        /* \"@openzeppelin/contracts/access/Ownable.sol\":1855:1878  owner() != _msgSender() */\n      0xffffffffffffffffffffffffffffffffffffffff\n      and\n        /* \"@openzeppelin/contracts/access/Ownable.sol\":1855:1862  owner() */\n      tag_99\n        /* \"@openzeppelin/contracts/access/Ownable.sol\":1855:1860  owner */\n      tag_32\n        /* \"@openzeppelin/contracts/access/Ownable.sol\":1855:1862  owner() */\n      jump\t// in\n    tag_99:\n        /* \"@openzeppelin/contracts/access/Ownable.sol\":1855:1878  owner() != _msgSender() */\n      0xffffffffffffffffffffffffffffffffffffffff\n      and\n      eq\n        /* \"@openzeppelin/contracts/access/Ownable.sol\":1851:1952  if (owner() != _msgSender()) {... */\n      tag_100\n      jumpi\n        /* \"@openzeppelin/contracts/access/Ownable.sol\":1928:1940  _msgSender() */\n      tag_101\n        /* \"@openzeppelin/contracts/access/Ownable.sol\":1928:1938  _msgSender */\n      tag_98\n        /* \"@openzeppelin/contracts/access/Ownable.sol\":1928:1940  _msgSender() */\n      jump\t// in\n    tag_101:\n        /* \"@openzeppelin/contracts/access/Ownable.sol\":1901:1941  OwnableUnauthorizedAccount(_msgSender()) */\n      mload(0x40)\n      0x118cdaa700000000000000000000000000000000000000000000000000000000\n      dup2\n      mstore\n      0x04\n      add\n      tag_102\n      swap2\n      swap1\n      tag_34\n      jump\t// in\n    tag_102:\n      mload(0x40)\n      dup1\n      swap2\n      sub\n      swap1\n      revert\n        /* \"@openzeppelin/contracts/access/Ownable.sol\":1851:1952  if (owner() != _msgSender()) {... */\n    tag_100:\n        /* \"@openzeppelin/contracts/access/Ownable.sol\":1796:1958  function _checkOwner() internal view virtual {... */\n      jump\t// out\n        /* \"@openzeppelin/contracts/access/Ownable.sol\":2912:3099  function _transferOwnership(address newOwner) internal virtual {... */\n    tag_69:\n        /* \"@openzeppelin/contracts/access/Ownable.sol\":2985:3001  address oldOwner */\n      0x00\n        /* \"@openzeppelin/contracts/access/Ownable.sol\":3004:3010  _owner */\n      dup1\n      0x00\n      swap1\n      sload\n      swap1\n      0x0100\n      exp\n      swap1\n      div\n      0xffffffffffffffffffffffffffffffffffffffff\n      and\n        /* \"@openzeppelin/contracts/access/Ownable.sol\":2985:3010  address oldOwner = _owner */\n      swap1\n      pop\n        /* \"@openzeppelin/contracts/access/Ownable.sol\":3029:3037  newOwner */\n      dup2\n        /* \"@openzeppelin/contracts/access/Ownable.sol\":3020:3026  _owner */\n      0x00\n      dup1\n        /* \"@openzeppelin/contracts/access/Ownable.sol\":3020:3037  _owner = newOwner */\n      0x0100\n      exp\n      dup2\n      sload\n      dup2\n      0xffffffffffffffffffffffffffffffffffffffff\n      mul\n      not\n      and\n      swap1\n      dup4\n      0xffffffffffffffffffffffffffffffffffffffff\n      and\n      mul\n      or\n      swap1\n      sstore\n      pop\n        /* \"@openzeppelin/contracts/access/Ownable.sol\":3083:3091  newOwner */\n      dup2\n        /* \"@openzeppelin/contracts/access/Ownable.sol\":3052:3092  OwnershipTransferred(oldOwner, newOwner) */\n      0xffffffffffffffffffffffffffffffffffffffff\n      and\n        /* \"@openzeppelin/contracts/access/Ownable.sol\":3073:3081  oldOwner */\n      dup2\n        /* \"@openzeppelin/contracts/access/Ownable.sol\":3052:3092  OwnershipTransferred(oldOwner, newOwner) */\n      0xffffffffffffffffffffffffffffffffffffffff\n      and\n      0x8be0079c531659141344cd1fd0a4f28419497f9722a3daafe3b4186f6b6457e0\n      mload(0x40)\n      mload(0x40)\n      dup1\n      swap2\n      sub\n      swap1\n      log3\n        /* \"@openzeppelin/contracts/access/Ownable.sol\":2975:3099  {... */\n      pop\n        /* \"@openzeppelin/contracts/access/Ownable.sol\":2912:3099  function _transferOwnership(address newOwner) internal virtual {... */\n      pop\n      jump\t// out\n        /* \"@openzeppelin/contracts/utils/Context.sol\":656:752  function _msgSender() internal view virtual returns (address) {... */\n    tag_98:\n        /* \"@openzeppelin/contracts/utils/Context.sol\":709:716  address */\n      0x00\n        /* \"@openzeppelin/contracts/utils/Context.sol\":735:745  msg.sender */\n      caller\n        /* \"@openzeppelin/contracts/utils/Context.sol\":728:745  return msg.sender */\n      swap1\n      pop\n        /* \"@openzeppelin/contracts/utils/Context.sol\":656:752  function _msgSender() internal view virtual returns (address) {... */\n      swap1\n      jump\t// out\n        /* \"#utility.yul\":7:84   */\n    tag_105:\n        /* \"#utility.yul\":44:51   */\n      0x00\n        /* \"#utility.yul\":73:78   */\n      dup2\n        /* \"#utility.yul\":62:78   */\n      swap1\n      pop\n        /* \"#utility.yul\":7:84   */\n      swap2\n      swap1\n      pop\n      jump\t// out\n        /* \"#utility.yul\":90:208   */\n    tag_106:\n        /* \"#utility.yul\":177:201   */\n      tag_134\n        /* \"#utility.yul\":195:200   */\n      dup2\n        /* \"#utility.yul\":177:201   */\n      tag_105\n      jump\t// in\n    tag_134:\n        /* \"#utility.yul\":172:175   */\n      dup3\n        /* \"#utility.yul\":165:202   */\n      mstore\n        /* \"#utility.yul\":90:208   */\n      pop\n      pop\n      jump\t// out\n        /* \"#utility.yul\":214:436   */\n    tag_16:\n        /* \"#utility.yul\":307:311   */\n      0x00\n        /* \"#utility.yul\":345:347   */\n      0x20\n        /* \"#utility.yul\":334:343   */\n      dup3\n        /* \"#utility.yul\":330:348   */\n      add\n        /* \"#utility.yul\":322:348   */\n      swap1\n      pop\n        /* \"#utility.yul\":358:429   */\n      tag_136\n        /* \"#utility.yul\":426:427   */\n      0x00\n        /* \"#utility.yul\":415:424   */\n      dup4\n        /* \"#utility.yul\":411:428   */\n      add\n        /* \"#utility.yul\":402:408   */\n      dup5\n        /* \"#utility.yul\":358:429   */\n      tag_106\n      jump\t// in\n    tag_136:\n        /* \"#utility.yul\":214:436   */\n      swap3\n      swap2\n      pop\n      pop\n      jump\t// out\n        /* \"#utility.yul\":523:640   */\n    tag_108:\n        /* \"#utility.yul\":632:633   */\n      0x00\n        /* \"#utility.yul\":629:630   */\n      dup1\n        /* \"#utility.yul\":622:634   */\n      revert\n        /* \"#utility.yul\":769:891   */\n    tag_110:\n        /* \"#utility.yul\":842:866   */\n      tag_141\n        /* \"#utility.yul\":860:865   */\n      dup2\n        /* \"#utility.yul\":842:866   */\n      tag_105\n      jump\t// in\n    tag_141:\n        /* \"#utility.yul\":835:840   */\n      dup2\n        /* \"#utility.yul\":832:867   */\n      eq\n        /* \"#utility.yul\":822:885   */\n      tag_142\n      jumpi\n        /* \"#utility.yul\":881:882   */\n      0x00\n        /* \"#utility.yul\":878:879   */\n      dup1\n        /* \"#utility.yul\":871:883   */\n      revert\n        /* \"#utility.yul\":822:885   */\n    tag_142:\n        /* \"#utility.yul\":769:891   */\n      pop\n      jump\t// out\n        /* \"#utility.yul\":897:1036   */\n    tag_111:\n        /* \"#utility.yul\":943:948   */\n      0x00\n        /* \"#utility.yul\":981:987   */\n      dup2\n        /* \"#utility.yul\":968:988   */\n      calldataload\n        /* \"#utility.yul\":959:988   */\n      swap1\n      pop\n        /* \"#utility.yul\":997:1030   */\n      tag_144\n        /* \"#utility.yul\":1024:1029   */\n      dup2\n        /* \"#utility.yul\":997:1030   */\n      tag_110\n      jump\t// in\n    tag_144:\n        /* \"#utility.yul\":897:1036   */\n      swap3\n      swap2\n      pop\n      pop\n      jump\t// out\n        /* \"#utility.yul\":1042:1371   */\n    tag_20:\n        /* \"#utility.yul\":1101:1107   */\n      0x00\n        /* \"#utility.yul\":1150:1152   */\n      0x20\n        /* \"#utility.yul\":1138:1147   */\n      dup3\n        /* \"#utility.yul\":1129:1136   */\n      dup5\n        /* \"#utility.yul\":1125:1148   */\n      sub\n        /* \"#utility.yul\":1121:1153   */\n      slt\n        /* \"#utility.yul\":1118:1237   */\n      iszero\n      tag_146\n      jumpi\n        /* \"#utility.yul\":1156:1235   */\n      tag_147\n      tag_108\n      jump\t// in\n    tag_147:\n        /* \"#utility.yul\":1118:1237   */\n    tag_146:\n        /* \"#utility.yul\":1276:1277   */\n      0x00\n        /* \"#utility.yul\":1301:1354   */\n      tag_148\n        /* \"#utility.yul\":1346:1353   */\n      dup5\n        /* \"#utility.yul\":1337:1343   */\n      dup3\n        /* \"#utility.yul\":1326:1335   */\n      dup6\n        /* \"#utility.yul\":1322:1344   */\n      add\n        /* \"#utility.yul\":1301:1354   */\n      tag_111\n      jump\t// in\n    tag_148:\n        /* \"#utility.yul\":1291:1354   */\n      swap2\n      pop\n        /* \"#utility.yul\":1247:1364   */\n      pop\n        /* \"#utility.yul\":1042:1371   */\n      swap3\n      swap2\n      pop\n      pop\n      jump\t// out\n        /* \"#utility.yul\":1377:1476   */\n    tag_112:\n        /* \"#utility.yul\":1429:1435   */\n      0x00\n        /* \"#utility.yul\":1463:1468   */\n      dup2\n        /* \"#utility.yul\":1457:1469   */\n      mload\n        /* \"#utility.yul\":1447:1469   */\n      swap1\n      pop\n        /* \"#utility.yul\":1377:1476   */\n      swap2\n      swap1\n      pop\n      jump\t// out\n        /* \"#utility.yul\":1482:1651   */\n    tag_113:\n        /* \"#utility.yul\":1566:1577   */\n      0x00\n        /* \"#utility.yul\":1600:1606   */\n      dup3\n        /* \"#utility.yul\":1595:1598   */\n      dup3\n        /* \"#utility.yul\":1588:1607   */\n      mstore\n        /* \"#utility.yul\":1640:1644   */\n      0x20\n        /* \"#utility.yul\":1635:1638   */\n      dup3\n        /* \"#utility.yul\":1631:1645   */\n      add\n        /* \"#utility.yul\":1616:1645   */\n      swap1\n      pop\n        /* \"#utility.yul\":1482:1651   */\n      swap3\n      swap2\n      pop\n      pop\n      jump\t// out\n        /* \"#utility.yul\":1657:1903   */\n    tag_114:\n        /* \"#utility.yul\":1738:1739   */\n      0x00\n        /* \"#utility.yul\":1748:1861   */\n    tag_152:\n        /* \"#utility.yul\":1762:1768   */\n      dup4\n        /* \"#utility.yul\":1759:1760   */\n      dup2\n        /* \"#utility.yul\":1756:1769   */\n      lt\n        /* \"#utility.yul\":1748:1861   */\n      iszero\n      tag_154\n      jumpi\n        /* \"#utility.yul\":1847:1848   */\n      dup1\n        /* \"#utility.yul\":1842:1845   */\n      dup3\n        /* \"#utility.yul\":1838:1849   */\n      add\n        /* \"#utility.yul\":1832:1850   */\n      mload\n        /* \"#utility.yul\":1828:1829   */\n      dup2\n        /* \"#utility.yul\":1823:1826   */\n      dup5\n        /* \"#utility.yul\":1819:1830   */\n      add\n        /* \"#utility.yul\":1812:1851   */\n      mstore\n        /* \"#utility.yul\":1784:1786   */\n      0x20\n        /* \"#utility.yul\":1781:1782   */\n      dup2\n        /* \"#utility.yul\":1777:1787   */\n      add\n        /* \"#utility.yul\":1772:1787   */\n      swap1\n      pop\n        /* \"#utility.yul\":1748:1861   */\n      jump(tag_152)\n    tag_154:\n        /* \"#utility.yul\":1895:1896   */\n      0x00\n        /* \"#utility.yul\":1886:1892   */\n      dup5\n        /* \"#utility.yul\":1881:1884   */\n      dup5\n        /* \"#utility.yul\":1877:1893   */\n      add\n        /* \"#utility.yul\":1870:1897   */\n      mstore\n        /* \"#utility.yul\":1719:1903   */\n      pop\n        /* \"#utility.yul\":1657:1903   */\n      pop\n      pop\n      pop\n      jump\t// out\n        /* \"#utility.yul\":1909:2011   */\n    tag_115:\n        /* \"#utility.yul\":1950:1956   */\n      0x00\n        /* \"#utility.yul\":2001:2003   */\n      0x1f\n        /* \"#utility.yul\":1997:2004   */\n      not\n        /* \"#utility.yul\":1992:1994   */\n      0x1f\n        /* \"#utility.yul\":1985:1990   */\n      dup4\n        /* \"#utility.yul\":1981:1995   */\n      add\n        /* \"#utility.yul\":1977:2005   */\n      and\n        /* \"#utility.yul\":1967:2005   */\n      swap1\n      pop\n        /* \"#utility.yul\":1909:2011   */\n      swap2\n      swap1\n      pop\n      jump\t// out\n        /* \"#utility.yul\":2017:2394   */\n    tag_116:\n        /* \"#utility.yul\":2105:2108   */\n      0x00\n        /* \"#utility.yul\":2133:2172   */\n      tag_157\n        /* \"#utility.yul\":2166:2171   */\n      dup3\n        /* \"#utility.yul\":2133:2172   */\n      tag_112\n      jump\t// in\n    tag_157:\n        /* \"#utility.yul\":2188:2259   */\n      tag_158\n        /* \"#utility.yul\":2252:2258   */\n      dup2\n        /* \"#utility.yul\":2247:2250   */\n      dup6\n        /* \"#utility.yul\":2188:2259   */\n      tag_113\n      jump\t// in\n    tag_158:\n        /* \"#utility.yul\":2181:2259   */\n      swap4\n      pop\n        /* \"#utility.yul\":2268:2333   */\n      tag_159\n        /* \"#utility.yul\":2326:2332   */\n      dup2\n        /* \"#utility.yul\":2321:2324   */\n      dup6\n        /* \"#utility.yul\":2314:2318   */\n      0x20\n        /* \"#utility.yul\":2307:2312   */\n      dup7\n        /* \"#utility.yul\":2303:2319   */\n      add\n        /* \"#utility.yul\":2268:2333   */\n      tag_114\n      jump\t// in\n    tag_159:\n        /* \"#utility.yul\":2358:2387   */\n      tag_160\n        /* \"#utility.yul\":2380:2386   */\n      dup2\n        /* \"#utility.yul\":2358:2387   */\n      tag_115\n      jump\t// in\n    tag_160:\n        /* \"#utility.yul\":2353:2356   */\n      dup5\n        /* \"#utility.yul\":2349:2388   */\n      add\n        /* \"#utility.yul\":2342:2388   */\n      swap2\n      pop\n        /* \"#utility.yul\":2109:2394   */\n      pop\n        /* \"#utility.yul\":2017:2394   */\n      swap3\n      swap2\n      pop\n      pop\n      jump\t// out\n        /* \"#utility.yul\":2400:2713   */\n    tag_29:\n        /* \"#utility.yul\":2513:2517   */\n      0x00\n        /* \"#utility.yul\":2551:2553   */\n      0x20\n        /* \"#utility.yul\":2540:2549   */\n      dup3\n        /* \"#utility.yul\":2536:2554   */\n      add\n        /* \"#utility.yul\":2528:2554   */\n      swap1\n      pop\n        /* \"#utility.yul\":2600:2609   */\n      dup2\n        /* \"#utility.yul\":2594:2598   */\n      dup2\n        /* \"#utility.yul\":2590:2610   */\n      sub\n        /* \"#utility.yul\":2586:2587   */\n      0x00\n        /* \"#utility.yul\":2575:2584   */\n      dup4\n        /* \"#utility.yul\":2571:2588   */\n      add\n        /* \"#utility.yul\":2564:2611   */\n      mstore\n        /* \"#utility.yul\":2628:2706   */\n      tag_162\n        /* \"#utility.yul\":2701:2705   */\n      dup2\n        /* \"#utility.yul\":2692:2698   */\n      dup5\n        /* \"#utility.yul\":2628:2706   */\n      tag_116\n      jump\t// in\n    tag_162:\n        /* \"#utility.yul\":2620:2706   */\n      swap1\n      pop\n        /* \"#utility.yul\":2400:2713   */\n      swap3\n      swap2\n      pop\n      pop\n      jump\t// out\n        /* \"#utility.yul\":2719:2845   */\n    tag_117:\n        /* \"#utility.yul\":2756:2763   */\n      0x00\n        /* \"#utility.yul\":2796:2838   */\n      0xffffffffffffffffffffffffffffffffffffffff\n        /* \"#utility.yul\":2789:2794   */\n      dup3\n        /* \"#utility.yul\":2785:2839   */\n      and\n        /* \"#utility.yul\":2774:2839   */\n      swap1\n      pop\n        /* \"#utility.yul\":2719:2845   */\n      swap2\n      swap1\n      pop\n      jump\t// out\n        /* \"#utility.yul\":2851:2947   */\n    tag_118:\n        /* \"#utility.yul\":2888:2895   */\n      0x00\n        /* \"#utility.yul\":2917:2941   */\n      tag_165\n        /* \"#utility.yul\":2935:2940   */\n      dup3\n        /* \"#utility.yul\":2917:2941   */\n      tag_117\n      jump\t// in\n    tag_165:\n        /* \"#utility.yul\":2906:2941   */\n      swap1\n      pop\n        /* \"#utility.yul\":2851:2947   */\n      swap2\n      swap1\n      pop\n      jump\t// out\n        /* \"#utility.yul\":2953:3071   */\n    tag_119:\n        /* \"#utility.yul\":3040:3064   */\n      tag_167\n        /* \"#utility.yul\":3058:3063   */\n      dup2\n        /* \"#utility.yul\":3040:3064   */\n      tag_118\n      jump\t// in\n    tag_167:\n        /* \"#utility.yul\":3035:3038   */\n      dup3\n        /* \"#utility.yul\":3028:3065   */\n      mstore\n        /* \"#utility.yul\":2953:3071   */\n      pop\n      pop\n      jump\t// out\n        /* \"#utility.yul\":3077:3299   */\n    tag_34:\n        /* \"#utility.yul\":3170:3174   */\n      0x00\n        /* \"#utility.yul\":3208:3210   */\n      0x20\n        /* \"#utility.yul\":3197:3206   */\n      dup3\n        /* \"#utility.yul\":3193:3211   */\n      add\n        /* \"#utility.yul\":3185:3211   */\n      swap1\n      pop\n        /* \"#utility.yul\":3221:3292   */\n      tag_169\n        /* \"#utility.yul\":3289:3290   */\n      0x00\n        /* \"#utility.yul\":3278:3287   */\n      dup4\n        /* \"#utility.yul\":3274:3291   */\n      add\n        /* \"#utility.yul\":3265:3271   */\n      dup5\n        /* \"#utility.yul\":3221:3292   */\n      tag_119\n      jump\t// in\n    tag_169:\n        /* \"#utility.yul\":3077:3299   */\n      swap3\n      swap2\n      pop\n      pop\n      jump\t// out\n        /* \"#utility.yul\":3305:3419   */\n    tag_120:\n        /* \"#utility.yul\":3372:3378   */\n      0x00\n        /* \"#utility.yul\":3406:3411   */\n      dup2\n        /* \"#utility.yul\":3400:3412   */\n      mload\n        /* \"#utility.yul\":3390:3412   */\n      swap1\n      pop\n        /* \"#utility.yul\":3305:3419   */\n      swap2\n      swap1\n      pop\n      jump\t// out\n        /* \"#utility.yul\":3425:3609   */\n    tag_121:\n        /* \"#utility.yul\":3524:3535   */\n      0x00\n        /* \"#utility.yul\":3558:3564   */\n      dup3\n        /* \"#utility.yul\":3553:3556   */\n      dup3\n        /* \"#utility.yul\":3546:3565   */\n      mstore\n        /* \"#utility.yul\":3598:3602   */\n      0x20\n        /* \"#utility.yul\":3593:3596   */\n      dup3\n        /* \"#utility.yul\":3589:3603   */\n      add\n        /* \"#utility.yul\":3574:3603   */\n      swap1\n      pop\n        /* \"#utility.yul\":3425:3609   */\n      swap3\n      swap2\n      pop\n      pop\n      jump\t// out\n        /* \"#utility.yul\":3615:3747   */\n    tag_122:\n        /* \"#utility.yul\":3682:3686   */\n      0x00\n        /* \"#utility.yul\":3705:3708   */\n      dup2\n        /* \"#utility.yul\":3697:3708   */\n      swap1\n      pop\n        /* \"#utility.yul\":3735:3739   */\n      0x20\n        /* \"#utility.yul\":3730:3733   */\n      dup3\n        /* \"#utility.yul\":3726:3740   */\n      add\n        /* \"#utility.yul\":3718:3740   */\n      swap1\n      pop\n        /* \"#utility.yul\":3615:3747   */\n      swap2\n      swap1\n      pop\n      jump\t// out\n        /* \"#utility.yul\":3753:3861   */\n    tag_123:\n        /* \"#utility.yul\":3830:3854   */\n      tag_174\n        /* \"#utility.yul\":3848:3853   */\n      dup2\n        /* \"#utility.yul\":3830:3854   */\n      tag_118\n      jump\t// in\n    tag_174:\n        /* \"#utility.yul\":3825:3828   */\n      dup3\n        /* \"#utility.yul\":3818:3855   */\n      mstore\n        /* \"#utility.yul\":3753:3861   */\n      pop\n      pop\n      jump\t// out\n        /* \"#utility.yul\":3867:4046   */\n    tag_124:\n        /* \"#utility.yul\":3936:3946   */\n      0x00\n        /* \"#utility.yul\":3957:4003   */\n      tag_176\n        /* \"#utility.yul\":3999:4002   */\n      dup4\n        /* \"#utility.yul\":3991:3997   */\n      dup4\n        /* \"#utility.yul\":3957:4003   */\n      tag_123\n      jump\t// in\n    tag_176:\n        /* \"#utility.yul\":4035:4039   */\n      0x20\n        /* \"#utility.yul\":4030:4033   */\n      dup4\n        /* \"#utility.yul\":4026:4040   */\n      add\n        /* \"#utility.yul\":4012:4040   */\n      swap1\n      pop\n        /* \"#utility.yul\":3867:4046   */\n      swap3\n      swap2\n      pop\n      pop\n      jump\t// out\n        /* \"#utility.yul\":4052:4165   */\n    tag_125:\n        /* \"#utility.yul\":4122:4126   */\n      0x00\n        /* \"#utility.yul\":4154:4158   */\n      0x20\n        /* \"#utility.yul\":4149:4152   */\n      dup3\n        /* \"#utility.yul\":4145:4159   */\n      add\n        /* \"#utility.yul\":4137:4159   */\n      swap1\n      pop\n        /* \"#utility.yul\":4052:4165   */\n      swap2\n      swap1\n      pop\n      jump\t// out\n        /* \"#utility.yul\":4201:4933   */\n    tag_126:\n        /* \"#utility.yul\":4320:4323   */\n      0x00\n        /* \"#utility.yul\":4349:4403   */\n      tag_179\n        /* \"#utility.yul\":4397:4402   */\n      dup3\n        /* \"#utility.yul\":4349:4403   */\n      tag_120\n      jump\t// in\n    tag_179:\n        /* \"#utility.yul\":4419:4505   */\n      tag_180\n        /* \"#utility.yul\":4498:4504   */\n      dup2\n        /* \"#utility.yul\":4493:4496   */\n      dup6\n        /* \"#utility.yul\":4419:4505   */\n      tag_121\n      jump\t// in\n    tag_180:\n        /* \"#utility.yul\":4412:4505   */\n      swap4\n      pop\n        /* \"#utility.yul\":4529:4585   */\n      tag_181\n        /* \"#utility.yul\":4579:4584   */\n      dup4\n        /* \"#utility.yul\":4529:4585   */\n      tag_122\n      jump\t// in\n    tag_181:\n        /* \"#utility.yul\":4608:4615   */\n      dup1\n        /* \"#utility.yul\":4639:4640   */\n      0x00\n        /* \"#utility.yul\":4624:4908   */\n    tag_182:\n        /* \"#utility.yul\":4649:4655   */\n      dup4\n        /* \"#utility.yul\":4646:4647   */\n      dup2\n        /* \"#utility.yul\":4643:4656   */\n      lt\n        /* \"#utility.yul\":4624:4908   */\n      iszero\n      tag_184\n      jumpi\n        /* \"#utility.yul\":4725:4731   */\n      dup2\n        /* \"#utility.yul\":4719:4732   */\n      mload\n        /* \"#utility.yul\":4752:4815   */\n      tag_185\n        /* \"#utility.yul\":4811:4814   */\n      dup9\n        /* \"#utility.yul\":4796:4809   */\n      dup3\n        /* \"#utility.yul\":4752:4815   */\n      tag_124\n      jump\t// in\n    tag_185:\n        /* \"#utility.yul\":4745:4815   */\n      swap8\n      pop\n        /* \"#utility.yul\":4838:4898   */\n      tag_186\n        /* \"#utility.yul\":4891:4897   */\n      dup4\n        /* \"#utility.yul\":4838:4898   */\n      tag_125\n      jump\t// in\n    tag_186:\n        /* \"#utility.yul\":4828:4898   */\n      swap3\n      pop\n        /* \"#utility.yul\":4684:4908   */\n      pop\n        /* \"#utility.yul\":4671:4672   */\n      0x01\n        /* \"#utility.yul\":4668:4669   */\n      dup2\n        /* \"#utility.yul\":4664:4673   */\n      add\n        /* \"#utility.yul\":4659:4673   */\n      swap1\n      pop\n        /* \"#utility.yul\":4624:4908   */\n      jump(tag_182)\n    tag_184:\n        /* \"#utility.yul\":4628:4642   */\n      pop\n        /* \"#utility.yul\":4924:4927   */\n      dup6\n        /* \"#utility.yul\":4917:4927   */\n      swap4\n      pop\n        /* \"#utility.yul\":4325:4933   */\n      pop\n      pop\n      pop\n        /* \"#utility.yul\":4201:4933   */\n      swap3\n      swap2\n      pop\n      pop\n      jump\t// out\n        /* \"#utility.yul\":4939:5312   */\n    tag_39:\n        /* \"#utility.yul\":5082:5086   */\n      0x00\n        /* \"#utility.yul\":5120:5122   */\n      0x20\n        /* \"#utility.yul\":5109:5118   */\n      dup3\n        /* \"#utility.yul\":5105:5123   */\n      add\n        /* \"#utility.yul\":5097:5123   */\n      swap1\n      pop\n        /* \"#utility.yul\":5169:5178   */\n      dup2\n        /* \"#utility.yul\":5163:5167   */\n      dup2\n        /* \"#utility.yul\":5159:5179   */\n      sub\n        /* \"#utility.yul\":5155:5156   */\n      0x00\n        /* \"#utility.yul\":5144:5153   */\n      dup4\n        /* \"#utility.yul\":5140:5157   */\n      add\n        /* \"#utility.yul\":5133:5180   */\n      mstore\n        /* \"#utility.yul\":5197:5305   */\n      tag_188\n        /* \"#utility.yul\":5300:5304   */\n      dup2\n        /* \"#utility.yul\":5291:5297   */\n      dup5\n        /* \"#utility.yul\":5197:5305   */\n      tag_126\n      jump\t// in\n    tag_188:\n        /* \"#utility.yul\":5189:5305   */\n      swap1\n      pop\n        /* \"#utility.yul\":4939:5312   */\n      swap3\n      swap2\n      pop\n      pop\n      jump\t// out\n        /* \"#utility.yul\":5318:5440   */\n    tag_127:\n        /* \"#utility.yul\":5391:5415   */\n      tag_190\n        /* \"#utility.yul\":5409:5414   */\n      dup2\n        /* \"#utility.yul\":5391:5415   */\n      tag_118\n      jump\t// in\n    tag_190:\n        /* \"#utility.yul\":5384:5389   */\n      dup2\n        /* \"#utility.yul\":5381:5416   */\n      eq\n        /* \"#utility.yul\":5371:5434   */\n      tag_191\n      jumpi\n        /* \"#utility.yul\":5430:5431   */\n      0x00\n        /* \"#utility.yul\":5427:5428   */\n      dup1\n        /* \"#utility.yul\":5420:5432   */\n      revert\n        /* \"#utility.yul\":5371:5434   */\n    tag_191:\n        /* \"#utility.yul\":5318:5440   */\n      pop\n      jump\t// out\n        /* \"#utility.yul\":5446:5585   */\n    tag_128:\n        /* \"#utility.yul\":5492:5497   */\n      0x00\n        /* \"#utility.yul\":5530:5536   */\n      dup2\n        /* \"#utility.yul\":5517:5537   */\n      calldataload\n        /* \"#utility.yul\":5508:5537   */\n      swap1\n      pop\n        /* \"#utility.yul\":5546:5579   */\n      tag_193\n        /* \"#utility.yul\":5573:5578   */\n      dup2\n        /* \"#utility.yul\":5546:5579   */\n      tag_127\n      jump\t// in\n    tag_193:\n        /* \"#utility.yul\":5446:5585   */\n      swap3\n      swap2\n      pop\n      pop\n      jump\t// out\n        /* \"#utility.yul\":5591:5920   */\n    tag_49:\n        /* \"#utility.yul\":5650:5656   */\n      0x00\n        /* \"#utility.yul\":5699:5701   */\n      0x20\n        /* \"#utility.yul\":5687:5696   */\n      dup3\n        /* \"#utility.yul\":5678:5685   */\n      dup5\n        /* \"#utility.yul\":5674:5697   */\n      sub\n        /* \"#utility.yul\":5670:5702   */\n      slt\n        /* \"#utility.yul\":5667:5786   */\n      iszero\n      tag_195\n      jumpi\n        /* \"#utility.yul\":5705:5784   */\n      tag_196\n      tag_108\n      jump\t// in\n    tag_196:\n        /* \"#utility.yul\":5667:5786   */\n    tag_195:\n        /* \"#utility.yul\":5825:5826   */\n      0x00\n        /* \"#utility.yul\":5850:5903   */\n      tag_197\n        /* \"#utility.yul\":5895:5902   */\n      dup5\n        /* \"#utility.yul\":5886:5892   */\n      dup3\n        /* \"#utility.yul\":5875:5884   */\n      dup6\n        /* \"#utility.yul\":5871:5893   */\n      add\n        /* \"#utility.yul\":5850:5903   */\n      tag_128\n      jump\t// in\n    tag_197:\n        /* \"#utility.yul\":5840:5903   */\n      swap2\n      pop\n        /* \"#utility.yul\":5796:5913   */\n      pop\n        /* \"#utility.yul\":5591:5920   */\n      swap3\n      swap2\n      pop\n      pop\n      jump\t// out\n        /* \"#utility.yul\":5926:6106   */\n    tag_129:\n        /* \"#utility.yul\":5974:6051   */\n      0x4e487b7100000000000000000000000000000000000000000000000000000000\n        /* \"#utility.yul\":5971:5972   */\n      0x00\n        /* \"#utility.yul\":5964:6052   */\n      mstore\n        /* \"#utility.yul\":6071:6075   */\n      0x22\n        /* \"#utility.yul\":6068:6069   */\n      0x04\n        /* \"#utility.yul\":6061:6076   */\n      mstore\n        /* \"#utility.yul\":6095:6099   */\n      0x24\n        /* \"#utility.yul\":6092:6093   */\n      0x00\n        /* \"#utility.yul\":6085:6100   */\n      revert\n        /* \"#utility.yul\":6112:6432   */\n    tag_71:\n        /* \"#utility.yul\":6156:6162   */\n      0x00\n        /* \"#utility.yul\":6193:6194   */\n      0x02\n        /* \"#utility.yul\":6187:6191   */\n      dup3\n        /* \"#utility.yul\":6183:6195   */\n      div\n        /* \"#utility.yul\":6173:6195   */\n      swap1\n      pop\n        /* \"#utility.yul\":6240:6241   */\n      0x01\n        /* \"#utility.yul\":6234:6238   */\n      dup3\n        /* \"#utility.yul\":6230:6242   */\n      and\n        /* \"#utility.yul\":6261:6279   */\n      dup1\n        /* \"#utility.yul\":6251:6332   */\n      tag_200\n      jumpi\n        /* \"#utility.yul\":6317:6321   */\n      0x7f\n        /* \"#utility.yul\":6309:6315   */\n      dup3\n        /* \"#utility.yul\":6305:6322   */\n      and\n        /* \"#utility.yul\":6295:6322   */\n      swap2\n      pop\n        /* \"#utility.yul\":6251:6332   */\n    tag_200:\n        /* \"#utility.yul\":6379:6381   */\n      0x20\n        /* \"#utility.yul\":6371:6377   */\n      dup3\n        /* \"#utility.yul\":6368:6382   */\n      lt\n        /* \"#utility.yul\":6348:6366   */\n      dup2\n        /* \"#utility.yul\":6345:6383   */\n      sub\n        /* \"#utility.yul\":6342:6426   */\n      tag_201\n      jumpi\n        /* \"#utility.yul\":6398:6416   */\n      tag_202\n      tag_129\n      jump\t// in\n    tag_202:\n        /* \"#utility.yul\":6342:6426   */\n    tag_201:\n        /* \"#utility.yul\":6163:6432   */\n      pop\n        /* \"#utility.yul\":6112:6432   */\n      swap2\n      swap1\n      pop\n      jump\t// out\n        /* \"#utility.yul\":6438:6618   */\n    tag_130:\n        /* \"#utility.yul\":6486:6563   */\n      0x4e487b7100000000000000000000000000000000000000000000000000000000\n        /* \"#utility.yul\":6483:6484   */\n      0x00\n        /* \"#utility.yul\":6476:6564   */\n      mstore\n        /* \"#utility.yul\":6583:6587   */\n      0x11\n        /* \"#utility.yul\":6580:6581   */\n      0x04\n        /* \"#utility.yul\":6573:6588   */\n      mstore\n        /* \"#utility.yul\":6607:6611   */\n      0x24\n        /* \"#utility.yul\":6604:6605   */\n      0x00\n        /* \"#utility.yul\":6597:6612   */\n      revert\n        /* \"#utility.yul\":6624:6815   */\n    tag_86:\n        /* \"#utility.yul\":6664:6667   */\n      0x00\n        /* \"#utility.yul\":6683:6703   */\n      tag_205\n        /* \"#utility.yul\":6701:6702   */\n      dup3\n        /* \"#utility.yul\":6683:6703   */\n      tag_105\n      jump\t// in\n    tag_205:\n        /* \"#utility.yul\":6678:6703   */\n      swap2\n      pop\n        /* \"#utility.yul\":6717:6737   */\n      tag_206\n        /* \"#utility.yul\":6735:6736   */\n      dup4\n        /* \"#utility.yul\":6717:6737   */\n      tag_105\n      jump\t// in\n    tag_206:\n        /* \"#utility.yul\":6712:6737   */\n      swap3\n      pop\n        /* \"#utility.yul\":6760:6761   */\n      dup3\n        /* \"#utility.yul\":6757:6758   */\n      dup3\n        /* \"#utility.yul\":6753:6762   */\n      add\n        /* \"#utility.yul\":6746:6762   */\n      swap1\n      pop\n        /* \"#utility.yul\":6781:6784   */\n      dup1\n        /* \"#utility.yul\":6778:6779   */\n      dup3\n        /* \"#utility.yul\":6775:6785   */\n      gt\n        /* \"#utility.yul\":6772:6808   */\n      iszero\n      tag_207\n      jumpi\n        /* \"#utility.yul\":6788:6806   */\n      tag_208\n      tag_130\n      jump\t// in\n    tag_208:\n        /* \"#utility.yul\":6772:6808   */\n    tag_207:\n        /* \"#utility.yul\":6624:6815   */\n      swap3\n      swap2\n      pop\n      pop\n      jump\t// out\n\n    auxdata: 0xa2646970667358221220070e5e4ad321cc088de947fd207d8ec9b9a8b105908265cc83333386684021f164736f6c63430008160033\n}\n",
				"bytecode": {
					"linkReferences": {},
					"object": "60a060405260405162001338380380620013388339818101604052810190620000299190620003a4565b335f73ffffffffffffffffffffffffffffffffffffffff168173ffffffffffffffffffffffffffffffffffffffff16036200009d575f6040517f1e4fbdf700000000000000000000000000000000000000000000000000000000815260040162000094919062000419565b60405180910390fd5b620000ae81620000fd60201b60201c565b508060049081620000c091906200066b565b508173ffffffffffffffffffffffffffffffffffffffff1660808173ffffffffffffffffffffffffffffffffffffffff168152505050506200074f565b5f805f9054906101000a900473ffffffffffffffffffffffffffffffffffffffff169050815f806101000a81548173ffffffffffffffffffffffffffffffffffffffff021916908373ffffffffffffffffffffffffffffffffffffffff1602179055508173ffffffffffffffffffffffffffffffffffffffff168173ffffffffffffffffffffffffffffffffffffffff167f8be0079c531659141344cd1fd0a4f28419497f9722a3daafe3b4186f6b6457e060405160405180910390a35050565b5f604051905090565b5f80fd5b5f80fd5b5f73ffffffffffffffffffffffffffffffffffffffff82169050919050565b5f620001fa82620001cf565b9050919050565b6200020c81620001ee565b811462000217575f80fd5b50565b5f815190506200022a8162000201565b92915050565b5f80fd5b5f80fd5b5f601f19601f8301169050919050565b7f4e487b71000000000000000000000000000000000000000000000000000000005f52604160045260245ffd5b620002808262000238565b810181811067ffffffffffffffff82111715620002a257620002a162000248565b5b80604052505050565b5f620002b6620001be565b9050620002c4828262000275565b919050565b5f67ffffffffffffffff821115620002e657620002e562000248565b5b620002f18262000238565b9050602081019050919050565b5f5b838110156200031d57808201518184015260208101905062000300565b5f8484015250505050565b5f6200033e6200033884620002c9565b620002ab565b9050828152602081018484840111156200035d576200035c62000234565b5b6200036a848285620002fe565b509392505050565b5f82601f83011262000389576200038862000230565b5b81516200039b84826020860162000328565b91505092915050565b5f8060408385031215620003bd57620003bc620001c7565b5b5f620003cc858286016200021a565b925050602083015167ffffffffffffffff811115620003f057620003ef620001cb565b5b620003fe8582860162000372565b9150509250929050565b6200041381620001ee565b82525050565b5f6020820190506200042e5f83018462000408565b92915050565b5f81519050919050565b7f4e487b71000000000000000000000000000000000000000000000000000000005f52602260045260245ffd5b5f60028204905060018216806200048357607f821691505b6020821081036200049957620004986200043e565b5b50919050565b5f819050815f5260205f209050919050565b5f6020601f8301049050919050565b5f82821b905092915050565b5f60088302620004fd7fffffffffffffffffffffffffffffffffffffffffffffffffffffffffffffffff82620004c0565b620005098683620004c0565b95508019841693508086168417925050509392505050565b5f819050919050565b5f819050919050565b5f620005536200054d620005478462000521565b6200052a565b62000521565b9050919050565b5f819050919050565b6200056e8362000533565b620005866200057d826200055a565b848454620004cc565b825550505050565b5f90565b6200059c6200058e565b620005a981848462000563565b505050565b5b81811015620005d057620005c45f8262000592565b600181019050620005af565b5050565b601f8211156200061f57620005e9816200049f565b620005f484620004b1565b8101602085101562000604578190505b6200061c6200061385620004b1565b830182620005ae565b50505b505050565b5f82821c905092915050565b5f620006415f198460080262000624565b1980831691505092915050565b5f6200065b838362000630565b9150826002028217905092915050565b620006768262000434565b67ffffffffffffffff81111562000692576200069162000248565b5b6200069e82546200046b565b620006ab828285620005d4565b5f60209050601f831160018114620006e1575f8415620006cc578287015190505b620006d885826200064e565b86555062000747565b601f198416620006f1866200049f565b5f5b828110156200071a57848901518255600182019150602085019450602081019050620006f3565b868310156200073a578489015162000736601f89168262000630565b8355505b6001600288020188555050505b505050505050565b608051610bc96200076f5f395f8181610274015261047c0152610bc95ff3fe608060405260043610610089575f3560e01c8063bf1482fa11610058578063bf1482fa14610174578063d5ee15571461019e578063ed88c68e146101c8578063f2fde38b146101d2578063f3a01489146101fa576100de565b80630bcd177e146100e2578063715018a61461010a5780637284e416146101205780638da5cb5b1461014a576100de565b366100de573373ffffffffffffffffffffffffffffffffffffffff167f69ca02dd4edd7bf0a4abb9ed3b7af3f14778db5d61921c7dc7cd545266326de2346040516100d49190610836565b60405180910390a2005b5f80fd5b3480156100ed575f80fd5b506101086004803603810190610103919061087d565b610224565b005b348015610115575f80fd5b5061011e610329565b005b34801561012b575f80fd5b5061013461033c565b6040516101419190610932565b60405180910390f35b348015610155575f80fd5b5061015e6103c8565b60405161016b9190610991565b60405180910390f35b34801561017f575f80fd5b506101886103ef565b6040516101959190610a61565b60405180910390f35b3480156101a9575f80fd5b506101b261047a565b6040516101bf9190610991565b60405180910390f35b6101d061049e565b005b3480156101dd575f80fd5b506101f860048036038101906101f39190610aab565b610642565b005b348015610205575f80fd5b5061020e6106c6565b60405161021b9190610836565b60405180910390f35b61022c6106cf565b4781111561027157336040517f30e8fb430000000000000000000000000000000000000000000000000000000081526004016102689190610991565b60405180910390fd5b5f7f000000000000000000000000000000000000000000000000000000000000000073ffffffffffffffffffffffffffffffffffffffff166108fc8390811502906040515f60405180830381858888f1935050505090508015610321573373ffffffffffffffffffffffffffffffffffffffff167f69ca02dd4edd7bf0a4abb9ed3b7af3f14778db5d61921c7dc7cd545266326de2836040516103149190610836565b60405180910390a2610325565b5f80fd5b5050565b6103316106cf565b61033a5f610756565b565b6004805461034990610b03565b80601f016020809104026020016040519081016040528092919081815260200182805461037590610b03565b80156103c05780601f10610397576101008083540402835291602001916103c0565b820191905f5260205f20905b8154815290600101906020018083116103a357829003601f168201915b505050505081565b5f805f9054906101000a900473ffffffffffffffffffffffffffffffffffffffff16905090565b6060600380548060200260200160405190810160405280929190818152602001828054801561047057602002820191905f5260205f20905b815f9054906101000a900473ffffffffffffffffffffffffffffffffffffffff1673ffffffffffffffffffffffffffffffffffffffff1681526020019060010190808311610427575b5050505050905090565b7f000000000000000000000000000000000000000000000000000000000000000081565b5f34116104e257336040517f30e8fb430000000000000000000000000000000000000000000000000000000081526004016104d99190610991565b60405180910390fd5b5f60055f3373ffffffffffffffffffffffffffffffffffffffff1673ffffffffffffffffffffffffffffffffffffffff1681526020019081526020015f20540361058757600333908060018154018082558091505060019003905f5260205f20015f9091909190916101000a81548173ffffffffffffffffffffffffffffffffffffffff021916908373ffffffffffffffffffffffffffffffffffffffff1602179055505b3460055f3373ffffffffffffffffffffffffffffffffffffffff1673ffffffffffffffffffffffffffffffffffffffff1681526020019081526020015f205f8282546105d39190610b60565b925050819055503460015f8282546105eb9190610b60565b925050819055503373ffffffffffffffffffffffffffffffffffffffff167f69ca02dd4edd7bf0a4abb9ed3b7af3f14778db5d61921c7dc7cd545266326de2346040516106389190610836565b60405180910390a2565b61064a6106cf565b5f73ffffffffffffffffffffffffffffffffffffffff168173ffffffffffffffffffffffffffffffffffffffff16036106ba575f6040517f1e4fbdf70000000000000000000000000000000000000000000000000000000081526004016106b19190610991565b60405180910390fd5b6106c381610756565b50565b5f600154905090565b6106d7610817565b73ffffffffffffffffffffffffffffffffffffffff166106f56103c8565b73ffffffffffffffffffffffffffffffffffffffff161461075457610718610817565b6040517f118cdaa700000000000000000000000000000000000000000000000000000000815260040161074b9190610991565b60405180910390fd5b565b5f805f9054906101000a900473ffffffffffffffffffffffffffffffffffffffff169050815f806101000a81548173ffffffffffffffffffffffffffffffffffffffff021916908373ffffffffffffffffffffffffffffffffffffffff1602179055508173ffffffffffffffffffffffffffffffffffffffff168173ffffffffffffffffffffffffffffffffffffffff167f8be0079c531659141344cd1fd0a4f28419497f9722a3daafe3b4186f6b6457e060405160405180910390a35050565b5f33905090565b5f819050919050565b6108308161081e565b82525050565b5f6020820190506108495f830184610827565b92915050565b5f80fd5b61085c8161081e565b8114610866575f80fd5b50565b5f8135905061087781610853565b92915050565b5f602082840312156108925761089161084f565b5b5f61089f84828501610869565b91505092915050565b5f81519050919050565b5f82825260208201905092915050565b5f5b838110156108df5780820151818401526020810190506108c4565b5f8484015250505050565b5f601f19601f8301169050919050565b5f610904826108a8565b61090e81856108b2565b935061091e8185602086016108c2565b610927816108ea565b840191505092915050565b5f6020820190508181035f83015261094a81846108fa565b905092915050565b5f73ffffffffffffffffffffffffffffffffffffffff82169050919050565b5f61097b82610952565b9050919050565b61098b81610971565b82525050565b5f6020820190506109a45f830184610982565b92915050565b5f81519050919050565b5f82825260208201905092915050565b5f819050602082019050919050565b6109dc81610971565b82525050565b5f6109ed83836109d3565b60208301905092915050565b5f602082019050919050565b5f610a0f826109aa565b610a1981856109b4565b9350610a24836109c4565b805f5b83811015610a54578151610a3b88826109e2565b9750610a46836109f9565b925050600181019050610a27565b5085935050505092915050565b5f6020820190508181035f830152610a798184610a05565b905092915050565b610a8a81610971565b8114610a94575f80fd5b50565b5f81359050610aa581610a81565b92915050565b5f60208284031215610ac057610abf61084f565b5b5f610acd84828501610a97565b91505092915050565b7f4e487b71000000000000000000000000000000000000000000000000000000005f52602260045260245ffd5b5f6002820490506001821680610b1a57607f821691505b602082108103610b2d57610b2c610ad6565b5b50919050565b7f4e487b71000000000000000000000000000000000000000000000000000000005f52601160045260245ffd5b5f610b6a8261081e565b9150610b758361081e565b9250828201905080821115610b8d57610b8c610b33565b5b9291505056fea2646970667358221220070e5e4ad321cc088de947fd207d8ec9b9a8b105908265cc83333386684021f164736f6c63430008160033",
					"opcodes": "PUSH1 0xA0 PUSH1 0x40 MSTORE PUSH1 0x40 MLOAD PUSH3 0x1338 CODESIZE SUB DUP1 PUSH3 0x1338 DUP4 CODECOPY DUP2 DUP2 ADD PUSH1 0x40 MSTORE DUP2 ADD SWAP1 PUSH3 0x29 SWAP2 SWAP1 PUSH3 0x3A4 JUMP JUMPDEST CALLER PUSH0 PUSH20 0xFFFFFFFFFFFFFFFFFFFFFFFFFFFFFFFFFFFFFFFF AND DUP2 PUSH20 0xFFFFFFFFFFFFFFFFFFFFFFFFFFFFFFFFFFFFFFFF AND SUB PUSH3 0x9D JUMPI PUSH0 PUSH1 0x40 MLOAD PUSH32 0x1E4FBDF700000000000000000000000000000000000000000000000000000000 DUP2 MSTORE PUSH1 0x4 ADD PUSH3 0x94 SWAP2 SWAP1 PUSH3 0x419 JUMP JUMPDEST PUSH1 0x40 MLOAD DUP1 SWAP2 SUB SWAP1 REVERT JUMPDEST PUSH3 0xAE DUP2 PUSH3 0xFD PUSH1 0x20 SHL PUSH1 0x20 SHR JUMP JUMPDEST POP DUP1 PUSH1 0x4 SWAP1 DUP2 PUSH3 0xC0 SWAP2 SWAP1 PUSH3 0x66B JUMP JUMPDEST POP DUP2 PUSH20 0xFFFFFFFFFFFFFFFFFFFFFFFFFFFFFFFFFFFFFFFF AND PUSH1 0x80 DUP2 PUSH20 0xFFFFFFFFFFFFFFFFFFFFFFFFFFFFFFFFFFFFFFFF AND DUP2 MSTORE POP POP POP POP PUSH3 0x74F JUMP JUMPDEST PUSH0 DUP1 PUSH0 SWAP1 SLOAD SWAP1 PUSH2 0x100 EXP SWAP1 DIV PUSH20 0xFFFFFFFFFFFFFFFFFFFFFFFFFFFFFFFFFFFFFFFF AND SWAP1 POP DUP2 PUSH0 DUP1 PUSH2 0x100 EXP DUP2 SLOAD DUP2 PUSH20 0xFFFFFFFFFFFFFFFFFFFFFFFFFFFFFFFFFFFFFFFF MUL NOT AND SWAP1 DUP4 PUSH20 0xFFFFFFFFFFFFFFFFFFFFFFFFFFFFFFFFFFFFFFFF AND MUL OR SWAP1 SSTORE POP DUP2 PUSH20 0xFFFFFFFFFFFFFFFFFFFFFFFFFFFFFFFFFFFFFFFF AND DUP2 PUSH20 0xFFFFFFFFFFFFFFFFFFFFFFFFFFFFFFFFFFFFFFFF AND PUSH32 0x8BE0079C531659141344CD1FD0A4F28419497F9722A3DAAFE3B4186F6B6457E0 PUSH1 0x40 MLOAD PUSH1 0x40 MLOAD DUP1 SWAP2 SUB SWAP1 LOG3 POP POP JUMP JUMPDEST PUSH0 PUSH1 0x40 MLOAD SWAP1 POP SWAP1 JUMP JUMPDEST PUSH0 DUP1 REVERT JUMPDEST PUSH0 DUP1 REVERT JUMPDEST PUSH0 PUSH20 0xFFFFFFFFFFFFFFFFFFFFFFFFFFFFFFFFFFFFFFFF DUP3 AND SWAP1 POP SWAP2 SWAP1 POP JUMP JUMPDEST PUSH0 PUSH3 0x1FA DUP3 PUSH3 0x1CF JUMP JUMPDEST SWAP1 POP SWAP2 SWAP1 POP JUMP JUMPDEST PUSH3 0x20C DUP2 PUSH3 0x1EE JUMP JUMPDEST DUP2 EQ PUSH3 0x217 JUMPI PUSH0 DUP1 REVERT JUMPDEST POP JUMP JUMPDEST PUSH0 DUP2 MLOAD SWAP1 POP PUSH3 0x22A DUP2 PUSH3 0x201 JUMP JUMPDEST SWAP3 SWAP2 POP POP JUMP JUMPDEST PUSH0 DUP1 REVERT JUMPDEST PUSH0 DUP1 REVERT JUMPDEST PUSH0 PUSH1 0x1F NOT PUSH1 0x1F DUP4 ADD AND SWAP1 POP SWAP2 SWAP1 POP JUMP JUMPDEST PUSH32 0x4E487B7100000000000000000000000000000000000000000000000000000000 PUSH0 MSTORE PUSH1 0x41 PUSH1 0x4 MSTORE PUSH1 0x24 PUSH0 REVERT JUMPDEST PUSH3 0x280 DUP3 PUSH3 0x238 JUMP JUMPDEST DUP2 ADD DUP2 DUP2 LT PUSH8 0xFFFFFFFFFFFFFFFF DUP3 GT OR ISZERO PUSH3 0x2A2 JUMPI PUSH3 0x2A1 PUSH3 0x248 JUMP JUMPDEST JUMPDEST DUP1 PUSH1 0x40 MSTORE POP POP POP JUMP JUMPDEST PUSH0 PUSH3 0x2B6 PUSH3 0x1BE JUMP JUMPDEST SWAP1 POP PUSH3 0x2C4 DUP3 DUP3 PUSH3 0x275 JUMP JUMPDEST SWAP2 SWAP1 POP JUMP JUMPDEST PUSH0 PUSH8 0xFFFFFFFFFFFFFFFF DUP3 GT ISZERO PUSH3 0x2E6 JUMPI PUSH3 0x2E5 PUSH3 0x248 JUMP JUMPDEST JUMPDEST PUSH3 0x2F1 DUP3 PUSH3 0x238 JUMP JUMPDEST SWAP1 POP PUSH1 0x20 DUP2 ADD SWAP1 POP SWAP2 SWAP1 POP JUMP JUMPDEST PUSH0 JUMPDEST DUP4 DUP2 LT ISZERO PUSH3 0x31D JUMPI DUP1 DUP3 ADD MLOAD DUP2 DUP5 ADD MSTORE PUSH1 0x20 DUP2 ADD SWAP1 POP PUSH3 0x300 JUMP JUMPDEST PUSH0 DUP5 DUP5 ADD MSTORE POP POP POP POP JUMP JUMPDEST PUSH0 PUSH3 0x33E PUSH3 0x338 DUP5 PUSH3 0x2C9 JUMP JUMPDEST PUSH3 0x2AB JUMP JUMPDEST SWAP1 POP DUP3 DUP2 MSTORE PUSH1 0x20 DUP2 ADD DUP5 DUP5 DUP5 ADD GT ISZERO PUSH3 0x35D JUMPI PUSH3 0x35C PUSH3 0x234 JUMP JUMPDEST JUMPDEST PUSH3 0x36A DUP5 DUP3 DUP6 PUSH3 0x2FE JUMP JUMPDEST POP SWAP4 SWAP3 POP POP POP JUMP JUMPDEST PUSH0 DUP3 PUSH1 0x1F DUP4 ADD SLT PUSH3 0x389 JUMPI PUSH3 0x388 PUSH3 0x230 JUMP JUMPDEST JUMPDEST DUP2 MLOAD PUSH3 0x39B DUP5 DUP3 PUSH1 0x20 DUP7 ADD PUSH3 0x328 JUMP JUMPDEST SWAP2 POP POP SWAP3 SWAP2 POP POP JUMP JUMPDEST PUSH0 DUP1 PUSH1 0x40 DUP4 DUP6 SUB SLT ISZERO PUSH3 0x3BD JUMPI PUSH3 0x3BC PUSH3 0x1C7 JUMP JUMPDEST JUMPDEST PUSH0 PUSH3 0x3CC DUP6 DUP3 DUP7 ADD PUSH3 0x21A JUMP JUMPDEST SWAP3 POP POP PUSH1 0x20 DUP4 ADD MLOAD PUSH8 0xFFFFFFFFFFFFFFFF DUP2 GT ISZERO PUSH3 0x3F0 JUMPI PUSH3 0x3EF PUSH3 0x1CB JUMP JUMPDEST JUMPDEST PUSH3 0x3FE DUP6 DUP3 DUP7 ADD PUSH3 0x372 JUMP JUMPDEST SWAP2 POP POP SWAP3 POP SWAP3 SWAP1 POP JUMP JUMPDEST PUSH3 0x413 DUP2 PUSH3 0x1EE JUMP JUMPDEST DUP3 MSTORE POP POP JUMP JUMPDEST PUSH0 PUSH1 0x20 DUP3 ADD SWAP1 POP PUSH3 0x42E PUSH0 DUP4 ADD DUP5 PUSH3 0x408 JUMP JUMPDEST SWAP3 SWAP2 POP POP JUMP JUMPDEST PUSH0 DUP2 MLOAD SWAP1 POP SWAP2 SWAP1 POP JUMP JUMPDEST PUSH32 0x4E487B7100000000000000000000000000000000000000000000000000000000 PUSH0 MSTORE PUSH1 0x22 PUSH1 0x4 MSTORE PUSH1 0x24 PUSH0 REVERT JUMPDEST PUSH0 PUSH1 0x2 DUP3 DIV SWAP1 POP PUSH1 0x1 DUP3 AND DUP1 PUSH3 0x483 JUMPI PUSH1 0x7F DUP3 AND SWAP2 POP JUMPDEST PUSH1 0x20 DUP3 LT DUP2 SUB PUSH3 0x499 JUMPI PUSH3 0x498 PUSH3 0x43E JUMP JUMPDEST JUMPDEST POP SWAP2 SWAP1 POP JUMP JUMPDEST PUSH0 DUP2 SWAP1 POP DUP2 PUSH0 MSTORE PUSH1 0x20 PUSH0 KECCAK256 SWAP1 POP SWAP2 SWAP1 POP JUMP JUMPDEST PUSH0 PUSH1 0x20 PUSH1 0x1F DUP4 ADD DIV SWAP1 POP SWAP2 SWAP1 POP JUMP JUMPDEST PUSH0 DUP3 DUP3 SHL SWAP1 POP SWAP3 SWAP2 POP POP JUMP JUMPDEST PUSH0 PUSH1 0x8 DUP4 MUL PUSH3 0x4FD PUSH32 0xFFFFFFFFFFFFFFFFFFFFFFFFFFFFFFFFFFFFFFFFFFFFFFFFFFFFFFFFFFFFFFFF DUP3 PUSH3 0x4C0 JUMP JUMPDEST PUSH3 0x509 DUP7 DUP4 PUSH3 0x4C0 JUMP JUMPDEST SWAP6 POP DUP1 NOT DUP5 AND SWAP4 POP DUP1 DUP7 AND DUP5 OR SWAP3 POP POP POP SWAP4 SWAP3 POP POP POP JUMP JUMPDEST PUSH0 DUP2 SWAP1 POP SWAP2 SWAP1 POP JUMP JUMPDEST PUSH0 DUP2 SWAP1 POP SWAP2 SWAP1 POP JUMP JUMPDEST PUSH0 PUSH3 0x553 PUSH3 0x54D PUSH3 0x547 DUP5 PUSH3 0x521 JUMP JUMPDEST PUSH3 0x52A JUMP JUMPDEST PUSH3 0x521 JUMP JUMPDEST SWAP1 POP SWAP2 SWAP1 POP JUMP JUMPDEST PUSH0 DUP2 SWAP1 POP SWAP2 SWAP1 POP JUMP JUMPDEST PUSH3 0x56E DUP4 PUSH3 0x533 JUMP JUMPDEST PUSH3 0x586 PUSH3 0x57D DUP3 PUSH3 0x55A JUMP JUMPDEST DUP5 DUP5 SLOAD PUSH3 0x4CC JUMP JUMPDEST DUP3 SSTORE POP POP POP POP JUMP JUMPDEST PUSH0 SWAP1 JUMP JUMPDEST PUSH3 0x59C PUSH3 0x58E JUMP JUMPDEST PUSH3 0x5A9 DUP2 DUP5 DUP5 PUSH3 0x563 JUMP JUMPDEST POP POP POP JUMP JUMPDEST JUMPDEST DUP2 DUP2 LT ISZERO PUSH3 0x5D0 JUMPI PUSH3 0x5C4 PUSH0 DUP3 PUSH3 0x592 JUMP JUMPDEST PUSH1 0x1 DUP2 ADD SWAP1 POP PUSH3 0x5AF JUMP JUMPDEST POP POP JUMP JUMPDEST PUSH1 0x1F DUP3 GT ISZERO PUSH3 0x61F JUMPI PUSH3 0x5E9 DUP2 PUSH3 0x49F JUMP JUMPDEST PUSH3 0x5F4 DUP5 PUSH3 0x4B1 JUMP JUMPDEST DUP2 ADD PUSH1 0x20 DUP6 LT ISZERO PUSH3 0x604 JUMPI DUP2 SWAP1 POP JUMPDEST PUSH3 0x61C PUSH3 0x613 DUP6 PUSH3 0x4B1 JUMP JUMPDEST DUP4 ADD DUP3 PUSH3 0x5AE JUMP JUMPDEST POP POP JUMPDEST POP POP POP JUMP JUMPDEST PUSH0 DUP3 DUP3 SHR SWAP1 POP SWAP3 SWAP2 POP POP JUMP JUMPDEST PUSH0 PUSH3 0x641 PUSH0 NOT DUP5 PUSH1 0x8 MUL PUSH3 0x624 JUMP JUMPDEST NOT DUP1 DUP4 AND SWAP2 POP POP SWAP3 SWAP2 POP POP JUMP JUMPDEST PUSH0 PUSH3 0x65B DUP4 DUP4 PUSH3 0x630 JUMP JUMPDEST SWAP2 POP DUP3 PUSH1 0x2 MUL DUP3 OR SWAP1 POP SWAP3 SWAP2 POP POP JUMP JUMPDEST PUSH3 0x676 DUP3 PUSH3 0x434 JUMP JUMPDEST PUSH8 0xFFFFFFFFFFFFFFFF DUP2 GT ISZERO PUSH3 0x692 JUMPI PUSH3 0x691 PUSH3 0x248 JUMP JUMPDEST JUMPDEST PUSH3 0x69E DUP3 SLOAD PUSH3 0x46B JUMP JUMPDEST PUSH3 0x6AB DUP3 DUP3 DUP6 PUSH3 0x5D4 JUMP JUMPDEST PUSH0 PUSH1 0x20 SWAP1 POP PUSH1 0x1F DUP4 GT PUSH1 0x1 DUP2 EQ PUSH3 0x6E1 JUMPI PUSH0 DUP5 ISZERO PUSH3 0x6CC JUMPI DUP3 DUP8 ADD MLOAD SWAP1 POP JUMPDEST PUSH3 0x6D8 DUP6 DUP3 PUSH3 0x64E JUMP JUMPDEST DUP7 SSTORE POP PUSH3 0x747 JUMP JUMPDEST PUSH1 0x1F NOT DUP5 AND PUSH3 0x6F1 DUP7 PUSH3 0x49F JUMP JUMPDEST PUSH0 JUMPDEST DUP3 DUP2 LT ISZERO PUSH3 0x71A JUMPI DUP5 DUP10 ADD MLOAD DUP3 SSTORE PUSH1 0x1 DUP3 ADD SWAP2 POP PUSH1 0x20 DUP6 ADD SWAP5 POP PUSH1 0x20 DUP2 ADD SWAP1 POP PUSH3 0x6F3 JUMP JUMPDEST DUP7 DUP4 LT ISZERO PUSH3 0x73A JUMPI DUP5 DUP10 ADD MLOAD PUSH3 0x736 PUSH1 0x1F DUP10 AND DUP3 PUSH3 0x630 JUMP JUMPDEST DUP4 SSTORE POP JUMPDEST PUSH1 0x1 PUSH1 0x2 DUP9 MUL ADD DUP9 SSTORE POP POP POP JUMPDEST POP POP POP POP POP POP JUMP JUMPDEST PUSH1 0x80 MLOAD PUSH2 0xBC9 PUSH3 0x76F PUSH0 CODECOPY PUSH0 DUP2 DUP2 PUSH2 0x274 ADD MSTORE PUSH2 0x47C ADD MSTORE PUSH2 0xBC9 PUSH0 RETURN INVALID PUSH1 0x80 PUSH1 0x40 MSTORE PUSH1 0x4 CALLDATASIZE LT PUSH2 0x89 JUMPI PUSH0 CALLDATALOAD PUSH1 0xE0 SHR DUP1 PUSH4 0xBF1482FA GT PUSH2 0x58 JUMPI DUP1 PUSH4 0xBF1482FA EQ PUSH2 0x174 JUMPI DUP1 PUSH4 0xD5EE1557 EQ PUSH2 0x19E JUMPI DUP1 PUSH4 0xED88C68E EQ PUSH2 0x1C8 JUMPI DUP1 PUSH4 0xF2FDE38B EQ PUSH2 0x1D2 JUMPI DUP1 PUSH4 0xF3A01489 EQ PUSH2 0x1FA JUMPI PUSH2 0xDE JUMP JUMPDEST DUP1 PUSH4 0xBCD177E EQ PUSH2 0xE2 JUMPI DUP1 PUSH4 0x715018A6 EQ PUSH2 0x10A JUMPI DUP1 PUSH4 0x7284E416 EQ PUSH2 0x120 JUMPI DUP1 PUSH4 0x8DA5CB5B EQ PUSH2 0x14A JUMPI PUSH2 0xDE JUMP JUMPDEST CALLDATASIZE PUSH2 0xDE JUMPI CALLER PUSH20 0xFFFFFFFFFFFFFFFFFFFFFFFFFFFFFFFFFFFFFFFF AND PUSH32 0x69CA02DD4EDD7BF0A4ABB9ED3B7AF3F14778DB5D61921C7DC7CD545266326DE2 CALLVALUE PUSH1 0x40 MLOAD PUSH2 0xD4 SWAP2 SWAP1 PUSH2 0x836 JUMP JUMPDEST PUSH1 0x40 MLOAD DUP1 SWAP2 SUB SWAP1 LOG2 STOP JUMPDEST PUSH0 DUP1 REVERT JUMPDEST CALLVALUE DUP1 ISZERO PUSH2 0xED JUMPI PUSH0 DUP1 REVERT JUMPDEST POP PUSH2 0x108 PUSH1 0x4 DUP1 CALLDATASIZE SUB DUP2 ADD SWAP1 PUSH2 0x103 SWAP2 SWAP1 PUSH2 0x87D JUMP JUMPDEST PUSH2 0x224 JUMP JUMPDEST STOP JUMPDEST CALLVALUE DUP1 ISZERO PUSH2 0x115 JUMPI PUSH0 DUP1 REVERT JUMPDEST POP PUSH2 0x11E PUSH2 0x329 JUMP JUMPDEST STOP JUMPDEST CALLVALUE DUP1 ISZERO PUSH2 0x12B JUMPI PUSH0 DUP1 REVERT JUMPDEST POP PUSH2 0x134 PUSH2 0x33C JUMP JUMPDEST PUSH1 0x40 MLOAD PUSH2 0x141 SWAP2 SWAP1 PUSH2 0x932 JUMP JUMPDEST PUSH1 0x40 MLOAD DUP1 SWAP2 SUB SWAP1 RETURN JUMPDEST CALLVALUE DUP1 ISZERO PUSH2 0x155 JUMPI PUSH0 DUP1 REVERT JUMPDEST POP PUSH2 0x15E PUSH2 0x3C8 JUMP JUMPDEST PUSH1 0x40 MLOAD PUSH2 0x16B SWAP2 SWAP1 PUSH2 0x991 JUMP JUMPDEST PUSH1 0x40 MLOAD DUP1 SWAP2 SUB SWAP1 RETURN JUMPDEST CALLVALUE DUP1 ISZERO PUSH2 0x17F JUMPI PUSH0 DUP1 REVERT JUMPDEST POP PUSH2 0x188 PUSH2 0x3EF JUMP JUMPDEST PUSH1 0x40 MLOAD PUSH2 0x195 SWAP2 SWAP1 PUSH2 0xA61 JUMP JUMPDEST PUSH1 0x40 MLOAD DUP1 SWAP2 SUB SWAP1 RETURN JUMPDEST CALLVALUE DUP1 ISZERO PUSH2 0x1A9 JUMPI PUSH0 DUP1 REVERT JUMPDEST POP PUSH2 0x1B2 PUSH2 0x47A JUMP JUMPDEST PUSH1 0x40 MLOAD PUSH2 0x1BF SWAP2 SWAP1 PUSH2 0x991 JUMP JUMPDEST PUSH1 0x40 MLOAD DUP1 SWAP2 SUB SWAP1 RETURN JUMPDEST PUSH2 0x1D0 PUSH2 0x49E JUMP JUMPDEST STOP JUMPDEST CALLVALUE DUP1 ISZERO PUSH2 0x1DD JUMPI PUSH0 DUP1 REVERT JUMPDEST POP PUSH2 0x1F8 PUSH1 0x4 DUP1 CALLDATASIZE SUB DUP2 ADD SWAP1 PUSH2 0x1F3 SWAP2 SWAP1 PUSH2 0xAAB JUMP JUMPDEST PUSH2 0x642 JUMP JUMPDEST STOP JUMPDEST CALLVALUE DUP1 ISZERO PUSH2 0x205 JUMPI PUSH0 DUP1 REVERT JUMPDEST POP PUSH2 0x20E PUSH2 0x6C6 JUMP JUMPDEST PUSH1 0x40 MLOAD PUSH2 0x21B SWAP2 SWAP1 PUSH2 0x836 JUMP JUMPDEST PUSH1 0x40 MLOAD DUP1 SWAP2 SUB SWAP1 RETURN JUMPDEST PUSH2 0x22C PUSH2 0x6CF JUMP JUMPDEST SELFBALANCE DUP2 GT ISZERO PUSH2 0x271 JUMPI CALLER PUSH1 0x40 MLOAD PUSH32 0x30E8FB4300000000000000000000000000000000000000000000000000000000 DUP2 MSTORE PUSH1 0x4 ADD PUSH2 0x268 SWAP2 SWAP1 PUSH2 0x991 JUMP JUMPDEST PUSH1 0x40 MLOAD DUP1 SWAP2 SUB SWAP1 REVERT JUMPDEST PUSH0 PUSH32 0x0 PUSH20 0xFFFFFFFFFFFFFFFFFFFFFFFFFFFFFFFFFFFFFFFF AND PUSH2 0x8FC DUP4 SWAP1 DUP2 ISZERO MUL SWAP1 PUSH1 0x40 MLOAD PUSH0 PUSH1 0x40 MLOAD DUP1 DUP4 SUB DUP2 DUP6 DUP9 DUP9 CALL SWAP4 POP POP POP POP SWAP1 POP DUP1 ISZERO PUSH2 0x321 JUMPI CALLER PUSH20 0xFFFFFFFFFFFFFFFFFFFFFFFFFFFFFFFFFFFFFFFF AND PUSH32 0x69CA02DD4EDD7BF0A4ABB9ED3B7AF3F14778DB5D61921C7DC7CD545266326DE2 DUP4 PUSH1 0x40 MLOAD PUSH2 0x314 SWAP2 SWAP1 PUSH2 0x836 JUMP JUMPDEST PUSH1 0x40 MLOAD DUP1 SWAP2 SUB SWAP1 LOG2 PUSH2 0x325 JUMP JUMPDEST PUSH0 DUP1 REVERT JUMPDEST POP POP JUMP JUMPDEST PUSH2 0x331 PUSH2 0x6CF JUMP JUMPDEST PUSH2 0x33A PUSH0 PUSH2 0x756 JUMP JUMPDEST JUMP JUMPDEST PUSH1 0x4 DUP1 SLOAD PUSH2 0x349 SWAP1 PUSH2 0xB03 JUMP JUMPDEST DUP1 PUSH1 0x1F ADD PUSH1 0x20 DUP1 SWAP2 DIV MUL PUSH1 0x20 ADD PUSH1 0x40 MLOAD SWAP1 DUP2 ADD PUSH1 0x40 MSTORE DUP1 SWAP3 SWAP2 SWAP1 DUP2 DUP2 MSTORE PUSH1 0x20 ADD DUP3 DUP1 SLOAD PUSH2 0x375 SWAP1 PUSH2 0xB03 JUMP JUMPDEST DUP1 ISZERO PUSH2 0x3C0 JUMPI DUP1 PUSH1 0x1F LT PUSH2 0x397 JUMPI PUSH2 0x100 DUP1 DUP4 SLOAD DIV MUL DUP4 MSTORE SWAP2 PUSH1 0x20 ADD SWAP2 PUSH2 0x3C0 JUMP JUMPDEST DUP3 ADD SWAP2 SWAP1 PUSH0 MSTORE PUSH1 0x20 PUSH0 KECCAK256 SWAP1 JUMPDEST DUP2 SLOAD DUP2 MSTORE SWAP1 PUSH1 0x1 ADD SWAP1 PUSH1 0x20 ADD DUP1 DUP4 GT PUSH2 0x3A3 JUMPI DUP3 SWAP1 SUB PUSH1 0x1F AND DUP3 ADD SWAP2 JUMPDEST POP POP POP POP POP DUP2 JUMP JUMPDEST PUSH0 DUP1 PUSH0 SWAP1 SLOAD SWAP1 PUSH2 0x100 EXP SWAP1 DIV PUSH20 0xFFFFFFFFFFFFFFFFFFFFFFFFFFFFFFFFFFFFFFFF AND SWAP1 POP SWAP1 JUMP JUMPDEST PUSH1 0x60 PUSH1 0x3 DUP1 SLOAD DUP1 PUSH1 0x20 MUL PUSH1 0x20 ADD PUSH1 0x40 MLOAD SWAP1 DUP2 ADD PUSH1 0x40 MSTORE DUP1 SWAP3 SWAP2 SWAP1 DUP2 DUP2 MSTORE PUSH1 0x20 ADD DUP3 DUP1 SLOAD DUP1 ISZERO PUSH2 0x470 JUMPI PUSH1 0x20 MUL DUP3 ADD SWAP2 SWAP1 PUSH0 MSTORE PUSH1 0x20 PUSH0 KECCAK256 SWAP1 JUMPDEST DUP2 PUSH0 SWAP1 SLOAD SWAP1 PUSH2 0x100 EXP SWAP1 DIV PUSH20 0xFFFFFFFFFFFFFFFFFFFFFFFFFFFFFFFFFFFFFFFF AND PUSH20 0xFFFFFFFFFFFFFFFFFFFFFFFFFFFFFFFFFFFFFFFF AND DUP2 MSTORE PUSH1 0x20 ADD SWAP1 PUSH1 0x1 ADD SWAP1 DUP1 DUP4 GT PUSH2 0x427 JUMPI JUMPDEST POP POP POP POP POP SWAP1 POP SWAP1 JUMP JUMPDEST PUSH32 0x0 DUP2 JUMP JUMPDEST PUSH0 CALLVALUE GT PUSH2 0x4E2 JUMPI CALLER PUSH1 0x40 MLOAD PUSH32 0x30E8FB4300000000000000000000000000000000000000000000000000000000 DUP2 MSTORE PUSH1 0x4 ADD PUSH2 0x4D9 SWAP2 SWAP1 PUSH2 0x991 JUMP JUMPDEST PUSH1 0x40 MLOAD DUP1 SWAP2 SUB SWAP1 REVERT JUMPDEST PUSH0 PUSH1 0x5 PUSH0 CALLER PUSH20 0xFFFFFFFFFFFFFFFFFFFFFFFFFFFFFFFFFFFFFFFF AND PUSH20 0xFFFFFFFFFFFFFFFFFFFFFFFFFFFFFFFFFFFFFFFF AND DUP2 MSTORE PUSH1 0x20 ADD SWAP1 DUP2 MSTORE PUSH1 0x20 ADD PUSH0 KECCAK256 SLOAD SUB PUSH2 0x587 JUMPI PUSH1 0x3 CALLER SWAP1 DUP1 PUSH1 0x1 DUP2 SLOAD ADD DUP1 DUP3 SSTORE DUP1 SWAP2 POP POP PUSH1 0x1 SWAP1 SUB SWAP1 PUSH0 MSTORE PUSH1 0x20 PUSH0 KECCAK256 ADD PUSH0 SWAP1 SWAP2 SWAP1 SWAP2 SWAP1 SWAP2 PUSH2 0x100 EXP DUP2 SLOAD DUP2 PUSH20 0xFFFFFFFFFFFFFFFFFFFFFFFFFFFFFFFFFFFFFFFF MUL NOT AND SWAP1 DUP4 PUSH20 0xFFFFFFFFFFFFFFFFFFFFFFFFFFFFFFFFFFFFFFFF AND MUL OR SWAP1 SSTORE POP JUMPDEST CALLVALUE PUSH1 0x5 PUSH0 CALLER PUSH20 0xFFFFFFFFFFFFFFFFFFFFFFFFFFFFFFFFFFFFFFFF AND PUSH20 0xFFFFFFFFFFFFFFFFFFFFFFFFFFFFFFFFFFFFFFFF AND DUP2 MSTORE PUSH1 0x20 ADD SWAP1 DUP2 MSTORE PUSH1 0x20 ADD PUSH0 KECCAK256 PUSH0 DUP3 DUP3 SLOAD PUSH2 0x5D3 SWAP2 SWAP1 PUSH2 0xB60 JUMP JUMPDEST SWAP3 POP POP DUP2 SWAP1 SSTORE POP CALLVALUE PUSH1 0x1 PUSH0 DUP3 DUP3 SLOAD PUSH2 0x5EB SWAP2 SWAP1 PUSH2 0xB60 JUMP JUMPDEST SWAP3 POP POP DUP2 SWAP1 SSTORE POP CALLER PUSH20 0xFFFFFFFFFFFFFFFFFFFFFFFFFFFFFFFFFFFFFFFF AND PUSH32 0x69CA02DD4EDD7BF0A4ABB9ED3B7AF3F14778DB5D61921C7DC7CD545266326DE2 CALLVALUE PUSH1 0x40 MLOAD PUSH2 0x638 SWAP2 SWAP1 PUSH2 0x836 JUMP JUMPDEST PUSH1 0x40 MLOAD DUP1 SWAP2 SUB SWAP1 LOG2 JUMP JUMPDEST PUSH2 0x64A PUSH2 0x6CF JUMP JUMPDEST PUSH0 PUSH20 0xFFFFFFFFFFFFFFFFFFFFFFFFFFFFFFFFFFFFFFFF AND DUP2 PUSH20 0xFFFFFFFFFFFFFFFFFFFFFFFFFFFFFFFFFFFFFFFF AND SUB PUSH2 0x6BA JUMPI PUSH0 PUSH1 0x40 MLOAD PUSH32 0x1E4FBDF700000000000000000000000000000000000000000000000000000000 DUP2 MSTORE PUSH1 0x4 ADD PUSH2 0x6B1 SWAP2 SWAP1 PUSH2 0x991 JUMP JUMPDEST PUSH1 0x40 MLOAD DUP1 SWAP2 SUB SWAP1 REVERT JUMPDEST PUSH2 0x6C3 DUP2 PUSH2 0x756 JUMP JUMPDEST POP JUMP JUMPDEST PUSH0 PUSH1 0x1 SLOAD SWAP1 POP SWAP1 JUMP JUMPDEST PUSH2 0x6D7 PUSH2 0x817 JUMP JUMPDEST PUSH20 0xFFFFFFFFFFFFFFFFFFFFFFFFFFFFFFFFFFFFFFFF AND PUSH2 0x6F5 PUSH2 0x3C8 JUMP JUMPDEST PUSH20 0xFFFFFFFFFFFFFFFFFFFFFFFFFFFFFFFFFFFFFFFF AND EQ PUSH2 0x754 JUMPI PUSH2 0x718 PUSH2 0x817 JUMP JUMPDEST PUSH1 0x40 MLOAD PUSH32 0x118CDAA700000000000000000000000000000000000000000000000000000000 DUP2 MSTORE PUSH1 0x4 ADD PUSH2 0x74B SWAP2 SWAP1 PUSH2 0x991 JUMP JUMPDEST PUSH1 0x40 MLOAD DUP1 SWAP2 SUB SWAP1 REVERT JUMPDEST JUMP JUMPDEST PUSH0 DUP1 PUSH0 SWAP1 SLOAD SWAP1 PUSH2 0x100 EXP SWAP1 DIV PUSH20 0xFFFFFFFFFFFFFFFFFFFFFFFFFFFFFFFFFFFFFFFF AND SWAP1 POP DUP2 PUSH0 DUP1 PUSH2 0x100 EXP DUP2 SLOAD DUP2 PUSH20 0xFFFFFFFFFFFFFFFFFFFFFFFFFFFFFFFFFFFFFFFF MUL NOT AND SWAP1 DUP4 PUSH20 0xFFFFFFFFFFFFFFFFFFFFFFFFFFFFFFFFFFFFFFFF AND MUL OR SWAP1 SSTORE POP DUP2 PUSH20 0xFFFFFFFFFFFFFFFFFFFFFFFFFFFFFFFFFFFFFFFF AND DUP2 PUSH20 0xFFFFFFFFFFFFFFFFFFFFFFFFFFFFFFFFFFFFFFFF AND PUSH32 0x8BE0079C531659141344CD1FD0A4F28419497F9722A3DAAFE3B4186F6B6457E0 PUSH1 0x40 MLOAD PUSH1 0x40 MLOAD DUP1 SWAP2 SUB SWAP1 LOG3 POP POP JUMP JUMPDEST PUSH0 CALLER SWAP1 POP SWAP1 JUMP JUMPDEST PUSH0 DUP2 SWAP1 POP SWAP2 SWAP1 POP JUMP JUMPDEST PUSH2 0x830 DUP2 PUSH2 0x81E JUMP JUMPDEST DUP3 MSTORE POP POP JUMP JUMPDEST PUSH0 PUSH1 0x20 DUP3 ADD SWAP1 POP PUSH2 0x849 PUSH0 DUP4 ADD DUP5 PUSH2 0x827 JUMP JUMPDEST SWAP3 SWAP2 POP POP JUMP JUMPDEST PUSH0 DUP1 REVERT JUMPDEST PUSH2 0x85C DUP2 PUSH2 0x81E JUMP JUMPDEST DUP2 EQ PUSH2 0x866 JUMPI PUSH0 DUP1 REVERT JUMPDEST POP JUMP JUMPDEST PUSH0 DUP2 CALLDATALOAD SWAP1 POP PUSH2 0x877 DUP2 PUSH2 0x853 JUMP JUMPDEST SWAP3 SWAP2 POP POP JUMP JUMPDEST PUSH0 PUSH1 0x20 DUP3 DUP5 SUB SLT ISZERO PUSH2 0x892 JUMPI PUSH2 0x891 PUSH2 0x84F JUMP JUMPDEST JUMPDEST PUSH0 PUSH2 0x89F DUP5 DUP3 DUP6 ADD PUSH2 0x869 JUMP JUMPDEST SWAP2 POP POP SWAP3 SWAP2 POP POP JUMP JUMPDEST PUSH0 DUP2 MLOAD SWAP1 POP SWAP2 SWAP1 POP JUMP JUMPDEST PUSH0 DUP3 DUP3 MSTORE PUSH1 0x20 DUP3 ADD SWAP1 POP SWAP3 SWAP2 POP POP JUMP JUMPDEST PUSH0 JUMPDEST DUP4 DUP2 LT ISZERO PUSH2 0x8DF JUMPI DUP1 DUP3 ADD MLOAD DUP2 DUP5 ADD MSTORE PUSH1 0x20 DUP2 ADD SWAP1 POP PUSH2 0x8C4 JUMP JUMPDEST PUSH0 DUP5 DUP5 ADD MSTORE POP POP POP POP JUMP JUMPDEST PUSH0 PUSH1 0x1F NOT PUSH1 0x1F DUP4 ADD AND SWAP1 POP SWAP2 SWAP1 POP JUMP JUMPDEST PUSH0 PUSH2 0x904 DUP3 PUSH2 0x8A8 JUMP JUMPDEST PUSH2 0x90E DUP2 DUP6 PUSH2 0x8B2 JUMP JUMPDEST SWAP4 POP PUSH2 0x91E DUP2 DUP6 PUSH1 0x20 DUP7 ADD PUSH2 0x8C2 JUMP JUMPDEST PUSH2 0x927 DUP2 PUSH2 0x8EA JUMP JUMPDEST DUP5 ADD SWAP2 POP POP SWAP3 SWAP2 POP POP JUMP JUMPDEST PUSH0 PUSH1 0x20 DUP3 ADD SWAP1 POP DUP2 DUP2 SUB PUSH0 DUP4 ADD MSTORE PUSH2 0x94A DUP2 DUP5 PUSH2 0x8FA JUMP JUMPDEST SWAP1 POP SWAP3 SWAP2 POP POP JUMP JUMPDEST PUSH0 PUSH20 0xFFFFFFFFFFFFFFFFFFFFFFFFFFFFFFFFFFFFFFFF DUP3 AND SWAP1 POP SWAP2 SWAP1 POP JUMP JUMPDEST PUSH0 PUSH2 0x97B DUP3 PUSH2 0x952 JUMP JUMPDEST SWAP1 POP SWAP2 SWAP1 POP JUMP JUMPDEST PUSH2 0x98B DUP2 PUSH2 0x971 JUMP JUMPDEST DUP3 MSTORE POP POP JUMP JUMPDEST PUSH0 PUSH1 0x20 DUP3 ADD SWAP1 POP PUSH2 0x9A4 PUSH0 DUP4 ADD DUP5 PUSH2 0x982 JUMP JUMPDEST SWAP3 SWAP2 POP POP JUMP JUMPDEST PUSH0 DUP2 MLOAD SWAP1 POP SWAP2 SWAP1 POP JUMP JUMPDEST PUSH0 DUP3 DUP3 MSTORE PUSH1 0x20 DUP3 ADD SWAP1 POP SWAP3 SWAP2 POP POP JUMP JUMPDEST PUSH0 DUP2 SWAP1 POP PUSH1 0x20 DUP3 ADD SWAP1 POP SWAP2 SWAP1 POP JUMP JUMPDEST PUSH2 0x9DC DUP2 PUSH2 0x971 JUMP JUMPDEST DUP3 MSTORE POP POP JUMP JUMPDEST PUSH0 PUSH2 0x9ED DUP4 DUP4 PUSH2 0x9D3 JUMP JUMPDEST PUSH1 0x20 DUP4 ADD SWAP1 POP SWAP3 SWAP2 POP POP JUMP JUMPDEST PUSH0 PUSH1 0x20 DUP3 ADD SWAP1 POP SWAP2 SWAP1 POP JUMP JUMPDEST PUSH0 PUSH2 0xA0F DUP3 PUSH2 0x9AA JUMP JUMPDEST PUSH2 0xA19 DUP2 DUP6 PUSH2 0x9B4 JUMP JUMPDEST SWAP4 POP PUSH2 0xA24 DUP4 PUSH2 0x9C4 JUMP JUMPDEST DUP1 PUSH0 JUMPDEST DUP4 DUP2 LT ISZERO PUSH2 0xA54 JUMPI DUP2 MLOAD PUSH2 0xA3B DUP9 DUP3 PUSH2 0x9E2 JUMP JUMPDEST SWAP8 POP PUSH2 0xA46 DUP4 PUSH2 0x9F9 JUMP JUMPDEST SWAP3 POP POP PUSH1 0x1 DUP2 ADD SWAP1 POP PUSH2 0xA27 JUMP JUMPDEST POP DUP6 SWAP4 POP POP POP POP SWAP3 SWAP2 POP POP JUMP JUMPDEST PUSH0 PUSH1 0x20 DUP3 ADD SWAP1 POP DUP2 DUP2 SUB PUSH0 DUP4 ADD MSTORE PUSH2 0xA79 DUP2 DUP5 PUSH2 0xA05 JUMP JUMPDEST SWAP1 POP SWAP3 SWAP2 POP POP JUMP JUMPDEST PUSH2 0xA8A DUP2 PUSH2 0x971 JUMP JUMPDEST DUP2 EQ PUSH2 0xA94 JUMPI PUSH0 DUP1 REVERT JUMPDEST POP JUMP JUMPDEST PUSH0 DUP2 CALLDATALOAD SWAP1 POP PUSH2 0xAA5 DUP2 PUSH2 0xA81 JUMP JUMPDEST SWAP3 SWAP2 POP POP JUMP JUMPDEST PUSH0 PUSH1 0x20 DUP3 DUP5 SUB SLT ISZERO PUSH2 0xAC0 JUMPI PUSH2 0xABF PUSH2 0x84F JUMP JUMPDEST JUMPDEST PUSH0 PUSH2 0xACD DUP5 DUP3 DUP6 ADD PUSH2 0xA97 JUMP JUMPDEST SWAP2 POP POP SWAP3 SWAP2 POP POP JUMP JUMPDEST PUSH32 0x4E487B7100000000000000000000000000000000000000000000000000000000 PUSH0 MSTORE PUSH1 0x22 PUSH1 0x4 MSTORE PUSH1 0x24 PUSH0 REVERT JUMPDEST PUSH0 PUSH1 0x2 DUP3 DIV SWAP1 POP PUSH1 0x1 DUP3 AND DUP1 PUSH2 0xB1A JUMPI PUSH1 0x7F DUP3 AND SWAP2 POP JUMPDEST PUSH1 0x20 DUP3 LT DUP2 SUB PUSH2 0xB2D JUMPI PUSH2 0xB2C PUSH2 0xAD6 JUMP JUMPDEST JUMPDEST POP SWAP2 SWAP1 POP JUMP JUMPDEST PUSH32 0x4E487B7100000000000000000000000000000000000000000000000000000000 PUSH0 MSTORE PUSH1 0x11 PUSH1 0x4 MSTORE PUSH1 0x24 PUSH0 REVERT JUMPDEST PUSH0 PUSH2 0xB6A DUP3 PUSH2 0x81E JUMP JUMPDEST SWAP2 POP PUSH2 0xB75 DUP4 PUSH2 0x81E JUMP JUMPDEST SWAP3 POP DUP3 DUP3 ADD SWAP1 POP DUP1 DUP3 GT ISZERO PUSH2 0xB8D JUMPI PUSH2 0xB8C PUSH2 0xB33 JUMP JUMPDEST JUMPDEST SWAP3 SWAP2 POP POP JUMP INVALID LOG2 PUSH5 0x6970667358 0x22 SLT KECCAK256 SMOD 0xE 0x5E 0x4A 0xD3 0x21 0xCC ADDMOD DUP14 0xE9 SELFBALANCE REVERT KECCAK256 PUSH30 0x8EC9B9A8B105908265CC83333386684021F164736F6C6343000816003300 "
				},
				"gasEstimates": {
					"creation": {
						"codeDepositCost": "603400",
						"executionCost": "infinite",
						"totalCost": "infinite"
					},
					"external": {
						"description()": "infinite",
						"donate()": "infinite",
						"donationsReceiver()": "infinite",
						"getDonators()": "infinite",
						"getSumOfDonations()": "2520",
						"owner()": "2582",
						"renounceOwnership()": "infinite",
						"sendFundsToReceiver(uint256)": "infinite",
						"transferOwnership(address)": "infinite"
					}
				},
				"methodIdentifiers": {
					"description()": "7284e416",
					"donate()": "ed88c68e",
					"donationsReceiver()": "d5ee1557",
					"getDonators()": "bf1482fa",
					"getSumOfDonations()": "f3a01489",
					"owner()": "8da5cb5b",
					"renounceOwnership()": "715018a6",
					"sendFundsToReceiver(uint256)": "0bcd177e",
					"transferOwnership(address)": "f2fde38b"
				}
			},
			"storageLayout": {
				"storage": [
					{
						"astId": 8,
						"contract": "contracts/Donation.sol:Donation",
						"label": "_owner",
						"offset": 0,
						"slot": "0",
						"type": "t_address"
					},
					{
						"astId": 176,
						"contract": "contracts/Donation.sol:Donation",
						"label": "totalDonationsAmount",
						"offset": 0,
						"slot": "1",
						"type": "t_uint256"
					},
					{
						"astId": 178,
						"contract": "contracts/Donation.sol:Donation",
						"label": "_contract",
						"offset": 0,
						"slot": "2",
						"type": "t_address"
					},
					{
						"astId": 181,
						"contract": "contracts/Donation.sol:Donation",
						"label": "charityAddresses",
						"offset": 0,
						"slot": "3",
						"type": "t_array(t_address)dyn_storage"
					},
					{
						"astId": 185,
						"contract": "contracts/Donation.sol:Donation",
						"label": "description",
						"offset": 0,
						"slot": "4",
						"type": "t_string_storage"
					},
					{
						"astId": 189,
						"contract": "contracts/Donation.sol:Donation",
						"label": "_donations",
						"offset": 0,
						"slot": "5",
						"type": "t_mapping(t_address,t_uint256)"
					}
				],
				"types": {
					"t_address": {
						"encoding": "inplace",
						"label": "address",
						"numberOfBytes": "20"
					},
					"t_array(t_address)dyn_storage": {
						"base": "t_address",
						"encoding": "dynamic_array",
						"label": "address[]",
						"numberOfBytes": "32"
					},
					"t_mapping(t_address,t_uint256)": {
						"encoding": "mapping",
						"key": "t_address",
						"label": "mapping(address => uint256)",
						"numberOfBytes": "32",
						"value": "t_uint256"
					},
					"t_string_storage": {
						"encoding": "bytes",
						"label": "string",
						"numberOfBytes": "32"
					},
					"t_uint256": {
						"encoding": "inplace",
						"label": "uint256",
						"numberOfBytes": "32"
					}
				}
			},
			"userdoc": {
				"kind": "user",
				"methods": {},
				"version": 1
			}
		}
	}
}