{
	"contracts/Donation.sol": {
		"Donation": {
			"abi": [
				{
					"inputs": [],
					"stateMutability": "nonpayable",
					"type": "constructor"
				},
				{
					"inputs": [
						{
							"internalType": "address",
							"name": "caller",
							"type": "address"
						}
					],
					"name": "NotAnOwnerError",
					"type": "error"
				},
				{
					"inputs": [
						{
							"internalType": "address",
							"name": "caller",
							"type": "address"
						}
					],
					"name": "ZeroAmountError",
					"type": "error"
				},
				{
					"anonymous": false,
					"inputs": [
						{
							"indexed": true,
							"internalType": "address",
							"name": "from",
							"type": "address"
						},
						{
							"indexed": false,
							"internalType": "uint256",
							"name": "value",
							"type": "uint256"
						}
					],
					"name": "Transfer",
					"type": "event"
				},
				{
					"inputs": [],
					"name": "donate",
					"outputs": [],
					"stateMutability": "payable",
					"type": "function"
				},
				{
					"inputs": [],
					"name": "getDonators",
					"outputs": [
						{
							"internalType": "address[]",
							"name": "",
							"type": "address[]"
						}
					],
					"stateMutability": "view",
					"type": "function"
				},
				{
					"inputs": [],
					"name": "getSumOfDonations",
					"outputs": [
						{
							"internalType": "uint256",
							"name": "",
							"type": "uint256"
						}
					],
					"stateMutability": "view",
					"type": "function"
				},
				{
					"inputs": [
						{
							"internalType": "address payable",
							"name": "to",
							"type": "address"
						},
						{
							"internalType": "uint256",
							"name": "amount",
							"type": "uint256"
						}
					],
					"name": "sendHelp",
					"outputs": [],
					"stateMutability": "nonpayable",
					"type": "function"
				},
				{
					"stateMutability": "payable",
					"type": "receive"
				}
			],
			"devdoc": {
				"kind": "dev",
				"methods": {},
				"version": 1
			},
			"evm": {
				"assembly": "    /* \"contracts/Donation.sol\":57:1572  contract Donation {... */\n  mstore(0x40, 0x80)\n    /* \"contracts/Donation.sol\":396:445  constructor() {... */\n  callvalue\n  dup1\n  iszero\n  tag_1\n  jumpi\n  0x00\n  dup1\n  revert\ntag_1:\n  pop\n    /* \"contracts/Donation.sol\":428:438  msg.sender */\n  caller\n    /* \"contracts/Donation.sol\":420:425  owner */\n  0x02\n  0x00\n    /* \"contracts/Donation.sol\":420:438  owner = msg.sender */\n  0x0100\n  exp\n  dup2\n  sload\n  dup2\n  0xffffffffffffffffffffffffffffffffffffffff\n  mul\n  not\n  and\n  swap1\n  dup4\n  0xffffffffffffffffffffffffffffffffffffffff\n  and\n  mul\n  or\n  swap1\n  sstore\n  pop\n    /* \"contracts/Donation.sol\":57:1572  contract Donation {... */\n  dataSize(sub_0)\n  dup1\n  dataOffset(sub_0)\n  0x00\n  codecopy\n  0x00\n  return\nstop\n\nsub_0: assembly {\n        /* \"contracts/Donation.sol\":57:1572  contract Donation {... */\n      mstore(0x40, 0x80)\n      jumpi(tag_1, lt(calldatasize, 0x04))\n      shr(0xe0, calldataload(0x00))\n      dup1\n      0x6f965a63\n      eq\n      tag_3\n      jumpi\n      dup1\n      0xbf1482fa\n      eq\n      tag_4\n      jumpi\n      dup1\n      0xed88c68e\n      eq\n      tag_5\n      jumpi\n      dup1\n      0xf3a01489\n      eq\n      tag_6\n      jumpi\n      jump(tag_2)\n    tag_1:\n      jumpi(tag_2, calldatasize)\n        /* \"contracts/Donation.sol\":1540:1550  msg.sender */\n      caller\n        /* \"contracts/Donation.sol\":1531:1562  Transfer(msg.sender, msg.value) */\n      0xffffffffffffffffffffffffffffffffffffffff\n      and\n      0x69ca02dd4edd7bf0a4abb9ed3b7af3f14778db5d61921c7dc7cd545266326de2\n        /* \"contracts/Donation.sol\":1552:1561  msg.value */\n      callvalue\n        /* \"contracts/Donation.sol\":1531:1562  Transfer(msg.sender, msg.value) */\n      mload(0x40)\n      tag_9\n      swap2\n      swap1\n      tag_10\n      jump\t// in\n    tag_9:\n      mload(0x40)\n      dup1\n      swap2\n      sub\n      swap1\n      log2\n        /* \"contracts/Donation.sol\":57:1572  contract Donation {... */\n      stop\n    tag_2:\n      0x00\n      dup1\n      revert\n        /* \"contracts/Donation.sol\":827:1263  function sendHelp(address payable to, uint256 amount) external {... */\n    tag_3:\n      callvalue\n      dup1\n      iszero\n      tag_11\n      jumpi\n      0x00\n      dup1\n      revert\n    tag_11:\n      pop\n      tag_12\n      0x04\n      dup1\n      calldatasize\n      sub\n      dup2\n      add\n      swap1\n      tag_13\n      swap2\n      swap1\n      tag_14\n      jump\t// in\n    tag_13:\n      tag_15\n      jump\t// in\n    tag_12:\n      stop\n        /* \"contracts/Donation.sol\":1273:1375  function getDonators() external view returns(address[] memory){... */\n    tag_4:\n      callvalue\n      dup1\n      iszero\n      tag_16\n      jumpi\n      0x00\n      dup1\n      revert\n    tag_16:\n      pop\n      tag_17\n      tag_18\n      jump\t// in\n    tag_17:\n      mload(0x40)\n      tag_19\n      swap2\n      swap1\n      tag_20\n      jump\t// in\n    tag_19:\n      mload(0x40)\n      dup1\n      swap2\n      sub\n      swap1\n      return\n        /* \"contracts/Donation.sol\":451:821  function donate() external payable {... */\n    tag_5:\n      tag_21\n      tag_22\n      jump\t// in\n    tag_21:\n      stop\n        /* \"contracts/Donation.sol\":1380:1483  function getSumOfDonations() external view returns(uint256){... */\n    tag_6:\n      callvalue\n      dup1\n      iszero\n      tag_23\n      jumpi\n      0x00\n      dup1\n      revert\n    tag_23:\n      pop\n      tag_24\n      tag_25\n      jump\t// in\n    tag_24:\n      mload(0x40)\n      tag_26\n      swap2\n      swap1\n      tag_10\n      jump\t// in\n    tag_26:\n      mload(0x40)\n      dup1\n      swap2\n      sub\n      swap1\n      return\n        /* \"contracts/Donation.sol\":827:1263  function sendHelp(address payable to, uint256 amount) external {... */\n    tag_15:\n        /* \"contracts/Donation.sol\":918:923  owner */\n      0x02\n      0x00\n      swap1\n      sload\n      swap1\n      0x0100\n      exp\n      swap1\n      div\n      0xffffffffffffffffffffffffffffffffffffffff\n      and\n        /* \"contracts/Donation.sol\":904:923  msg.sender != owner */\n      0xffffffffffffffffffffffffffffffffffffffff\n      and\n        /* \"contracts/Donation.sol\":904:914  msg.sender */\n      caller\n        /* \"contracts/Donation.sol\":904:923  msg.sender != owner */\n      0xffffffffffffffffffffffffffffffffffffffff\n      and\n      eq\n        /* \"contracts/Donation.sol\":900:984  if (msg.sender != owner) {... */\n      tag_28\n      jumpi\n        /* \"contracts/Donation.sol\":962:972  msg.sender */\n      caller\n        /* \"contracts/Donation.sol\":946:973  NotAnOwnerError(msg.sender) */\n      mload(0x40)\n      0xf499598a00000000000000000000000000000000000000000000000000000000\n      dup2\n      mstore\n      0x04\n      add\n      tag_29\n      swap2\n      swap1\n      tag_30\n      jump\t// in\n    tag_29:\n      mload(0x40)\n      dup1\n      swap2\n      sub\n      swap1\n      revert\n        /* \"contracts/Donation.sol\":900:984  if (msg.sender != owner) {... */\n    tag_28:\n        /* \"contracts/Donation.sol\":1006:1027  address(this).balance */\n      selfbalance\n        /* \"contracts/Donation.sol\":997:1003  amount */\n      dup2\n        /* \"contracts/Donation.sol\":997:1027  amount > address(this).balance */\n      gt\n        /* \"contracts/Donation.sol\":993:1088  if (amount > address(this).balance ){... */\n      iszero\n      tag_31\n      jumpi\n        /* \"contracts/Donation.sol\":1066:1076  msg.sender */\n      caller\n        /* \"contracts/Donation.sol\":1050:1077  ZeroAmountError(msg.sender) */\n      mload(0x40)\n      0x30e8fb4300000000000000000000000000000000000000000000000000000000\n      dup2\n      mstore\n      0x04\n      add\n      tag_32\n      swap2\n      swap1\n      tag_30\n      jump\t// in\n    tag_32:\n      mload(0x40)\n      dup1\n      swap2\n      sub\n      swap1\n      revert\n        /* \"contracts/Donation.sol\":993:1088  if (amount > address(this).balance ){... */\n    tag_31:\n        /* \"contracts/Donation.sol\":1097:1106  bool sent */\n      0x00\n        /* \"contracts/Donation.sol\":1109:1111  to */\n      dup3\n        /* \"contracts/Donation.sol\":1109:1116  to.send */\n      0xffffffffffffffffffffffffffffffffffffffff\n      and\n        /* \"contracts/Donation.sol\":1109:1124  to.send(amount) */\n      0x08fc\n        /* \"contracts/Donation.sol\":1117:1123  amount */\n      dup4\n        /* \"contracts/Donation.sol\":1109:1124  to.send(amount) */\n      swap1\n      dup2\n      iszero\n      mul\n      swap1\n      mload(0x40)\n      0x00\n      mload(0x40)\n      dup1\n      dup4\n      sub\n      dup2\n      dup6\n      dup9\n      dup9\n      call\n      swap4\n      pop\n      pop\n      pop\n      pop\n        /* \"contracts/Donation.sol\":1097:1124  bool sent = to.send(amount) */\n      swap1\n      pop\n        /* \"contracts/Donation.sol\":1147:1151  sent */\n      dup1\n        /* \"contracts/Donation.sol\":1144:1248  if(sent){... */\n      iszero\n      tag_34\n      jumpi\n        /* \"contracts/Donation.sol\":1180:1190  msg.sender */\n      caller\n        /* \"contracts/Donation.sol\":1171:1199  Transfer(msg.sender, amount) */\n      0xffffffffffffffffffffffffffffffffffffffff\n      and\n      0x69ca02dd4edd7bf0a4abb9ed3b7af3f14778db5d61921c7dc7cd545266326de2\n        /* \"contracts/Donation.sol\":1192:1198  amount */\n      dup4\n        /* \"contracts/Donation.sol\":1171:1199  Transfer(msg.sender, amount) */\n      mload(0x40)\n      tag_35\n      swap2\n      swap1\n      tag_10\n      jump\t// in\n    tag_35:\n      mload(0x40)\n      dup1\n      swap2\n      sub\n      swap1\n      log2\n        /* \"contracts/Donation.sol\":1144:1248  if(sent){... */\n      jump(tag_36)\n    tag_34:\n        /* \"contracts/Donation.sol\":1229:1237  revert() */\n      0x00\n      dup1\n      revert\n        /* \"contracts/Donation.sol\":1144:1248  if(sent){... */\n    tag_36:\n        /* \"contracts/Donation.sol\":890:1263  {... */\n      pop\n        /* \"contracts/Donation.sol\":827:1263  function sendHelp(address payable to, uint256 amount) external {... */\n      pop\n      pop\n      jump\t// out\n        /* \"contracts/Donation.sol\":1273:1375  function getDonators() external view returns(address[] memory){... */\n    tag_18:\n        /* \"contracts/Donation.sol\":1318:1334  address[] memory */\n      0x60\n        /* \"contracts/Donation.sol\":1352:1368  charityAddresses */\n      0x03\n        /* \"contracts/Donation.sol\":1345:1368  return charityAddresses */\n      dup1\n      sload\n      dup1\n      0x20\n      mul\n      0x20\n      add\n      mload(0x40)\n      swap1\n      dup2\n      add\n      0x40\n      mstore\n      dup1\n      swap3\n      swap2\n      swap1\n      dup2\n      dup2\n      mstore\n      0x20\n      add\n      dup3\n      dup1\n      sload\n      dup1\n      iszero\n      tag_38\n      jumpi\n      0x20\n      mul\n      dup3\n      add\n      swap2\n      swap1\n      0x00\n      mstore\n      keccak256(0x00, 0x20)\n      swap1\n    tag_39:\n      dup2\n      0x00\n      swap1\n      sload\n      swap1\n      0x0100\n      exp\n      swap1\n      div\n      0xffffffffffffffffffffffffffffffffffffffff\n      and\n      0xffffffffffffffffffffffffffffffffffffffff\n      and\n      dup2\n      mstore\n      0x20\n      add\n      swap1\n      0x01\n      add\n      swap1\n      dup1\n      dup4\n      gt\n      tag_39\n      jumpi\n    tag_38:\n      pop\n      pop\n      pop\n      pop\n      pop\n      swap1\n      pop\n        /* \"contracts/Donation.sol\":1273:1375  function getDonators() external view returns(address[] memory){... */\n      swap1\n      jump\t// out\n        /* \"contracts/Donation.sol\":451:821  function donate() external payable {... */\n    tag_22:\n        /* \"contracts/Donation.sol\":512:513  0 */\n      0x00\n        /* \"contracts/Donation.sol\":499:508  msg.value */\n      callvalue\n        /* \"contracts/Donation.sol\":499:513  msg.value <= 0 */\n      gt\n        /* \"contracts/Donation.sol\":496:575  if(msg.value <= 0) { ... */\n      tag_41\n      jumpi\n        /* \"contracts/Donation.sol\":553:563  msg.sender */\n      caller\n        /* \"contracts/Donation.sol\":537:564  ZeroAmountError(msg.sender) */\n      mload(0x40)\n      0x30e8fb4300000000000000000000000000000000000000000000000000000000\n      dup2\n      mstore\n      0x04\n      add\n      tag_42\n      swap2\n      swap1\n      tag_30\n      jump\t// in\n    tag_42:\n      mload(0x40)\n      dup1\n      swap2\n      sub\n      swap1\n      revert\n        /* \"contracts/Donation.sol\":496:575  if(msg.value <= 0) { ... */\n    tag_41:\n        /* \"contracts/Donation.sol\":613:614  0 */\n      0x00\n        /* \"contracts/Donation.sol\":587:597  _donations */\n      0x04\n        /* \"contracts/Donation.sol\":587:609  _donations[msg.sender] */\n      0x00\n        /* \"contracts/Donation.sol\":598:608  msg.sender */\n      caller\n        /* \"contracts/Donation.sol\":587:609  _donations[msg.sender] */\n      0xffffffffffffffffffffffffffffffffffffffff\n      and\n      0xffffffffffffffffffffffffffffffffffffffff\n      and\n      dup2\n      mstore\n      0x20\n      add\n      swap1\n      dup2\n      mstore\n      0x20\n      add\n      0x00\n      keccak256\n      sload\n        /* \"contracts/Donation.sol\":587:614  _donations[msg.sender] == 0 */\n      sub\n        /* \"contracts/Donation.sol\":584:673  if(_donations[msg.sender] == 0){... */\n      tag_43\n      jumpi\n        /* \"contracts/Donation.sol\":629:645  charityAddresses */\n      0x03\n        /* \"contracts/Donation.sol\":651:661  msg.sender */\n      caller\n        /* \"contracts/Donation.sol\":629:662  charityAddresses.push(msg.sender) */\n      swap1\n      dup1\n      0x01\n      dup2\n      sload\n      add\n      dup1\n      dup3\n      sstore\n      dup1\n      swap2\n      pop\n      pop\n      0x01\n      swap1\n      sub\n      swap1\n      0x00\n      mstore\n      keccak256(0x00, 0x20)\n      add\n      0x00\n      swap1\n      swap2\n      swap1\n      swap2\n      swap1\n      swap2\n      0x0100\n      exp\n      dup2\n      sload\n      dup2\n      0xffffffffffffffffffffffffffffffffffffffff\n      mul\n      not\n      and\n      swap1\n      dup4\n      0xffffffffffffffffffffffffffffffffffffffff\n      and\n      mul\n      or\n      swap1\n      sstore\n      pop\n        /* \"contracts/Donation.sol\":584:673  if(_donations[msg.sender] == 0){... */\n    tag_43:\n        /* \"contracts/Donation.sol\":708:717  msg.value */\n      callvalue\n        /* \"contracts/Donation.sol\":682:692  _donations */\n      0x04\n        /* \"contracts/Donation.sol\":682:704  _donations[msg.sender] */\n      0x00\n        /* \"contracts/Donation.sol\":693:703  msg.sender */\n      caller\n        /* \"contracts/Donation.sol\":682:704  _donations[msg.sender] */\n      0xffffffffffffffffffffffffffffffffffffffff\n      and\n      0xffffffffffffffffffffffffffffffffffffffff\n      and\n      dup2\n      mstore\n      0x20\n      add\n      swap1\n      dup2\n      mstore\n      0x20\n      add\n      0x00\n      keccak256\n      0x00\n        /* \"contracts/Donation.sol\":682:717  _donations[msg.sender] += msg.value */\n      dup3\n      dup3\n      sload\n      tag_45\n      swap2\n      swap1\n      tag_46\n      jump\t// in\n    tag_45:\n      swap3\n      pop\n      pop\n      dup2\n      swap1\n      sstore\n      pop\n        /* \"contracts/Donation.sol\":751:760  msg.value */\n      callvalue\n        /* \"contracts/Donation.sol\":727:747  totalDonationsAmount */\n      0x00\n      dup1\n        /* \"contracts/Donation.sol\":727:760  totalDonationsAmount += msg.value */\n      dup3\n      dup3\n      sload\n      tag_47\n      swap2\n      swap1\n      tag_46\n      jump\t// in\n    tag_47:\n      swap3\n      pop\n      pop\n      dup2\n      swap1\n      sstore\n      pop\n        /* \"contracts/Donation.sol\":784:794  msg.sender */\n      caller\n        /* \"contracts/Donation.sol\":775:806  Transfer(msg.sender, msg.value) */\n      0xffffffffffffffffffffffffffffffffffffffff\n      and\n      0x69ca02dd4edd7bf0a4abb9ed3b7af3f14778db5d61921c7dc7cd545266326de2\n        /* \"contracts/Donation.sol\":796:805  msg.value */\n      callvalue\n        /* \"contracts/Donation.sol\":775:806  Transfer(msg.sender, msg.value) */\n      mload(0x40)\n      tag_48\n      swap2\n      swap1\n      tag_10\n      jump\t// in\n    tag_48:\n      mload(0x40)\n      dup1\n      swap2\n      sub\n      swap1\n      log2\n        /* \"contracts/Donation.sol\":451:821  function donate() external payable {... */\n      jump\t// out\n        /* \"contracts/Donation.sol\":1380:1483  function getSumOfDonations() external view returns(uint256){... */\n    tag_25:\n        /* \"contracts/Donation.sol\":1431:1438  uint256 */\n      0x00\n        /* \"contracts/Donation.sol\":1456:1476  totalDonationsAmount */\n      dup1\n      sload\n        /* \"contracts/Donation.sol\":1449:1476  return totalDonationsAmount */\n      swap1\n      pop\n        /* \"contracts/Donation.sol\":1380:1483  function getSumOfDonations() external view returns(uint256){... */\n      swap1\n      jump\t// out\n        /* \"#utility.yul\":7:84   */\n    tag_50:\n        /* \"#utility.yul\":44:51   */\n      0x00\n        /* \"#utility.yul\":73:78   */\n      dup2\n        /* \"#utility.yul\":62:78   */\n      swap1\n      pop\n        /* \"#utility.yul\":7:84   */\n      swap2\n      swap1\n      pop\n      jump\t// out\n        /* \"#utility.yul\":90:208   */\n    tag_51:\n        /* \"#utility.yul\":177:201   */\n      tag_74\n        /* \"#utility.yul\":195:200   */\n      dup2\n        /* \"#utility.yul\":177:201   */\n      tag_50\n      jump\t// in\n    tag_74:\n        /* \"#utility.yul\":172:175   */\n      dup3\n        /* \"#utility.yul\":165:202   */\n      mstore\n        /* \"#utility.yul\":90:208   */\n      pop\n      pop\n      jump\t// out\n        /* \"#utility.yul\":214:436   */\n    tag_10:\n        /* \"#utility.yul\":307:311   */\n      0x00\n        /* \"#utility.yul\":345:347   */\n      0x20\n        /* \"#utility.yul\":334:343   */\n      dup3\n        /* \"#utility.yul\":330:348   */\n      add\n        /* \"#utility.yul\":322:348   */\n      swap1\n      pop\n        /* \"#utility.yul\":358:429   */\n      tag_76\n        /* \"#utility.yul\":426:427   */\n      0x00\n        /* \"#utility.yul\":415:424   */\n      dup4\n        /* \"#utility.yul\":411:428   */\n      add\n        /* \"#utility.yul\":402:408   */\n      dup5\n        /* \"#utility.yul\":358:429   */\n      tag_51\n      jump\t// in\n    tag_76:\n        /* \"#utility.yul\":214:436   */\n      swap3\n      swap2\n      pop\n      pop\n      jump\t// out\n        /* \"#utility.yul\":523:640   */\n    tag_53:\n        /* \"#utility.yul\":632:633   */\n      0x00\n        /* \"#utility.yul\":629:630   */\n      dup1\n        /* \"#utility.yul\":622:634   */\n      revert\n        /* \"#utility.yul\":769:895   */\n    tag_55:\n        /* \"#utility.yul\":806:813   */\n      0x00\n        /* \"#utility.yul\":846:888   */\n      0xffffffffffffffffffffffffffffffffffffffff\n        /* \"#utility.yul\":839:844   */\n      dup3\n        /* \"#utility.yul\":835:889   */\n      and\n        /* \"#utility.yul\":824:889   */\n      swap1\n      pop\n        /* \"#utility.yul\":769:895   */\n      swap2\n      swap1\n      pop\n      jump\t// out\n        /* \"#utility.yul\":901:1005   */\n    tag_56:\n        /* \"#utility.yul\":946:953   */\n      0x00\n        /* \"#utility.yul\":975:999   */\n      tag_82\n        /* \"#utility.yul\":993:998   */\n      dup3\n        /* \"#utility.yul\":975:999   */\n      tag_55\n      jump\t// in\n    tag_82:\n        /* \"#utility.yul\":964:999   */\n      swap1\n      pop\n        /* \"#utility.yul\":901:1005   */\n      swap2\n      swap1\n      pop\n      jump\t// out\n        /* \"#utility.yul\":1011:1149   */\n    tag_57:\n        /* \"#utility.yul\":1092:1124   */\n      tag_84\n        /* \"#utility.yul\":1118:1123   */\n      dup2\n        /* \"#utility.yul\":1092:1124   */\n      tag_56\n      jump\t// in\n    tag_84:\n        /* \"#utility.yul\":1085:1090   */\n      dup2\n        /* \"#utility.yul\":1082:1125   */\n      eq\n        /* \"#utility.yul\":1072:1143   */\n      tag_85\n      jumpi\n        /* \"#utility.yul\":1139:1140   */\n      0x00\n        /* \"#utility.yul\":1136:1137   */\n      dup1\n        /* \"#utility.yul\":1129:1141   */\n      revert\n        /* \"#utility.yul\":1072:1143   */\n    tag_85:\n        /* \"#utility.yul\":1011:1149   */\n      pop\n      jump\t// out\n        /* \"#utility.yul\":1155:1310   */\n    tag_58:\n        /* \"#utility.yul\":1209:1214   */\n      0x00\n        /* \"#utility.yul\":1247:1253   */\n      dup2\n        /* \"#utility.yul\":1234:1254   */\n      calldataload\n        /* \"#utility.yul\":1225:1254   */\n      swap1\n      pop\n        /* \"#utility.yul\":1263:1304   */\n      tag_87\n        /* \"#utility.yul\":1298:1303   */\n      dup2\n        /* \"#utility.yul\":1263:1304   */\n      tag_57\n      jump\t// in\n    tag_87:\n        /* \"#utility.yul\":1155:1310   */\n      swap3\n      swap2\n      pop\n      pop\n      jump\t// out\n        /* \"#utility.yul\":1316:1438   */\n    tag_59:\n        /* \"#utility.yul\":1389:1413   */\n      tag_89\n        /* \"#utility.yul\":1407:1412   */\n      dup2\n        /* \"#utility.yul\":1389:1413   */\n      tag_50\n      jump\t// in\n    tag_89:\n        /* \"#utility.yul\":1382:1387   */\n      dup2\n        /* \"#utility.yul\":1379:1414   */\n      eq\n        /* \"#utility.yul\":1369:1432   */\n      tag_90\n      jumpi\n        /* \"#utility.yul\":1428:1429   */\n      0x00\n        /* \"#utility.yul\":1425:1426   */\n      dup1\n        /* \"#utility.yul\":1418:1430   */\n      revert\n        /* \"#utility.yul\":1369:1432   */\n    tag_90:\n        /* \"#utility.yul\":1316:1438   */\n      pop\n      jump\t// out\n        /* \"#utility.yul\":1444:1583   */\n    tag_60:\n        /* \"#utility.yul\":1490:1495   */\n      0x00\n        /* \"#utility.yul\":1528:1534   */\n      dup2\n        /* \"#utility.yul\":1515:1535   */\n      calldataload\n        /* \"#utility.yul\":1506:1535   */\n      swap1\n      pop\n        /* \"#utility.yul\":1544:1577   */\n      tag_92\n        /* \"#utility.yul\":1571:1576   */\n      dup2\n        /* \"#utility.yul\":1544:1577   */\n      tag_59\n      jump\t// in\n    tag_92:\n        /* \"#utility.yul\":1444:1583   */\n      swap3\n      swap2\n      pop\n      pop\n      jump\t// out\n        /* \"#utility.yul\":1589:2079   */\n    tag_14:\n        /* \"#utility.yul\":1665:1671   */\n      0x00\n        /* \"#utility.yul\":1673:1679   */\n      dup1\n        /* \"#utility.yul\":1722:1724   */\n      0x40\n        /* \"#utility.yul\":1710:1719   */\n      dup4\n        /* \"#utility.yul\":1701:1708   */\n      dup6\n        /* \"#utility.yul\":1697:1720   */\n      sub\n        /* \"#utility.yul\":1693:1725   */\n      slt\n        /* \"#utility.yul\":1690:1809   */\n      iszero\n      tag_94\n      jumpi\n        /* \"#utility.yul\":1728:1807   */\n      tag_95\n      tag_53\n      jump\t// in\n    tag_95:\n        /* \"#utility.yul\":1690:1809   */\n    tag_94:\n        /* \"#utility.yul\":1848:1849   */\n      0x00\n        /* \"#utility.yul\":1873:1934   */\n      tag_96\n        /* \"#utility.yul\":1926:1933   */\n      dup6\n        /* \"#utility.yul\":1917:1923   */\n      dup3\n        /* \"#utility.yul\":1906:1915   */\n      dup7\n        /* \"#utility.yul\":1902:1924   */\n      add\n        /* \"#utility.yul\":1873:1934   */\n      tag_58\n      jump\t// in\n    tag_96:\n        /* \"#utility.yul\":1863:1934   */\n      swap3\n      pop\n        /* \"#utility.yul\":1819:1944   */\n      pop\n        /* \"#utility.yul\":1983:1985   */\n      0x20\n        /* \"#utility.yul\":2009:2062   */\n      tag_97\n        /* \"#utility.yul\":2054:2061   */\n      dup6\n        /* \"#utility.yul\":2045:2051   */\n      dup3\n        /* \"#utility.yul\":2034:2043   */\n      dup7\n        /* \"#utility.yul\":2030:2052   */\n      add\n        /* \"#utility.yul\":2009:2062   */\n      tag_60\n      jump\t// in\n    tag_97:\n        /* \"#utility.yul\":1999:2062   */\n      swap2\n      pop\n        /* \"#utility.yul\":1954:2072   */\n      pop\n        /* \"#utility.yul\":1589:2079   */\n      swap3\n      pop\n      swap3\n      swap1\n      pop\n      jump\t// out\n        /* \"#utility.yul\":2085:2199   */\n    tag_61:\n        /* \"#utility.yul\":2152:2158   */\n      0x00\n        /* \"#utility.yul\":2186:2191   */\n      dup2\n        /* \"#utility.yul\":2180:2192   */\n      mload\n        /* \"#utility.yul\":2170:2192   */\n      swap1\n      pop\n        /* \"#utility.yul\":2085:2199   */\n      swap2\n      swap1\n      pop\n      jump\t// out\n        /* \"#utility.yul\":2205:2389   */\n    tag_62:\n        /* \"#utility.yul\":2304:2315   */\n      0x00\n        /* \"#utility.yul\":2338:2344   */\n      dup3\n        /* \"#utility.yul\":2333:2336   */\n      dup3\n        /* \"#utility.yul\":2326:2345   */\n      mstore\n        /* \"#utility.yul\":2378:2382   */\n      0x20\n        /* \"#utility.yul\":2373:2376   */\n      dup3\n        /* \"#utility.yul\":2369:2383   */\n      add\n        /* \"#utility.yul\":2354:2383   */\n      swap1\n      pop\n        /* \"#utility.yul\":2205:2389   */\n      swap3\n      swap2\n      pop\n      pop\n      jump\t// out\n        /* \"#utility.yul\":2395:2527   */\n    tag_63:\n        /* \"#utility.yul\":2462:2466   */\n      0x00\n        /* \"#utility.yul\":2485:2488   */\n      dup2\n        /* \"#utility.yul\":2477:2488   */\n      swap1\n      pop\n        /* \"#utility.yul\":2515:2519   */\n      0x20\n        /* \"#utility.yul\":2510:2513   */\n      dup3\n        /* \"#utility.yul\":2506:2520   */\n      add\n        /* \"#utility.yul\":2498:2520   */\n      swap1\n      pop\n        /* \"#utility.yul\":2395:2527   */\n      swap2\n      swap1\n      pop\n      jump\t// out\n        /* \"#utility.yul\":2533:2629   */\n    tag_64:\n        /* \"#utility.yul\":2570:2577   */\n      0x00\n        /* \"#utility.yul\":2599:2623   */\n      tag_102\n        /* \"#utility.yul\":2617:2622   */\n      dup3\n        /* \"#utility.yul\":2599:2623   */\n      tag_55\n      jump\t// in\n    tag_102:\n        /* \"#utility.yul\":2588:2623   */\n      swap1\n      pop\n        /* \"#utility.yul\":2533:2629   */\n      swap2\n      swap1\n      pop\n      jump\t// out\n        /* \"#utility.yul\":2635:2743   */\n    tag_65:\n        /* \"#utility.yul\":2712:2736   */\n      tag_104\n        /* \"#utility.yul\":2730:2735   */\n      dup2\n        /* \"#utility.yul\":2712:2736   */\n      tag_64\n      jump\t// in\n    tag_104:\n        /* \"#utility.yul\":2707:2710   */\n      dup3\n        /* \"#utility.yul\":2700:2737   */\n      mstore\n        /* \"#utility.yul\":2635:2743   */\n      pop\n      pop\n      jump\t// out\n        /* \"#utility.yul\":2749:2928   */\n    tag_66:\n        /* \"#utility.yul\":2818:2828   */\n      0x00\n        /* \"#utility.yul\":2839:2885   */\n      tag_106\n        /* \"#utility.yul\":2881:2884   */\n      dup4\n        /* \"#utility.yul\":2873:2879   */\n      dup4\n        /* \"#utility.yul\":2839:2885   */\n      tag_65\n      jump\t// in\n    tag_106:\n        /* \"#utility.yul\":2917:2921   */\n      0x20\n        /* \"#utility.yul\":2912:2915   */\n      dup4\n        /* \"#utility.yul\":2908:2922   */\n      add\n        /* \"#utility.yul\":2894:2922   */\n      swap1\n      pop\n        /* \"#utility.yul\":2749:2928   */\n      swap3\n      swap2\n      pop\n      pop\n      jump\t// out\n        /* \"#utility.yul\":2934:3047   */\n    tag_67:\n        /* \"#utility.yul\":3004:3008   */\n      0x00\n        /* \"#utility.yul\":3036:3040   */\n      0x20\n        /* \"#utility.yul\":3031:3034   */\n      dup3\n        /* \"#utility.yul\":3027:3041   */\n      add\n        /* \"#utility.yul\":3019:3041   */\n      swap1\n      pop\n        /* \"#utility.yul\":2934:3047   */\n      swap2\n      swap1\n      pop\n      jump\t// out\n        /* \"#utility.yul\":3083:3815   */\n    tag_68:\n        /* \"#utility.yul\":3202:3205   */\n      0x00\n        /* \"#utility.yul\":3231:3285   */\n      tag_109\n        /* \"#utility.yul\":3279:3284   */\n      dup3\n        /* \"#utility.yul\":3231:3285   */\n      tag_61\n      jump\t// in\n    tag_109:\n        /* \"#utility.yul\":3301:3387   */\n      tag_110\n        /* \"#utility.yul\":3380:3386   */\n      dup2\n        /* \"#utility.yul\":3375:3378   */\n      dup6\n        /* \"#utility.yul\":3301:3387   */\n      tag_62\n      jump\t// in\n    tag_110:\n        /* \"#utility.yul\":3294:3387   */\n      swap4\n      pop\n        /* \"#utility.yul\":3411:3467   */\n      tag_111\n        /* \"#utility.yul\":3461:3466   */\n      dup4\n        /* \"#utility.yul\":3411:3467   */\n      tag_63\n      jump\t// in\n    tag_111:\n        /* \"#utility.yul\":3490:3497   */\n      dup1\n        /* \"#utility.yul\":3521:3522   */\n      0x00\n        /* \"#utility.yul\":3506:3790   */\n    tag_112:\n        /* \"#utility.yul\":3531:3537   */\n      dup4\n        /* \"#utility.yul\":3528:3529   */\n      dup2\n        /* \"#utility.yul\":3525:3538   */\n      lt\n        /* \"#utility.yul\":3506:3790   */\n      iszero\n      tag_114\n      jumpi\n        /* \"#utility.yul\":3607:3613   */\n      dup2\n        /* \"#utility.yul\":3601:3614   */\n      mload\n        /* \"#utility.yul\":3634:3697   */\n      tag_115\n        /* \"#utility.yul\":3693:3696   */\n      dup9\n        /* \"#utility.yul\":3678:3691   */\n      dup3\n        /* \"#utility.yul\":3634:3697   */\n      tag_66\n      jump\t// in\n    tag_115:\n        /* \"#utility.yul\":3627:3697   */\n      swap8\n      pop\n        /* \"#utility.yul\":3720:3780   */\n      tag_116\n        /* \"#utility.yul\":3773:3779   */\n      dup4\n        /* \"#utility.yul\":3720:3780   */\n      tag_67\n      jump\t// in\n    tag_116:\n        /* \"#utility.yul\":3710:3780   */\n      swap3\n      pop\n        /* \"#utility.yul\":3566:3790   */\n      pop\n        /* \"#utility.yul\":3553:3554   */\n      0x01\n        /* \"#utility.yul\":3550:3551   */\n      dup2\n        /* \"#utility.yul\":3546:3555   */\n      add\n        /* \"#utility.yul\":3541:3555   */\n      swap1\n      pop\n        /* \"#utility.yul\":3506:3790   */\n      jump(tag_112)\n    tag_114:\n        /* \"#utility.yul\":3510:3524   */\n      pop\n        /* \"#utility.yul\":3806:3809   */\n      dup6\n        /* \"#utility.yul\":3799:3809   */\n      swap4\n      pop\n        /* \"#utility.yul\":3207:3815   */\n      pop\n      pop\n      pop\n        /* \"#utility.yul\":3083:3815   */\n      swap3\n      swap2\n      pop\n      pop\n      jump\t// out\n        /* \"#utility.yul\":3821:4194   */\n    tag_20:\n        /* \"#utility.yul\":3964:3968   */\n      0x00\n        /* \"#utility.yul\":4002:4004   */\n      0x20\n        /* \"#utility.yul\":3991:4000   */\n      dup3\n        /* \"#utility.yul\":3987:4005   */\n      add\n        /* \"#utility.yul\":3979:4005   */\n      swap1\n      pop\n        /* \"#utility.yul\":4051:4060   */\n      dup2\n        /* \"#utility.yul\":4045:4049   */\n      dup2\n        /* \"#utility.yul\":4041:4061   */\n      sub\n        /* \"#utility.yul\":4037:4038   */\n      0x00\n        /* \"#utility.yul\":4026:4035   */\n      dup4\n        /* \"#utility.yul\":4022:4039   */\n      add\n        /* \"#utility.yul\":4015:4062   */\n      mstore\n        /* \"#utility.yul\":4079:4187   */\n      tag_118\n        /* \"#utility.yul\":4182:4186   */\n      dup2\n        /* \"#utility.yul\":4173:4179   */\n      dup5\n        /* \"#utility.yul\":4079:4187   */\n      tag_68\n      jump\t// in\n    tag_118:\n        /* \"#utility.yul\":4071:4187   */\n      swap1\n      pop\n        /* \"#utility.yul\":3821:4194   */\n      swap3\n      swap2\n      pop\n      pop\n      jump\t// out\n        /* \"#utility.yul\":4200:4318   */\n    tag_69:\n        /* \"#utility.yul\":4287:4311   */\n      tag_120\n        /* \"#utility.yul\":4305:4310   */\n      dup2\n        /* \"#utility.yul\":4287:4311   */\n      tag_64\n      jump\t// in\n    tag_120:\n        /* \"#utility.yul\":4282:4285   */\n      dup3\n        /* \"#utility.yul\":4275:4312   */\n      mstore\n        /* \"#utility.yul\":4200:4318   */\n      pop\n      pop\n      jump\t// out\n        /* \"#utility.yul\":4324:4546   */\n    tag_30:\n        /* \"#utility.yul\":4417:4421   */\n      0x00\n        /* \"#utility.yul\":4455:4457   */\n      0x20\n        /* \"#utility.yul\":4444:4453   */\n      dup3\n        /* \"#utility.yul\":4440:4458   */\n      add\n        /* \"#utility.yul\":4432:4458   */\n      swap1\n      pop\n        /* \"#utility.yul\":4468:4539   */\n      tag_122\n        /* \"#utility.yul\":4536:4537   */\n      0x00\n        /* \"#utility.yul\":4525:4534   */\n      dup4\n        /* \"#utility.yul\":4521:4538   */\n      add\n        /* \"#utility.yul\":4512:4518   */\n      dup5\n        /* \"#utility.yul\":4468:4539   */\n      tag_69\n      jump\t// in\n    tag_122:\n        /* \"#utility.yul\":4324:4546   */\n      swap3\n      swap2\n      pop\n      pop\n      jump\t// out\n        /* \"#utility.yul\":4552:4732   */\n    tag_70:\n        /* \"#utility.yul\":4600:4677   */\n      0x4e487b7100000000000000000000000000000000000000000000000000000000\n        /* \"#utility.yul\":4597:4598   */\n      0x00\n        /* \"#utility.yul\":4590:4678   */\n      mstore\n        /* \"#utility.yul\":4697:4701   */\n      0x11\n        /* \"#utility.yul\":4694:4695   */\n      0x04\n        /* \"#utility.yul\":4687:4702   */\n      mstore\n        /* \"#utility.yul\":4721:4725   */\n      0x24\n        /* \"#utility.yul\":4718:4719   */\n      0x00\n        /* \"#utility.yul\":4711:4726   */\n      revert\n        /* \"#utility.yul\":4738:4929   */\n    tag_46:\n        /* \"#utility.yul\":4778:4781   */\n      0x00\n        /* \"#utility.yul\":4797:4817   */\n      tag_125\n        /* \"#utility.yul\":4815:4816   */\n      dup3\n        /* \"#utility.yul\":4797:4817   */\n      tag_50\n      jump\t// in\n    tag_125:\n        /* \"#utility.yul\":4792:4817   */\n      swap2\n      pop\n        /* \"#utility.yul\":4831:4851   */\n      tag_126\n        /* \"#utility.yul\":4849:4850   */\n      dup4\n        /* \"#utility.yul\":4831:4851   */\n      tag_50\n      jump\t// in\n    tag_126:\n        /* \"#utility.yul\":4826:4851   */\n      swap3\n      pop\n        /* \"#utility.yul\":4874:4875   */\n      dup3\n        /* \"#utility.yul\":4871:4872   */\n      dup3\n        /* \"#utility.yul\":4867:4876   */\n      add\n        /* \"#utility.yul\":4860:4876   */\n      swap1\n      pop\n        /* \"#utility.yul\":4895:4898   */\n      dup1\n        /* \"#utility.yul\":4892:4893   */\n      dup3\n        /* \"#utility.yul\":4889:4899   */\n      gt\n        /* \"#utility.yul\":4886:4922   */\n      iszero\n      tag_127\n      jumpi\n        /* \"#utility.yul\":4902:4920   */\n      tag_128\n      tag_70\n      jump\t// in\n    tag_128:\n        /* \"#utility.yul\":4886:4922   */\n    tag_127:\n        /* \"#utility.yul\":4738:4929   */\n      swap3\n      swap2\n      pop\n      pop\n      jump\t// out\n\n    auxdata: 0xa2646970667358221220b99f6bf87eb3043b2a364b800229fad3c3f7a1ea0a6de2cfa6c3623b2fd3db0a64736f6c63430008160033\n}\n",
				"bytecode": {
					"linkReferences": {},
					"object": "608060405234801561000f575f80fd5b503360025f6101000a81548173ffffffffffffffffffffffffffffffffffffffff021916908373ffffffffffffffffffffffffffffffffffffffff1602179055506107638061005d5f395ff3fe608060405260043610610042575f3560e01c80636f965a631461009b578063bf1482fa146100c3578063ed88c68e146100ed578063f3a01489146100f757610097565b36610097573373ffffffffffffffffffffffffffffffffffffffff167f69ca02dd4edd7bf0a4abb9ed3b7af3f14778db5d61921c7dc7cd545266326de23460405161008d91906104de565b60405180910390a2005b5f80fd5b3480156100a6575f80fd5b506100c160048036038101906100bc919061057f565b610121565b005b3480156100ce575f80fd5b506100d7610290565b6040516100e49190610685565b60405180910390f35b6100f561031b565b005b348015610102575f80fd5b5061010b6104be565b60405161011891906104de565b60405180910390f35b60025f9054906101000a900473ffffffffffffffffffffffffffffffffffffffff1673ffffffffffffffffffffffffffffffffffffffff163373ffffffffffffffffffffffffffffffffffffffff16146101b257336040517ff499598a0000000000000000000000000000000000000000000000000000000081526004016101a991906106b4565b60405180910390fd5b478111156101f757336040517f30e8fb430000000000000000000000000000000000000000000000000000000081526004016101ee91906106b4565b60405180910390fd5b5f8273ffffffffffffffffffffffffffffffffffffffff166108fc8390811502906040515f60405180830381858888f1935050505090508015610287573373ffffffffffffffffffffffffffffffffffffffff167f69ca02dd4edd7bf0a4abb9ed3b7af3f14778db5d61921c7dc7cd545266326de28360405161027a91906104de565b60405180910390a261028b565b5f80fd5b505050565b6060600380548060200260200160405190810160405280929190818152602001828054801561031157602002820191905f5260205f20905b815f9054906101000a900473ffffffffffffffffffffffffffffffffffffffff1673ffffffffffffffffffffffffffffffffffffffff16815260200190600101908083116102c8575b5050505050905090565b5f341161035f57336040517f30e8fb4300000000000000000000000000000000000000000000000000000000815260040161035691906106b4565b60405180910390fd5b5f60045f3373ffffffffffffffffffffffffffffffffffffffff1673ffffffffffffffffffffffffffffffffffffffff1681526020019081526020015f20540361040457600333908060018154018082558091505060019003905f5260205f20015f9091909190916101000a81548173ffffffffffffffffffffffffffffffffffffffff021916908373ffffffffffffffffffffffffffffffffffffffff1602179055505b3460045f3373ffffffffffffffffffffffffffffffffffffffff1673ffffffffffffffffffffffffffffffffffffffff1681526020019081526020015f205f82825461045091906106fa565b92505081905550345f8082825461046791906106fa565b925050819055503373ffffffffffffffffffffffffffffffffffffffff167f69ca02dd4edd7bf0a4abb9ed3b7af3f14778db5d61921c7dc7cd545266326de2346040516104b491906104de565b60405180910390a2565b5f8054905090565b5f819050919050565b6104d8816104c6565b82525050565b5f6020820190506104f15f8301846104cf565b92915050565b5f80fd5b5f73ffffffffffffffffffffffffffffffffffffffff82169050919050565b5f610524826104fb565b9050919050565b6105348161051a565b811461053e575f80fd5b50565b5f8135905061054f8161052b565b92915050565b61055e816104c6565b8114610568575f80fd5b50565b5f8135905061057981610555565b92915050565b5f8060408385031215610595576105946104f7565b5b5f6105a285828601610541565b92505060206105b38582860161056b565b9150509250929050565b5f81519050919050565b5f82825260208201905092915050565b5f819050602082019050919050565b5f6105f0826104fb565b9050919050565b610600816105e6565b82525050565b5f61061183836105f7565b60208301905092915050565b5f602082019050919050565b5f610633826105bd565b61063d81856105c7565b9350610648836105d7565b805f5b8381101561067857815161065f8882610606565b975061066a8361061d565b92505060018101905061064b565b5085935050505092915050565b5f6020820190508181035f83015261069d8184610629565b905092915050565b6106ae816105e6565b82525050565b5f6020820190506106c75f8301846106a5565b92915050565b7f4e487b71000000000000000000000000000000000000000000000000000000005f52601160045260245ffd5b5f610704826104c6565b915061070f836104c6565b9250828201905080821115610727576107266106cd565b5b9291505056fea2646970667358221220b99f6bf87eb3043b2a364b800229fad3c3f7a1ea0a6de2cfa6c3623b2fd3db0a64736f6c63430008160033",
					"opcodes": "PUSH1 0x80 PUSH1 0x40 MSTORE CALLVALUE DUP1 ISZERO PUSH2 0xF JUMPI PUSH0 DUP1 REVERT JUMPDEST POP CALLER PUSH1 0x2 PUSH0 PUSH2 0x100 EXP DUP2 SLOAD DUP2 PUSH20 0xFFFFFFFFFFFFFFFFFFFFFFFFFFFFFFFFFFFFFFFF MUL NOT AND SWAP1 DUP4 PUSH20 0xFFFFFFFFFFFFFFFFFFFFFFFFFFFFFFFFFFFFFFFF AND MUL OR SWAP1 SSTORE POP PUSH2 0x763 DUP1 PUSH2 0x5D PUSH0 CODECOPY PUSH0 RETURN INVALID PUSH1 0x80 PUSH1 0x40 MSTORE PUSH1 0x4 CALLDATASIZE LT PUSH2 0x42 JUMPI PUSH0 CALLDATALOAD PUSH1 0xE0 SHR DUP1 PUSH4 0x6F965A63 EQ PUSH2 0x9B JUMPI DUP1 PUSH4 0xBF1482FA EQ PUSH2 0xC3 JUMPI DUP1 PUSH4 0xED88C68E EQ PUSH2 0xED JUMPI DUP1 PUSH4 0xF3A01489 EQ PUSH2 0xF7 JUMPI PUSH2 0x97 JUMP JUMPDEST CALLDATASIZE PUSH2 0x97 JUMPI CALLER PUSH20 0xFFFFFFFFFFFFFFFFFFFFFFFFFFFFFFFFFFFFFFFF AND PUSH32 0x69CA02DD4EDD7BF0A4ABB9ED3B7AF3F14778DB5D61921C7DC7CD545266326DE2 CALLVALUE PUSH1 0x40 MLOAD PUSH2 0x8D SWAP2 SWAP1 PUSH2 0x4DE JUMP JUMPDEST PUSH1 0x40 MLOAD DUP1 SWAP2 SUB SWAP1 LOG2 STOP JUMPDEST PUSH0 DUP1 REVERT JUMPDEST CALLVALUE DUP1 ISZERO PUSH2 0xA6 JUMPI PUSH0 DUP1 REVERT JUMPDEST POP PUSH2 0xC1 PUSH1 0x4 DUP1 CALLDATASIZE SUB DUP2 ADD SWAP1 PUSH2 0xBC SWAP2 SWAP1 PUSH2 0x57F JUMP JUMPDEST PUSH2 0x121 JUMP JUMPDEST STOP JUMPDEST CALLVALUE DUP1 ISZERO PUSH2 0xCE JUMPI PUSH0 DUP1 REVERT JUMPDEST POP PUSH2 0xD7 PUSH2 0x290 JUMP JUMPDEST PUSH1 0x40 MLOAD PUSH2 0xE4 SWAP2 SWAP1 PUSH2 0x685 JUMP JUMPDEST PUSH1 0x40 MLOAD DUP1 SWAP2 SUB SWAP1 RETURN JUMPDEST PUSH2 0xF5 PUSH2 0x31B JUMP JUMPDEST STOP JUMPDEST CALLVALUE DUP1 ISZERO PUSH2 0x102 JUMPI PUSH0 DUP1 REVERT JUMPDEST POP PUSH2 0x10B PUSH2 0x4BE JUMP JUMPDEST PUSH1 0x40 MLOAD PUSH2 0x118 SWAP2 SWAP1 PUSH2 0x4DE JUMP JUMPDEST PUSH1 0x40 MLOAD DUP1 SWAP2 SUB SWAP1 RETURN JUMPDEST PUSH1 0x2 PUSH0 SWAP1 SLOAD SWAP1 PUSH2 0x100 EXP SWAP1 DIV PUSH20 0xFFFFFFFFFFFFFFFFFFFFFFFFFFFFFFFFFFFFFFFF AND PUSH20 0xFFFFFFFFFFFFFFFFFFFFFFFFFFFFFFFFFFFFFFFF AND CALLER PUSH20 0xFFFFFFFFFFFFFFFFFFFFFFFFFFFFFFFFFFFFFFFF AND EQ PUSH2 0x1B2 JUMPI CALLER PUSH1 0x40 MLOAD PUSH32 0xF499598A00000000000000000000000000000000000000000000000000000000 DUP2 MSTORE PUSH1 0x4 ADD PUSH2 0x1A9 SWAP2 SWAP1 PUSH2 0x6B4 JUMP JUMPDEST PUSH1 0x40 MLOAD DUP1 SWAP2 SUB SWAP1 REVERT JUMPDEST SELFBALANCE DUP2 GT ISZERO PUSH2 0x1F7 JUMPI CALLER PUSH1 0x40 MLOAD PUSH32 0x30E8FB4300000000000000000000000000000000000000000000000000000000 DUP2 MSTORE PUSH1 0x4 ADD PUSH2 0x1EE SWAP2 SWAP1 PUSH2 0x6B4 JUMP JUMPDEST PUSH1 0x40 MLOAD DUP1 SWAP2 SUB SWAP1 REVERT JUMPDEST PUSH0 DUP3 PUSH20 0xFFFFFFFFFFFFFFFFFFFFFFFFFFFFFFFFFFFFFFFF AND PUSH2 0x8FC DUP4 SWAP1 DUP2 ISZERO MUL SWAP1 PUSH1 0x40 MLOAD PUSH0 PUSH1 0x40 MLOAD DUP1 DUP4 SUB DUP2 DUP6 DUP9 DUP9 CALL SWAP4 POP POP POP POP SWAP1 POP DUP1 ISZERO PUSH2 0x287 JUMPI CALLER PUSH20 0xFFFFFFFFFFFFFFFFFFFFFFFFFFFFFFFFFFFFFFFF AND PUSH32 0x69CA02DD4EDD7BF0A4ABB9ED3B7AF3F14778DB5D61921C7DC7CD545266326DE2 DUP4 PUSH1 0x40 MLOAD PUSH2 0x27A SWAP2 SWAP1 PUSH2 0x4DE JUMP JUMPDEST PUSH1 0x40 MLOAD DUP1 SWAP2 SUB SWAP1 LOG2 PUSH2 0x28B JUMP JUMPDEST PUSH0 DUP1 REVERT JUMPDEST POP POP POP JUMP JUMPDEST PUSH1 0x60 PUSH1 0x3 DUP1 SLOAD DUP1 PUSH1 0x20 MUL PUSH1 0x20 ADD PUSH1 0x40 MLOAD SWAP1 DUP2 ADD PUSH1 0x40 MSTORE DUP1 SWAP3 SWAP2 SWAP1 DUP2 DUP2 MSTORE PUSH1 0x20 ADD DUP3 DUP1 SLOAD DUP1 ISZERO PUSH2 0x311 JUMPI PUSH1 0x20 MUL DUP3 ADD SWAP2 SWAP1 PUSH0 MSTORE PUSH1 0x20 PUSH0 KECCAK256 SWAP1 JUMPDEST DUP2 PUSH0 SWAP1 SLOAD SWAP1 PUSH2 0x100 EXP SWAP1 DIV PUSH20 0xFFFFFFFFFFFFFFFFFFFFFFFFFFFFFFFFFFFFFFFF AND PUSH20 0xFFFFFFFFFFFFFFFFFFFFFFFFFFFFFFFFFFFFFFFF AND DUP2 MSTORE PUSH1 0x20 ADD SWAP1 PUSH1 0x1 ADD SWAP1 DUP1 DUP4 GT PUSH2 0x2C8 JUMPI JUMPDEST POP POP POP POP POP SWAP1 POP SWAP1 JUMP JUMPDEST PUSH0 CALLVALUE GT PUSH2 0x35F JUMPI CALLER PUSH1 0x40 MLOAD PUSH32 0x30E8FB4300000000000000000000000000000000000000000000000000000000 DUP2 MSTORE PUSH1 0x4 ADD PUSH2 0x356 SWAP2 SWAP1 PUSH2 0x6B4 JUMP JUMPDEST PUSH1 0x40 MLOAD DUP1 SWAP2 SUB SWAP1 REVERT JUMPDEST PUSH0 PUSH1 0x4 PUSH0 CALLER PUSH20 0xFFFFFFFFFFFFFFFFFFFFFFFFFFFFFFFFFFFFFFFF AND PUSH20 0xFFFFFFFFFFFFFFFFFFFFFFFFFFFFFFFFFFFFFFFF AND DUP2 MSTORE PUSH1 0x20 ADD SWAP1 DUP2 MSTORE PUSH1 0x20 ADD PUSH0 KECCAK256 SLOAD SUB PUSH2 0x404 JUMPI PUSH1 0x3 CALLER SWAP1 DUP1 PUSH1 0x1 DUP2 SLOAD ADD DUP1 DUP3 SSTORE DUP1 SWAP2 POP POP PUSH1 0x1 SWAP1 SUB SWAP1 PUSH0 MSTORE PUSH1 0x20 PUSH0 KECCAK256 ADD PUSH0 SWAP1 SWAP2 SWAP1 SWAP2 SWAP1 SWAP2 PUSH2 0x100 EXP DUP2 SLOAD DUP2 PUSH20 0xFFFFFFFFFFFFFFFFFFFFFFFFFFFFFFFFFFFFFFFF MUL NOT AND SWAP1 DUP4 PUSH20 0xFFFFFFFFFFFFFFFFFFFFFFFFFFFFFFFFFFFFFFFF AND MUL OR SWAP1 SSTORE POP JUMPDEST CALLVALUE PUSH1 0x4 PUSH0 CALLER PUSH20 0xFFFFFFFFFFFFFFFFFFFFFFFFFFFFFFFFFFFFFFFF AND PUSH20 0xFFFFFFFFFFFFFFFFFFFFFFFFFFFFFFFFFFFFFFFF AND DUP2 MSTORE PUSH1 0x20 ADD SWAP1 DUP2 MSTORE PUSH1 0x20 ADD PUSH0 KECCAK256 PUSH0 DUP3 DUP3 SLOAD PUSH2 0x450 SWAP2 SWAP1 PUSH2 0x6FA JUMP JUMPDEST SWAP3 POP POP DUP2 SWAP1 SSTORE POP CALLVALUE PUSH0 DUP1 DUP3 DUP3 SLOAD PUSH2 0x467 SWAP2 SWAP1 PUSH2 0x6FA JUMP JUMPDEST SWAP3 POP POP DUP2 SWAP1 SSTORE POP CALLER PUSH20 0xFFFFFFFFFFFFFFFFFFFFFFFFFFFFFFFFFFFFFFFF AND PUSH32 0x69CA02DD4EDD7BF0A4ABB9ED3B7AF3F14778DB5D61921C7DC7CD545266326DE2 CALLVALUE PUSH1 0x40 MLOAD PUSH2 0x4B4 SWAP2 SWAP1 PUSH2 0x4DE JUMP JUMPDEST PUSH1 0x40 MLOAD DUP1 SWAP2 SUB SWAP1 LOG2 JUMP JUMPDEST PUSH0 DUP1 SLOAD SWAP1 POP SWAP1 JUMP JUMPDEST PUSH0 DUP2 SWAP1 POP SWAP2 SWAP1 POP JUMP JUMPDEST PUSH2 0x4D8 DUP2 PUSH2 0x4C6 JUMP JUMPDEST DUP3 MSTORE POP POP JUMP JUMPDEST PUSH0 PUSH1 0x20 DUP3 ADD SWAP1 POP PUSH2 0x4F1 PUSH0 DUP4 ADD DUP5 PUSH2 0x4CF JUMP JUMPDEST SWAP3 SWAP2 POP POP JUMP JUMPDEST PUSH0 DUP1 REVERT JUMPDEST PUSH0 PUSH20 0xFFFFFFFFFFFFFFFFFFFFFFFFFFFFFFFFFFFFFFFF DUP3 AND SWAP1 POP SWAP2 SWAP1 POP JUMP JUMPDEST PUSH0 PUSH2 0x524 DUP3 PUSH2 0x4FB JUMP JUMPDEST SWAP1 POP SWAP2 SWAP1 POP JUMP JUMPDEST PUSH2 0x534 DUP2 PUSH2 0x51A JUMP JUMPDEST DUP2 EQ PUSH2 0x53E JUMPI PUSH0 DUP1 REVERT JUMPDEST POP JUMP JUMPDEST PUSH0 DUP2 CALLDATALOAD SWAP1 POP PUSH2 0x54F DUP2 PUSH2 0x52B JUMP JUMPDEST SWAP3 SWAP2 POP POP JUMP JUMPDEST PUSH2 0x55E DUP2 PUSH2 0x4C6 JUMP JUMPDEST DUP2 EQ PUSH2 0x568 JUMPI PUSH0 DUP1 REVERT JUMPDEST POP JUMP JUMPDEST PUSH0 DUP2 CALLDATALOAD SWAP1 POP PUSH2 0x579 DUP2 PUSH2 0x555 JUMP JUMPDEST SWAP3 SWAP2 POP POP JUMP JUMPDEST PUSH0 DUP1 PUSH1 0x40 DUP4 DUP6 SUB SLT ISZERO PUSH2 0x595 JUMPI PUSH2 0x594 PUSH2 0x4F7 JUMP JUMPDEST JUMPDEST PUSH0 PUSH2 0x5A2 DUP6 DUP3 DUP7 ADD PUSH2 0x541 JUMP JUMPDEST SWAP3 POP POP PUSH1 0x20 PUSH2 0x5B3 DUP6 DUP3 DUP7 ADD PUSH2 0x56B JUMP JUMPDEST SWAP2 POP POP SWAP3 POP SWAP3 SWAP1 POP JUMP JUMPDEST PUSH0 DUP2 MLOAD SWAP1 POP SWAP2 SWAP1 POP JUMP JUMPDEST PUSH0 DUP3 DUP3 MSTORE PUSH1 0x20 DUP3 ADD SWAP1 POP SWAP3 SWAP2 POP POP JUMP JUMPDEST PUSH0 DUP2 SWAP1 POP PUSH1 0x20 DUP3 ADD SWAP1 POP SWAP2 SWAP1 POP JUMP JUMPDEST PUSH0 PUSH2 0x5F0 DUP3 PUSH2 0x4FB JUMP JUMPDEST SWAP1 POP SWAP2 SWAP1 POP JUMP JUMPDEST PUSH2 0x600 DUP2 PUSH2 0x5E6 JUMP JUMPDEST DUP3 MSTORE POP POP JUMP JUMPDEST PUSH0 PUSH2 0x611 DUP4 DUP4 PUSH2 0x5F7 JUMP JUMPDEST PUSH1 0x20 DUP4 ADD SWAP1 POP SWAP3 SWAP2 POP POP JUMP JUMPDEST PUSH0 PUSH1 0x20 DUP3 ADD SWAP1 POP SWAP2 SWAP1 POP JUMP JUMPDEST PUSH0 PUSH2 0x633 DUP3 PUSH2 0x5BD JUMP JUMPDEST PUSH2 0x63D DUP2 DUP6 PUSH2 0x5C7 JUMP JUMPDEST SWAP4 POP PUSH2 0x648 DUP4 PUSH2 0x5D7 JUMP JUMPDEST DUP1 PUSH0 JUMPDEST DUP4 DUP2 LT ISZERO PUSH2 0x678 JUMPI DUP2 MLOAD PUSH2 0x65F DUP9 DUP3 PUSH2 0x606 JUMP JUMPDEST SWAP8 POP PUSH2 0x66A DUP4 PUSH2 0x61D JUMP JUMPDEST SWAP3 POP POP PUSH1 0x1 DUP2 ADD SWAP1 POP PUSH2 0x64B JUMP JUMPDEST POP DUP6 SWAP4 POP POP POP POP SWAP3 SWAP2 POP POP JUMP JUMPDEST PUSH0 PUSH1 0x20 DUP3 ADD SWAP1 POP DUP2 DUP2 SUB PUSH0 DUP4 ADD MSTORE PUSH2 0x69D DUP2 DUP5 PUSH2 0x629 JUMP JUMPDEST SWAP1 POP SWAP3 SWAP2 POP POP JUMP JUMPDEST PUSH2 0x6AE DUP2 PUSH2 0x5E6 JUMP JUMPDEST DUP3 MSTORE POP POP JUMP JUMPDEST PUSH0 PUSH1 0x20 DUP3 ADD SWAP1 POP PUSH2 0x6C7 PUSH0 DUP4 ADD DUP5 PUSH2 0x6A5 JUMP JUMPDEST SWAP3 SWAP2 POP POP JUMP JUMPDEST PUSH32 0x4E487B7100000000000000000000000000000000000000000000000000000000 PUSH0 MSTORE PUSH1 0x11 PUSH1 0x4 MSTORE PUSH1 0x24 PUSH0 REVERT JUMPDEST PUSH0 PUSH2 0x704 DUP3 PUSH2 0x4C6 JUMP JUMPDEST SWAP2 POP PUSH2 0x70F DUP4 PUSH2 0x4C6 JUMP JUMPDEST SWAP3 POP DUP3 DUP3 ADD SWAP1 POP DUP1 DUP3 GT ISZERO PUSH2 0x727 JUMPI PUSH2 0x726 PUSH2 0x6CD JUMP JUMPDEST JUMPDEST SWAP3 SWAP2 POP POP JUMP INVALID LOG2 PUSH5 0x6970667358 0x22 SLT KECCAK256 0xB9 SWAP16 PUSH12 0xF87EB3043B2A364B800229FA 0xD3 0xC3 0xF7 LOG1 0xEA EXP PUSH14 0xE2CFA6C3623B2FD3DB0A64736F6C PUSH4 0x43000816 STOP CALLER "
				},
				"gasEstimates": {
					"creation": {
						"codeDepositCost": "378200",
						"executionCost": "24681",
						"totalCost": "402881"
					},
					"external": {
						"donate()": "infinite",
						"getDonators()": "infinite",
						"getSumOfDonations()": "2476",
						"sendHelp(address,uint256)": "infinite"
					}
				},
				"methodIdentifiers": {
					"donate()": "ed88c68e",
					"getDonators()": "bf1482fa",
					"getSumOfDonations()": "f3a01489",
					"sendHelp(address,uint256)": "6f965a63"
				}
			},
			"storageLayout": {
				"storage": [
					{
						"astId": 3,
						"contract": "contracts/Donation.sol:Donation",
						"label": "totalDonationsAmount",
						"offset": 0,
						"slot": "0",
						"type": "t_uint256"
					},
					{
						"astId": 5,
						"contract": "contracts/Donation.sol:Donation",
						"label": "_contract",
						"offset": 0,
						"slot": "1",
						"type": "t_address"
					},
					{
						"astId": 7,
						"contract": "contracts/Donation.sol:Donation",
						"label": "owner",
						"offset": 0,
						"slot": "2",
						"type": "t_address"
					},
					{
						"astId": 10,
						"contract": "contracts/Donation.sol:Donation",
						"label": "charityAddresses",
						"offset": 0,
						"slot": "3",
						"type": "t_array(t_address)dyn_storage"
					},
					{
						"astId": 14,
						"contract": "contracts/Donation.sol:Donation",
						"label": "_donations",
						"offset": 0,
						"slot": "4",
						"type": "t_mapping(t_address,t_uint256)"
					}
				],
				"types": {
					"t_address": {
						"encoding": "inplace",
						"label": "address",
						"numberOfBytes": "20"
					},
					"t_array(t_address)dyn_storage": {
						"base": "t_address",
						"encoding": "dynamic_array",
						"label": "address[]",
						"numberOfBytes": "32"
					},
					"t_mapping(t_address,t_uint256)": {
						"encoding": "mapping",
						"key": "t_address",
						"label": "mapping(address => uint256)",
						"numberOfBytes": "32",
						"value": "t_uint256"
					},
					"t_uint256": {
						"encoding": "inplace",
						"label": "uint256",
						"numberOfBytes": "32"
					}
				}
			},
			"userdoc": {
				"kind": "user",
				"methods": {},
				"version": 1
			}
		}
	}
}