{
	"contracts/FundManager.sol": {
		"FundManager": {
			"abi": [
				{
					"inputs": [
						{
							"internalType": "address",
							"name": "caller",
							"type": "address"
						}
					],
					"name": "NotAnOwnerError",
					"type": "error"
				},
				{
					"anonymous": false,
					"inputs": [
						{
							"indexed": true,
							"internalType": "address",
							"name": "foundation",
							"type": "address"
						},
						{
							"indexed": true,
							"internalType": "address",
							"name": "owner",
							"type": "address"
						}
					],
					"name": "Create",
					"type": "event"
				},
				{
					"anonymous": false,
					"inputs": [
						{
							"indexed": true,
							"internalType": "address",
							"name": "from",
							"type": "address"
						},
						{
							"indexed": false,
							"internalType": "uint256",
							"name": "value",
							"type": "uint256"
						}
					],
					"name": "Transfer",
					"type": "event"
				},
				{
					"inputs": [
						{
							"internalType": "address",
							"name": "donationReceiver",
							"type": "address"
						},
						{
							"internalType": "string",
							"name": "description",
							"type": "string"
						}
					],
					"name": "createFoundation",
					"outputs": [],
					"stateMutability": "payable",
					"type": "function"
				},
				{
					"inputs": [],
					"name": "numberOfFoundationsCreated",
					"outputs": [
						{
							"internalType": "uint256",
							"name": "",
							"type": "uint256"
						}
					],
					"stateMutability": "view",
					"type": "function"
				},
				{
					"inputs": [
						{
							"internalType": "address",
							"name": "",
							"type": "address"
						}
					],
					"name": "ownersOfFunds",
					"outputs": [
						{
							"internalType": "address",
							"name": "",
							"type": "address"
						}
					],
					"stateMutability": "view",
					"type": "function"
				},
				{
					"inputs": [
						{
							"internalType": "address payable",
							"name": "foundationAddress",
							"type": "address"
						},
						{
							"internalType": "uint256",
							"name": "amount",
							"type": "uint256"
						}
					],
					"name": "transferFundsToReceiver",
					"outputs": [],
					"stateMutability": "nonpayable",
					"type": "function"
				}
			],
			"devdoc": {
				"kind": "dev",
				"methods": {},
				"version": 1
			},
			"evm": {
				"assembly": "    /* \"contracts/FundManager.sol\":92:1374  contract FundManager {... */\n  mstore(0x40, 0x80)\n  callvalue\n  dup1\n  iszero\n  tag_1\n  jumpi\n  0x00\n  dup1\n  revert\ntag_1:\n  pop\n  dataSize(sub_0)\n  dup1\n  dataOffset(sub_0)\n  0x00\n  codecopy\n  0x00\n  return\nstop\n\nsub_0: assembly {\n        /* \"contracts/FundManager.sol\":92:1374  contract FundManager {... */\n      mstore(0x40, 0x80)\n      jumpi(tag_1, lt(calldatasize, 0x04))\n      shr(0xe0, calldataload(0x00))\n      dup1\n      0x99223941\n      eq\n      tag_2\n      jumpi\n      dup1\n      0x9c05ae80\n      eq\n      tag_3\n      jumpi\n      dup1\n      0xce154467\n      eq\n      tag_4\n      jumpi\n      dup1\n      0xfd8adcf7\n      eq\n      tag_5\n      jumpi\n    tag_1:\n      0x00\n      dup1\n      revert\n        /* \"contracts/FundManager.sol\":606:968  function createFoundation(... */\n    tag_2:\n      tag_6\n      0x04\n      dup1\n      calldatasize\n      sub\n      dup2\n      add\n      swap1\n      tag_7\n      swap2\n      swap1\n      tag_8\n      jump\t// in\n    tag_7:\n      tag_9\n      jump\t// in\n    tag_6:\n      stop\n        /* \"contracts/FundManager.sol\":373:421  mapping(address => address) public ownersOfFunds */\n    tag_3:\n      callvalue\n      dup1\n      iszero\n      tag_10\n      jumpi\n      0x00\n      dup1\n      revert\n    tag_10:\n      pop\n      tag_11\n      0x04\n      dup1\n      calldatasize\n      sub\n      dup2\n      add\n      swap1\n      tag_12\n      swap2\n      swap1\n      tag_13\n      jump\t// in\n    tag_12:\n      tag_14\n      jump\t// in\n    tag_11:\n      mload(0x40)\n      tag_15\n      swap2\n      swap1\n      tag_16\n      jump\t// in\n    tag_15:\n      mload(0x40)\n      dup1\n      swap2\n      sub\n      swap1\n      return\n        /* \"contracts/FundManager.sol\":183:224  uint256 public numberOfFoundationsCreated */\n    tag_4:\n      callvalue\n      dup1\n      iszero\n      tag_17\n      jumpi\n      0x00\n      dup1\n      revert\n    tag_17:\n      pop\n      tag_18\n      tag_19\n      jump\t// in\n    tag_18:\n      mload(0x40)\n      tag_20\n      swap2\n      swap1\n      tag_21\n      jump\t// in\n    tag_20:\n      mload(0x40)\n      dup1\n      swap2\n      sub\n      swap1\n      return\n        /* \"contracts/FundManager.sol\":976:1371  function transferFundsToReceiver(... */\n    tag_5:\n      callvalue\n      dup1\n      iszero\n      tag_22\n      jumpi\n      0x00\n      dup1\n      revert\n    tag_22:\n      pop\n      tag_23\n      0x04\n      dup1\n      calldatasize\n      sub\n      dup2\n      add\n      swap1\n      tag_24\n      swap2\n      swap1\n      tag_25\n      jump\t// in\n    tag_24:\n      tag_26\n      jump\t// in\n    tag_23:\n      stop\n        /* \"contracts/FundManager.sol\":606:968  function createFoundation(... */\n    tag_9:\n        /* \"contracts/FundManager.sol\":729:746  Donation donation */\n      0x00\n        /* \"contracts/FundManager.sol\":769:778  msg.value */\n      callvalue\n        /* \"contracts/FundManager.sol\":780:796  donationReceiver */\n      dup4\n        /* \"contracts/FundManager.sol\":797:808  description */\n      dup4\n        /* \"contracts/FundManager.sol\":749:809  new Donation{value: msg.value}(donationReceiver,description) */\n      mload(0x40)\n      tag_28\n      swap1\n      tag_29\n      jump\t// in\n    tag_28:\n      tag_30\n      swap3\n      swap2\n      swap1\n      tag_31\n      jump\t// in\n    tag_30:\n      mload(0x40)\n      dup1\n      swap2\n      sub\n      swap1\n      dup3\n      create\n      swap1\n      pop\n      dup1\n      iszero\n      dup1\n      iszero\n      tag_32\n      jumpi\n      returndatasize\n      0x00\n      dup1\n      returndatacopy\n      revert(0x00, returndatasize)\n    tag_32:\n      pop\n        /* \"contracts/FundManager.sol\":729:809  Donation donation = new Donation{value: msg.value}(donationReceiver,description) */\n      swap1\n      pop\n        /* \"contracts/FundManager.sol\":855:865  msg.sender */\n      caller\n        /* \"contracts/FundManager.sol\":820:833  ownersOfFunds */\n      0x01\n        /* \"contracts/FundManager.sol\":820:852  ownersOfFunds[address(donation)] */\n      0x00\n        /* \"contracts/FundManager.sol\":842:850  donation */\n      dup4\n        /* \"contracts/FundManager.sol\":820:852  ownersOfFunds[address(donation)] */\n      0xffffffffffffffffffffffffffffffffffffffff\n      and\n      0xffffffffffffffffffffffffffffffffffffffff\n      and\n      dup2\n      mstore\n      0x20\n      add\n      swap1\n      dup2\n      mstore\n      0x20\n      add\n      0x00\n      keccak256\n      0x00\n        /* \"contracts/FundManager.sol\":820:865  ownersOfFunds[address(donation)] = msg.sender */\n      0x0100\n      exp\n      dup2\n      sload\n      dup2\n      0xffffffffffffffffffffffffffffffffffffffff\n      mul\n      not\n      and\n      swap1\n      dup4\n      0xffffffffffffffffffffffffffffffffffffffff\n      and\n      mul\n      or\n      swap1\n      sstore\n      pop\n        /* \"contracts/FundManager.sol\":906:907  1 */\n      0x01\n        /* \"contracts/FundManager.sol\":876:902  numberOfFoundationsCreated */\n      0x00\n      dup1\n        /* \"contracts/FundManager.sol\":876:907  numberOfFoundationsCreated += 1 */\n      dup3\n      dup3\n      sload\n      tag_33\n      swap2\n      swap1\n      tag_34\n      jump\t// in\n    tag_33:\n      swap3\n      pop\n      pop\n      dup2\n      swap1\n      sstore\n      pop\n        /* \"contracts/FundManager.sol\":949:959  msg.sender */\n      caller\n        /* \"contracts/FundManager.sol\":923:960  Create(address(donation), msg.sender) */\n      0xffffffffffffffffffffffffffffffffffffffff\n      and\n        /* \"contracts/FundManager.sol\":938:946  donation */\n      dup2\n        /* \"contracts/FundManager.sol\":923:960  Create(address(donation), msg.sender) */\n      0xffffffffffffffffffffffffffffffffffffffff\n      and\n      0x96b5b9b8a7193304150caccf9b80d150675fa3d6af57761d8d8ef1d6f9a1a909\n      mload(0x40)\n      mload(0x40)\n      dup1\n      swap2\n      sub\n      swap1\n      log3\n        /* \"contracts/FundManager.sol\":718:968  {... */\n      pop\n        /* \"contracts/FundManager.sol\":606:968  function createFoundation(... */\n      pop\n      pop\n      jump\t// out\n        /* \"contracts/FundManager.sol\":373:421  mapping(address => address) public ownersOfFunds */\n    tag_14:\n      mstore(0x20, 0x01)\n      dup1\n      0x00\n      mstore\n      keccak256(0x00, 0x40)\n      0x00\n      swap2\n      pop\n      sload\n      swap1\n      0x0100\n      exp\n      swap1\n      div\n      0xffffffffffffffffffffffffffffffffffffffff\n      and\n      dup2\n      jump\t// out\n        /* \"contracts/FundManager.sol\":183:224  uint256 public numberOfFoundationsCreated */\n    tag_19:\n      sload(0x00)\n      dup2\n      jump\t// out\n        /* \"contracts/FundManager.sol\":976:1371  function transferFundsToReceiver(... */\n    tag_26:\n        /* \"contracts/FundManager.sol\":1136:1146  msg.sender */\n      caller\n        /* \"contracts/FundManager.sol\":1100:1146  ownersOfFunds[foundationAddress] != msg.sender */\n      0xffffffffffffffffffffffffffffffffffffffff\n      and\n        /* \"contracts/FundManager.sol\":1100:1113  ownersOfFunds */\n      0x01\n        /* \"contracts/FundManager.sol\":1100:1132  ownersOfFunds[foundationAddress] */\n      0x00\n        /* \"contracts/FundManager.sol\":1114:1131  foundationAddress */\n      dup5\n        /* \"contracts/FundManager.sol\":1100:1132  ownersOfFunds[foundationAddress] */\n      0xffffffffffffffffffffffffffffffffffffffff\n      and\n      0xffffffffffffffffffffffffffffffffffffffff\n      and\n      dup2\n      mstore\n      0x20\n      add\n      swap1\n      dup2\n      mstore\n      0x20\n      add\n      0x00\n      keccak256\n      0x00\n      swap1\n      sload\n      swap1\n      0x0100\n      exp\n      swap1\n      div\n      0xffffffffffffffffffffffffffffffffffffffff\n      and\n        /* \"contracts/FundManager.sol\":1100:1146  ownersOfFunds[foundationAddress] != msg.sender */\n      0xffffffffffffffffffffffffffffffffffffffff\n      and\n      eq\n        /* \"contracts/FundManager.sol\":1096:1209  if (ownersOfFunds[foundationAddress] != msg.sender) {... */\n      tag_36\n      jumpi\n        /* \"contracts/FundManager.sol\":1186:1196  msg.sender */\n      caller\n        /* \"contracts/FundManager.sol\":1170:1197  NotAnOwnerError(msg.sender) */\n      mload(0x40)\n      0xf499598a00000000000000000000000000000000000000000000000000000000\n      dup2\n      mstore\n      0x04\n      add\n      tag_37\n      swap2\n      swap1\n      tag_16\n      jump\t// in\n    tag_37:\n      mload(0x40)\n      dup1\n      swap2\n      sub\n      swap1\n      revert\n        /* \"contracts/FundManager.sol\":1096:1209  if (ownersOfFunds[foundationAddress] != msg.sender) {... */\n    tag_36:\n        /* \"contracts/FundManager.sol\":1219:1236  Donation donation */\n      0x00\n        /* \"contracts/FundManager.sol\":1248:1265  foundationAddress */\n      dup3\n        /* \"contracts/FundManager.sol\":1219:1266  Donation donation = Donation(foundationAddress) */\n      swap1\n      pop\n        /* \"contracts/FundManager.sol\":1277:1285  donation */\n      dup1\n        /* \"contracts/FundManager.sol\":1277:1305  donation.sendFundsToReceiver */\n      0xffffffffffffffffffffffffffffffffffffffff\n      and\n      0x0bcd177e\n        /* \"contracts/FundManager.sol\":1306:1312  amount */\n      dup4\n        /* \"contracts/FundManager.sol\":1277:1313  donation.sendFundsToReceiver(amount) */\n      mload(0x40)\n      dup3\n      0xffffffff\n      and\n      0xe0\n      shl\n      dup2\n      mstore\n      0x04\n      add\n      tag_38\n      swap2\n      swap1\n      tag_21\n      jump\t// in\n    tag_38:\n      0x00\n      mload(0x40)\n      dup1\n      dup4\n      sub\n      dup2\n      0x00\n      dup8\n      dup1\n      extcodesize\n      iszero\n      dup1\n      iszero\n      tag_39\n      jumpi\n      0x00\n      dup1\n      revert\n    tag_39:\n      pop\n      gas\n      call\n      iszero\n      dup1\n      iszero\n      tag_41\n      jumpi\n      returndatasize\n      0x00\n      dup1\n      returndatacopy\n      revert(0x00, returndatasize)\n    tag_41:\n      pop\n      pop\n      pop\n      pop\n        /* \"contracts/FundManager.sol\":1338:1355  foundationAddress */\n      dup3\n        /* \"contracts/FundManager.sol\":1329:1363  Transfer(foundationAddress,amount) */\n      0xffffffffffffffffffffffffffffffffffffffff\n      and\n      0x69ca02dd4edd7bf0a4abb9ed3b7af3f14778db5d61921c7dc7cd545266326de2\n        /* \"contracts/FundManager.sol\":1356:1362  amount */\n      dup4\n        /* \"contracts/FundManager.sol\":1329:1363  Transfer(foundationAddress,amount) */\n      mload(0x40)\n      tag_42\n      swap2\n      swap1\n      tag_21\n      jump\t// in\n    tag_42:\n      mload(0x40)\n      dup1\n      swap2\n      sub\n      swap1\n      log2\n        /* \"contracts/FundManager.sol\":1085:1371  {... */\n      pop\n        /* \"contracts/FundManager.sol\":976:1371  function transferFundsToReceiver(... */\n      pop\n      pop\n      jump\t// out\n    tag_29:\n      dataSize(sub_0)\n      dup1\n      dataOffset(sub_0)\n      dup4\n      codecopy\n      add\n      swap1\n      jump\t// out\n        /* \"#utility.yul\":7:82   */\n    tag_43:\n        /* \"#utility.yul\":40:46   */\n      0x00\n        /* \"#utility.yul\":73:75   */\n      0x40\n        /* \"#utility.yul\":67:76   */\n      mload\n        /* \"#utility.yul\":57:76   */\n      swap1\n      pop\n        /* \"#utility.yul\":7:82   */\n      swap1\n      jump\t// out\n        /* \"#utility.yul\":88:205   */\n    tag_44:\n        /* \"#utility.yul\":197:198   */\n      0x00\n        /* \"#utility.yul\":194:195   */\n      dup1\n        /* \"#utility.yul\":187:199   */\n      revert\n        /* \"#utility.yul\":211:328   */\n    tag_45:\n        /* \"#utility.yul\":320:321   */\n      0x00\n        /* \"#utility.yul\":317:318   */\n      dup1\n        /* \"#utility.yul\":310:322   */\n      revert\n        /* \"#utility.yul\":334:460   */\n    tag_46:\n        /* \"#utility.yul\":371:378   */\n      0x00\n        /* \"#utility.yul\":411:453   */\n      0xffffffffffffffffffffffffffffffffffffffff\n        /* \"#utility.yul\":404:409   */\n      dup3\n        /* \"#utility.yul\":400:454   */\n      and\n        /* \"#utility.yul\":389:454   */\n      swap1\n      pop\n        /* \"#utility.yul\":334:460   */\n      swap2\n      swap1\n      pop\n      jump\t// out\n        /* \"#utility.yul\":466:562   */\n    tag_47:\n        /* \"#utility.yul\":503:510   */\n      0x00\n        /* \"#utility.yul\":532:556   */\n      tag_79\n        /* \"#utility.yul\":550:555   */\n      dup3\n        /* \"#utility.yul\":532:556   */\n      tag_46\n      jump\t// in\n    tag_79:\n        /* \"#utility.yul\":521:556   */\n      swap1\n      pop\n        /* \"#utility.yul\":466:562   */\n      swap2\n      swap1\n      pop\n      jump\t// out\n        /* \"#utility.yul\":568:690   */\n    tag_48:\n        /* \"#utility.yul\":641:665   */\n      tag_81\n        /* \"#utility.yul\":659:664   */\n      dup2\n        /* \"#utility.yul\":641:665   */\n      tag_47\n      jump\t// in\n    tag_81:\n        /* \"#utility.yul\":634:639   */\n      dup2\n        /* \"#utility.yul\":631:666   */\n      eq\n        /* \"#utility.yul\":621:684   */\n      tag_82\n      jumpi\n        /* \"#utility.yul\":680:681   */\n      0x00\n        /* \"#utility.yul\":677:678   */\n      dup1\n        /* \"#utility.yul\":670:682   */\n      revert\n        /* \"#utility.yul\":621:684   */\n    tag_82:\n        /* \"#utility.yul\":568:690   */\n      pop\n      jump\t// out\n        /* \"#utility.yul\":696:835   */\n    tag_49:\n        /* \"#utility.yul\":742:747   */\n      0x00\n        /* \"#utility.yul\":780:786   */\n      dup2\n        /* \"#utility.yul\":767:787   */\n      calldataload\n        /* \"#utility.yul\":758:787   */\n      swap1\n      pop\n        /* \"#utility.yul\":796:829   */\n      tag_84\n        /* \"#utility.yul\":823:828   */\n      dup2\n        /* \"#utility.yul\":796:829   */\n      tag_48\n      jump\t// in\n    tag_84:\n        /* \"#utility.yul\":696:835   */\n      swap3\n      swap2\n      pop\n      pop\n      jump\t// out\n        /* \"#utility.yul\":841:958   */\n    tag_50:\n        /* \"#utility.yul\":950:951   */\n      0x00\n        /* \"#utility.yul\":947:948   */\n      dup1\n        /* \"#utility.yul\":940:952   */\n      revert\n        /* \"#utility.yul\":964:1081   */\n    tag_51:\n        /* \"#utility.yul\":1073:1074   */\n      0x00\n        /* \"#utility.yul\":1070:1071   */\n      dup1\n        /* \"#utility.yul\":1063:1075   */\n      revert\n        /* \"#utility.yul\":1087:1189   */\n    tag_52:\n        /* \"#utility.yul\":1128:1134   */\n      0x00\n        /* \"#utility.yul\":1179:1181   */\n      0x1f\n        /* \"#utility.yul\":1175:1182   */\n      not\n        /* \"#utility.yul\":1170:1172   */\n      0x1f\n        /* \"#utility.yul\":1163:1168   */\n      dup4\n        /* \"#utility.yul\":1159:1173   */\n      add\n        /* \"#utility.yul\":1155:1183   */\n      and\n        /* \"#utility.yul\":1145:1183   */\n      swap1\n      pop\n        /* \"#utility.yul\":1087:1189   */\n      swap2\n      swap1\n      pop\n      jump\t// out\n        /* \"#utility.yul\":1195:1375   */\n    tag_53:\n        /* \"#utility.yul\":1243:1320   */\n      0x4e487b7100000000000000000000000000000000000000000000000000000000\n        /* \"#utility.yul\":1240:1241   */\n      0x00\n        /* \"#utility.yul\":1233:1321   */\n      mstore\n        /* \"#utility.yul\":1340:1344   */\n      0x41\n        /* \"#utility.yul\":1337:1338   */\n      0x04\n        /* \"#utility.yul\":1330:1345   */\n      mstore\n        /* \"#utility.yul\":1364:1368   */\n      0x24\n        /* \"#utility.yul\":1361:1362   */\n      0x00\n        /* \"#utility.yul\":1354:1369   */\n      revert\n        /* \"#utility.yul\":1381:1662   */\n    tag_54:\n        /* \"#utility.yul\":1464:1491   */\n      tag_90\n        /* \"#utility.yul\":1486:1490   */\n      dup3\n        /* \"#utility.yul\":1464:1491   */\n      tag_52\n      jump\t// in\n    tag_90:\n        /* \"#utility.yul\":1456:1462   */\n      dup2\n        /* \"#utility.yul\":1452:1492   */\n      add\n        /* \"#utility.yul\":1594:1600   */\n      dup2\n        /* \"#utility.yul\":1582:1592   */\n      dup2\n        /* \"#utility.yul\":1579:1601   */\n      lt\n        /* \"#utility.yul\":1558:1576   */\n      0xffffffffffffffff\n        /* \"#utility.yul\":1546:1556   */\n      dup3\n        /* \"#utility.yul\":1543:1577   */\n      gt\n        /* \"#utility.yul\":1540:1602   */\n      or\n        /* \"#utility.yul\":1537:1625   */\n      iszero\n      tag_91\n      jumpi\n        /* \"#utility.yul\":1605:1623   */\n      tag_92\n      tag_53\n      jump\t// in\n    tag_92:\n        /* \"#utility.yul\":1537:1625   */\n    tag_91:\n        /* \"#utility.yul\":1645:1655   */\n      dup1\n        /* \"#utility.yul\":1641:1643   */\n      0x40\n        /* \"#utility.yul\":1634:1656   */\n      mstore\n        /* \"#utility.yul\":1424:1662   */\n      pop\n        /* \"#utility.yul\":1381:1662   */\n      pop\n      pop\n      jump\t// out\n        /* \"#utility.yul\":1668:1797   */\n    tag_55:\n        /* \"#utility.yul\":1702:1708   */\n      0x00\n        /* \"#utility.yul\":1729:1749   */\n      tag_94\n      tag_43\n      jump\t// in\n    tag_94:\n        /* \"#utility.yul\":1719:1749   */\n      swap1\n      pop\n        /* \"#utility.yul\":1758:1791   */\n      tag_95\n        /* \"#utility.yul\":1786:1790   */\n      dup3\n        /* \"#utility.yul\":1778:1784   */\n      dup3\n        /* \"#utility.yul\":1758:1791   */\n      tag_54\n      jump\t// in\n    tag_95:\n        /* \"#utility.yul\":1668:1797   */\n      swap2\n      swap1\n      pop\n      jump\t// out\n        /* \"#utility.yul\":1803:2111   */\n    tag_56:\n        /* \"#utility.yul\":1865:1869   */\n      0x00\n        /* \"#utility.yul\":1955:1973   */\n      0xffffffffffffffff\n        /* \"#utility.yul\":1947:1953   */\n      dup3\n        /* \"#utility.yul\":1944:1974   */\n      gt\n        /* \"#utility.yul\":1941:1997   */\n      iszero\n      tag_97\n      jumpi\n        /* \"#utility.yul\":1977:1995   */\n      tag_98\n      tag_53\n      jump\t// in\n    tag_98:\n        /* \"#utility.yul\":1941:1997   */\n    tag_97:\n        /* \"#utility.yul\":2015:2044   */\n      tag_99\n        /* \"#utility.yul\":2037:2043   */\n      dup3\n        /* \"#utility.yul\":2015:2044   */\n      tag_52\n      jump\t// in\n    tag_99:\n        /* \"#utility.yul\":2007:2044   */\n      swap1\n      pop\n        /* \"#utility.yul\":2099:2103   */\n      0x20\n        /* \"#utility.yul\":2093:2097   */\n      dup2\n        /* \"#utility.yul\":2089:2104   */\n      add\n        /* \"#utility.yul\":2081:2104   */\n      swap1\n      pop\n        /* \"#utility.yul\":1803:2111   */\n      swap2\n      swap1\n      pop\n      jump\t// out\n        /* \"#utility.yul\":2117:2263   */\n    tag_57:\n        /* \"#utility.yul\":2214:2220   */\n      dup3\n        /* \"#utility.yul\":2209:2212   */\n      dup2\n        /* \"#utility.yul\":2204:2207   */\n      dup4\n        /* \"#utility.yul\":2191:2221   */\n      calldatacopy\n        /* \"#utility.yul\":2255:2256   */\n      0x00\n        /* \"#utility.yul\":2246:2252   */\n      dup4\n        /* \"#utility.yul\":2241:2244   */\n      dup4\n        /* \"#utility.yul\":2237:2253   */\n      add\n        /* \"#utility.yul\":2230:2257   */\n      mstore\n        /* \"#utility.yul\":2117:2263   */\n      pop\n      pop\n      pop\n      jump\t// out\n        /* \"#utility.yul\":2269:2694   */\n    tag_58:\n        /* \"#utility.yul\":2347:2352   */\n      0x00\n        /* \"#utility.yul\":2372:2438   */\n      tag_102\n        /* \"#utility.yul\":2388:2437   */\n      tag_103\n        /* \"#utility.yul\":2430:2436   */\n      dup5\n        /* \"#utility.yul\":2388:2437   */\n      tag_56\n      jump\t// in\n    tag_103:\n        /* \"#utility.yul\":2372:2438   */\n      tag_55\n      jump\t// in\n    tag_102:\n        /* \"#utility.yul\":2363:2438   */\n      swap1\n      pop\n        /* \"#utility.yul\":2461:2467   */\n      dup3\n        /* \"#utility.yul\":2454:2459   */\n      dup2\n        /* \"#utility.yul\":2447:2468   */\n      mstore\n        /* \"#utility.yul\":2499:2503   */\n      0x20\n        /* \"#utility.yul\":2492:2497   */\n      dup2\n        /* \"#utility.yul\":2488:2504   */\n      add\n        /* \"#utility.yul\":2537:2540   */\n      dup5\n        /* \"#utility.yul\":2528:2534   */\n      dup5\n        /* \"#utility.yul\":2523:2526   */\n      dup5\n        /* \"#utility.yul\":2519:2535   */\n      add\n        /* \"#utility.yul\":2516:2541   */\n      gt\n        /* \"#utility.yul\":2513:2625   */\n      iszero\n      tag_104\n      jumpi\n        /* \"#utility.yul\":2544:2623   */\n      tag_105\n      tag_51\n      jump\t// in\n    tag_105:\n        /* \"#utility.yul\":2513:2625   */\n    tag_104:\n        /* \"#utility.yul\":2634:2688   */\n      tag_106\n        /* \"#utility.yul\":2681:2687   */\n      dup5\n        /* \"#utility.yul\":2676:2679   */\n      dup3\n        /* \"#utility.yul\":2671:2674   */\n      dup6\n        /* \"#utility.yul\":2634:2688   */\n      tag_57\n      jump\t// in\n    tag_106:\n        /* \"#utility.yul\":2353:2694   */\n      pop\n        /* \"#utility.yul\":2269:2694   */\n      swap4\n      swap3\n      pop\n      pop\n      pop\n      jump\t// out\n        /* \"#utility.yul\":2714:3054   */\n    tag_59:\n        /* \"#utility.yul\":2770:2775   */\n      0x00\n        /* \"#utility.yul\":2819:2822   */\n      dup3\n        /* \"#utility.yul\":2812:2816   */\n      0x1f\n        /* \"#utility.yul\":2804:2810   */\n      dup4\n        /* \"#utility.yul\":2800:2817   */\n      add\n        /* \"#utility.yul\":2796:2823   */\n      slt\n        /* \"#utility.yul\":2786:2908   */\n      tag_108\n      jumpi\n        /* \"#utility.yul\":2827:2906   */\n      tag_109\n      tag_50\n      jump\t// in\n    tag_109:\n        /* \"#utility.yul\":2786:2908   */\n    tag_108:\n        /* \"#utility.yul\":2944:2950   */\n      dup2\n        /* \"#utility.yul\":2931:2951   */\n      calldataload\n        /* \"#utility.yul\":2969:3048   */\n      tag_110\n        /* \"#utility.yul\":3044:3047   */\n      dup5\n        /* \"#utility.yul\":3036:3042   */\n      dup3\n        /* \"#utility.yul\":3029:3033   */\n      0x20\n        /* \"#utility.yul\":3021:3027   */\n      dup7\n        /* \"#utility.yul\":3017:3034   */\n      add\n        /* \"#utility.yul\":2969:3048   */\n      tag_58\n      jump\t// in\n    tag_110:\n        /* \"#utility.yul\":2960:3048   */\n      swap2\n      pop\n        /* \"#utility.yul\":2776:3054   */\n      pop\n        /* \"#utility.yul\":2714:3054   */\n      swap3\n      swap2\n      pop\n      pop\n      jump\t// out\n        /* \"#utility.yul\":3060:3714   */\n    tag_8:\n        /* \"#utility.yul\":3138:3144   */\n      0x00\n        /* \"#utility.yul\":3146:3152   */\n      dup1\n        /* \"#utility.yul\":3195:3197   */\n      0x40\n        /* \"#utility.yul\":3183:3192   */\n      dup4\n        /* \"#utility.yul\":3174:3181   */\n      dup6\n        /* \"#utility.yul\":3170:3193   */\n      sub\n        /* \"#utility.yul\":3166:3198   */\n      slt\n        /* \"#utility.yul\":3163:3282   */\n      iszero\n      tag_112\n      jumpi\n        /* \"#utility.yul\":3201:3280   */\n      tag_113\n      tag_44\n      jump\t// in\n    tag_113:\n        /* \"#utility.yul\":3163:3282   */\n    tag_112:\n        /* \"#utility.yul\":3321:3322   */\n      0x00\n        /* \"#utility.yul\":3346:3399   */\n      tag_114\n        /* \"#utility.yul\":3391:3398   */\n      dup6\n        /* \"#utility.yul\":3382:3388   */\n      dup3\n        /* \"#utility.yul\":3371:3380   */\n      dup7\n        /* \"#utility.yul\":3367:3389   */\n      add\n        /* \"#utility.yul\":3346:3399   */\n      tag_49\n      jump\t// in\n    tag_114:\n        /* \"#utility.yul\":3336:3399   */\n      swap3\n      pop\n        /* \"#utility.yul\":3292:3409   */\n      pop\n        /* \"#utility.yul\":3476:3478   */\n      0x20\n        /* \"#utility.yul\":3465:3474   */\n      dup4\n        /* \"#utility.yul\":3461:3479   */\n      add\n        /* \"#utility.yul\":3448:3480   */\n      calldataload\n        /* \"#utility.yul\":3507:3525   */\n      0xffffffffffffffff\n        /* \"#utility.yul\":3499:3505   */\n      dup2\n        /* \"#utility.yul\":3496:3526   */\n      gt\n        /* \"#utility.yul\":3493:3610   */\n      iszero\n      tag_115\n      jumpi\n        /* \"#utility.yul\":3529:3608   */\n      tag_116\n      tag_45\n      jump\t// in\n    tag_116:\n        /* \"#utility.yul\":3493:3610   */\n    tag_115:\n        /* \"#utility.yul\":3634:3697   */\n      tag_117\n        /* \"#utility.yul\":3689:3696   */\n      dup6\n        /* \"#utility.yul\":3680:3686   */\n      dup3\n        /* \"#utility.yul\":3669:3678   */\n      dup7\n        /* \"#utility.yul\":3665:3687   */\n      add\n        /* \"#utility.yul\":3634:3697   */\n      tag_59\n      jump\t// in\n    tag_117:\n        /* \"#utility.yul\":3624:3697   */\n      swap2\n      pop\n        /* \"#utility.yul\":3419:3707   */\n      pop\n        /* \"#utility.yul\":3060:3714   */\n      swap3\n      pop\n      swap3\n      swap1\n      pop\n      jump\t// out\n        /* \"#utility.yul\":3720:4049   */\n    tag_13:\n        /* \"#utility.yul\":3779:3785   */\n      0x00\n        /* \"#utility.yul\":3828:3830   */\n      0x20\n        /* \"#utility.yul\":3816:3825   */\n      dup3\n        /* \"#utility.yul\":3807:3814   */\n      dup5\n        /* \"#utility.yul\":3803:3826   */\n      sub\n        /* \"#utility.yul\":3799:3831   */\n      slt\n        /* \"#utility.yul\":3796:3915   */\n      iszero\n      tag_119\n      jumpi\n        /* \"#utility.yul\":3834:3913   */\n      tag_120\n      tag_44\n      jump\t// in\n    tag_120:\n        /* \"#utility.yul\":3796:3915   */\n    tag_119:\n        /* \"#utility.yul\":3954:3955   */\n      0x00\n        /* \"#utility.yul\":3979:4032   */\n      tag_121\n        /* \"#utility.yul\":4024:4031   */\n      dup5\n        /* \"#utility.yul\":4015:4021   */\n      dup3\n        /* \"#utility.yul\":4004:4013   */\n      dup6\n        /* \"#utility.yul\":4000:4022   */\n      add\n        /* \"#utility.yul\":3979:4032   */\n      tag_49\n      jump\t// in\n    tag_121:\n        /* \"#utility.yul\":3969:4032   */\n      swap2\n      pop\n        /* \"#utility.yul\":3925:4042   */\n      pop\n        /* \"#utility.yul\":3720:4049   */\n      swap3\n      swap2\n      pop\n      pop\n      jump\t// out\n        /* \"#utility.yul\":4055:4173   */\n    tag_60:\n        /* \"#utility.yul\":4142:4166   */\n      tag_123\n        /* \"#utility.yul\":4160:4165   */\n      dup2\n        /* \"#utility.yul\":4142:4166   */\n      tag_47\n      jump\t// in\n    tag_123:\n        /* \"#utility.yul\":4137:4140   */\n      dup3\n        /* \"#utility.yul\":4130:4167   */\n      mstore\n        /* \"#utility.yul\":4055:4173   */\n      pop\n      pop\n      jump\t// out\n        /* \"#utility.yul\":4179:4401   */\n    tag_16:\n        /* \"#utility.yul\":4272:4276   */\n      0x00\n        /* \"#utility.yul\":4310:4312   */\n      0x20\n        /* \"#utility.yul\":4299:4308   */\n      dup3\n        /* \"#utility.yul\":4295:4313   */\n      add\n        /* \"#utility.yul\":4287:4313   */\n      swap1\n      pop\n        /* \"#utility.yul\":4323:4394   */\n      tag_125\n        /* \"#utility.yul\":4391:4392   */\n      0x00\n        /* \"#utility.yul\":4380:4389   */\n      dup4\n        /* \"#utility.yul\":4376:4393   */\n      add\n        /* \"#utility.yul\":4367:4373   */\n      dup5\n        /* \"#utility.yul\":4323:4394   */\n      tag_60\n      jump\t// in\n    tag_125:\n        /* \"#utility.yul\":4179:4401   */\n      swap3\n      swap2\n      pop\n      pop\n      jump\t// out\n        /* \"#utility.yul\":4407:4484   */\n    tag_61:\n        /* \"#utility.yul\":4444:4451   */\n      0x00\n        /* \"#utility.yul\":4473:4478   */\n      dup2\n        /* \"#utility.yul\":4462:4478   */\n      swap1\n      pop\n        /* \"#utility.yul\":4407:4484   */\n      swap2\n      swap1\n      pop\n      jump\t// out\n        /* \"#utility.yul\":4490:4608   */\n    tag_62:\n        /* \"#utility.yul\":4577:4601   */\n      tag_128\n        /* \"#utility.yul\":4595:4600   */\n      dup2\n        /* \"#utility.yul\":4577:4601   */\n      tag_61\n      jump\t// in\n    tag_128:\n        /* \"#utility.yul\":4572:4575   */\n      dup3\n        /* \"#utility.yul\":4565:4602   */\n      mstore\n        /* \"#utility.yul\":4490:4608   */\n      pop\n      pop\n      jump\t// out\n        /* \"#utility.yul\":4614:4836   */\n    tag_21:\n        /* \"#utility.yul\":4707:4711   */\n      0x00\n        /* \"#utility.yul\":4745:4747   */\n      0x20\n        /* \"#utility.yul\":4734:4743   */\n      dup3\n        /* \"#utility.yul\":4730:4748   */\n      add\n        /* \"#utility.yul\":4722:4748   */\n      swap1\n      pop\n        /* \"#utility.yul\":4758:4829   */\n      tag_130\n        /* \"#utility.yul\":4826:4827   */\n      0x00\n        /* \"#utility.yul\":4815:4824   */\n      dup4\n        /* \"#utility.yul\":4811:4828   */\n      add\n        /* \"#utility.yul\":4802:4808   */\n      dup5\n        /* \"#utility.yul\":4758:4829   */\n      tag_62\n      jump\t// in\n    tag_130:\n        /* \"#utility.yul\":4614:4836   */\n      swap3\n      swap2\n      pop\n      pop\n      jump\t// out\n        /* \"#utility.yul\":4842:4946   */\n    tag_63:\n        /* \"#utility.yul\":4887:4894   */\n      0x00\n        /* \"#utility.yul\":4916:4940   */\n      tag_132\n        /* \"#utility.yul\":4934:4939   */\n      dup3\n        /* \"#utility.yul\":4916:4940   */\n      tag_46\n      jump\t// in\n    tag_132:\n        /* \"#utility.yul\":4905:4940   */\n      swap1\n      pop\n        /* \"#utility.yul\":4842:4946   */\n      swap2\n      swap1\n      pop\n      jump\t// out\n        /* \"#utility.yul\":4952:5090   */\n    tag_64:\n        /* \"#utility.yul\":5033:5065   */\n      tag_134\n        /* \"#utility.yul\":5059:5064   */\n      dup2\n        /* \"#utility.yul\":5033:5065   */\n      tag_63\n      jump\t// in\n    tag_134:\n        /* \"#utility.yul\":5026:5031   */\n      dup2\n        /* \"#utility.yul\":5023:5066   */\n      eq\n        /* \"#utility.yul\":5013:5084   */\n      tag_135\n      jumpi\n        /* \"#utility.yul\":5080:5081   */\n      0x00\n        /* \"#utility.yul\":5077:5078   */\n      dup1\n        /* \"#utility.yul\":5070:5082   */\n      revert\n        /* \"#utility.yul\":5013:5084   */\n    tag_135:\n        /* \"#utility.yul\":4952:5090   */\n      pop\n      jump\t// out\n        /* \"#utility.yul\":5096:5251   */\n    tag_65:\n        /* \"#utility.yul\":5150:5155   */\n      0x00\n        /* \"#utility.yul\":5188:5194   */\n      dup2\n        /* \"#utility.yul\":5175:5195   */\n      calldataload\n        /* \"#utility.yul\":5166:5195   */\n      swap1\n      pop\n        /* \"#utility.yul\":5204:5245   */\n      tag_137\n        /* \"#utility.yul\":5239:5244   */\n      dup2\n        /* \"#utility.yul\":5204:5245   */\n      tag_64\n      jump\t// in\n    tag_137:\n        /* \"#utility.yul\":5096:5251   */\n      swap3\n      swap2\n      pop\n      pop\n      jump\t// out\n        /* \"#utility.yul\":5257:5379   */\n    tag_66:\n        /* \"#utility.yul\":5330:5354   */\n      tag_139\n        /* \"#utility.yul\":5348:5353   */\n      dup2\n        /* \"#utility.yul\":5330:5354   */\n      tag_61\n      jump\t// in\n    tag_139:\n        /* \"#utility.yul\":5323:5328   */\n      dup2\n        /* \"#utility.yul\":5320:5355   */\n      eq\n        /* \"#utility.yul\":5310:5373   */\n      tag_140\n      jumpi\n        /* \"#utility.yul\":5369:5370   */\n      0x00\n        /* \"#utility.yul\":5366:5367   */\n      dup1\n        /* \"#utility.yul\":5359:5371   */\n      revert\n        /* \"#utility.yul\":5310:5373   */\n    tag_140:\n        /* \"#utility.yul\":5257:5379   */\n      pop\n      jump\t// out\n        /* \"#utility.yul\":5385:5524   */\n    tag_67:\n        /* \"#utility.yul\":5431:5436   */\n      0x00\n        /* \"#utility.yul\":5469:5475   */\n      dup2\n        /* \"#utility.yul\":5456:5476   */\n      calldataload\n        /* \"#utility.yul\":5447:5476   */\n      swap1\n      pop\n        /* \"#utility.yul\":5485:5518   */\n      tag_142\n        /* \"#utility.yul\":5512:5517   */\n      dup2\n        /* \"#utility.yul\":5485:5518   */\n      tag_66\n      jump\t// in\n    tag_142:\n        /* \"#utility.yul\":5385:5524   */\n      swap3\n      swap2\n      pop\n      pop\n      jump\t// out\n        /* \"#utility.yul\":5530:6020   */\n    tag_25:\n        /* \"#utility.yul\":5606:5612   */\n      0x00\n        /* \"#utility.yul\":5614:5620   */\n      dup1\n        /* \"#utility.yul\":5663:5665   */\n      0x40\n        /* \"#utility.yul\":5651:5660   */\n      dup4\n        /* \"#utility.yul\":5642:5649   */\n      dup6\n        /* \"#utility.yul\":5638:5661   */\n      sub\n        /* \"#utility.yul\":5634:5666   */\n      slt\n        /* \"#utility.yul\":5631:5750   */\n      iszero\n      tag_144\n      jumpi\n        /* \"#utility.yul\":5669:5748   */\n      tag_145\n      tag_44\n      jump\t// in\n    tag_145:\n        /* \"#utility.yul\":5631:5750   */\n    tag_144:\n        /* \"#utility.yul\":5789:5790   */\n      0x00\n        /* \"#utility.yul\":5814:5875   */\n      tag_146\n        /* \"#utility.yul\":5867:5874   */\n      dup6\n        /* \"#utility.yul\":5858:5864   */\n      dup3\n        /* \"#utility.yul\":5847:5856   */\n      dup7\n        /* \"#utility.yul\":5843:5865   */\n      add\n        /* \"#utility.yul\":5814:5875   */\n      tag_65\n      jump\t// in\n    tag_146:\n        /* \"#utility.yul\":5804:5875   */\n      swap3\n      pop\n        /* \"#utility.yul\":5760:5885   */\n      pop\n        /* \"#utility.yul\":5924:5926   */\n      0x20\n        /* \"#utility.yul\":5950:6003   */\n      tag_147\n        /* \"#utility.yul\":5995:6002   */\n      dup6\n        /* \"#utility.yul\":5986:5992   */\n      dup3\n        /* \"#utility.yul\":5975:5984   */\n      dup7\n        /* \"#utility.yul\":5971:5993   */\n      add\n        /* \"#utility.yul\":5950:6003   */\n      tag_67\n      jump\t// in\n    tag_147:\n        /* \"#utility.yul\":5940:6003   */\n      swap2\n      pop\n        /* \"#utility.yul\":5895:6013   */\n      pop\n        /* \"#utility.yul\":5530:6020   */\n      swap3\n      pop\n      swap3\n      swap1\n      pop\n      jump\t// out\n        /* \"#utility.yul\":6026:6125   */\n    tag_68:\n        /* \"#utility.yul\":6078:6084   */\n      0x00\n        /* \"#utility.yul\":6112:6117   */\n      dup2\n        /* \"#utility.yul\":6106:6118   */\n      mload\n        /* \"#utility.yul\":6096:6118   */\n      swap1\n      pop\n        /* \"#utility.yul\":6026:6125   */\n      swap2\n      swap1\n      pop\n      jump\t// out\n        /* \"#utility.yul\":6131:6300   */\n    tag_69:\n        /* \"#utility.yul\":6215:6226   */\n      0x00\n        /* \"#utility.yul\":6249:6255   */\n      dup3\n        /* \"#utility.yul\":6244:6247   */\n      dup3\n        /* \"#utility.yul\":6237:6256   */\n      mstore\n        /* \"#utility.yul\":6289:6293   */\n      0x20\n        /* \"#utility.yul\":6284:6287   */\n      dup3\n        /* \"#utility.yul\":6280:6294   */\n      add\n        /* \"#utility.yul\":6265:6294   */\n      swap1\n      pop\n        /* \"#utility.yul\":6131:6300   */\n      swap3\n      swap2\n      pop\n      pop\n      jump\t// out\n        /* \"#utility.yul\":6306:6552   */\n    tag_70:\n        /* \"#utility.yul\":6387:6388   */\n      0x00\n        /* \"#utility.yul\":6397:6510   */\n    tag_151:\n        /* \"#utility.yul\":6411:6417   */\n      dup4\n        /* \"#utility.yul\":6408:6409   */\n      dup2\n        /* \"#utility.yul\":6405:6418   */\n      lt\n        /* \"#utility.yul\":6397:6510   */\n      iszero\n      tag_153\n      jumpi\n        /* \"#utility.yul\":6496:6497   */\n      dup1\n        /* \"#utility.yul\":6491:6494   */\n      dup3\n        /* \"#utility.yul\":6487:6498   */\n      add\n        /* \"#utility.yul\":6481:6499   */\n      mload\n        /* \"#utility.yul\":6477:6478   */\n      dup2\n        /* \"#utility.yul\":6472:6475   */\n      dup5\n        /* \"#utility.yul\":6468:6479   */\n      add\n        /* \"#utility.yul\":6461:6500   */\n      mstore\n        /* \"#utility.yul\":6433:6435   */\n      0x20\n        /* \"#utility.yul\":6430:6431   */\n      dup2\n        /* \"#utility.yul\":6426:6436   */\n      add\n        /* \"#utility.yul\":6421:6436   */\n      swap1\n      pop\n        /* \"#utility.yul\":6397:6510   */\n      jump(tag_151)\n    tag_153:\n        /* \"#utility.yul\":6544:6545   */\n      0x00\n        /* \"#utility.yul\":6535:6541   */\n      dup5\n        /* \"#utility.yul\":6530:6533   */\n      dup5\n        /* \"#utility.yul\":6526:6542   */\n      add\n        /* \"#utility.yul\":6519:6546   */\n      mstore\n        /* \"#utility.yul\":6368:6552   */\n      pop\n        /* \"#utility.yul\":6306:6552   */\n      pop\n      pop\n      pop\n      jump\t// out\n        /* \"#utility.yul\":6558:6935   */\n    tag_71:\n        /* \"#utility.yul\":6646:6649   */\n      0x00\n        /* \"#utility.yul\":6674:6713   */\n      tag_155\n        /* \"#utility.yul\":6707:6712   */\n      dup3\n        /* \"#utility.yul\":6674:6713   */\n      tag_68\n      jump\t// in\n    tag_155:\n        /* \"#utility.yul\":6729:6800   */\n      tag_156\n        /* \"#utility.yul\":6793:6799   */\n      dup2\n        /* \"#utility.yul\":6788:6791   */\n      dup6\n        /* \"#utility.yul\":6729:6800   */\n      tag_69\n      jump\t// in\n    tag_156:\n        /* \"#utility.yul\":6722:6800   */\n      swap4\n      pop\n        /* \"#utility.yul\":6809:6874   */\n      tag_157\n        /* \"#utility.yul\":6867:6873   */\n      dup2\n        /* \"#utility.yul\":6862:6865   */\n      dup6\n        /* \"#utility.yul\":6855:6859   */\n      0x20\n        /* \"#utility.yul\":6848:6853   */\n      dup7\n        /* \"#utility.yul\":6844:6860   */\n      add\n        /* \"#utility.yul\":6809:6874   */\n      tag_70\n      jump\t// in\n    tag_157:\n        /* \"#utility.yul\":6899:6928   */\n      tag_158\n        /* \"#utility.yul\":6921:6927   */\n      dup2\n        /* \"#utility.yul\":6899:6928   */\n      tag_52\n      jump\t// in\n    tag_158:\n        /* \"#utility.yul\":6894:6897   */\n      dup5\n        /* \"#utility.yul\":6890:6929   */\n      add\n        /* \"#utility.yul\":6883:6929   */\n      swap2\n      pop\n        /* \"#utility.yul\":6650:6935   */\n      pop\n        /* \"#utility.yul\":6558:6935   */\n      swap3\n      swap2\n      pop\n      pop\n      jump\t// out\n        /* \"#utility.yul\":6941:7364   */\n    tag_31:\n        /* \"#utility.yul\":7082:7086   */\n      0x00\n        /* \"#utility.yul\":7120:7122   */\n      0x40\n        /* \"#utility.yul\":7109:7118   */\n      dup3\n        /* \"#utility.yul\":7105:7123   */\n      add\n        /* \"#utility.yul\":7097:7123   */\n      swap1\n      pop\n        /* \"#utility.yul\":7133:7204   */\n      tag_160\n        /* \"#utility.yul\":7201:7202   */\n      0x00\n        /* \"#utility.yul\":7190:7199   */\n      dup4\n        /* \"#utility.yul\":7186:7203   */\n      add\n        /* \"#utility.yul\":7177:7183   */\n      dup6\n        /* \"#utility.yul\":7133:7204   */\n      tag_60\n      jump\t// in\n    tag_160:\n        /* \"#utility.yul\":7251:7260   */\n      dup2\n        /* \"#utility.yul\":7245:7249   */\n      dup2\n        /* \"#utility.yul\":7241:7261   */\n      sub\n        /* \"#utility.yul\":7236:7238   */\n      0x20\n        /* \"#utility.yul\":7225:7234   */\n      dup4\n        /* \"#utility.yul\":7221:7239   */\n      add\n        /* \"#utility.yul\":7214:7262   */\n      mstore\n        /* \"#utility.yul\":7279:7357   */\n      tag_161\n        /* \"#utility.yul\":7352:7356   */\n      dup2\n        /* \"#utility.yul\":7343:7349   */\n      dup5\n        /* \"#utility.yul\":7279:7357   */\n      tag_71\n      jump\t// in\n    tag_161:\n        /* \"#utility.yul\":7271:7357   */\n      swap1\n      pop\n        /* \"#utility.yul\":6941:7364   */\n      swap4\n      swap3\n      pop\n      pop\n      pop\n      jump\t// out\n        /* \"#utility.yul\":7370:7550   */\n    tag_72:\n        /* \"#utility.yul\":7418:7495   */\n      0x4e487b7100000000000000000000000000000000000000000000000000000000\n        /* \"#utility.yul\":7415:7416   */\n      0x00\n        /* \"#utility.yul\":7408:7496   */\n      mstore\n        /* \"#utility.yul\":7515:7519   */\n      0x11\n        /* \"#utility.yul\":7512:7513   */\n      0x04\n        /* \"#utility.yul\":7505:7520   */\n      mstore\n        /* \"#utility.yul\":7539:7543   */\n      0x24\n        /* \"#utility.yul\":7536:7537   */\n      0x00\n        /* \"#utility.yul\":7529:7544   */\n      revert\n        /* \"#utility.yul\":7556:7747   */\n    tag_34:\n        /* \"#utility.yul\":7596:7599   */\n      0x00\n        /* \"#utility.yul\":7615:7635   */\n      tag_164\n        /* \"#utility.yul\":7633:7634   */\n      dup3\n        /* \"#utility.yul\":7615:7635   */\n      tag_61\n      jump\t// in\n    tag_164:\n        /* \"#utility.yul\":7610:7635   */\n      swap2\n      pop\n        /* \"#utility.yul\":7649:7669   */\n      tag_165\n        /* \"#utility.yul\":7667:7668   */\n      dup4\n        /* \"#utility.yul\":7649:7669   */\n      tag_61\n      jump\t// in\n    tag_165:\n        /* \"#utility.yul\":7644:7669   */\n      swap3\n      pop\n        /* \"#utility.yul\":7692:7693   */\n      dup3\n        /* \"#utility.yul\":7689:7690   */\n      dup3\n        /* \"#utility.yul\":7685:7694   */\n      add\n        /* \"#utility.yul\":7678:7694   */\n      swap1\n      pop\n        /* \"#utility.yul\":7713:7716   */\n      dup1\n        /* \"#utility.yul\":7710:7711   */\n      dup3\n        /* \"#utility.yul\":7707:7717   */\n      gt\n        /* \"#utility.yul\":7704:7740   */\n      iszero\n      tag_166\n      jumpi\n        /* \"#utility.yul\":7720:7738   */\n      tag_167\n      tag_72\n      jump\t// in\n    tag_167:\n        /* \"#utility.yul\":7704:7740   */\n    tag_166:\n        /* \"#utility.yul\":7556:7747   */\n      swap3\n      swap2\n      pop\n      pop\n      jump\t// out\n    stop\n\n    sub_0: assembly {\n            /* \"contracts/Donation.sol\":112:1955  contract Donation is Ownable {... */\n          mstore(0x40, 0xa0)\n            /* \"contracts/Donation.sol\":532:792  constructor(address _donationReceiver, string memory _description) Ownable(msg.sender) payable {... */\n          mload(0x40)\n          sub(codesize, bytecodeSize)\n          dup1\n          bytecodeSize\n          dup4\n          codecopy\n          dup2\n          dup2\n          add\n          0x40\n          mstore\n          dup2\n          add\n          swap1\n          tag_1\n          swap2\n          swap1\n          tag_2\n          jump\t// in\n        tag_1:\n            /* \"contracts/Donation.sol\":607:617  msg.sender */\n          caller\n            /* \"@openzeppelin/contracts/access/Ownable.sol\":1297:1298  0 */\n          0x00\n            /* \"@openzeppelin/contracts/access/Ownable.sol\":1273:1299  initialOwner == address(0) */\n          0xffffffffffffffffffffffffffffffffffffffff\n          and\n            /* \"@openzeppelin/contracts/access/Ownable.sol\":1273:1285  initialOwner */\n          dup2\n            /* \"@openzeppelin/contracts/access/Ownable.sol\":1273:1299  initialOwner == address(0) */\n          0xffffffffffffffffffffffffffffffffffffffff\n          and\n          sub\n            /* \"@openzeppelin/contracts/access/Ownable.sol\":1269:1364  if (initialOwner == address(0)) {... */\n          tag_6\n          jumpi\n            /* \"@openzeppelin/contracts/access/Ownable.sol\":1350:1351  0 */\n          0x00\n            /* \"@openzeppelin/contracts/access/Ownable.sol\":1322:1353  OwnableInvalidOwner(address(0)) */\n          mload(0x40)\n          0x1e4fbdf700000000000000000000000000000000000000000000000000000000\n          dup2\n          mstore\n          0x04\n          add\n          tag_7\n          swap2\n          swap1\n          tag_8\n          jump\t// in\n        tag_7:\n          mload(0x40)\n          dup1\n          swap2\n          sub\n          swap1\n          revert\n            /* \"@openzeppelin/contracts/access/Ownable.sol\":1269:1364  if (initialOwner == address(0)) {... */\n        tag_6:\n            /* \"@openzeppelin/contracts/access/Ownable.sol\":1373:1405  _transferOwnership(initialOwner) */\n          tag_9\n            /* \"@openzeppelin/contracts/access/Ownable.sol\":1392:1404  initialOwner */\n          dup2\n            /* \"@openzeppelin/contracts/access/Ownable.sol\":1373:1391  _transferOwnership */\n          shl(0x20, tag_10)\n            /* \"@openzeppelin/contracts/access/Ownable.sol\":1373:1405  _transferOwnership(initialOwner) */\n          0x20\n          shr\n          jump\t// in\n        tag_9:\n            /* \"@openzeppelin/contracts/access/Ownable.sol\":1225:1412  constructor(address initialOwner) {... */\n          pop\n            /* \"contracts/Donation.sol\":652:664  _description */\n          dup1\n            /* \"contracts/Donation.sol\":638:649  description */\n          0x04\n            /* \"contracts/Donation.sol\":638:664  description = _description */\n          swap1\n          dup2\n          tag_12\n          swap2\n          swap1\n          tag_13\n          jump\t// in\n        tag_12:\n          pop\n            /* \"contracts/Donation.sol\":695:712  _donationReceiver */\n          dup2\n            /* \"contracts/Donation.sol\":675:712  donationsReceiver = _donationReceiver */\n          0xffffffffffffffffffffffffffffffffffffffff\n          and\n          0x80\n          dup2\n          0xffffffffffffffffffffffffffffffffffffffff\n          and\n          dup2\n          mstore\n          pop\n          pop\n            /* \"contracts/Donation.sol\":739:740  0 */\n          0x00\n            /* \"contracts/Donation.sol\":727:736  msg.value */\n          callvalue\n            /* \"contracts/Donation.sol\":727:740  msg.value > 0 */\n          gt\n            /* \"contracts/Donation.sol\":723:785  if (msg.value > 0){... */\n          iszero\n          tag_14\n          jumpi\n            /* \"contracts/Donation.sol\":756:769  storeDonate() */\n          tag_15\n            /* \"contracts/Donation.sol\":756:767  storeDonate */\n          shl(0x20, tag_16)\n            /* \"contracts/Donation.sol\":756:769  storeDonate() */\n          0x20\n          shr\n          jump\t// in\n        tag_15:\n            /* \"contracts/Donation.sol\":723:785  if (msg.value > 0){... */\n        tag_14:\n            /* \"contracts/Donation.sol\":532:792  constructor(address _donationReceiver, string memory _description) Ownable(msg.sender) payable {... */\n          pop\n          pop\n            /* \"contracts/Donation.sol\":112:1955  contract Donation is Ownable {... */\n          jump(tag_17)\n            /* \"@openzeppelin/contracts/access/Ownable.sol\":2912:3099  function _transferOwnership(address newOwner) internal virtual {... */\n        tag_10:\n            /* \"@openzeppelin/contracts/access/Ownable.sol\":2985:3001  address oldOwner */\n          0x00\n            /* \"@openzeppelin/contracts/access/Ownable.sol\":3004:3010  _owner */\n          dup1\n          0x00\n          swap1\n          sload\n          swap1\n          0x0100\n          exp\n          swap1\n          div\n          0xffffffffffffffffffffffffffffffffffffffff\n          and\n            /* \"@openzeppelin/contracts/access/Ownable.sol\":2985:3010  address oldOwner = _owner */\n          swap1\n          pop\n            /* \"@openzeppelin/contracts/access/Ownable.sol\":3029:3037  newOwner */\n          dup2\n            /* \"@openzeppelin/contracts/access/Ownable.sol\":3020:3026  _owner */\n          0x00\n          dup1\n            /* \"@openzeppelin/contracts/access/Ownable.sol\":3020:3037  _owner = newOwner */\n          0x0100\n          exp\n          dup2\n          sload\n          dup2\n          0xffffffffffffffffffffffffffffffffffffffff\n          mul\n          not\n          and\n          swap1\n          dup4\n          0xffffffffffffffffffffffffffffffffffffffff\n          and\n          mul\n          or\n          swap1\n          sstore\n          pop\n            /* \"@openzeppelin/contracts/access/Ownable.sol\":3083:3091  newOwner */\n          dup2\n            /* \"@openzeppelin/contracts/access/Ownable.sol\":3052:3092  OwnershipTransferred(oldOwner, newOwner) */\n          0xffffffffffffffffffffffffffffffffffffffff\n          and\n            /* \"@openzeppelin/contracts/access/Ownable.sol\":3073:3081  oldOwner */\n          dup2\n            /* \"@openzeppelin/contracts/access/Ownable.sol\":3052:3092  OwnershipTransferred(oldOwner, newOwner) */\n          0xffffffffffffffffffffffffffffffffffffffff\n          and\n          0x8be0079c531659141344cd1fd0a4f28419497f9722a3daafe3b4186f6b6457e0\n          mload(0x40)\n          mload(0x40)\n          dup1\n          swap2\n          sub\n          swap1\n          log3\n            /* \"@openzeppelin/contracts/access/Ownable.sol\":2975:3099  {... */\n          pop\n            /* \"@openzeppelin/contracts/access/Ownable.sol\":2912:3099  function _transferOwnership(address newOwner) internal virtual {... */\n          pop\n          jump\t// out\n            /* \"contracts/Donation.sol\":798:1077  function storeDonate() internal {... */\n        tag_16:\n            /* \"contracts/Donation.sol\":869:870  0 */\n          0x00\n            /* \"contracts/Donation.sol\":844:854  _donations */\n          0x05\n            /* \"contracts/Donation.sol\":844:865  _donations[tx.origin] */\n          0x00\n            /* \"contracts/Donation.sol\":855:864  tx.origin */\n          origin\n            /* \"contracts/Donation.sol\":844:865  _donations[tx.origin] */\n          0xffffffffffffffffffffffffffffffffffffffff\n          and\n          0xffffffffffffffffffffffffffffffffffffffff\n          and\n          dup2\n          mstore\n          0x20\n          add\n          swap1\n          dup2\n          mstore\n          0x20\n          add\n          0x00\n          keccak256\n          sload\n            /* \"contracts/Donation.sol\":844:870  _donations[tx.origin] == 0 */\n          sub\n            /* \"contracts/Donation.sol\":841:930  if(_donations[tx.origin] == 0){... */\n          tag_20\n          jumpi\n            /* \"contracts/Donation.sol\":886:902  charityAddresses */\n          0x03\n            /* \"contracts/Donation.sol\":908:917  tx.origin */\n          origin\n            /* \"contracts/Donation.sol\":886:918  charityAddresses.push(tx.origin) */\n          swap1\n          dup1\n          0x01\n          dup2\n          sload\n          add\n          dup1\n          dup3\n          sstore\n          dup1\n          swap2\n          pop\n          pop\n          0x01\n          swap1\n          sub\n          swap1\n          0x00\n          mstore\n          keccak256(0x00, 0x20)\n          add\n          0x00\n          swap1\n          swap2\n          swap1\n          swap2\n          swap1\n          swap2\n          0x0100\n          exp\n          dup2\n          sload\n          dup2\n          0xffffffffffffffffffffffffffffffffffffffff\n          mul\n          not\n          and\n          swap1\n          dup4\n          0xffffffffffffffffffffffffffffffffffffffff\n          and\n          mul\n          or\n          swap1\n          sstore\n          pop\n            /* \"contracts/Donation.sol\":841:930  if(_donations[tx.origin] == 0){... */\n        tag_20:\n            /* \"contracts/Donation.sol\":965:974  msg.value */\n          callvalue\n            /* \"contracts/Donation.sol\":940:950  _donations */\n          0x05\n            /* \"contracts/Donation.sol\":940:961  _donations[tx.origin] */\n          0x00\n            /* \"contracts/Donation.sol\":951:960  tx.origin */\n          origin\n            /* \"contracts/Donation.sol\":940:961  _donations[tx.origin] */\n          0xffffffffffffffffffffffffffffffffffffffff\n          and\n          0xffffffffffffffffffffffffffffffffffffffff\n          and\n          dup2\n          mstore\n          0x20\n          add\n          swap1\n          dup2\n          mstore\n          0x20\n          add\n          0x00\n          keccak256\n          0x00\n            /* \"contracts/Donation.sol\":940:974  _donations[tx.origin] += msg.value */\n          dup3\n          dup3\n          sload\n          tag_22\n          swap2\n          swap1\n          tag_23\n          jump\t// in\n        tag_22:\n          swap3\n          pop\n          pop\n          dup2\n          swap1\n          sstore\n          pop\n            /* \"contracts/Donation.sol\":1009:1018  msg.value */\n          callvalue\n            /* \"contracts/Donation.sol\":985:1005  totalDonationsAmount */\n          0x01\n          0x00\n            /* \"contracts/Donation.sol\":985:1018  totalDonationsAmount += msg.value */\n          dup3\n          dup3\n          sload\n          tag_24\n          swap2\n          swap1\n          tag_23\n          jump\t// in\n        tag_24:\n          swap3\n          pop\n          pop\n          dup2\n          swap1\n          sstore\n          pop\n            /* \"contracts/Donation.sol\":1043:1052  tx.origin */\n          origin\n            /* \"contracts/Donation.sol\":1034:1064  Transfer(tx.origin, msg.value) */\n          0xffffffffffffffffffffffffffffffffffffffff\n          and\n          0x69ca02dd4edd7bf0a4abb9ed3b7af3f14778db5d61921c7dc7cd545266326de2\n            /* \"contracts/Donation.sol\":1054:1063  msg.value */\n          callvalue\n            /* \"contracts/Donation.sol\":1034:1064  Transfer(tx.origin, msg.value) */\n          mload(0x40)\n          tag_25\n          swap2\n          swap1\n          tag_26\n          jump\t// in\n        tag_25:\n          mload(0x40)\n          dup1\n          swap2\n          sub\n          swap1\n          log2\n            /* \"contracts/Donation.sol\":798:1077  function storeDonate() internal {... */\n          jump\t// out\n            /* \"#utility.yul\":7:82   */\n        tag_27:\n            /* \"#utility.yul\":40:46   */\n          0x00\n            /* \"#utility.yul\":73:75   */\n          0x40\n            /* \"#utility.yul\":67:76   */\n          mload\n            /* \"#utility.yul\":57:76   */\n          swap1\n          pop\n            /* \"#utility.yul\":7:82   */\n          swap1\n          jump\t// out\n            /* \"#utility.yul\":88:205   */\n        tag_28:\n            /* \"#utility.yul\":197:198   */\n          0x00\n            /* \"#utility.yul\":194:195   */\n          dup1\n            /* \"#utility.yul\":187:199   */\n          revert\n            /* \"#utility.yul\":211:328   */\n        tag_29:\n            /* \"#utility.yul\":320:321   */\n          0x00\n            /* \"#utility.yul\":317:318   */\n          dup1\n            /* \"#utility.yul\":310:322   */\n          revert\n            /* \"#utility.yul\":334:460   */\n        tag_30:\n            /* \"#utility.yul\":371:378   */\n          0x00\n            /* \"#utility.yul\":411:453   */\n          0xffffffffffffffffffffffffffffffffffffffff\n            /* \"#utility.yul\":404:409   */\n          dup3\n            /* \"#utility.yul\":400:454   */\n          and\n            /* \"#utility.yul\":389:454   */\n          swap1\n          pop\n            /* \"#utility.yul\":334:460   */\n          swap2\n          swap1\n          pop\n          jump\t// out\n            /* \"#utility.yul\":466:562   */\n        tag_31:\n            /* \"#utility.yul\":503:510   */\n          0x00\n            /* \"#utility.yul\":532:556   */\n          tag_72\n            /* \"#utility.yul\":550:555   */\n          dup3\n            /* \"#utility.yul\":532:556   */\n          tag_30\n          jump\t// in\n        tag_72:\n            /* \"#utility.yul\":521:556   */\n          swap1\n          pop\n            /* \"#utility.yul\":466:562   */\n          swap2\n          swap1\n          pop\n          jump\t// out\n            /* \"#utility.yul\":568:690   */\n        tag_32:\n            /* \"#utility.yul\":641:665   */\n          tag_74\n            /* \"#utility.yul\":659:664   */\n          dup2\n            /* \"#utility.yul\":641:665   */\n          tag_31\n          jump\t// in\n        tag_74:\n            /* \"#utility.yul\":634:639   */\n          dup2\n            /* \"#utility.yul\":631:666   */\n          eq\n            /* \"#utility.yul\":621:684   */\n          tag_75\n          jumpi\n            /* \"#utility.yul\":680:681   */\n          0x00\n            /* \"#utility.yul\":677:678   */\n          dup1\n            /* \"#utility.yul\":670:682   */\n          revert\n            /* \"#utility.yul\":621:684   */\n        tag_75:\n            /* \"#utility.yul\":568:690   */\n          pop\n          jump\t// out\n            /* \"#utility.yul\":696:839   */\n        tag_33:\n            /* \"#utility.yul\":753:758   */\n          0x00\n            /* \"#utility.yul\":784:790   */\n          dup2\n            /* \"#utility.yul\":778:791   */\n          mload\n            /* \"#utility.yul\":769:791   */\n          swap1\n          pop\n            /* \"#utility.yul\":800:833   */\n          tag_77\n            /* \"#utility.yul\":827:832   */\n          dup2\n            /* \"#utility.yul\":800:833   */\n          tag_32\n          jump\t// in\n        tag_77:\n            /* \"#utility.yul\":696:839   */\n          swap3\n          swap2\n          pop\n          pop\n          jump\t// out\n            /* \"#utility.yul\":845:962   */\n        tag_34:\n            /* \"#utility.yul\":954:955   */\n          0x00\n            /* \"#utility.yul\":951:952   */\n          dup1\n            /* \"#utility.yul\":944:956   */\n          revert\n            /* \"#utility.yul\":968:1085   */\n        tag_35:\n            /* \"#utility.yul\":1077:1078   */\n          0x00\n            /* \"#utility.yul\":1074:1075   */\n          dup1\n            /* \"#utility.yul\":1067:1079   */\n          revert\n            /* \"#utility.yul\":1091:1193   */\n        tag_36:\n            /* \"#utility.yul\":1132:1138   */\n          0x00\n            /* \"#utility.yul\":1183:1185   */\n          0x1f\n            /* \"#utility.yul\":1179:1186   */\n          not\n            /* \"#utility.yul\":1174:1176   */\n          0x1f\n            /* \"#utility.yul\":1167:1172   */\n          dup4\n            /* \"#utility.yul\":1163:1177   */\n          add\n            /* \"#utility.yul\":1159:1187   */\n          and\n            /* \"#utility.yul\":1149:1187   */\n          swap1\n          pop\n            /* \"#utility.yul\":1091:1193   */\n          swap2\n          swap1\n          pop\n          jump\t// out\n            /* \"#utility.yul\":1199:1379   */\n        tag_37:\n            /* \"#utility.yul\":1247:1324   */\n          0x4e487b7100000000000000000000000000000000000000000000000000000000\n            /* \"#utility.yul\":1244:1245   */\n          0x00\n            /* \"#utility.yul\":1237:1325   */\n          mstore\n            /* \"#utility.yul\":1344:1348   */\n          0x41\n            /* \"#utility.yul\":1341:1342   */\n          0x04\n            /* \"#utility.yul\":1334:1349   */\n          mstore\n            /* \"#utility.yul\":1368:1372   */\n          0x24\n            /* \"#utility.yul\":1365:1366   */\n          0x00\n            /* \"#utility.yul\":1358:1373   */\n          revert\n            /* \"#utility.yul\":1385:1666   */\n        tag_38:\n            /* \"#utility.yul\":1468:1495   */\n          tag_83\n            /* \"#utility.yul\":1490:1494   */\n          dup3\n            /* \"#utility.yul\":1468:1495   */\n          tag_36\n          jump\t// in\n        tag_83:\n            /* \"#utility.yul\":1460:1466   */\n          dup2\n            /* \"#utility.yul\":1456:1496   */\n          add\n            /* \"#utility.yul\":1598:1604   */\n          dup2\n            /* \"#utility.yul\":1586:1596   */\n          dup2\n            /* \"#utility.yul\":1583:1605   */\n          lt\n            /* \"#utility.yul\":1562:1580   */\n          0xffffffffffffffff\n            /* \"#utility.yul\":1550:1560   */\n          dup3\n            /* \"#utility.yul\":1547:1581   */\n          gt\n            /* \"#utility.yul\":1544:1606   */\n          or\n            /* \"#utility.yul\":1541:1629   */\n          iszero\n          tag_84\n          jumpi\n            /* \"#utility.yul\":1609:1627   */\n          tag_85\n          tag_37\n          jump\t// in\n        tag_85:\n            /* \"#utility.yul\":1541:1629   */\n        tag_84:\n            /* \"#utility.yul\":1649:1659   */\n          dup1\n            /* \"#utility.yul\":1645:1647   */\n          0x40\n            /* \"#utility.yul\":1638:1660   */\n          mstore\n            /* \"#utility.yul\":1428:1666   */\n          pop\n            /* \"#utility.yul\":1385:1666   */\n          pop\n          pop\n          jump\t// out\n            /* \"#utility.yul\":1672:1801   */\n        tag_39:\n            /* \"#utility.yul\":1706:1712   */\n          0x00\n            /* \"#utility.yul\":1733:1753   */\n          tag_87\n          tag_27\n          jump\t// in\n        tag_87:\n            /* \"#utility.yul\":1723:1753   */\n          swap1\n          pop\n            /* \"#utility.yul\":1762:1795   */\n          tag_88\n            /* \"#utility.yul\":1790:1794   */\n          dup3\n            /* \"#utility.yul\":1782:1788   */\n          dup3\n            /* \"#utility.yul\":1762:1795   */\n          tag_38\n          jump\t// in\n        tag_88:\n            /* \"#utility.yul\":1672:1801   */\n          swap2\n          swap1\n          pop\n          jump\t// out\n            /* \"#utility.yul\":1807:2115   */\n        tag_40:\n            /* \"#utility.yul\":1869:1873   */\n          0x00\n            /* \"#utility.yul\":1959:1977   */\n          0xffffffffffffffff\n            /* \"#utility.yul\":1951:1957   */\n          dup3\n            /* \"#utility.yul\":1948:1978   */\n          gt\n            /* \"#utility.yul\":1945:2001   */\n          iszero\n          tag_90\n          jumpi\n            /* \"#utility.yul\":1981:1999   */\n          tag_91\n          tag_37\n          jump\t// in\n        tag_91:\n            /* \"#utility.yul\":1945:2001   */\n        tag_90:\n            /* \"#utility.yul\":2019:2048   */\n          tag_92\n            /* \"#utility.yul\":2041:2047   */\n          dup3\n            /* \"#utility.yul\":2019:2048   */\n          tag_36\n          jump\t// in\n        tag_92:\n            /* \"#utility.yul\":2011:2048   */\n          swap1\n          pop\n            /* \"#utility.yul\":2103:2107   */\n          0x20\n            /* \"#utility.yul\":2097:2101   */\n          dup2\n            /* \"#utility.yul\":2093:2108   */\n          add\n            /* \"#utility.yul\":2085:2108   */\n          swap1\n          pop\n            /* \"#utility.yul\":1807:2115   */\n          swap2\n          swap1\n          pop\n          jump\t// out\n            /* \"#utility.yul\":2121:2367   */\n        tag_41:\n            /* \"#utility.yul\":2202:2203   */\n          0x00\n            /* \"#utility.yul\":2212:2325   */\n        tag_94:\n            /* \"#utility.yul\":2226:2232   */\n          dup4\n            /* \"#utility.yul\":2223:2224   */\n          dup2\n            /* \"#utility.yul\":2220:2233   */\n          lt\n            /* \"#utility.yul\":2212:2325   */\n          iszero\n          tag_96\n          jumpi\n            /* \"#utility.yul\":2311:2312   */\n          dup1\n            /* \"#utility.yul\":2306:2309   */\n          dup3\n            /* \"#utility.yul\":2302:2313   */\n          add\n            /* \"#utility.yul\":2296:2314   */\n          mload\n            /* \"#utility.yul\":2292:2293   */\n          dup2\n            /* \"#utility.yul\":2287:2290   */\n          dup5\n            /* \"#utility.yul\":2283:2294   */\n          add\n            /* \"#utility.yul\":2276:2315   */\n          mstore\n            /* \"#utility.yul\":2248:2250   */\n          0x20\n            /* \"#utility.yul\":2245:2246   */\n          dup2\n            /* \"#utility.yul\":2241:2251   */\n          add\n            /* \"#utility.yul\":2236:2251   */\n          swap1\n          pop\n            /* \"#utility.yul\":2212:2325   */\n          jump(tag_94)\n        tag_96:\n            /* \"#utility.yul\":2359:2360   */\n          0x00\n            /* \"#utility.yul\":2350:2356   */\n          dup5\n            /* \"#utility.yul\":2345:2348   */\n          dup5\n            /* \"#utility.yul\":2341:2357   */\n          add\n            /* \"#utility.yul\":2334:2361   */\n          mstore\n            /* \"#utility.yul\":2183:2367   */\n          pop\n            /* \"#utility.yul\":2121:2367   */\n          pop\n          pop\n          pop\n          jump\t// out\n            /* \"#utility.yul\":2373:2807   */\n        tag_42:\n            /* \"#utility.yul\":2462:2467   */\n          0x00\n            /* \"#utility.yul\":2487:2553   */\n          tag_98\n            /* \"#utility.yul\":2503:2552   */\n          tag_99\n            /* \"#utility.yul\":2545:2551   */\n          dup5\n            /* \"#utility.yul\":2503:2552   */\n          tag_40\n          jump\t// in\n        tag_99:\n            /* \"#utility.yul\":2487:2553   */\n          tag_39\n          jump\t// in\n        tag_98:\n            /* \"#utility.yul\":2478:2553   */\n          swap1\n          pop\n            /* \"#utility.yul\":2576:2582   */\n          dup3\n            /* \"#utility.yul\":2569:2574   */\n          dup2\n            /* \"#utility.yul\":2562:2583   */\n          mstore\n            /* \"#utility.yul\":2614:2618   */\n          0x20\n            /* \"#utility.yul\":2607:2612   */\n          dup2\n            /* \"#utility.yul\":2603:2619   */\n          add\n            /* \"#utility.yul\":2652:2655   */\n          dup5\n            /* \"#utility.yul\":2643:2649   */\n          dup5\n            /* \"#utility.yul\":2638:2641   */\n          dup5\n            /* \"#utility.yul\":2634:2650   */\n          add\n            /* \"#utility.yul\":2631:2656   */\n          gt\n            /* \"#utility.yul\":2628:2740   */\n          iszero\n          tag_100\n          jumpi\n            /* \"#utility.yul\":2659:2738   */\n          tag_101\n          tag_35\n          jump\t// in\n        tag_101:\n            /* \"#utility.yul\":2628:2740   */\n        tag_100:\n            /* \"#utility.yul\":2749:2801   */\n          tag_102\n            /* \"#utility.yul\":2794:2800   */\n          dup5\n            /* \"#utility.yul\":2789:2792   */\n          dup3\n            /* \"#utility.yul\":2784:2787   */\n          dup6\n            /* \"#utility.yul\":2749:2801   */\n          tag_41\n          jump\t// in\n        tag_102:\n            /* \"#utility.yul\":2468:2807   */\n          pop\n            /* \"#utility.yul\":2373:2807   */\n          swap4\n          swap3\n          pop\n          pop\n          pop\n          jump\t// out\n            /* \"#utility.yul\":2827:3182   */\n        tag_43:\n            /* \"#utility.yul\":2894:2899   */\n          0x00\n            /* \"#utility.yul\":2943:2946   */\n          dup3\n            /* \"#utility.yul\":2936:2940   */\n          0x1f\n            /* \"#utility.yul\":2928:2934   */\n          dup4\n            /* \"#utility.yul\":2924:2941   */\n          add\n            /* \"#utility.yul\":2920:2947   */\n          slt\n            /* \"#utility.yul\":2910:3032   */\n          tag_104\n          jumpi\n            /* \"#utility.yul\":2951:3030   */\n          tag_105\n          tag_34\n          jump\t// in\n        tag_105:\n            /* \"#utility.yul\":2910:3032   */\n        tag_104:\n            /* \"#utility.yul\":3061:3067   */\n          dup2\n            /* \"#utility.yul\":3055:3068   */\n          mload\n            /* \"#utility.yul\":3086:3176   */\n          tag_106\n            /* \"#utility.yul\":3172:3175   */\n          dup5\n            /* \"#utility.yul\":3164:3170   */\n          dup3\n            /* \"#utility.yul\":3157:3161   */\n          0x20\n            /* \"#utility.yul\":3149:3155   */\n          dup7\n            /* \"#utility.yul\":3145:3162   */\n          add\n            /* \"#utility.yul\":3086:3176   */\n          tag_42\n          jump\t// in\n        tag_106:\n            /* \"#utility.yul\":3077:3176   */\n          swap2\n          pop\n            /* \"#utility.yul\":2900:3182   */\n          pop\n            /* \"#utility.yul\":2827:3182   */\n          swap3\n          swap2\n          pop\n          pop\n          jump\t// out\n            /* \"#utility.yul\":3188:3868   */\n        tag_2:\n            /* \"#utility.yul\":3277:3283   */\n          0x00\n            /* \"#utility.yul\":3285:3291   */\n          dup1\n            /* \"#utility.yul\":3334:3336   */\n          0x40\n            /* \"#utility.yul\":3322:3331   */\n          dup4\n            /* \"#utility.yul\":3313:3320   */\n          dup6\n            /* \"#utility.yul\":3309:3332   */\n          sub\n            /* \"#utility.yul\":3305:3337   */\n          slt\n            /* \"#utility.yul\":3302:3421   */\n          iszero\n          tag_108\n          jumpi\n            /* \"#utility.yul\":3340:3419   */\n          tag_109\n          tag_28\n          jump\t// in\n        tag_109:\n            /* \"#utility.yul\":3302:3421   */\n        tag_108:\n            /* \"#utility.yul\":3460:3461   */\n          0x00\n            /* \"#utility.yul\":3485:3549   */\n          tag_110\n            /* \"#utility.yul\":3541:3548   */\n          dup6\n            /* \"#utility.yul\":3532:3538   */\n          dup3\n            /* \"#utility.yul\":3521:3530   */\n          dup7\n            /* \"#utility.yul\":3517:3539   */\n          add\n            /* \"#utility.yul\":3485:3549   */\n          tag_33\n          jump\t// in\n        tag_110:\n            /* \"#utility.yul\":3475:3549   */\n          swap3\n          pop\n            /* \"#utility.yul\":3431:3559   */\n          pop\n            /* \"#utility.yul\":3619:3621   */\n          0x20\n            /* \"#utility.yul\":3608:3617   */\n          dup4\n            /* \"#utility.yul\":3604:3622   */\n          add\n            /* \"#utility.yul\":3598:3623   */\n          mload\n            /* \"#utility.yul\":3650:3668   */\n          0xffffffffffffffff\n            /* \"#utility.yul\":3642:3648   */\n          dup2\n            /* \"#utility.yul\":3639:3669   */\n          gt\n            /* \"#utility.yul\":3636:3753   */\n          iszero\n          tag_111\n          jumpi\n            /* \"#utility.yul\":3672:3751   */\n          tag_112\n          tag_29\n          jump\t// in\n        tag_112:\n            /* \"#utility.yul\":3636:3753   */\n        tag_111:\n            /* \"#utility.yul\":3777:3851   */\n          tag_113\n            /* \"#utility.yul\":3843:3850   */\n          dup6\n            /* \"#utility.yul\":3834:3840   */\n          dup3\n            /* \"#utility.yul\":3823:3832   */\n          dup7\n            /* \"#utility.yul\":3819:3841   */\n          add\n            /* \"#utility.yul\":3777:3851   */\n          tag_43\n          jump\t// in\n        tag_113:\n            /* \"#utility.yul\":3767:3851   */\n          swap2\n          pop\n            /* \"#utility.yul\":3569:3861   */\n          pop\n            /* \"#utility.yul\":3188:3868   */\n          swap3\n          pop\n          swap3\n          swap1\n          pop\n          jump\t// out\n            /* \"#utility.yul\":3874:3992   */\n        tag_44:\n            /* \"#utility.yul\":3961:3985   */\n          tag_115\n            /* \"#utility.yul\":3979:3984   */\n          dup2\n            /* \"#utility.yul\":3961:3985   */\n          tag_31\n          jump\t// in\n        tag_115:\n            /* \"#utility.yul\":3956:3959   */\n          dup3\n            /* \"#utility.yul\":3949:3986   */\n          mstore\n            /* \"#utility.yul\":3874:3992   */\n          pop\n          pop\n          jump\t// out\n            /* \"#utility.yul\":3998:4220   */\n        tag_8:\n            /* \"#utility.yul\":4091:4095   */\n          0x00\n            /* \"#utility.yul\":4129:4131   */\n          0x20\n            /* \"#utility.yul\":4118:4127   */\n          dup3\n            /* \"#utility.yul\":4114:4132   */\n          add\n            /* \"#utility.yul\":4106:4132   */\n          swap1\n          pop\n            /* \"#utility.yul\":4142:4213   */\n          tag_117\n            /* \"#utility.yul\":4210:4211   */\n          0x00\n            /* \"#utility.yul\":4199:4208   */\n          dup4\n            /* \"#utility.yul\":4195:4212   */\n          add\n            /* \"#utility.yul\":4186:4192   */\n          dup5\n            /* \"#utility.yul\":4142:4213   */\n          tag_44\n          jump\t// in\n        tag_117:\n            /* \"#utility.yul\":3998:4220   */\n          swap3\n          swap2\n          pop\n          pop\n          jump\t// out\n            /* \"#utility.yul\":4226:4325   */\n        tag_45:\n            /* \"#utility.yul\":4278:4284   */\n          0x00\n            /* \"#utility.yul\":4312:4317   */\n          dup2\n            /* \"#utility.yul\":4306:4318   */\n          mload\n            /* \"#utility.yul\":4296:4318   */\n          swap1\n          pop\n            /* \"#utility.yul\":4226:4325   */\n          swap2\n          swap1\n          pop\n          jump\t// out\n            /* \"#utility.yul\":4331:4511   */\n        tag_46:\n            /* \"#utility.yul\":4379:4456   */\n          0x4e487b7100000000000000000000000000000000000000000000000000000000\n            /* \"#utility.yul\":4376:4377   */\n          0x00\n            /* \"#utility.yul\":4369:4457   */\n          mstore\n            /* \"#utility.yul\":4476:4480   */\n          0x22\n            /* \"#utility.yul\":4473:4474   */\n          0x04\n            /* \"#utility.yul\":4466:4481   */\n          mstore\n            /* \"#utility.yul\":4500:4504   */\n          0x24\n            /* \"#utility.yul\":4497:4498   */\n          0x00\n            /* \"#utility.yul\":4490:4505   */\n          revert\n            /* \"#utility.yul\":4517:4837   */\n        tag_47:\n            /* \"#utility.yul\":4561:4567   */\n          0x00\n            /* \"#utility.yul\":4598:4599   */\n          0x02\n            /* \"#utility.yul\":4592:4596   */\n          dup3\n            /* \"#utility.yul\":4588:4600   */\n          div\n            /* \"#utility.yul\":4578:4600   */\n          swap1\n          pop\n            /* \"#utility.yul\":4645:4646   */\n          0x01\n            /* \"#utility.yul\":4639:4643   */\n          dup3\n            /* \"#utility.yul\":4635:4647   */\n          and\n            /* \"#utility.yul\":4666:4684   */\n          dup1\n            /* \"#utility.yul\":4656:4737   */\n          tag_121\n          jumpi\n            /* \"#utility.yul\":4722:4726   */\n          0x7f\n            /* \"#utility.yul\":4714:4720   */\n          dup3\n            /* \"#utility.yul\":4710:4727   */\n          and\n            /* \"#utility.yul\":4700:4727   */\n          swap2\n          pop\n            /* \"#utility.yul\":4656:4737   */\n        tag_121:\n            /* \"#utility.yul\":4784:4786   */\n          0x20\n            /* \"#utility.yul\":4776:4782   */\n          dup3\n            /* \"#utility.yul\":4773:4787   */\n          lt\n            /* \"#utility.yul\":4753:4771   */\n          dup2\n            /* \"#utility.yul\":4750:4788   */\n          sub\n            /* \"#utility.yul\":4747:4831   */\n          tag_122\n          jumpi\n            /* \"#utility.yul\":4803:4821   */\n          tag_123\n          tag_46\n          jump\t// in\n        tag_123:\n            /* \"#utility.yul\":4747:4831   */\n        tag_122:\n            /* \"#utility.yul\":4568:4837   */\n          pop\n            /* \"#utility.yul\":4517:4837   */\n          swap2\n          swap1\n          pop\n          jump\t// out\n            /* \"#utility.yul\":4843:4984   */\n        tag_48:\n            /* \"#utility.yul\":4892:4896   */\n          0x00\n            /* \"#utility.yul\":4915:4918   */\n          dup2\n            /* \"#utility.yul\":4907:4918   */\n          swap1\n          pop\n            /* \"#utility.yul\":4938:4941   */\n          dup2\n            /* \"#utility.yul\":4935:4936   */\n          0x00\n            /* \"#utility.yul\":4928:4942   */\n          mstore\n            /* \"#utility.yul\":4972:4976   */\n          0x20\n            /* \"#utility.yul\":4969:4970   */\n          0x00\n            /* \"#utility.yul\":4959:4977   */\n          keccak256\n            /* \"#utility.yul\":4951:4977   */\n          swap1\n          pop\n            /* \"#utility.yul\":4843:4984   */\n          swap2\n          swap1\n          pop\n          jump\t// out\n            /* \"#utility.yul\":4990:5083   */\n        tag_49:\n            /* \"#utility.yul\":5027:5033   */\n          0x00\n            /* \"#utility.yul\":5074:5076   */\n          0x20\n            /* \"#utility.yul\":5069:5071   */\n          0x1f\n            /* \"#utility.yul\":5062:5067   */\n          dup4\n            /* \"#utility.yul\":5058:5072   */\n          add\n            /* \"#utility.yul\":5054:5077   */\n          div\n            /* \"#utility.yul\":5044:5077   */\n          swap1\n          pop\n            /* \"#utility.yul\":4990:5083   */\n          swap2\n          swap1\n          pop\n          jump\t// out\n            /* \"#utility.yul\":5089:5196   */\n        tag_50:\n            /* \"#utility.yul\":5133:5141   */\n          0x00\n            /* \"#utility.yul\":5183:5188   */\n          dup3\n            /* \"#utility.yul\":5177:5181   */\n          dup3\n            /* \"#utility.yul\":5173:5189   */\n          shl\n            /* \"#utility.yul\":5152:5189   */\n          swap1\n          pop\n            /* \"#utility.yul\":5089:5196   */\n          swap3\n          swap2\n          pop\n          pop\n          jump\t// out\n            /* \"#utility.yul\":5202:5595   */\n        tag_51:\n            /* \"#utility.yul\":5271:5277   */\n          0x00\n            /* \"#utility.yul\":5321:5322   */\n          0x08\n            /* \"#utility.yul\":5309:5319   */\n          dup4\n            /* \"#utility.yul\":5305:5323   */\n          mul\n            /* \"#utility.yul\":5344:5441   */\n          tag_128\n            /* \"#utility.yul\":5374:5440   */\n          0xffffffffffffffffffffffffffffffffffffffffffffffffffffffffffffffff\n            /* \"#utility.yul\":5363:5372   */\n          dup3\n            /* \"#utility.yul\":5344:5441   */\n          tag_50\n          jump\t// in\n        tag_128:\n            /* \"#utility.yul\":5462:5501   */\n          tag_129\n            /* \"#utility.yul\":5492:5500   */\n          dup7\n            /* \"#utility.yul\":5481:5490   */\n          dup4\n            /* \"#utility.yul\":5462:5501   */\n          tag_50\n          jump\t// in\n        tag_129:\n            /* \"#utility.yul\":5450:5501   */\n          swap6\n          pop\n            /* \"#utility.yul\":5534:5538   */\n          dup1\n            /* \"#utility.yul\":5530:5539   */\n          not\n            /* \"#utility.yul\":5523:5528   */\n          dup5\n            /* \"#utility.yul\":5519:5540   */\n          and\n            /* \"#utility.yul\":5510:5540   */\n          swap4\n          pop\n            /* \"#utility.yul\":5583:5587   */\n          dup1\n            /* \"#utility.yul\":5573:5581   */\n          dup7\n            /* \"#utility.yul\":5569:5588   */\n          and\n            /* \"#utility.yul\":5562:5567   */\n          dup5\n            /* \"#utility.yul\":5559:5589   */\n          or\n            /* \"#utility.yul\":5549:5589   */\n          swap3\n          pop\n            /* \"#utility.yul\":5278:5595   */\n          pop\n          pop\n            /* \"#utility.yul\":5202:5595   */\n          swap4\n          swap3\n          pop\n          pop\n          pop\n          jump\t// out\n            /* \"#utility.yul\":5601:5678   */\n        tag_52:\n            /* \"#utility.yul\":5638:5645   */\n          0x00\n            /* \"#utility.yul\":5667:5672   */\n          dup2\n            /* \"#utility.yul\":5656:5672   */\n          swap1\n          pop\n            /* \"#utility.yul\":5601:5678   */\n          swap2\n          swap1\n          pop\n          jump\t// out\n            /* \"#utility.yul\":5684:5744   */\n        tag_53:\n            /* \"#utility.yul\":5712:5715   */\n          0x00\n            /* \"#utility.yul\":5733:5738   */\n          dup2\n            /* \"#utility.yul\":5726:5738   */\n          swap1\n          pop\n            /* \"#utility.yul\":5684:5744   */\n          swap2\n          swap1\n          pop\n          jump\t// out\n            /* \"#utility.yul\":5750:5892   */\n        tag_54:\n            /* \"#utility.yul\":5800:5809   */\n          0x00\n            /* \"#utility.yul\":5833:5886   */\n          tag_133\n            /* \"#utility.yul\":5851:5885   */\n          tag_134\n            /* \"#utility.yul\":5860:5884   */\n          tag_135\n            /* \"#utility.yul\":5878:5883   */\n          dup5\n            /* \"#utility.yul\":5860:5884   */\n          tag_52\n          jump\t// in\n        tag_135:\n            /* \"#utility.yul\":5851:5885   */\n          tag_53\n          jump\t// in\n        tag_134:\n            /* \"#utility.yul\":5833:5886   */\n          tag_52\n          jump\t// in\n        tag_133:\n            /* \"#utility.yul\":5820:5886   */\n          swap1\n          pop\n            /* \"#utility.yul\":5750:5892   */\n          swap2\n          swap1\n          pop\n          jump\t// out\n            /* \"#utility.yul\":5898:5973   */\n        tag_55:\n            /* \"#utility.yul\":5941:5944   */\n          0x00\n            /* \"#utility.yul\":5962:5967   */\n          dup2\n            /* \"#utility.yul\":5955:5967   */\n          swap1\n          pop\n            /* \"#utility.yul\":5898:5973   */\n          swap2\n          swap1\n          pop\n          jump\t// out\n            /* \"#utility.yul\":5979:6248   */\n        tag_56:\n            /* \"#utility.yul\":6089:6128   */\n          tag_138\n            /* \"#utility.yul\":6120:6127   */\n          dup4\n            /* \"#utility.yul\":6089:6128   */\n          tag_54\n          jump\t// in\n        tag_138:\n            /* \"#utility.yul\":6150:6241   */\n          tag_139\n            /* \"#utility.yul\":6199:6240   */\n          tag_140\n            /* \"#utility.yul\":6223:6239   */\n          dup3\n            /* \"#utility.yul\":6199:6240   */\n          tag_55\n          jump\t// in\n        tag_140:\n            /* \"#utility.yul\":6191:6197   */\n          dup5\n            /* \"#utility.yul\":6184:6188   */\n          dup5\n            /* \"#utility.yul\":6178:6189   */\n          sload\n            /* \"#utility.yul\":6150:6241   */\n          tag_51\n          jump\t// in\n        tag_139:\n            /* \"#utility.yul\":6144:6148   */\n          dup3\n            /* \"#utility.yul\":6137:6242   */\n          sstore\n            /* \"#utility.yul\":6055:6248   */\n          pop\n            /* \"#utility.yul\":5979:6248   */\n          pop\n          pop\n          pop\n          jump\t// out\n            /* \"#utility.yul\":6254:6327   */\n        tag_57:\n            /* \"#utility.yul\":6299:6302   */\n          0x00\n            /* \"#utility.yul\":6254:6327   */\n          swap1\n          jump\t// out\n            /* \"#utility.yul\":6333:6522   */\n        tag_58:\n            /* \"#utility.yul\":6410:6442   */\n          tag_143\n          tag_57\n          jump\t// in\n        tag_143:\n            /* \"#utility.yul\":6451:6516   */\n          tag_144\n            /* \"#utility.yul\":6509:6515   */\n          dup2\n            /* \"#utility.yul\":6501:6507   */\n          dup5\n            /* \"#utility.yul\":6495:6499   */\n          dup5\n            /* \"#utility.yul\":6451:6516   */\n          tag_56\n          jump\t// in\n        tag_144:\n            /* \"#utility.yul\":6386:6522   */\n          pop\n            /* \"#utility.yul\":6333:6522   */\n          pop\n          pop\n          jump\t// out\n            /* \"#utility.yul\":6528:6714   */\n        tag_59:\n            /* \"#utility.yul\":6588:6708   */\n        tag_146:\n            /* \"#utility.yul\":6605:6608   */\n          dup2\n            /* \"#utility.yul\":6598:6603   */\n          dup2\n            /* \"#utility.yul\":6595:6609   */\n          lt\n            /* \"#utility.yul\":6588:6708   */\n          iszero\n          tag_148\n          jumpi\n            /* \"#utility.yul\":6659:6698   */\n          tag_149\n            /* \"#utility.yul\":6696:6697   */\n          0x00\n            /* \"#utility.yul\":6689:6694   */\n          dup3\n            /* \"#utility.yul\":6659:6698   */\n          tag_58\n          jump\t// in\n        tag_149:\n            /* \"#utility.yul\":6632:6633   */\n          0x01\n            /* \"#utility.yul\":6625:6630   */\n          dup2\n            /* \"#utility.yul\":6621:6634   */\n          add\n            /* \"#utility.yul\":6612:6634   */\n          swap1\n          pop\n            /* \"#utility.yul\":6588:6708   */\n          jump(tag_146)\n        tag_148:\n            /* \"#utility.yul\":6528:6714   */\n          pop\n          pop\n          jump\t// out\n            /* \"#utility.yul\":6720:7263   */\n        tag_60:\n            /* \"#utility.yul\":6821:6823   */\n          0x1f\n            /* \"#utility.yul\":6816:6819   */\n          dup3\n            /* \"#utility.yul\":6813:6824   */\n          gt\n            /* \"#utility.yul\":6810:7256   */\n          iszero\n          tag_151\n          jumpi\n            /* \"#utility.yul\":6855:6893   */\n          tag_152\n            /* \"#utility.yul\":6887:6892   */\n          dup2\n            /* \"#utility.yul\":6855:6893   */\n          tag_48\n          jump\t// in\n        tag_152:\n            /* \"#utility.yul\":6939:6968   */\n          tag_153\n            /* \"#utility.yul\":6957:6967   */\n          dup5\n            /* \"#utility.yul\":6939:6968   */\n          tag_49\n          jump\t// in\n        tag_153:\n            /* \"#utility.yul\":6929:6937   */\n          dup2\n            /* \"#utility.yul\":6925:6969   */\n          add\n            /* \"#utility.yul\":7122:7124   */\n          0x20\n            /* \"#utility.yul\":7110:7120   */\n          dup6\n            /* \"#utility.yul\":7107:7125   */\n          lt\n            /* \"#utility.yul\":7104:7153   */\n          iszero\n          tag_154\n          jumpi\n            /* \"#utility.yul\":7143:7151   */\n          dup2\n            /* \"#utility.yul\":7128:7151   */\n          swap1\n          pop\n            /* \"#utility.yul\":7104:7153   */\n        tag_154:\n            /* \"#utility.yul\":7166:7246   */\n          tag_155\n            /* \"#utility.yul\":7222:7244   */\n          tag_156\n            /* \"#utility.yul\":7240:7243   */\n          dup6\n            /* \"#utility.yul\":7222:7244   */\n          tag_49\n          jump\t// in\n        tag_156:\n            /* \"#utility.yul\":7212:7220   */\n          dup4\n            /* \"#utility.yul\":7208:7245   */\n          add\n            /* \"#utility.yul\":7195:7206   */\n          dup3\n            /* \"#utility.yul\":7166:7246   */\n          tag_59\n          jump\t// in\n        tag_155:\n            /* \"#utility.yul\":6825:7256   */\n          pop\n          pop\n            /* \"#utility.yul\":6810:7256   */\n        tag_151:\n            /* \"#utility.yul\":6720:7263   */\n          pop\n          pop\n          pop\n          jump\t// out\n            /* \"#utility.yul\":7269:7386   */\n        tag_61:\n            /* \"#utility.yul\":7323:7331   */\n          0x00\n            /* \"#utility.yul\":7373:7378   */\n          dup3\n            /* \"#utility.yul\":7367:7371   */\n          dup3\n            /* \"#utility.yul\":7363:7379   */\n          shr\n            /* \"#utility.yul\":7342:7379   */\n          swap1\n          pop\n            /* \"#utility.yul\":7269:7386   */\n          swap3\n          swap2\n          pop\n          pop\n          jump\t// out\n            /* \"#utility.yul\":7392:7561   */\n        tag_62:\n            /* \"#utility.yul\":7436:7442   */\n          0x00\n            /* \"#utility.yul\":7469:7520   */\n          tag_159\n            /* \"#utility.yul\":7517:7518   */\n          0x00\n            /* \"#utility.yul\":7513:7519   */\n          not\n            /* \"#utility.yul\":7505:7510   */\n          dup5\n            /* \"#utility.yul\":7502:7503   */\n          0x08\n            /* \"#utility.yul\":7498:7511   */\n          mul\n            /* \"#utility.yul\":7469:7520   */\n          tag_61\n          jump\t// in\n        tag_159:\n            /* \"#utility.yul\":7465:7521   */\n          not\n            /* \"#utility.yul\":7550:7554   */\n          dup1\n            /* \"#utility.yul\":7544:7548   */\n          dup4\n            /* \"#utility.yul\":7540:7555   */\n          and\n            /* \"#utility.yul\":7530:7555   */\n          swap2\n          pop\n            /* \"#utility.yul\":7443:7561   */\n          pop\n            /* \"#utility.yul\":7392:7561   */\n          swap3\n          swap2\n          pop\n          pop\n          jump\t// out\n            /* \"#utility.yul\":7566:7861   */\n        tag_63:\n            /* \"#utility.yul\":7642:7646   */\n          0x00\n            /* \"#utility.yul\":7788:7817   */\n          tag_161\n            /* \"#utility.yul\":7813:7816   */\n          dup4\n            /* \"#utility.yul\":7807:7811   */\n          dup4\n            /* \"#utility.yul\":7788:7817   */\n          tag_62\n          jump\t// in\n        tag_161:\n            /* \"#utility.yul\":7780:7817   */\n          swap2\n          pop\n            /* \"#utility.yul\":7850:7853   */\n          dup3\n            /* \"#utility.yul\":7847:7848   */\n          0x02\n            /* \"#utility.yul\":7843:7854   */\n          mul\n            /* \"#utility.yul\":7837:7841   */\n          dup3\n            /* \"#utility.yul\":7834:7855   */\n          or\n            /* \"#utility.yul\":7826:7855   */\n          swap1\n          pop\n            /* \"#utility.yul\":7566:7861   */\n          swap3\n          swap2\n          pop\n          pop\n          jump\t// out\n            /* \"#utility.yul\":7866:9261   */\n        tag_13:\n            /* \"#utility.yul\":7983:8020   */\n          tag_163\n            /* \"#utility.yul\":8016:8019   */\n          dup3\n            /* \"#utility.yul\":7983:8020   */\n          tag_45\n          jump\t// in\n        tag_163:\n            /* \"#utility.yul\":8085:8103   */\n          0xffffffffffffffff\n            /* \"#utility.yul\":8077:8083   */\n          dup2\n            /* \"#utility.yul\":8074:8104   */\n          gt\n            /* \"#utility.yul\":8071:8127   */\n          iszero\n          tag_164\n          jumpi\n            /* \"#utility.yul\":8107:8125   */\n          tag_165\n          tag_37\n          jump\t// in\n        tag_165:\n            /* \"#utility.yul\":8071:8127   */\n        tag_164:\n            /* \"#utility.yul\":8151:8189   */\n          tag_166\n            /* \"#utility.yul\":8183:8187   */\n          dup3\n            /* \"#utility.yul\":8177:8188   */\n          sload\n            /* \"#utility.yul\":8151:8189   */\n          tag_47\n          jump\t// in\n        tag_166:\n            /* \"#utility.yul\":8236:8303   */\n          tag_167\n            /* \"#utility.yul\":8296:8302   */\n          dup3\n            /* \"#utility.yul\":8288:8294   */\n          dup3\n            /* \"#utility.yul\":8282:8286   */\n          dup6\n            /* \"#utility.yul\":8236:8303   */\n          tag_60\n          jump\t// in\n        tag_167:\n            /* \"#utility.yul\":8330:8331   */\n          0x00\n            /* \"#utility.yul\":8354:8358   */\n          0x20\n            /* \"#utility.yul\":8341:8358   */\n          swap1\n          pop\n            /* \"#utility.yul\":8386:8388   */\n          0x1f\n            /* \"#utility.yul\":8378:8384   */\n          dup4\n            /* \"#utility.yul\":8375:8389   */\n          gt\n            /* \"#utility.yul\":8403:8404   */\n          0x01\n            /* \"#utility.yul\":8398:9016   */\n          dup2\n          eq\n          tag_169\n          jumpi\n            /* \"#utility.yul\":9060:9061   */\n          0x00\n            /* \"#utility.yul\":9077:9083   */\n          dup5\n            /* \"#utility.yul\":9074:9151   */\n          iszero\n          tag_170\n          jumpi\n            /* \"#utility.yul\":9126:9135   */\n          dup3\n            /* \"#utility.yul\":9121:9124   */\n          dup8\n            /* \"#utility.yul\":9117:9136   */\n          add\n            /* \"#utility.yul\":9111:9137   */\n          mload\n            /* \"#utility.yul\":9102:9137   */\n          swap1\n          pop\n            /* \"#utility.yul\":9074:9151   */\n        tag_170:\n            /* \"#utility.yul\":9177:9244   */\n          tag_171\n            /* \"#utility.yul\":9237:9243   */\n          dup6\n            /* \"#utility.yul\":9230:9235   */\n          dup3\n            /* \"#utility.yul\":9177:9244   */\n          tag_63\n          jump\t// in\n        tag_171:\n            /* \"#utility.yul\":9171:9175   */\n          dup7\n            /* \"#utility.yul\":9164:9245   */\n          sstore\n            /* \"#utility.yul\":9033:9255   */\n          pop\n            /* \"#utility.yul\":8368:9255   */\n          jump(tag_168)\n            /* \"#utility.yul\":8398:9016   */\n        tag_169:\n            /* \"#utility.yul\":8450:8454   */\n          0x1f\n            /* \"#utility.yul\":8446:8455   */\n          not\n            /* \"#utility.yul\":8438:8444   */\n          dup5\n            /* \"#utility.yul\":8434:8456   */\n          and\n            /* \"#utility.yul\":8484:8521   */\n          tag_172\n            /* \"#utility.yul\":8516:8520   */\n          dup7\n            /* \"#utility.yul\":8484:8521   */\n          tag_48\n          jump\t// in\n        tag_172:\n            /* \"#utility.yul\":8543:8544   */\n          0x00\n            /* \"#utility.yul\":8557:8765   */\n        tag_173:\n            /* \"#utility.yul\":8571:8578   */\n          dup3\n            /* \"#utility.yul\":8568:8569   */\n          dup2\n            /* \"#utility.yul\":8565:8579   */\n          lt\n            /* \"#utility.yul\":8557:8765   */\n          iszero\n          tag_175\n          jumpi\n            /* \"#utility.yul\":8650:8659   */\n          dup5\n            /* \"#utility.yul\":8645:8648   */\n          dup10\n            /* \"#utility.yul\":8641:8660   */\n          add\n            /* \"#utility.yul\":8635:8661   */\n          mload\n            /* \"#utility.yul\":8627:8633   */\n          dup3\n            /* \"#utility.yul\":8620:8662   */\n          sstore\n            /* \"#utility.yul\":8701:8702   */\n          0x01\n            /* \"#utility.yul\":8693:8699   */\n          dup3\n            /* \"#utility.yul\":8689:8703   */\n          add\n            /* \"#utility.yul\":8679:8703   */\n          swap2\n          pop\n            /* \"#utility.yul\":8748:8750   */\n          0x20\n            /* \"#utility.yul\":8737:8746   */\n          dup6\n            /* \"#utility.yul\":8733:8751   */\n          add\n            /* \"#utility.yul\":8720:8751   */\n          swap5\n          pop\n            /* \"#utility.yul\":8594:8598   */\n          0x20\n            /* \"#utility.yul\":8591:8592   */\n          dup2\n            /* \"#utility.yul\":8587:8599   */\n          add\n            /* \"#utility.yul\":8582:8599   */\n          swap1\n          pop\n            /* \"#utility.yul\":8557:8765   */\n          jump(tag_173)\n        tag_175:\n            /* \"#utility.yul\":8793:8799   */\n          dup7\n            /* \"#utility.yul\":8784:8791   */\n          dup4\n            /* \"#utility.yul\":8781:8800   */\n          lt\n            /* \"#utility.yul\":8778:8957   */\n          iszero\n          tag_176\n          jumpi\n            /* \"#utility.yul\":8851:8860   */\n          dup5\n            /* \"#utility.yul\":8846:8849   */\n          dup10\n            /* \"#utility.yul\":8842:8861   */\n          add\n            /* \"#utility.yul\":8836:8862   */\n          mload\n            /* \"#utility.yul\":8894:8942   */\n          tag_177\n            /* \"#utility.yul\":8936:8940   */\n          0x1f\n            /* \"#utility.yul\":8928:8934   */\n          dup10\n            /* \"#utility.yul\":8924:8941   */\n          and\n            /* \"#utility.yul\":8913:8922   */\n          dup3\n            /* \"#utility.yul\":8894:8942   */\n          tag_62\n          jump\t// in\n        tag_177:\n            /* \"#utility.yul\":8886:8892   */\n          dup4\n            /* \"#utility.yul\":8879:8943   */\n          sstore\n            /* \"#utility.yul\":8801:8957   */\n          pop\n            /* \"#utility.yul\":8778:8957   */\n        tag_176:\n            /* \"#utility.yul\":9003:9004   */\n          0x01\n            /* \"#utility.yul\":8999:9000   */\n          0x02\n            /* \"#utility.yul\":8991:8997   */\n          dup9\n            /* \"#utility.yul\":8987:9001   */\n          mul\n            /* \"#utility.yul\":8983:9005   */\n          add\n            /* \"#utility.yul\":8977:8981   */\n          dup9\n            /* \"#utility.yul\":8970:9006   */\n          sstore\n            /* \"#utility.yul\":8405:9016   */\n          pop\n          pop\n          pop\n            /* \"#utility.yul\":8368:9255   */\n        tag_168:\n          pop\n            /* \"#utility.yul\":7958:9261   */\n          pop\n          pop\n          pop\n            /* \"#utility.yul\":7866:9261   */\n          pop\n          pop\n          jump\t// out\n            /* \"#utility.yul\":9267:9447   */\n        tag_64:\n            /* \"#utility.yul\":9315:9392   */\n          0x4e487b7100000000000000000000000000000000000000000000000000000000\n            /* \"#utility.yul\":9312:9313   */\n          0x00\n            /* \"#utility.yul\":9305:9393   */\n          mstore\n            /* \"#utility.yul\":9412:9416   */\n          0x11\n            /* \"#utility.yul\":9409:9410   */\n          0x04\n            /* \"#utility.yul\":9402:9417   */\n          mstore\n            /* \"#utility.yul\":9436:9440   */\n          0x24\n            /* \"#utility.yul\":9433:9434   */\n          0x00\n            /* \"#utility.yul\":9426:9441   */\n          revert\n            /* \"#utility.yul\":9453:9644   */\n        tag_23:\n            /* \"#utility.yul\":9493:9496   */\n          0x00\n            /* \"#utility.yul\":9512:9532   */\n          tag_180\n            /* \"#utility.yul\":9530:9531   */\n          dup3\n            /* \"#utility.yul\":9512:9532   */\n          tag_52\n          jump\t// in\n        tag_180:\n            /* \"#utility.yul\":9507:9532   */\n          swap2\n          pop\n            /* \"#utility.yul\":9546:9566   */\n          tag_181\n            /* \"#utility.yul\":9564:9565   */\n          dup4\n            /* \"#utility.yul\":9546:9566   */\n          tag_52\n          jump\t// in\n        tag_181:\n            /* \"#utility.yul\":9541:9566   */\n          swap3\n          pop\n            /* \"#utility.yul\":9589:9590   */\n          dup3\n            /* \"#utility.yul\":9586:9587   */\n          dup3\n            /* \"#utility.yul\":9582:9591   */\n          add\n            /* \"#utility.yul\":9575:9591   */\n          swap1\n          pop\n            /* \"#utility.yul\":9610:9613   */\n          dup1\n            /* \"#utility.yul\":9607:9608   */\n          dup3\n            /* \"#utility.yul\":9604:9614   */\n          gt\n            /* \"#utility.yul\":9601:9637   */\n          iszero\n          tag_182\n          jumpi\n            /* \"#utility.yul\":9617:9635   */\n          tag_183\n          tag_64\n          jump\t// in\n        tag_183:\n            /* \"#utility.yul\":9601:9637   */\n        tag_182:\n            /* \"#utility.yul\":9453:9644   */\n          swap3\n          swap2\n          pop\n          pop\n          jump\t// out\n            /* \"#utility.yul\":9650:9768   */\n        tag_65:\n            /* \"#utility.yul\":9737:9761   */\n          tag_185\n            /* \"#utility.yul\":9755:9760   */\n          dup2\n            /* \"#utility.yul\":9737:9761   */\n          tag_52\n          jump\t// in\n        tag_185:\n            /* \"#utility.yul\":9732:9735   */\n          dup3\n            /* \"#utility.yul\":9725:9762   */\n          mstore\n            /* \"#utility.yul\":9650:9768   */\n          pop\n          pop\n          jump\t// out\n            /* \"#utility.yul\":9774:9996   */\n        tag_26:\n            /* \"#utility.yul\":9867:9871   */\n          0x00\n            /* \"#utility.yul\":9905:9907   */\n          0x20\n            /* \"#utility.yul\":9894:9903   */\n          dup3\n            /* \"#utility.yul\":9890:9908   */\n          add\n            /* \"#utility.yul\":9882:9908   */\n          swap1\n          pop\n            /* \"#utility.yul\":9918:9989   */\n          tag_187\n            /* \"#utility.yul\":9986:9987   */\n          0x00\n            /* \"#utility.yul\":9975:9984   */\n          dup4\n            /* \"#utility.yul\":9971:9988   */\n          add\n            /* \"#utility.yul\":9962:9968   */\n          dup5\n            /* \"#utility.yul\":9918:9989   */\n          tag_65\n          jump\t// in\n        tag_187:\n            /* \"#utility.yul\":9774:9996   */\n          swap3\n          swap2\n          pop\n          pop\n          jump\t// out\n            /* \"contracts/Donation.sol\":112:1955  contract Donation is Ownable {... */\n        tag_17:\n          mload(0x80)\n          codecopy(0x00, dataOffset(sub_0), dataSize(sub_0))\n          0x00\n          assignImmutable(\"0x4d9fac5dc90d70d79ceac3589bb998755cf60ab2ff110225b2bffe4b0c0e4742\")\n          return(0x00, dataSize(sub_0))\n        stop\n\n        sub_0: assembly {\n                /* \"contracts/Donation.sol\":112:1955  contract Donation is Ownable {... */\n              mstore(0x40, 0x80)\n              jumpi(tag_1, lt(calldatasize, 0x04))\n              shr(0xe0, calldataload(0x00))\n              dup1\n              0xbf1482fa\n              gt\n              tag_12\n              jumpi\n              dup1\n              0xbf1482fa\n              eq\n              tag_7\n              jumpi\n              dup1\n              0xd5ee1557\n              eq\n              tag_8\n              jumpi\n              dup1\n              0xed88c68e\n              eq\n              tag_9\n              jumpi\n              dup1\n              0xf2fde38b\n              eq\n              tag_10\n              jumpi\n              dup1\n              0xf3a01489\n              eq\n              tag_11\n              jumpi\n              jump(tag_2)\n            tag_12:\n              dup1\n              0x0bcd177e\n              eq\n              tag_3\n              jumpi\n              dup1\n              0x715018a6\n              eq\n              tag_4\n              jumpi\n              dup1\n              0x7284e416\n              eq\n              tag_5\n              jumpi\n              dup1\n              0x8da5cb5b\n              eq\n              tag_6\n              jumpi\n              jump(tag_2)\n            tag_1:\n              jumpi(tag_2, calldatasize)\n                /* \"contracts/Donation.sol\":1924:1937  storeDonate() */\n              tag_15\n                /* \"contracts/Donation.sol\":1924:1935  storeDonate */\n              tag_16\n                /* \"contracts/Donation.sol\":1924:1937  storeDonate() */\n              jump\t// in\n            tag_15:\n                /* \"contracts/Donation.sol\":112:1955  contract Donation is Ownable {... */\n              stop\n            tag_2:\n              0x00\n              dup1\n              revert\n                /* \"contracts/Donation.sol\":1256:1651  function sendFundsToReceiver(uint256 amount) external payable onlyOwner {... */\n            tag_3:\n              tag_17\n              0x04\n              dup1\n              calldatasize\n              sub\n              dup2\n              add\n              swap1\n              tag_18\n              swap2\n              swap1\n              tag_19\n              jump\t// in\n            tag_18:\n              tag_20\n              jump\t// in\n            tag_17:\n              stop\n                /* \"@openzeppelin/contracts/access/Ownable.sol\":2293:2394  function renounceOwnership() public virtual onlyOwner {... */\n            tag_4:\n              callvalue\n              dup1\n              iszero\n              tag_21\n              jumpi\n              0x00\n              dup1\n              revert\n            tag_21:\n              pop\n              tag_22\n              tag_23\n              jump\t// in\n            tag_22:\n              stop\n                /* \"contracts/Donation.sol\":289:314  string public description */\n            tag_5:\n              callvalue\n              dup1\n              iszero\n              tag_24\n              jumpi\n              0x00\n              dup1\n              revert\n            tag_24:\n              pop\n              tag_25\n              tag_26\n              jump\t// in\n            tag_25:\n              mload(0x40)\n              tag_27\n              swap2\n              swap1\n              tag_28\n              jump\t// in\n            tag_27:\n              mload(0x40)\n              dup1\n              swap2\n              sub\n              swap1\n              return\n                /* \"@openzeppelin/contracts/access/Ownable.sol\":1638:1723  function owner() public view virtual returns (address) {... */\n            tag_6:\n              callvalue\n              dup1\n              iszero\n              tag_29\n              jumpi\n              0x00\n              dup1\n              revert\n            tag_29:\n              pop\n              tag_30\n              tag_31\n              jump\t// in\n            tag_30:\n              mload(0x40)\n              tag_32\n              swap2\n              swap1\n              tag_33\n              jump\t// in\n            tag_32:\n              mload(0x40)\n              dup1\n              swap2\n              sub\n              swap1\n              return\n                /* \"contracts/Donation.sol\":1663:1767  function getDonators() external view returns(address[] memory){... */\n            tag_7:\n              callvalue\n              dup1\n              iszero\n              tag_34\n              jumpi\n              0x00\n              dup1\n              revert\n            tag_34:\n              pop\n              tag_35\n              tag_36\n              jump\t// in\n            tag_35:\n              mload(0x40)\n              tag_37\n              swap2\n              swap1\n              tag_38\n              jump\t// in\n            tag_37:\n              mload(0x40)\n              dup1\n              swap2\n              sub\n              swap1\n              return\n                /* \"contracts/Donation.sol\":240:282  address public immutable donationsReceiver */\n            tag_8:\n              callvalue\n              dup1\n              iszero\n              tag_39\n              jumpi\n              0x00\n              dup1\n              revert\n            tag_39:\n              pop\n              tag_40\n              tag_41\n              jump\t// in\n            tag_40:\n              mload(0x40)\n              tag_42\n              swap2\n              swap1\n              tag_33\n              jump\t// in\n            tag_42:\n              mload(0x40)\n              dup1\n              swap2\n              sub\n              swap1\n              return\n                /* \"contracts/Donation.sol\":1083:1248  function donate() external payable {... */\n            tag_9:\n              tag_43\n              tag_44\n              jump\t// in\n            tag_43:\n              stop\n                /* \"@openzeppelin/contracts/access/Ownable.sol\":2543:2758  function transferOwnership(address newOwner) public virtual onlyOwner {... */\n            tag_10:\n              callvalue\n              dup1\n              iszero\n              tag_45\n              jumpi\n              0x00\n              dup1\n              revert\n            tag_45:\n              pop\n              tag_46\n              0x04\n              dup1\n              calldatasize\n              sub\n              dup2\n              add\n              swap1\n              tag_47\n              swap2\n              swap1\n              tag_48\n              jump\t// in\n            tag_47:\n              tag_49\n              jump\t// in\n            tag_46:\n              stop\n                /* \"contracts/Donation.sol\":1773:1878  function getSumOfDonations() external view returns(uint256){... */\n            tag_11:\n              callvalue\n              dup1\n              iszero\n              tag_50\n              jumpi\n              0x00\n              dup1\n              revert\n            tag_50:\n              pop\n              tag_51\n              tag_52\n              jump\t// in\n            tag_51:\n              mload(0x40)\n              tag_53\n              swap2\n              swap1\n              tag_54\n              jump\t// in\n            tag_53:\n              mload(0x40)\n              dup1\n              swap2\n              sub\n              swap1\n              return\n                /* \"contracts/Donation.sol\":798:1077  function storeDonate() internal {... */\n            tag_16:\n                /* \"contracts/Donation.sol\":869:870  0 */\n              0x00\n                /* \"contracts/Donation.sol\":844:854  _donations */\n              0x05\n                /* \"contracts/Donation.sol\":844:865  _donations[tx.origin] */\n              0x00\n                /* \"contracts/Donation.sol\":855:864  tx.origin */\n              origin\n                /* \"contracts/Donation.sol\":844:865  _donations[tx.origin] */\n              0xffffffffffffffffffffffffffffffffffffffff\n              and\n              0xffffffffffffffffffffffffffffffffffffffff\n              and\n              dup2\n              mstore\n              0x20\n              add\n              swap1\n              dup2\n              mstore\n              0x20\n              add\n              0x00\n              keccak256\n              sload\n                /* \"contracts/Donation.sol\":844:870  _donations[tx.origin] == 0 */\n              sub\n                /* \"contracts/Donation.sol\":841:930  if(_donations[tx.origin] == 0){... */\n              tag_56\n              jumpi\n                /* \"contracts/Donation.sol\":886:902  charityAddresses */\n              0x03\n                /* \"contracts/Donation.sol\":908:917  tx.origin */\n              origin\n                /* \"contracts/Donation.sol\":886:918  charityAddresses.push(tx.origin) */\n              swap1\n              dup1\n              0x01\n              dup2\n              sload\n              add\n              dup1\n              dup3\n              sstore\n              dup1\n              swap2\n              pop\n              pop\n              0x01\n              swap1\n              sub\n              swap1\n              0x00\n              mstore\n              keccak256(0x00, 0x20)\n              add\n              0x00\n              swap1\n              swap2\n              swap1\n              swap2\n              swap1\n              swap2\n              0x0100\n              exp\n              dup2\n              sload\n              dup2\n              0xffffffffffffffffffffffffffffffffffffffff\n              mul\n              not\n              and\n              swap1\n              dup4\n              0xffffffffffffffffffffffffffffffffffffffff\n              and\n              mul\n              or\n              swap1\n              sstore\n              pop\n                /* \"contracts/Donation.sol\":841:930  if(_donations[tx.origin] == 0){... */\n            tag_56:\n                /* \"contracts/Donation.sol\":965:974  msg.value */\n              callvalue\n                /* \"contracts/Donation.sol\":940:950  _donations */\n              0x05\n                /* \"contracts/Donation.sol\":940:961  _donations[tx.origin] */\n              0x00\n                /* \"contracts/Donation.sol\":951:960  tx.origin */\n              origin\n                /* \"contracts/Donation.sol\":940:961  _donations[tx.origin] */\n              0xffffffffffffffffffffffffffffffffffffffff\n              and\n              0xffffffffffffffffffffffffffffffffffffffff\n              and\n              dup2\n              mstore\n              0x20\n              add\n              swap1\n              dup2\n              mstore\n              0x20\n              add\n              0x00\n              keccak256\n              0x00\n                /* \"contracts/Donation.sol\":940:974  _donations[tx.origin] += msg.value */\n              dup3\n              dup3\n              sload\n              tag_58\n              swap2\n              swap1\n              tag_59\n              jump\t// in\n            tag_58:\n              swap3\n              pop\n              pop\n              dup2\n              swap1\n              sstore\n              pop\n                /* \"contracts/Donation.sol\":1009:1018  msg.value */\n              callvalue\n                /* \"contracts/Donation.sol\":985:1005  totalDonationsAmount */\n              0x01\n              0x00\n                /* \"contracts/Donation.sol\":985:1018  totalDonationsAmount += msg.value */\n              dup3\n              dup3\n              sload\n              tag_60\n              swap2\n              swap1\n              tag_59\n              jump\t// in\n            tag_60:\n              swap3\n              pop\n              pop\n              dup2\n              swap1\n              sstore\n              pop\n                /* \"contracts/Donation.sol\":1043:1052  tx.origin */\n              origin\n                /* \"contracts/Donation.sol\":1034:1064  Transfer(tx.origin, msg.value) */\n              0xffffffffffffffffffffffffffffffffffffffff\n              and\n              0x69ca02dd4edd7bf0a4abb9ed3b7af3f14778db5d61921c7dc7cd545266326de2\n                /* \"contracts/Donation.sol\":1054:1063  msg.value */\n              callvalue\n                /* \"contracts/Donation.sol\":1034:1064  Transfer(tx.origin, msg.value) */\n              mload(0x40)\n              tag_61\n              swap2\n              swap1\n              tag_54\n              jump\t// in\n            tag_61:\n              mload(0x40)\n              dup1\n              swap2\n              sub\n              swap1\n              log2\n                /* \"contracts/Donation.sol\":798:1077  function storeDonate() internal {... */\n              jump\t// out\n                /* \"contracts/Donation.sol\":1256:1651  function sendFundsToReceiver(uint256 amount) external payable onlyOwner {... */\n            tag_20:\n                /* \"@openzeppelin/contracts/access/Ownable.sol\":1531:1544  _checkOwner() */\n              tag_63\n                /* \"@openzeppelin/contracts/access/Ownable.sol\":1531:1542  _checkOwner */\n              tag_64\n                /* \"@openzeppelin/contracts/access/Ownable.sol\":1531:1544  _checkOwner() */\n              jump\t// in\n            tag_63:\n                /* \"contracts/Donation.sol\":1352:1373  address(this).balance */\n              selfbalance\n                /* \"contracts/Donation.sol\":1343:1349  amount */\n              dup2\n                /* \"contracts/Donation.sol\":1343:1373  amount > address(this).balance */\n              gt\n                /* \"contracts/Donation.sol\":1339:1436  if (amount > address(this).balance ){... */\n              iszero\n              tag_66\n              jumpi\n                /* \"contracts/Donation.sol\":1413:1423  msg.sender */\n              caller\n                /* \"contracts/Donation.sol\":1397:1424  ZeroAmountError(msg.sender) */\n              mload(0x40)\n              0x30e8fb4300000000000000000000000000000000000000000000000000000000\n              dup2\n              mstore\n              0x04\n              add\n              tag_67\n              swap2\n              swap1\n              tag_33\n              jump\t// in\n            tag_67:\n              mload(0x40)\n              dup1\n              swap2\n              sub\n              swap1\n              revert\n                /* \"contracts/Donation.sol\":1339:1436  if (amount > address(this).balance ){... */\n            tag_66:\n                /* \"contracts/Donation.sol\":1447:1456  bool sent */\n              0x00\n                /* \"contracts/Donation.sol\":1461:1478  donationsReceiver */\n              immutable(\"0x4d9fac5dc90d70d79ceac3589bb998755cf60ab2ff110225b2bffe4b0c0e4742\")\n                /* \"contracts/Donation.sol\":1461:1483  donationsReceiver.call */\n              0xffffffffffffffffffffffffffffffffffffffff\n              and\n                /* \"contracts/Donation.sol\":1491:1500  msg.value */\n              callvalue\n                /* \"contracts/Donation.sol\":1461:1505  donationsReceiver.call{value: msg.value}(\"\") */\n              mload(0x40)\n              tag_68\n              swap1\n              tag_69\n              jump\t// in\n            tag_68:\n              0x00\n              mload(0x40)\n              dup1\n              dup4\n              sub\n              dup2\n              dup6\n              dup8\n              gas\n              call\n              swap3\n              pop\n              pop\n              pop\n              returndatasize\n              dup1\n              0x00\n              dup2\n              eq\n              tag_72\n              jumpi\n              mload(0x40)\n              swap2\n              pop\n              and(add(returndatasize, 0x3f), not(0x1f))\n              dup3\n              add\n              0x40\n              mstore\n              returndatasize\n              dup3\n              mstore\n              returndatasize\n              0x00\n              0x20\n              dup5\n              add\n              returndatacopy\n              jump(tag_71)\n            tag_72:\n              0x60\n              swap2\n              pop\n            tag_71:\n              pop\n                /* \"contracts/Donation.sol\":1446:1505  (bool sent,) = donationsReceiver.call{value: msg.value}(\"\") */\n              pop\n              swap1\n              pop\n                /* \"contracts/Donation.sol\":1529:1533  sent */\n              dup1\n                /* \"contracts/Donation.sol\":1526:1634  if(sent){... */\n              iszero\n              tag_73\n              jumpi\n                /* \"contracts/Donation.sol\":1563:1573  msg.sender */\n              caller\n                /* \"contracts/Donation.sol\":1554:1582  Transfer(msg.sender, amount) */\n              0xffffffffffffffffffffffffffffffffffffffff\n              and\n              0x69ca02dd4edd7bf0a4abb9ed3b7af3f14778db5d61921c7dc7cd545266326de2\n                /* \"contracts/Donation.sol\":1575:1581  amount */\n              dup4\n                /* \"contracts/Donation.sol\":1554:1582  Transfer(msg.sender, amount) */\n              mload(0x40)\n              tag_74\n              swap2\n              swap1\n              tag_54\n              jump\t// in\n            tag_74:\n              mload(0x40)\n              dup1\n              swap2\n              sub\n              swap1\n              log2\n                /* \"contracts/Donation.sol\":1526:1634  if(sent){... */\n              jump(tag_75)\n            tag_73:\n                /* \"contracts/Donation.sol\":1614:1622  revert() */\n              0x00\n              dup1\n              revert\n                /* \"contracts/Donation.sol\":1526:1634  if(sent){... */\n            tag_75:\n                /* \"contracts/Donation.sol\":1328:1651  {... */\n              pop\n                /* \"contracts/Donation.sol\":1256:1651  function sendFundsToReceiver(uint256 amount) external payable onlyOwner {... */\n              pop\n              jump\t// out\n                /* \"@openzeppelin/contracts/access/Ownable.sol\":2293:2394  function renounceOwnership() public virtual onlyOwner {... */\n            tag_23:\n                /* \"@openzeppelin/contracts/access/Ownable.sol\":1531:1544  _checkOwner() */\n              tag_77\n                /* \"@openzeppelin/contracts/access/Ownable.sol\":1531:1542  _checkOwner */\n              tag_64\n                /* \"@openzeppelin/contracts/access/Ownable.sol\":1531:1544  _checkOwner() */\n              jump\t// in\n            tag_77:\n                /* \"@openzeppelin/contracts/access/Ownable.sol\":2357:2387  _transferOwnership(address(0)) */\n              tag_79\n                /* \"@openzeppelin/contracts/access/Ownable.sol\":2384:2385  0 */\n              0x00\n                /* \"@openzeppelin/contracts/access/Ownable.sol\":2357:2375  _transferOwnership */\n              tag_80\n                /* \"@openzeppelin/contracts/access/Ownable.sol\":2357:2387  _transferOwnership(address(0)) */\n              jump\t// in\n            tag_79:\n                /* \"@openzeppelin/contracts/access/Ownable.sol\":2293:2394  function renounceOwnership() public virtual onlyOwner {... */\n              jump\t// out\n                /* \"contracts/Donation.sol\":289:314  string public description */\n            tag_26:\n              0x04\n              dup1\n              sload\n              tag_81\n              swap1\n              tag_82\n              jump\t// in\n            tag_81:\n              dup1\n              0x1f\n              add\n              0x20\n              dup1\n              swap2\n              div\n              mul\n              0x20\n              add\n              mload(0x40)\n              swap1\n              dup2\n              add\n              0x40\n              mstore\n              dup1\n              swap3\n              swap2\n              swap1\n              dup2\n              dup2\n              mstore\n              0x20\n              add\n              dup3\n              dup1\n              sload\n              tag_83\n              swap1\n              tag_82\n              jump\t// in\n            tag_83:\n              dup1\n              iszero\n              tag_84\n              jumpi\n              dup1\n              0x1f\n              lt\n              tag_85\n              jumpi\n              0x0100\n              dup1\n              dup4\n              sload\n              div\n              mul\n              dup4\n              mstore\n              swap2\n              0x20\n              add\n              swap2\n              jump(tag_84)\n            tag_85:\n              dup3\n              add\n              swap2\n              swap1\n              0x00\n              mstore\n              keccak256(0x00, 0x20)\n              swap1\n            tag_86:\n              dup2\n              sload\n              dup2\n              mstore\n              swap1\n              0x01\n              add\n              swap1\n              0x20\n              add\n              dup1\n              dup4\n              gt\n              tag_86\n              jumpi\n              dup3\n              swap1\n              sub\n              0x1f\n              and\n              dup3\n              add\n              swap2\n            tag_84:\n              pop\n              pop\n              pop\n              pop\n              pop\n              dup2\n              jump\t// out\n                /* \"@openzeppelin/contracts/access/Ownable.sol\":1638:1723  function owner() public view virtual returns (address) {... */\n            tag_31:\n                /* \"@openzeppelin/contracts/access/Ownable.sol\":1684:1691  address */\n              0x00\n                /* \"@openzeppelin/contracts/access/Ownable.sol\":1710:1716  _owner */\n              dup1\n              0x00\n              swap1\n              sload\n              swap1\n              0x0100\n              exp\n              swap1\n              div\n              0xffffffffffffffffffffffffffffffffffffffff\n              and\n                /* \"@openzeppelin/contracts/access/Ownable.sol\":1703:1716  return _owner */\n              swap1\n              pop\n                /* \"@openzeppelin/contracts/access/Ownable.sol\":1638:1723  function owner() public view virtual returns (address) {... */\n              swap1\n              jump\t// out\n                /* \"contracts/Donation.sol\":1663:1767  function getDonators() external view returns(address[] memory){... */\n            tag_36:\n                /* \"contracts/Donation.sol\":1708:1724  address[] memory */\n              0x60\n                /* \"contracts/Donation.sol\":1743:1759  charityAddresses */\n              0x03\n                /* \"contracts/Donation.sol\":1736:1759  return charityAddresses */\n              dup1\n              sload\n              dup1\n              0x20\n              mul\n              0x20\n              add\n              mload(0x40)\n              swap1\n              dup2\n              add\n              0x40\n              mstore\n              dup1\n              swap3\n              swap2\n              swap1\n              dup2\n              dup2\n              mstore\n              0x20\n              add\n              dup3\n              dup1\n              sload\n              dup1\n              iszero\n              tag_89\n              jumpi\n              0x20\n              mul\n              dup3\n              add\n              swap2\n              swap1\n              0x00\n              mstore\n              keccak256(0x00, 0x20)\n              swap1\n            tag_90:\n              dup2\n              0x00\n              swap1\n              sload\n              swap1\n              0x0100\n              exp\n              swap1\n              div\n              0xffffffffffffffffffffffffffffffffffffffff\n              and\n              0xffffffffffffffffffffffffffffffffffffffff\n              and\n              dup2\n              mstore\n              0x20\n              add\n              swap1\n              0x01\n              add\n              swap1\n              dup1\n              dup4\n              gt\n              tag_90\n              jumpi\n            tag_89:\n              pop\n              pop\n              pop\n              pop\n              pop\n              swap1\n              pop\n                /* \"contracts/Donation.sol\":1663:1767  function getDonators() external view returns(address[] memory){... */\n              swap1\n              jump\t// out\n                /* \"contracts/Donation.sol\":240:282  address public immutable donationsReceiver */\n            tag_41:\n              immutable(\"0x4d9fac5dc90d70d79ceac3589bb998755cf60ab2ff110225b2bffe4b0c0e4742\")\n              dup2\n              jump\t// out\n                /* \"contracts/Donation.sol\":1083:1248  function donate() external payable {... */\n            tag_44:\n                /* \"contracts/Donation.sol\":1145:1146  0 */\n              0x00\n                /* \"contracts/Donation.sol\":1132:1141  msg.value */\n              callvalue\n                /* \"contracts/Donation.sol\":1132:1146  msg.value <= 0 */\n              gt\n                /* \"contracts/Donation.sol\":1129:1210  if(msg.value <= 0) { ... */\n              tag_92\n              jumpi\n                /* \"contracts/Donation.sol\":1187:1197  msg.sender */\n              caller\n                /* \"contracts/Donation.sol\":1171:1198  ZeroAmountError(msg.sender) */\n              mload(0x40)\n              0x30e8fb4300000000000000000000000000000000000000000000000000000000\n              dup2\n              mstore\n              0x04\n              add\n              tag_93\n              swap2\n              swap1\n              tag_33\n              jump\t// in\n            tag_93:\n              mload(0x40)\n              dup1\n              swap2\n              sub\n              swap1\n              revert\n                /* \"contracts/Donation.sol\":1129:1210  if(msg.value <= 0) { ... */\n            tag_92:\n                /* \"contracts/Donation.sol\":1220:1233  storeDonate() */\n              tag_94\n                /* \"contracts/Donation.sol\":1220:1231  storeDonate */\n              tag_16\n                /* \"contracts/Donation.sol\":1220:1233  storeDonate() */\n              jump\t// in\n            tag_94:\n                /* \"contracts/Donation.sol\":1083:1248  function donate() external payable {... */\n              jump\t// out\n                /* \"@openzeppelin/contracts/access/Ownable.sol\":2543:2758  function transferOwnership(address newOwner) public virtual onlyOwner {... */\n            tag_49:\n                /* \"@openzeppelin/contracts/access/Ownable.sol\":1531:1544  _checkOwner() */\n              tag_96\n                /* \"@openzeppelin/contracts/access/Ownable.sol\":1531:1542  _checkOwner */\n              tag_64\n                /* \"@openzeppelin/contracts/access/Ownable.sol\":1531:1544  _checkOwner() */\n              jump\t// in\n            tag_96:\n                /* \"@openzeppelin/contracts/access/Ownable.sol\":2647:2648  0 */\n              0x00\n                /* \"@openzeppelin/contracts/access/Ownable.sol\":2627:2649  newOwner == address(0) */\n              0xffffffffffffffffffffffffffffffffffffffff\n              and\n                /* \"@openzeppelin/contracts/access/Ownable.sol\":2627:2635  newOwner */\n              dup2\n                /* \"@openzeppelin/contracts/access/Ownable.sol\":2627:2649  newOwner == address(0) */\n              0xffffffffffffffffffffffffffffffffffffffff\n              and\n              sub\n                /* \"@openzeppelin/contracts/access/Ownable.sol\":2623:2714  if (newOwner == address(0)) {... */\n              tag_98\n              jumpi\n                /* \"@openzeppelin/contracts/access/Ownable.sol\":2700:2701  0 */\n              0x00\n                /* \"@openzeppelin/contracts/access/Ownable.sol\":2672:2703  OwnableInvalidOwner(address(0)) */\n              mload(0x40)\n              0x1e4fbdf700000000000000000000000000000000000000000000000000000000\n              dup2\n              mstore\n              0x04\n              add\n              tag_99\n              swap2\n              swap1\n              tag_33\n              jump\t// in\n            tag_99:\n              mload(0x40)\n              dup1\n              swap2\n              sub\n              swap1\n              revert\n                /* \"@openzeppelin/contracts/access/Ownable.sol\":2623:2714  if (newOwner == address(0)) {... */\n            tag_98:\n                /* \"@openzeppelin/contracts/access/Ownable.sol\":2723:2751  _transferOwnership(newOwner) */\n              tag_100\n                /* \"@openzeppelin/contracts/access/Ownable.sol\":2742:2750  newOwner */\n              dup2\n                /* \"@openzeppelin/contracts/access/Ownable.sol\":2723:2741  _transferOwnership */\n              tag_80\n                /* \"@openzeppelin/contracts/access/Ownable.sol\":2723:2751  _transferOwnership(newOwner) */\n              jump\t// in\n            tag_100:\n                /* \"@openzeppelin/contracts/access/Ownable.sol\":2543:2758  function transferOwnership(address newOwner) public virtual onlyOwner {... */\n              pop\n              jump\t// out\n                /* \"contracts/Donation.sol\":1773:1878  function getSumOfDonations() external view returns(uint256){... */\n            tag_52:\n                /* \"contracts/Donation.sol\":1824:1831  uint256 */\n              0x00\n                /* \"contracts/Donation.sol\":1850:1870  totalDonationsAmount */\n              sload(0x01)\n                /* \"contracts/Donation.sol\":1843:1870  return totalDonationsAmount */\n              swap1\n              pop\n                /* \"contracts/Donation.sol\":1773:1878  function getSumOfDonations() external view returns(uint256){... */\n              swap1\n              jump\t// out\n                /* \"@openzeppelin/contracts/access/Ownable.sol\":1796:1958  function _checkOwner() internal view virtual {... */\n            tag_64:\n                /* \"@openzeppelin/contracts/access/Ownable.sol\":1866:1878  _msgSender() */\n              tag_103\n                /* \"@openzeppelin/contracts/access/Ownable.sol\":1866:1876  _msgSender */\n              tag_104\n                /* \"@openzeppelin/contracts/access/Ownable.sol\":1866:1878  _msgSender() */\n              jump\t// in\n            tag_103:\n                /* \"@openzeppelin/contracts/access/Ownable.sol\":1855:1878  owner() != _msgSender() */\n              0xffffffffffffffffffffffffffffffffffffffff\n              and\n                /* \"@openzeppelin/contracts/access/Ownable.sol\":1855:1862  owner() */\n              tag_105\n                /* \"@openzeppelin/contracts/access/Ownable.sol\":1855:1860  owner */\n              tag_31\n                /* \"@openzeppelin/contracts/access/Ownable.sol\":1855:1862  owner() */\n              jump\t// in\n            tag_105:\n                /* \"@openzeppelin/contracts/access/Ownable.sol\":1855:1878  owner() != _msgSender() */\n              0xffffffffffffffffffffffffffffffffffffffff\n              and\n              eq\n                /* \"@openzeppelin/contracts/access/Ownable.sol\":1851:1952  if (owner() != _msgSender()) {... */\n              tag_106\n              jumpi\n                /* \"@openzeppelin/contracts/access/Ownable.sol\":1928:1940  _msgSender() */\n              tag_107\n                /* \"@openzeppelin/contracts/access/Ownable.sol\":1928:1938  _msgSender */\n              tag_104\n                /* \"@openzeppelin/contracts/access/Ownable.sol\":1928:1940  _msgSender() */\n              jump\t// in\n            tag_107:\n                /* \"@openzeppelin/contracts/access/Ownable.sol\":1901:1941  OwnableUnauthorizedAccount(_msgSender()) */\n              mload(0x40)\n              0x118cdaa700000000000000000000000000000000000000000000000000000000\n              dup2\n              mstore\n              0x04\n              add\n              tag_108\n              swap2\n              swap1\n              tag_33\n              jump\t// in\n            tag_108:\n              mload(0x40)\n              dup1\n              swap2\n              sub\n              swap1\n              revert\n                /* \"@openzeppelin/contracts/access/Ownable.sol\":1851:1952  if (owner() != _msgSender()) {... */\n            tag_106:\n                /* \"@openzeppelin/contracts/access/Ownable.sol\":1796:1958  function _checkOwner() internal view virtual {... */\n              jump\t// out\n                /* \"@openzeppelin/contracts/access/Ownable.sol\":2912:3099  function _transferOwnership(address newOwner) internal virtual {... */\n            tag_80:\n                /* \"@openzeppelin/contracts/access/Ownable.sol\":2985:3001  address oldOwner */\n              0x00\n                /* \"@openzeppelin/contracts/access/Ownable.sol\":3004:3010  _owner */\n              dup1\n              0x00\n              swap1\n              sload\n              swap1\n              0x0100\n              exp\n              swap1\n              div\n              0xffffffffffffffffffffffffffffffffffffffff\n              and\n                /* \"@openzeppelin/contracts/access/Ownable.sol\":2985:3010  address oldOwner = _owner */\n              swap1\n              pop\n                /* \"@openzeppelin/contracts/access/Ownable.sol\":3029:3037  newOwner */\n              dup2\n                /* \"@openzeppelin/contracts/access/Ownable.sol\":3020:3026  _owner */\n              0x00\n              dup1\n                /* \"@openzeppelin/contracts/access/Ownable.sol\":3020:3037  _owner = newOwner */\n              0x0100\n              exp\n              dup2\n              sload\n              dup2\n              0xffffffffffffffffffffffffffffffffffffffff\n              mul\n              not\n              and\n              swap1\n              dup4\n              0xffffffffffffffffffffffffffffffffffffffff\n              and\n              mul\n              or\n              swap1\n              sstore\n              pop\n                /* \"@openzeppelin/contracts/access/Ownable.sol\":3083:3091  newOwner */\n              dup2\n                /* \"@openzeppelin/contracts/access/Ownable.sol\":3052:3092  OwnershipTransferred(oldOwner, newOwner) */\n              0xffffffffffffffffffffffffffffffffffffffff\n              and\n                /* \"@openzeppelin/contracts/access/Ownable.sol\":3073:3081  oldOwner */\n              dup2\n                /* \"@openzeppelin/contracts/access/Ownable.sol\":3052:3092  OwnershipTransferred(oldOwner, newOwner) */\n              0xffffffffffffffffffffffffffffffffffffffff\n              and\n              0x8be0079c531659141344cd1fd0a4f28419497f9722a3daafe3b4186f6b6457e0\n              mload(0x40)\n              mload(0x40)\n              dup1\n              swap2\n              sub\n              swap1\n              log3\n                /* \"@openzeppelin/contracts/access/Ownable.sol\":2975:3099  {... */\n              pop\n                /* \"@openzeppelin/contracts/access/Ownable.sol\":2912:3099  function _transferOwnership(address newOwner) internal virtual {... */\n              pop\n              jump\t// out\n                /* \"@openzeppelin/contracts/utils/Context.sol\":656:752  function _msgSender() internal view virtual returns (address) {... */\n            tag_104:\n                /* \"@openzeppelin/contracts/utils/Context.sol\":709:716  address */\n              0x00\n                /* \"@openzeppelin/contracts/utils/Context.sol\":735:745  msg.sender */\n              caller\n                /* \"@openzeppelin/contracts/utils/Context.sol\":728:745  return msg.sender */\n              swap1\n              pop\n                /* \"@openzeppelin/contracts/utils/Context.sol\":656:752  function _msgSender() internal view virtual returns (address) {... */\n              swap1\n              jump\t// out\n                /* \"#utility.yul\":88:205   */\n            tag_112:\n                /* \"#utility.yul\":197:198   */\n              0x00\n                /* \"#utility.yul\":194:195   */\n              dup1\n                /* \"#utility.yul\":187:199   */\n              revert\n                /* \"#utility.yul\":334:411   */\n            tag_114:\n                /* \"#utility.yul\":371:378   */\n              0x00\n                /* \"#utility.yul\":400:405   */\n              dup2\n                /* \"#utility.yul\":389:405   */\n              swap1\n              pop\n                /* \"#utility.yul\":334:411   */\n              swap2\n              swap1\n              pop\n              jump\t// out\n                /* \"#utility.yul\":417:539   */\n            tag_115:\n                /* \"#utility.yul\":490:514   */\n              tag_146\n                /* \"#utility.yul\":508:513   */\n              dup2\n                /* \"#utility.yul\":490:514   */\n              tag_114\n              jump\t// in\n            tag_146:\n                /* \"#utility.yul\":483:488   */\n              dup2\n                /* \"#utility.yul\":480:515   */\n              eq\n                /* \"#utility.yul\":470:533   */\n              tag_147\n              jumpi\n                /* \"#utility.yul\":529:530   */\n              0x00\n                /* \"#utility.yul\":526:527   */\n              dup1\n                /* \"#utility.yul\":519:531   */\n              revert\n                /* \"#utility.yul\":470:533   */\n            tag_147:\n                /* \"#utility.yul\":417:539   */\n              pop\n              jump\t// out\n                /* \"#utility.yul\":545:684   */\n            tag_116:\n                /* \"#utility.yul\":591:596   */\n              0x00\n                /* \"#utility.yul\":629:635   */\n              dup2\n                /* \"#utility.yul\":616:636   */\n              calldataload\n                /* \"#utility.yul\":607:636   */\n              swap1\n              pop\n                /* \"#utility.yul\":645:678   */\n              tag_149\n                /* \"#utility.yul\":672:677   */\n              dup2\n                /* \"#utility.yul\":645:678   */\n              tag_115\n              jump\t// in\n            tag_149:\n                /* \"#utility.yul\":545:684   */\n              swap3\n              swap2\n              pop\n              pop\n              jump\t// out\n                /* \"#utility.yul\":690:1019   */\n            tag_19:\n                /* \"#utility.yul\":749:755   */\n              0x00\n                /* \"#utility.yul\":798:800   */\n              0x20\n                /* \"#utility.yul\":786:795   */\n              dup3\n                /* \"#utility.yul\":777:784   */\n              dup5\n                /* \"#utility.yul\":773:796   */\n              sub\n                /* \"#utility.yul\":769:801   */\n              slt\n                /* \"#utility.yul\":766:885   */\n              iszero\n              tag_151\n              jumpi\n                /* \"#utility.yul\":804:883   */\n              tag_152\n              tag_112\n              jump\t// in\n            tag_152:\n                /* \"#utility.yul\":766:885   */\n            tag_151:\n                /* \"#utility.yul\":924:925   */\n              0x00\n                /* \"#utility.yul\":949:1002   */\n              tag_153\n                /* \"#utility.yul\":994:1001   */\n              dup5\n                /* \"#utility.yul\":985:991   */\n              dup3\n                /* \"#utility.yul\":974:983   */\n              dup6\n                /* \"#utility.yul\":970:992   */\n              add\n                /* \"#utility.yul\":949:1002   */\n              tag_116\n              jump\t// in\n            tag_153:\n                /* \"#utility.yul\":939:1002   */\n              swap2\n              pop\n                /* \"#utility.yul\":895:1012   */\n              pop\n                /* \"#utility.yul\":690:1019   */\n              swap3\n              swap2\n              pop\n              pop\n              jump\t// out\n                /* \"#utility.yul\":1025:1124   */\n            tag_117:\n                /* \"#utility.yul\":1077:1083   */\n              0x00\n                /* \"#utility.yul\":1111:1116   */\n              dup2\n                /* \"#utility.yul\":1105:1117   */\n              mload\n                /* \"#utility.yul\":1095:1117   */\n              swap1\n              pop\n                /* \"#utility.yul\":1025:1124   */\n              swap2\n              swap1\n              pop\n              jump\t// out\n                /* \"#utility.yul\":1130:1299   */\n            tag_118:\n                /* \"#utility.yul\":1214:1225   */\n              0x00\n                /* \"#utility.yul\":1248:1254   */\n              dup3\n                /* \"#utility.yul\":1243:1246   */\n              dup3\n                /* \"#utility.yul\":1236:1255   */\n              mstore\n                /* \"#utility.yul\":1288:1292   */\n              0x20\n                /* \"#utility.yul\":1283:1286   */\n              dup3\n                /* \"#utility.yul\":1279:1293   */\n              add\n                /* \"#utility.yul\":1264:1293   */\n              swap1\n              pop\n                /* \"#utility.yul\":1130:1299   */\n              swap3\n              swap2\n              pop\n              pop\n              jump\t// out\n                /* \"#utility.yul\":1305:1551   */\n            tag_119:\n                /* \"#utility.yul\":1386:1387   */\n              0x00\n                /* \"#utility.yul\":1396:1509   */\n            tag_157:\n                /* \"#utility.yul\":1410:1416   */\n              dup4\n                /* \"#utility.yul\":1407:1408   */\n              dup2\n                /* \"#utility.yul\":1404:1417   */\n              lt\n                /* \"#utility.yul\":1396:1509   */\n              iszero\n              tag_159\n              jumpi\n                /* \"#utility.yul\":1495:1496   */\n              dup1\n                /* \"#utility.yul\":1490:1493   */\n              dup3\n                /* \"#utility.yul\":1486:1497   */\n              add\n                /* \"#utility.yul\":1480:1498   */\n              mload\n                /* \"#utility.yul\":1476:1477   */\n              dup2\n                /* \"#utility.yul\":1471:1474   */\n              dup5\n                /* \"#utility.yul\":1467:1478   */\n              add\n                /* \"#utility.yul\":1460:1499   */\n              mstore\n                /* \"#utility.yul\":1432:1434   */\n              0x20\n                /* \"#utility.yul\":1429:1430   */\n              dup2\n                /* \"#utility.yul\":1425:1435   */\n              add\n                /* \"#utility.yul\":1420:1435   */\n              swap1\n              pop\n                /* \"#utility.yul\":1396:1509   */\n              jump(tag_157)\n            tag_159:\n                /* \"#utility.yul\":1543:1544   */\n              0x00\n                /* \"#utility.yul\":1534:1540   */\n              dup5\n                /* \"#utility.yul\":1529:1532   */\n              dup5\n                /* \"#utility.yul\":1525:1541   */\n              add\n                /* \"#utility.yul\":1518:1545   */\n              mstore\n                /* \"#utility.yul\":1367:1551   */\n              pop\n                /* \"#utility.yul\":1305:1551   */\n              pop\n              pop\n              pop\n              jump\t// out\n                /* \"#utility.yul\":1557:1659   */\n            tag_120:\n                /* \"#utility.yul\":1598:1604   */\n              0x00\n                /* \"#utility.yul\":1649:1651   */\n              0x1f\n                /* \"#utility.yul\":1645:1652   */\n              not\n                /* \"#utility.yul\":1640:1642   */\n              0x1f\n                /* \"#utility.yul\":1633:1638   */\n              dup4\n                /* \"#utility.yul\":1629:1643   */\n              add\n                /* \"#utility.yul\":1625:1653   */\n              and\n                /* \"#utility.yul\":1615:1653   */\n              swap1\n              pop\n                /* \"#utility.yul\":1557:1659   */\n              swap2\n              swap1\n              pop\n              jump\t// out\n                /* \"#utility.yul\":1665:2042   */\n            tag_121:\n                /* \"#utility.yul\":1753:1756   */\n              0x00\n                /* \"#utility.yul\":1781:1820   */\n              tag_162\n                /* \"#utility.yul\":1814:1819   */\n              dup3\n                /* \"#utility.yul\":1781:1820   */\n              tag_117\n              jump\t// in\n            tag_162:\n                /* \"#utility.yul\":1836:1907   */\n              tag_163\n                /* \"#utility.yul\":1900:1906   */\n              dup2\n                /* \"#utility.yul\":1895:1898   */\n              dup6\n                /* \"#utility.yul\":1836:1907   */\n              tag_118\n              jump\t// in\n            tag_163:\n                /* \"#utility.yul\":1829:1907   */\n              swap4\n              pop\n                /* \"#utility.yul\":1916:1981   */\n              tag_164\n                /* \"#utility.yul\":1974:1980   */\n              dup2\n                /* \"#utility.yul\":1969:1972   */\n              dup6\n                /* \"#utility.yul\":1962:1966   */\n              0x20\n                /* \"#utility.yul\":1955:1960   */\n              dup7\n                /* \"#utility.yul\":1951:1967   */\n              add\n                /* \"#utility.yul\":1916:1981   */\n              tag_119\n              jump\t// in\n            tag_164:\n                /* \"#utility.yul\":2006:2035   */\n              tag_165\n                /* \"#utility.yul\":2028:2034   */\n              dup2\n                /* \"#utility.yul\":2006:2035   */\n              tag_120\n              jump\t// in\n            tag_165:\n                /* \"#utility.yul\":2001:2004   */\n              dup5\n                /* \"#utility.yul\":1997:2036   */\n              add\n                /* \"#utility.yul\":1990:2036   */\n              swap2\n              pop\n                /* \"#utility.yul\":1757:2042   */\n              pop\n                /* \"#utility.yul\":1665:2042   */\n              swap3\n              swap2\n              pop\n              pop\n              jump\t// out\n                /* \"#utility.yul\":2048:2361   */\n            tag_28:\n                /* \"#utility.yul\":2161:2165   */\n              0x00\n                /* \"#utility.yul\":2199:2201   */\n              0x20\n                /* \"#utility.yul\":2188:2197   */\n              dup3\n                /* \"#utility.yul\":2184:2202   */\n              add\n                /* \"#utility.yul\":2176:2202   */\n              swap1\n              pop\n                /* \"#utility.yul\":2248:2257   */\n              dup2\n                /* \"#utility.yul\":2242:2246   */\n              dup2\n                /* \"#utility.yul\":2238:2258   */\n              sub\n                /* \"#utility.yul\":2234:2235   */\n              0x00\n                /* \"#utility.yul\":2223:2232   */\n              dup4\n                /* \"#utility.yul\":2219:2236   */\n              add\n                /* \"#utility.yul\":2212:2259   */\n              mstore\n                /* \"#utility.yul\":2276:2354   */\n              tag_167\n                /* \"#utility.yul\":2349:2353   */\n              dup2\n                /* \"#utility.yul\":2340:2346   */\n              dup5\n                /* \"#utility.yul\":2276:2354   */\n              tag_121\n              jump\t// in\n            tag_167:\n                /* \"#utility.yul\":2268:2354   */\n              swap1\n              pop\n                /* \"#utility.yul\":2048:2361   */\n              swap3\n              swap2\n              pop\n              pop\n              jump\t// out\n                /* \"#utility.yul\":2367:2493   */\n            tag_122:\n                /* \"#utility.yul\":2404:2411   */\n              0x00\n                /* \"#utility.yul\":2444:2486   */\n              0xffffffffffffffffffffffffffffffffffffffff\n                /* \"#utility.yul\":2437:2442   */\n              dup3\n                /* \"#utility.yul\":2433:2487   */\n              and\n                /* \"#utility.yul\":2422:2487   */\n              swap1\n              pop\n                /* \"#utility.yul\":2367:2493   */\n              swap2\n              swap1\n              pop\n              jump\t// out\n                /* \"#utility.yul\":2499:2595   */\n            tag_123:\n                /* \"#utility.yul\":2536:2543   */\n              0x00\n                /* \"#utility.yul\":2565:2589   */\n              tag_170\n                /* \"#utility.yul\":2583:2588   */\n              dup3\n                /* \"#utility.yul\":2565:2589   */\n              tag_122\n              jump\t// in\n            tag_170:\n                /* \"#utility.yul\":2554:2589   */\n              swap1\n              pop\n                /* \"#utility.yul\":2499:2595   */\n              swap2\n              swap1\n              pop\n              jump\t// out\n                /* \"#utility.yul\":2601:2719   */\n            tag_124:\n                /* \"#utility.yul\":2688:2712   */\n              tag_172\n                /* \"#utility.yul\":2706:2711   */\n              dup2\n                /* \"#utility.yul\":2688:2712   */\n              tag_123\n              jump\t// in\n            tag_172:\n                /* \"#utility.yul\":2683:2686   */\n              dup3\n                /* \"#utility.yul\":2676:2713   */\n              mstore\n                /* \"#utility.yul\":2601:2719   */\n              pop\n              pop\n              jump\t// out\n                /* \"#utility.yul\":2725:2947   */\n            tag_33:\n                /* \"#utility.yul\":2818:2822   */\n              0x00\n                /* \"#utility.yul\":2856:2858   */\n              0x20\n                /* \"#utility.yul\":2845:2854   */\n              dup3\n                /* \"#utility.yul\":2841:2859   */\n              add\n                /* \"#utility.yul\":2833:2859   */\n              swap1\n              pop\n                /* \"#utility.yul\":2869:2940   */\n              tag_174\n                /* \"#utility.yul\":2937:2938   */\n              0x00\n                /* \"#utility.yul\":2926:2935   */\n              dup4\n                /* \"#utility.yul\":2922:2939   */\n              add\n                /* \"#utility.yul\":2913:2919   */\n              dup5\n                /* \"#utility.yul\":2869:2940   */\n              tag_124\n              jump\t// in\n            tag_174:\n                /* \"#utility.yul\":2725:2947   */\n              swap3\n              swap2\n              pop\n              pop\n              jump\t// out\n                /* \"#utility.yul\":2953:3067   */\n            tag_125:\n                /* \"#utility.yul\":3020:3026   */\n              0x00\n                /* \"#utility.yul\":3054:3059   */\n              dup2\n                /* \"#utility.yul\":3048:3060   */\n              mload\n                /* \"#utility.yul\":3038:3060   */\n              swap1\n              pop\n                /* \"#utility.yul\":2953:3067   */\n              swap2\n              swap1\n              pop\n              jump\t// out\n                /* \"#utility.yul\":3073:3257   */\n            tag_126:\n                /* \"#utility.yul\":3172:3183   */\n              0x00\n                /* \"#utility.yul\":3206:3212   */\n              dup3\n                /* \"#utility.yul\":3201:3204   */\n              dup3\n                /* \"#utility.yul\":3194:3213   */\n              mstore\n                /* \"#utility.yul\":3246:3250   */\n              0x20\n                /* \"#utility.yul\":3241:3244   */\n              dup3\n                /* \"#utility.yul\":3237:3251   */\n              add\n                /* \"#utility.yul\":3222:3251   */\n              swap1\n              pop\n                /* \"#utility.yul\":3073:3257   */\n              swap3\n              swap2\n              pop\n              pop\n              jump\t// out\n                /* \"#utility.yul\":3263:3395   */\n            tag_127:\n                /* \"#utility.yul\":3330:3334   */\n              0x00\n                /* \"#utility.yul\":3353:3356   */\n              dup2\n                /* \"#utility.yul\":3345:3356   */\n              swap1\n              pop\n                /* \"#utility.yul\":3383:3387   */\n              0x20\n                /* \"#utility.yul\":3378:3381   */\n              dup3\n                /* \"#utility.yul\":3374:3388   */\n              add\n                /* \"#utility.yul\":3366:3388   */\n              swap1\n              pop\n                /* \"#utility.yul\":3263:3395   */\n              swap2\n              swap1\n              pop\n              jump\t// out\n                /* \"#utility.yul\":3401:3509   */\n            tag_128:\n                /* \"#utility.yul\":3478:3502   */\n              tag_179\n                /* \"#utility.yul\":3496:3501   */\n              dup2\n                /* \"#utility.yul\":3478:3502   */\n              tag_123\n              jump\t// in\n            tag_179:\n                /* \"#utility.yul\":3473:3476   */\n              dup3\n                /* \"#utility.yul\":3466:3503   */\n              mstore\n                /* \"#utility.yul\":3401:3509   */\n              pop\n              pop\n              jump\t// out\n                /* \"#utility.yul\":3515:3694   */\n            tag_129:\n                /* \"#utility.yul\":3584:3594   */\n              0x00\n                /* \"#utility.yul\":3605:3651   */\n              tag_181\n                /* \"#utility.yul\":3647:3650   */\n              dup4\n                /* \"#utility.yul\":3639:3645   */\n              dup4\n                /* \"#utility.yul\":3605:3651   */\n              tag_128\n              jump\t// in\n            tag_181:\n                /* \"#utility.yul\":3683:3687   */\n              0x20\n                /* \"#utility.yul\":3678:3681   */\n              dup4\n                /* \"#utility.yul\":3674:3688   */\n              add\n                /* \"#utility.yul\":3660:3688   */\n              swap1\n              pop\n                /* \"#utility.yul\":3515:3694   */\n              swap3\n              swap2\n              pop\n              pop\n              jump\t// out\n                /* \"#utility.yul\":3700:3813   */\n            tag_130:\n                /* \"#utility.yul\":3770:3774   */\n              0x00\n                /* \"#utility.yul\":3802:3806   */\n              0x20\n                /* \"#utility.yul\":3797:3800   */\n              dup3\n                /* \"#utility.yul\":3793:3807   */\n              add\n                /* \"#utility.yul\":3785:3807   */\n              swap1\n              pop\n                /* \"#utility.yul\":3700:3813   */\n              swap2\n              swap1\n              pop\n              jump\t// out\n                /* \"#utility.yul\":3849:4581   */\n            tag_131:\n                /* \"#utility.yul\":3968:3971   */\n              0x00\n                /* \"#utility.yul\":3997:4051   */\n              tag_184\n                /* \"#utility.yul\":4045:4050   */\n              dup3\n                /* \"#utility.yul\":3997:4051   */\n              tag_125\n              jump\t// in\n            tag_184:\n                /* \"#utility.yul\":4067:4153   */\n              tag_185\n                /* \"#utility.yul\":4146:4152   */\n              dup2\n                /* \"#utility.yul\":4141:4144   */\n              dup6\n                /* \"#utility.yul\":4067:4153   */\n              tag_126\n              jump\t// in\n            tag_185:\n                /* \"#utility.yul\":4060:4153   */\n              swap4\n              pop\n                /* \"#utility.yul\":4177:4233   */\n              tag_186\n                /* \"#utility.yul\":4227:4232   */\n              dup4\n                /* \"#utility.yul\":4177:4233   */\n              tag_127\n              jump\t// in\n            tag_186:\n                /* \"#utility.yul\":4256:4263   */\n              dup1\n                /* \"#utility.yul\":4287:4288   */\n              0x00\n                /* \"#utility.yul\":4272:4556   */\n            tag_187:\n                /* \"#utility.yul\":4297:4303   */\n              dup4\n                /* \"#utility.yul\":4294:4295   */\n              dup2\n                /* \"#utility.yul\":4291:4304   */\n              lt\n                /* \"#utility.yul\":4272:4556   */\n              iszero\n              tag_189\n              jumpi\n                /* \"#utility.yul\":4373:4379   */\n              dup2\n                /* \"#utility.yul\":4367:4380   */\n              mload\n                /* \"#utility.yul\":4400:4463   */\n              tag_190\n                /* \"#utility.yul\":4459:4462   */\n              dup9\n                /* \"#utility.yul\":4444:4457   */\n              dup3\n                /* \"#utility.yul\":4400:4463   */\n              tag_129\n              jump\t// in\n            tag_190:\n                /* \"#utility.yul\":4393:4463   */\n              swap8\n              pop\n                /* \"#utility.yul\":4486:4546   */\n              tag_191\n                /* \"#utility.yul\":4539:4545   */\n              dup4\n                /* \"#utility.yul\":4486:4546   */\n              tag_130\n              jump\t// in\n            tag_191:\n                /* \"#utility.yul\":4476:4546   */\n              swap3\n              pop\n                /* \"#utility.yul\":4332:4556   */\n              pop\n                /* \"#utility.yul\":4319:4320   */\n              0x01\n                /* \"#utility.yul\":4316:4317   */\n              dup2\n                /* \"#utility.yul\":4312:4321   */\n              add\n                /* \"#utility.yul\":4307:4321   */\n              swap1\n              pop\n                /* \"#utility.yul\":4272:4556   */\n              jump(tag_187)\n            tag_189:\n                /* \"#utility.yul\":4276:4290   */\n              pop\n                /* \"#utility.yul\":4572:4575   */\n              dup6\n                /* \"#utility.yul\":4565:4575   */\n              swap4\n              pop\n                /* \"#utility.yul\":3973:4581   */\n              pop\n              pop\n              pop\n                /* \"#utility.yul\":3849:4581   */\n              swap3\n              swap2\n              pop\n              pop\n              jump\t// out\n                /* \"#utility.yul\":4587:4960   */\n            tag_38:\n                /* \"#utility.yul\":4730:4734   */\n              0x00\n                /* \"#utility.yul\":4768:4770   */\n              0x20\n                /* \"#utility.yul\":4757:4766   */\n              dup3\n                /* \"#utility.yul\":4753:4771   */\n              add\n                /* \"#utility.yul\":4745:4771   */\n              swap1\n              pop\n                /* \"#utility.yul\":4817:4826   */\n              dup2\n                /* \"#utility.yul\":4811:4815   */\n              dup2\n                /* \"#utility.yul\":4807:4827   */\n              sub\n                /* \"#utility.yul\":4803:4804   */\n              0x00\n                /* \"#utility.yul\":4792:4801   */\n              dup4\n                /* \"#utility.yul\":4788:4805   */\n              add\n                /* \"#utility.yul\":4781:4828   */\n              mstore\n                /* \"#utility.yul\":4845:4953   */\n              tag_193\n                /* \"#utility.yul\":4948:4952   */\n              dup2\n                /* \"#utility.yul\":4939:4945   */\n              dup5\n                /* \"#utility.yul\":4845:4953   */\n              tag_131\n              jump\t// in\n            tag_193:\n                /* \"#utility.yul\":4837:4953   */\n              swap1\n              pop\n                /* \"#utility.yul\":4587:4960   */\n              swap3\n              swap2\n              pop\n              pop\n              jump\t// out\n                /* \"#utility.yul\":4966:5088   */\n            tag_132:\n                /* \"#utility.yul\":5039:5063   */\n              tag_195\n                /* \"#utility.yul\":5057:5062   */\n              dup2\n                /* \"#utility.yul\":5039:5063   */\n              tag_123\n              jump\t// in\n            tag_195:\n                /* \"#utility.yul\":5032:5037   */\n              dup2\n                /* \"#utility.yul\":5029:5064   */\n              eq\n                /* \"#utility.yul\":5019:5082   */\n              tag_196\n              jumpi\n                /* \"#utility.yul\":5078:5079   */\n              0x00\n                /* \"#utility.yul\":5075:5076   */\n              dup1\n                /* \"#utility.yul\":5068:5080   */\n              revert\n                /* \"#utility.yul\":5019:5082   */\n            tag_196:\n                /* \"#utility.yul\":4966:5088   */\n              pop\n              jump\t// out\n                /* \"#utility.yul\":5094:5233   */\n            tag_133:\n                /* \"#utility.yul\":5140:5145   */\n              0x00\n                /* \"#utility.yul\":5178:5184   */\n              dup2\n                /* \"#utility.yul\":5165:5185   */\n              calldataload\n                /* \"#utility.yul\":5156:5185   */\n              swap1\n              pop\n                /* \"#utility.yul\":5194:5227   */\n              tag_198\n                /* \"#utility.yul\":5221:5226   */\n              dup2\n                /* \"#utility.yul\":5194:5227   */\n              tag_132\n              jump\t// in\n            tag_198:\n                /* \"#utility.yul\":5094:5233   */\n              swap3\n              swap2\n              pop\n              pop\n              jump\t// out\n                /* \"#utility.yul\":5239:5568   */\n            tag_48:\n                /* \"#utility.yul\":5298:5304   */\n              0x00\n                /* \"#utility.yul\":5347:5349   */\n              0x20\n                /* \"#utility.yul\":5335:5344   */\n              dup3\n                /* \"#utility.yul\":5326:5333   */\n              dup5\n                /* \"#utility.yul\":5322:5345   */\n              sub\n                /* \"#utility.yul\":5318:5350   */\n              slt\n                /* \"#utility.yul\":5315:5434   */\n              iszero\n              tag_200\n              jumpi\n                /* \"#utility.yul\":5353:5432   */\n              tag_201\n              tag_112\n              jump\t// in\n            tag_201:\n                /* \"#utility.yul\":5315:5434   */\n            tag_200:\n                /* \"#utility.yul\":5473:5474   */\n              0x00\n                /* \"#utility.yul\":5498:5551   */\n              tag_202\n                /* \"#utility.yul\":5543:5550   */\n              dup5\n                /* \"#utility.yul\":5534:5540   */\n              dup3\n                /* \"#utility.yul\":5523:5532   */\n              dup6\n                /* \"#utility.yul\":5519:5541   */\n              add\n                /* \"#utility.yul\":5498:5551   */\n              tag_133\n              jump\t// in\n            tag_202:\n                /* \"#utility.yul\":5488:5551   */\n              swap2\n              pop\n                /* \"#utility.yul\":5444:5561   */\n              pop\n                /* \"#utility.yul\":5239:5568   */\n              swap3\n              swap2\n              pop\n              pop\n              jump\t// out\n                /* \"#utility.yul\":5574:5692   */\n            tag_134:\n                /* \"#utility.yul\":5661:5685   */\n              tag_204\n                /* \"#utility.yul\":5679:5684   */\n              dup2\n                /* \"#utility.yul\":5661:5685   */\n              tag_114\n              jump\t// in\n            tag_204:\n                /* \"#utility.yul\":5656:5659   */\n              dup3\n                /* \"#utility.yul\":5649:5686   */\n              mstore\n                /* \"#utility.yul\":5574:5692   */\n              pop\n              pop\n              jump\t// out\n                /* \"#utility.yul\":5698:5920   */\n            tag_54:\n                /* \"#utility.yul\":5791:5795   */\n              0x00\n                /* \"#utility.yul\":5829:5831   */\n              0x20\n                /* \"#utility.yul\":5818:5827   */\n              dup3\n                /* \"#utility.yul\":5814:5832   */\n              add\n                /* \"#utility.yul\":5806:5832   */\n              swap1\n              pop\n                /* \"#utility.yul\":5842:5913   */\n              tag_206\n                /* \"#utility.yul\":5910:5911   */\n              0x00\n                /* \"#utility.yul\":5899:5908   */\n              dup4\n                /* \"#utility.yul\":5895:5912   */\n              add\n                /* \"#utility.yul\":5886:5892   */\n              dup5\n                /* \"#utility.yul\":5842:5913   */\n              tag_134\n              jump\t// in\n            tag_206:\n                /* \"#utility.yul\":5698:5920   */\n              swap3\n              swap2\n              pop\n              pop\n              jump\t// out\n                /* \"#utility.yul\":5926:6106   */\n            tag_135:\n                /* \"#utility.yul\":5974:6051   */\n              0x4e487b7100000000000000000000000000000000000000000000000000000000\n                /* \"#utility.yul\":5971:5972   */\n              0x00\n                /* \"#utility.yul\":5964:6052   */\n              mstore\n                /* \"#utility.yul\":6071:6075   */\n              0x11\n                /* \"#utility.yul\":6068:6069   */\n              0x04\n                /* \"#utility.yul\":6061:6076   */\n              mstore\n                /* \"#utility.yul\":6095:6099   */\n              0x24\n                /* \"#utility.yul\":6092:6093   */\n              0x00\n                /* \"#utility.yul\":6085:6100   */\n              revert\n                /* \"#utility.yul\":6112:6303   */\n            tag_59:\n                /* \"#utility.yul\":6152:6155   */\n              0x00\n                /* \"#utility.yul\":6171:6191   */\n              tag_209\n                /* \"#utility.yul\":6189:6190   */\n              dup3\n                /* \"#utility.yul\":6171:6191   */\n              tag_114\n              jump\t// in\n            tag_209:\n                /* \"#utility.yul\":6166:6191   */\n              swap2\n              pop\n                /* \"#utility.yul\":6205:6225   */\n              tag_210\n                /* \"#utility.yul\":6223:6224   */\n              dup4\n                /* \"#utility.yul\":6205:6225   */\n              tag_114\n              jump\t// in\n            tag_210:\n                /* \"#utility.yul\":6200:6225   */\n              swap3\n              pop\n                /* \"#utility.yul\":6248:6249   */\n              dup3\n                /* \"#utility.yul\":6245:6246   */\n              dup3\n                /* \"#utility.yul\":6241:6250   */\n              add\n                /* \"#utility.yul\":6234:6250   */\n              swap1\n              pop\n                /* \"#utility.yul\":6269:6272   */\n              dup1\n                /* \"#utility.yul\":6266:6267   */\n              dup3\n                /* \"#utility.yul\":6263:6273   */\n              gt\n                /* \"#utility.yul\":6260:6296   */\n              iszero\n              tag_211\n              jumpi\n                /* \"#utility.yul\":6276:6294   */\n              tag_212\n              tag_135\n              jump\t// in\n            tag_212:\n                /* \"#utility.yul\":6260:6296   */\n            tag_211:\n                /* \"#utility.yul\":6112:6303   */\n              swap3\n              swap2\n              pop\n              pop\n              jump\t// out\n                /* \"#utility.yul\":6309:6456   */\n            tag_136:\n                /* \"#utility.yul\":6410:6421   */\n              0x00\n                /* \"#utility.yul\":6447:6450   */\n              dup2\n                /* \"#utility.yul\":6432:6450   */\n              swap1\n              pop\n                /* \"#utility.yul\":6309:6456   */\n              swap3\n              swap2\n              pop\n              pop\n              jump\t// out\n                /* \"#utility.yul\":6462:6576   */\n            tag_137:\n              pop\n              jump\t// out\n                /* \"#utility.yul\":6582:6980   */\n            tag_138:\n                /* \"#utility.yul\":6741:6744   */\n              0x00\n                /* \"#utility.yul\":6762:6845   */\n              tag_216\n                /* \"#utility.yul\":6843:6844   */\n              0x00\n                /* \"#utility.yul\":6838:6841   */\n              dup4\n                /* \"#utility.yul\":6762:6845   */\n              tag_136\n              jump\t// in\n            tag_216:\n                /* \"#utility.yul\":6755:6845   */\n              swap2\n              pop\n                /* \"#utility.yul\":6854:6947   */\n              tag_217\n                /* \"#utility.yul\":6943:6946   */\n              dup3\n                /* \"#utility.yul\":6854:6947   */\n              tag_137\n              jump\t// in\n            tag_217:\n                /* \"#utility.yul\":6972:6973   */\n              0x00\n                /* \"#utility.yul\":6967:6970   */\n              dup3\n                /* \"#utility.yul\":6963:6974   */\n              add\n                /* \"#utility.yul\":6956:6974   */\n              swap1\n              pop\n                /* \"#utility.yul\":6582:6980   */\n              swap2\n              swap1\n              pop\n              jump\t// out\n                /* \"#utility.yul\":6986:7365   */\n            tag_69:\n                /* \"#utility.yul\":7170:7173   */\n              0x00\n                /* \"#utility.yul\":7192:7339   */\n              tag_219\n                /* \"#utility.yul\":7335:7338   */\n              dup3\n                /* \"#utility.yul\":7192:7339   */\n              tag_138\n              jump\t// in\n            tag_219:\n                /* \"#utility.yul\":7185:7339   */\n              swap2\n              pop\n                /* \"#utility.yul\":7356:7359   */\n              dup2\n                /* \"#utility.yul\":7349:7359   */\n              swap1\n              pop\n                /* \"#utility.yul\":6986:7365   */\n              swap2\n              swap1\n              pop\n              jump\t// out\n                /* \"#utility.yul\":7371:7551   */\n            tag_139:\n                /* \"#utility.yul\":7419:7496   */\n              0x4e487b7100000000000000000000000000000000000000000000000000000000\n                /* \"#utility.yul\":7416:7417   */\n              0x00\n                /* \"#utility.yul\":7409:7497   */\n              mstore\n                /* \"#utility.yul\":7516:7520   */\n              0x22\n                /* \"#utility.yul\":7513:7514   */\n              0x04\n                /* \"#utility.yul\":7506:7521   */\n              mstore\n                /* \"#utility.yul\":7540:7544   */\n              0x24\n                /* \"#utility.yul\":7537:7538   */\n              0x00\n                /* \"#utility.yul\":7530:7545   */\n              revert\n                /* \"#utility.yul\":7557:7877   */\n            tag_82:\n                /* \"#utility.yul\":7601:7607   */\n              0x00\n                /* \"#utility.yul\":7638:7639   */\n              0x02\n                /* \"#utility.yul\":7632:7636   */\n              dup3\n                /* \"#utility.yul\":7628:7640   */\n              div\n                /* \"#utility.yul\":7618:7640   */\n              swap1\n              pop\n                /* \"#utility.yul\":7685:7686   */\n              0x01\n                /* \"#utility.yul\":7679:7683   */\n              dup3\n                /* \"#utility.yul\":7675:7687   */\n              and\n                /* \"#utility.yul\":7706:7724   */\n              dup1\n                /* \"#utility.yul\":7696:7777   */\n              tag_222\n              jumpi\n                /* \"#utility.yul\":7762:7766   */\n              0x7f\n                /* \"#utility.yul\":7754:7760   */\n              dup3\n                /* \"#utility.yul\":7750:7767   */\n              and\n                /* \"#utility.yul\":7740:7767   */\n              swap2\n              pop\n                /* \"#utility.yul\":7696:7777   */\n            tag_222:\n                /* \"#utility.yul\":7824:7826   */\n              0x20\n                /* \"#utility.yul\":7816:7822   */\n              dup3\n                /* \"#utility.yul\":7813:7827   */\n              lt\n                /* \"#utility.yul\":7793:7811   */\n              dup2\n                /* \"#utility.yul\":7790:7828   */\n              sub\n                /* \"#utility.yul\":7787:7871   */\n              tag_223\n              jumpi\n                /* \"#utility.yul\":7843:7861   */\n              tag_224\n              tag_139\n              jump\t// in\n            tag_224:\n                /* \"#utility.yul\":7787:7871   */\n            tag_223:\n                /* \"#utility.yul\":7608:7877   */\n              pop\n                /* \"#utility.yul\":7557:7877   */\n              swap2\n              swap1\n              pop\n              jump\t// out\n\n            auxdata: 0xa2646970667358221220a6cce7fee1fca96f1e98f8339d9ee8130bd55b659b2784dd8ac7d7edf91eeb6264736f6c63430008160033\n        }\n    }\n\n    auxdata: 0xa26469706673582212208e4e59ff75f43ae067f5db2fbf01e22ae4adb884aa40425131244937ce00b1c664736f6c63430008160033\n}\n",
				"bytecode": {
					"linkReferences": {},
					"object": "608060405234801561000f575f80fd5b50611e4b8061001d5f395ff3fe60806040526004361062000043575f3560e01c80639922394114620000475780639c05ae801462000067578063ce15446714620000aa578063fd8adcf714620000d9575b5f80fd5b6200006560048036038101906200005f9190620005d7565b62000106565b005b34801562000073575f80fd5b506200009260048036038101906200008c91906200063b565b62000238565b604051620000a191906200067c565b60405180910390f35b348015620000b6575f80fd5b50620000c162000268565b604051620000d09190620006b1565b60405180910390f35b348015620000e5575f80fd5b50620001046004803603810190620000fe91906200073d565b6200026d565b005b5f3483836040516200011890620003ff565b6200012592919062000806565b6040518091039082f090508015801562000141573d5f803e3d5ffd5b5090503360015f8373ffffffffffffffffffffffffffffffffffffffff1673ffffffffffffffffffffffffffffffffffffffff1681526020019081526020015f205f6101000a81548173ffffffffffffffffffffffffffffffffffffffff021916908373ffffffffffffffffffffffffffffffffffffffff16021790555060015f80828254620001d2919062000865565b925050819055503373ffffffffffffffffffffffffffffffffffffffff168173ffffffffffffffffffffffffffffffffffffffff167f96b5b9b8a7193304150caccf9b80d150675fa3d6af57761d8d8ef1d6f9a1a90960405160405180910390a3505050565b6001602052805f5260405f205f915054906101000a900473ffffffffffffffffffffffffffffffffffffffff1681565b5f5481565b3373ffffffffffffffffffffffffffffffffffffffff1660015f8473ffffffffffffffffffffffffffffffffffffffff1673ffffffffffffffffffffffffffffffffffffffff1681526020019081526020015f205f9054906101000a900473ffffffffffffffffffffffffffffffffffffffff1673ffffffffffffffffffffffffffffffffffffffff16146200033c57336040517ff499598a0000000000000000000000000000000000000000000000000000000081526004016200033391906200067c565b60405180910390fd5b5f8290508073ffffffffffffffffffffffffffffffffffffffff16630bcd177e836040518263ffffffff1660e01b81526004016200037b9190620006b1565b5f604051808303815f87803b15801562000393575f80fd5b505af1158015620003a6573d5f803e3d5ffd5b505050508273ffffffffffffffffffffffffffffffffffffffff167f69ca02dd4edd7bf0a4abb9ed3b7af3f14778db5d61921c7dc7cd545266326de283604051620003f29190620006b1565b60405180910390a2505050565b61157680620008a083390190565b5f604051905090565b5f80fd5b5f80fd5b5f73ffffffffffffffffffffffffffffffffffffffff82169050919050565b5f62000449826200041e565b9050919050565b6200045b816200043d565b811462000466575f80fd5b50565b5f81359050620004798162000450565b92915050565b5f80fd5b5f80fd5b5f601f19601f8301169050919050565b7f4e487b71000000000000000000000000000000000000000000000000000000005f52604160045260245ffd5b620004cf8262000487565b810181811067ffffffffffffffff82111715620004f157620004f062000497565b5b80604052505050565b5f620005056200040d565b9050620005138282620004c4565b919050565b5f67ffffffffffffffff82111562000535576200053462000497565b5b620005408262000487565b9050602081019050919050565b828183375f83830152505050565b5f620005716200056b8462000518565b620004fa565b90508281526020810184848401111562000590576200058f62000483565b5b6200059d8482856200054d565b509392505050565b5f82601f830112620005bc57620005bb6200047f565b5b8135620005ce8482602086016200055b565b91505092915050565b5f8060408385031215620005f057620005ef62000416565b5b5f620005ff8582860162000469565b925050602083013567ffffffffffffffff8111156200062357620006226200041a565b5b6200063185828601620005a5565b9150509250929050565b5f6020828403121562000653576200065262000416565b5b5f620006628482850162000469565b91505092915050565b62000676816200043d565b82525050565b5f602082019050620006915f8301846200066b565b92915050565b5f819050919050565b620006ab8162000697565b82525050565b5f602082019050620006c65f830184620006a0565b92915050565b5f620006d8826200041e565b9050919050565b620006ea81620006cc565b8114620006f5575f80fd5b50565b5f813590506200070881620006df565b92915050565b620007198162000697565b811462000724575f80fd5b50565b5f8135905062000737816200070e565b92915050565b5f806040838503121562000756576200075562000416565b5b5f6200076585828601620006f8565b9250506020620007788582860162000727565b9150509250929050565b5f81519050919050565b5f82825260208201905092915050565b5f5b83811015620007bb5780820151818401526020810190506200079e565b5f8484015250505050565b5f620007d28262000782565b620007de81856200078c565b9350620007f08185602086016200079c565b620007fb8162000487565b840191505092915050565b5f6040820190506200081b5f8301856200066b565b81810360208301526200082f8184620007c6565b90509392505050565b7f4e487b71000000000000000000000000000000000000000000000000000000005f52601160045260245ffd5b5f620008718262000697565b91506200087e8362000697565b925082820190508082111562000899576200089862000838565b5b9291505056fe60a06040526040516200157638038062001576833981810160405281019062000029919062000525565b335f73ffffffffffffffffffffffffffffffffffffffff168173ffffffffffffffffffffffffffffffffffffffff16036200009d575f6040517f1e4fbdf70000000000000000000000000000000000000000000000000000000081526004016200009491906200059a565b60405180910390fd5b620000ae816200011760201b60201c565b508060049081620000c09190620007ec565b508173ffffffffffffffffffffffffffffffffffffffff1660808173ffffffffffffffffffffffffffffffffffffffff16815250505f3411156200010f576200010e620001d860201b60201c565b5b505062000963565b5f805f9054906101000a900473ffffffffffffffffffffffffffffffffffffffff169050815f806101000a81548173ffffffffffffffffffffffffffffffffffffffff021916908373ffffffffffffffffffffffffffffffffffffffff1602179055508173ffffffffffffffffffffffffffffffffffffffff168173ffffffffffffffffffffffffffffffffffffffff167f8be0079c531659141344cd1fd0a4f28419497f9722a3daafe3b4186f6b6457e060405160405180910390a35050565b5f60055f3273ffffffffffffffffffffffffffffffffffffffff1673ffffffffffffffffffffffffffffffffffffffff1681526020019081526020015f2054036200027e57600332908060018154018082558091505060019003905f5260205f20015f9091909190916101000a81548173ffffffffffffffffffffffffffffffffffffffff021916908373ffffffffffffffffffffffffffffffffffffffff1602179055505b3460055f3273ffffffffffffffffffffffffffffffffffffffff1673ffffffffffffffffffffffffffffffffffffffff1681526020019081526020015f205f828254620002cc9190620008fd565b925050819055503460015f828254620002e69190620008fd565b925050819055503273ffffffffffffffffffffffffffffffffffffffff167f69ca02dd4edd7bf0a4abb9ed3b7af3f14778db5d61921c7dc7cd545266326de23460405162000335919062000948565b60405180910390a2565b5f604051905090565b5f80fd5b5f80fd5b5f73ffffffffffffffffffffffffffffffffffffffff82169050919050565b5f6200037b8262000350565b9050919050565b6200038d816200036f565b811462000398575f80fd5b50565b5f81519050620003ab8162000382565b92915050565b5f80fd5b5f80fd5b5f601f19601f8301169050919050565b7f4e487b71000000000000000000000000000000000000000000000000000000005f52604160045260245ffd5b6200040182620003b9565b810181811067ffffffffffffffff82111715620004235762000422620003c9565b5b80604052505050565b5f620004376200033f565b9050620004458282620003f6565b919050565b5f67ffffffffffffffff821115620004675762000466620003c9565b5b6200047282620003b9565b9050602081019050919050565b5f5b838110156200049e57808201518184015260208101905062000481565b5f8484015250505050565b5f620004bf620004b9846200044a565b6200042c565b905082815260208101848484011115620004de57620004dd620003b5565b5b620004eb8482856200047f565b509392505050565b5f82601f8301126200050a5762000509620003b1565b5b81516200051c848260208601620004a9565b91505092915050565b5f80604083850312156200053e576200053d62000348565b5b5f6200054d858286016200039b565b925050602083015167ffffffffffffffff8111156200057157620005706200034c565b5b6200057f85828601620004f3565b9150509250929050565b62000594816200036f565b82525050565b5f602082019050620005af5f83018462000589565b92915050565b5f81519050919050565b7f4e487b71000000000000000000000000000000000000000000000000000000005f52602260045260245ffd5b5f60028204905060018216806200060457607f821691505b6020821081036200061a5762000619620005bf565b5b50919050565b5f819050815f5260205f209050919050565b5f6020601f8301049050919050565b5f82821b905092915050565b5f600883026200067e7fffffffffffffffffffffffffffffffffffffffffffffffffffffffffffffffff8262000641565b6200068a868362000641565b95508019841693508086168417925050509392505050565b5f819050919050565b5f819050919050565b5f620006d4620006ce620006c884620006a2565b620006ab565b620006a2565b9050919050565b5f819050919050565b620006ef83620006b4565b62000707620006fe82620006db565b8484546200064d565b825550505050565b5f90565b6200071d6200070f565b6200072a818484620006e4565b505050565b5b818110156200075157620007455f8262000713565b60018101905062000730565b5050565b601f821115620007a0576200076a8162000620565b620007758462000632565b8101602085101562000785578190505b6200079d620007948562000632565b8301826200072f565b50505b505050565b5f82821c905092915050565b5f620007c25f1984600802620007a5565b1980831691505092915050565b5f620007dc8383620007b1565b9150826002028217905092915050565b620007f782620005b5565b67ffffffffffffffff811115620008135762000812620003c9565b5b6200081f8254620005ec565b6200082c82828562000755565b5f60209050601f83116001811462000862575f84156200084d578287015190505b620008598582620007cf565b865550620008c8565b601f198416620008728662000620565b5f5b828110156200089b5784890151825560018201915060208501945060208101905062000874565b86831015620008bb5784890151620008b7601f891682620007b1565b8355505b6001600288020188555050505b505050505050565b7f4e487b71000000000000000000000000000000000000000000000000000000005f52601160045260245ffd5b5f6200090982620006a2565b91506200091683620006a2565b9250828201905080821115620009315762000930620008d0565b5b92915050565b6200094281620006a2565b82525050565b5f6020820190506200095d5f83018462000937565b92915050565b608051610bf3620009835f395f818161038201526105bb0152610bf35ff3fe608060405260043610610089575f3560e01c8063bf1482fa11610058578063bf1482fa14610122578063d5ee15571461014c578063ed88c68e14610176578063f2fde38b14610180578063f3a01489146101a857610098565b80630bcd177e1461009c578063715018a6146100b85780637284e416146100ce5780638da5cb5b146100f857610098565b36610098576100966101d2565b005b5f80fd5b6100b660048036038101906100b1919061083e565b610332565b005b3480156100c3575f80fd5b506100cc610468565b005b3480156100d9575f80fd5b506100e261047b565b6040516100ef91906108f3565b60405180910390f35b348015610103575f80fd5b5061010c610507565b6040516101199190610952565b60405180910390f35b34801561012d575f80fd5b5061013661052e565b6040516101439190610a22565b60405180910390f35b348015610157575f80fd5b506101606105b9565b60405161016d9190610952565b60405180910390f35b61017e6105dd565b005b34801561018b575f80fd5b506101a660048036038101906101a19190610a6c565b61062b565b005b3480156101b3575f80fd5b506101bc6106af565b6040516101c99190610aa6565b60405180910390f35b5f60055f3273ffffffffffffffffffffffffffffffffffffffff1673ffffffffffffffffffffffffffffffffffffffff1681526020019081526020015f20540361027757600332908060018154018082558091505060019003905f5260205f20015f9091909190916101000a81548173ffffffffffffffffffffffffffffffffffffffff021916908373ffffffffffffffffffffffffffffffffffffffff1602179055505b3460055f3273ffffffffffffffffffffffffffffffffffffffff1673ffffffffffffffffffffffffffffffffffffffff1681526020019081526020015f205f8282546102c39190610aec565b925050819055503460015f8282546102db9190610aec565b925050819055503273ffffffffffffffffffffffffffffffffffffffff167f69ca02dd4edd7bf0a4abb9ed3b7af3f14778db5d61921c7dc7cd545266326de2346040516103289190610aa6565b60405180910390a2565b61033a6106b8565b4781111561037f57336040517f30e8fb430000000000000000000000000000000000000000000000000000000081526004016103769190610952565b60405180910390fd5b5f7f000000000000000000000000000000000000000000000000000000000000000073ffffffffffffffffffffffffffffffffffffffff16346040516103c490610b4c565b5f6040518083038185875af1925050503d805f81146103fe576040519150601f19603f3d011682016040523d82523d5f602084013e610403565b606091505b505090508015610460573373ffffffffffffffffffffffffffffffffffffffff167f69ca02dd4edd7bf0a4abb9ed3b7af3f14778db5d61921c7dc7cd545266326de2836040516104539190610aa6565b60405180910390a2610464565b5f80fd5b5050565b6104706106b8565b6104795f61073f565b565b6004805461048890610b8d565b80601f01602080910402602001604051908101604052809291908181526020018280546104b490610b8d565b80156104ff5780601f106104d6576101008083540402835291602001916104ff565b820191905f5260205f20905b8154815290600101906020018083116104e257829003601f168201915b505050505081565b5f805f9054906101000a900473ffffffffffffffffffffffffffffffffffffffff16905090565b606060038054806020026020016040519081016040528092919081815260200182805480156105af57602002820191905f5260205f20905b815f9054906101000a900473ffffffffffffffffffffffffffffffffffffffff1673ffffffffffffffffffffffffffffffffffffffff1681526020019060010190808311610566575b5050505050905090565b7f000000000000000000000000000000000000000000000000000000000000000081565b5f341161062157336040517f30e8fb430000000000000000000000000000000000000000000000000000000081526004016106189190610952565b60405180910390fd5b6106296101d2565b565b6106336106b8565b5f73ffffffffffffffffffffffffffffffffffffffff168173ffffffffffffffffffffffffffffffffffffffff16036106a3575f6040517f1e4fbdf700000000000000000000000000000000000000000000000000000000815260040161069a9190610952565b60405180910390fd5b6106ac8161073f565b50565b5f600154905090565b6106c0610800565b73ffffffffffffffffffffffffffffffffffffffff166106de610507565b73ffffffffffffffffffffffffffffffffffffffff161461073d57610701610800565b6040517f118cdaa70000000000000000000000000000000000000000000000000000000081526004016107349190610952565b60405180910390fd5b565b5f805f9054906101000a900473ffffffffffffffffffffffffffffffffffffffff169050815f806101000a81548173ffffffffffffffffffffffffffffffffffffffff021916908373ffffffffffffffffffffffffffffffffffffffff1602179055508173ffffffffffffffffffffffffffffffffffffffff168173ffffffffffffffffffffffffffffffffffffffff167f8be0079c531659141344cd1fd0a4f28419497f9722a3daafe3b4186f6b6457e060405160405180910390a35050565b5f33905090565b5f80fd5b5f819050919050565b61081d8161080b565b8114610827575f80fd5b50565b5f8135905061083881610814565b92915050565b5f6020828403121561085357610852610807565b5b5f6108608482850161082a565b91505092915050565b5f81519050919050565b5f82825260208201905092915050565b5f5b838110156108a0578082015181840152602081019050610885565b5f8484015250505050565b5f601f19601f8301169050919050565b5f6108c582610869565b6108cf8185610873565b93506108df818560208601610883565b6108e8816108ab565b840191505092915050565b5f6020820190508181035f83015261090b81846108bb565b905092915050565b5f73ffffffffffffffffffffffffffffffffffffffff82169050919050565b5f61093c82610913565b9050919050565b61094c81610932565b82525050565b5f6020820190506109655f830184610943565b92915050565b5f81519050919050565b5f82825260208201905092915050565b5f819050602082019050919050565b61099d81610932565b82525050565b5f6109ae8383610994565b60208301905092915050565b5f602082019050919050565b5f6109d08261096b565b6109da8185610975565b93506109e583610985565b805f5b83811015610a155781516109fc88826109a3565b9750610a07836109ba565b9250506001810190506109e8565b5085935050505092915050565b5f6020820190508181035f830152610a3a81846109c6565b905092915050565b610a4b81610932565b8114610a55575f80fd5b50565b5f81359050610a6681610a42565b92915050565b5f60208284031215610a8157610a80610807565b5b5f610a8e84828501610a58565b91505092915050565b610aa08161080b565b82525050565b5f602082019050610ab95f830184610a97565b92915050565b7f4e487b71000000000000000000000000000000000000000000000000000000005f52601160045260245ffd5b5f610af68261080b565b9150610b018361080b565b9250828201905080821115610b1957610b18610abf565b5b92915050565b5f81905092915050565b50565b5f610b375f83610b1f565b9150610b4282610b29565b5f82019050919050565b5f610b5682610b2c565b9150819050919050565b7f4e487b71000000000000000000000000000000000000000000000000000000005f52602260045260245ffd5b5f6002820490506001821680610ba457607f821691505b602082108103610bb757610bb6610b60565b5b5091905056fea2646970667358221220a6cce7fee1fca96f1e98f8339d9ee8130bd55b659b2784dd8ac7d7edf91eeb6264736f6c63430008160033a26469706673582212208e4e59ff75f43ae067f5db2fbf01e22ae4adb884aa40425131244937ce00b1c664736f6c63430008160033",
					"opcodes": "PUSH1 0x80 PUSH1 0x40 MSTORE CALLVALUE DUP1 ISZERO PUSH2 0xF JUMPI PUSH0 DUP1 REVERT JUMPDEST POP PUSH2 0x1E4B DUP1 PUSH2 0x1D PUSH0 CODECOPY PUSH0 RETURN INVALID PUSH1 0x80 PUSH1 0x40 MSTORE PUSH1 0x4 CALLDATASIZE LT PUSH3 0x43 JUMPI PUSH0 CALLDATALOAD PUSH1 0xE0 SHR DUP1 PUSH4 0x99223941 EQ PUSH3 0x47 JUMPI DUP1 PUSH4 0x9C05AE80 EQ PUSH3 0x67 JUMPI DUP1 PUSH4 0xCE154467 EQ PUSH3 0xAA JUMPI DUP1 PUSH4 0xFD8ADCF7 EQ PUSH3 0xD9 JUMPI JUMPDEST PUSH0 DUP1 REVERT JUMPDEST PUSH3 0x65 PUSH1 0x4 DUP1 CALLDATASIZE SUB DUP2 ADD SWAP1 PUSH3 0x5F SWAP2 SWAP1 PUSH3 0x5D7 JUMP JUMPDEST PUSH3 0x106 JUMP JUMPDEST STOP JUMPDEST CALLVALUE DUP1 ISZERO PUSH3 0x73 JUMPI PUSH0 DUP1 REVERT JUMPDEST POP PUSH3 0x92 PUSH1 0x4 DUP1 CALLDATASIZE SUB DUP2 ADD SWAP1 PUSH3 0x8C SWAP2 SWAP1 PUSH3 0x63B JUMP JUMPDEST PUSH3 0x238 JUMP JUMPDEST PUSH1 0x40 MLOAD PUSH3 0xA1 SWAP2 SWAP1 PUSH3 0x67C JUMP JUMPDEST PUSH1 0x40 MLOAD DUP1 SWAP2 SUB SWAP1 RETURN JUMPDEST CALLVALUE DUP1 ISZERO PUSH3 0xB6 JUMPI PUSH0 DUP1 REVERT JUMPDEST POP PUSH3 0xC1 PUSH3 0x268 JUMP JUMPDEST PUSH1 0x40 MLOAD PUSH3 0xD0 SWAP2 SWAP1 PUSH3 0x6B1 JUMP JUMPDEST PUSH1 0x40 MLOAD DUP1 SWAP2 SUB SWAP1 RETURN JUMPDEST CALLVALUE DUP1 ISZERO PUSH3 0xE5 JUMPI PUSH0 DUP1 REVERT JUMPDEST POP PUSH3 0x104 PUSH1 0x4 DUP1 CALLDATASIZE SUB DUP2 ADD SWAP1 PUSH3 0xFE SWAP2 SWAP1 PUSH3 0x73D JUMP JUMPDEST PUSH3 0x26D JUMP JUMPDEST STOP JUMPDEST PUSH0 CALLVALUE DUP4 DUP4 PUSH1 0x40 MLOAD PUSH3 0x118 SWAP1 PUSH3 0x3FF JUMP JUMPDEST PUSH3 0x125 SWAP3 SWAP2 SWAP1 PUSH3 0x806 JUMP JUMPDEST PUSH1 0x40 MLOAD DUP1 SWAP2 SUB SWAP1 DUP3 CREATE SWAP1 POP DUP1 ISZERO DUP1 ISZERO PUSH3 0x141 JUMPI RETURNDATASIZE PUSH0 DUP1 RETURNDATACOPY RETURNDATASIZE PUSH0 REVERT JUMPDEST POP SWAP1 POP CALLER PUSH1 0x1 PUSH0 DUP4 PUSH20 0xFFFFFFFFFFFFFFFFFFFFFFFFFFFFFFFFFFFFFFFF AND PUSH20 0xFFFFFFFFFFFFFFFFFFFFFFFFFFFFFFFFFFFFFFFF AND DUP2 MSTORE PUSH1 0x20 ADD SWAP1 DUP2 MSTORE PUSH1 0x20 ADD PUSH0 KECCAK256 PUSH0 PUSH2 0x100 EXP DUP2 SLOAD DUP2 PUSH20 0xFFFFFFFFFFFFFFFFFFFFFFFFFFFFFFFFFFFFFFFF MUL NOT AND SWAP1 DUP4 PUSH20 0xFFFFFFFFFFFFFFFFFFFFFFFFFFFFFFFFFFFFFFFF AND MUL OR SWAP1 SSTORE POP PUSH1 0x1 PUSH0 DUP1 DUP3 DUP3 SLOAD PUSH3 0x1D2 SWAP2 SWAP1 PUSH3 0x865 JUMP JUMPDEST SWAP3 POP POP DUP2 SWAP1 SSTORE POP CALLER PUSH20 0xFFFFFFFFFFFFFFFFFFFFFFFFFFFFFFFFFFFFFFFF AND DUP2 PUSH20 0xFFFFFFFFFFFFFFFFFFFFFFFFFFFFFFFFFFFFFFFF AND PUSH32 0x96B5B9B8A7193304150CACCF9B80D150675FA3D6AF57761D8D8EF1D6F9A1A909 PUSH1 0x40 MLOAD PUSH1 0x40 MLOAD DUP1 SWAP2 SUB SWAP1 LOG3 POP POP POP JUMP JUMPDEST PUSH1 0x1 PUSH1 0x20 MSTORE DUP1 PUSH0 MSTORE PUSH1 0x40 PUSH0 KECCAK256 PUSH0 SWAP2 POP SLOAD SWAP1 PUSH2 0x100 EXP SWAP1 DIV PUSH20 0xFFFFFFFFFFFFFFFFFFFFFFFFFFFFFFFFFFFFFFFF AND DUP2 JUMP JUMPDEST PUSH0 SLOAD DUP2 JUMP JUMPDEST CALLER PUSH20 0xFFFFFFFFFFFFFFFFFFFFFFFFFFFFFFFFFFFFFFFF AND PUSH1 0x1 PUSH0 DUP5 PUSH20 0xFFFFFFFFFFFFFFFFFFFFFFFFFFFFFFFFFFFFFFFF AND PUSH20 0xFFFFFFFFFFFFFFFFFFFFFFFFFFFFFFFFFFFFFFFF AND DUP2 MSTORE PUSH1 0x20 ADD SWAP1 DUP2 MSTORE PUSH1 0x20 ADD PUSH0 KECCAK256 PUSH0 SWAP1 SLOAD SWAP1 PUSH2 0x100 EXP SWAP1 DIV PUSH20 0xFFFFFFFFFFFFFFFFFFFFFFFFFFFFFFFFFFFFFFFF AND PUSH20 0xFFFFFFFFFFFFFFFFFFFFFFFFFFFFFFFFFFFFFFFF AND EQ PUSH3 0x33C JUMPI CALLER PUSH1 0x40 MLOAD PUSH32 0xF499598A00000000000000000000000000000000000000000000000000000000 DUP2 MSTORE PUSH1 0x4 ADD PUSH3 0x333 SWAP2 SWAP1 PUSH3 0x67C JUMP JUMPDEST PUSH1 0x40 MLOAD DUP1 SWAP2 SUB SWAP1 REVERT JUMPDEST PUSH0 DUP3 SWAP1 POP DUP1 PUSH20 0xFFFFFFFFFFFFFFFFFFFFFFFFFFFFFFFFFFFFFFFF AND PUSH4 0xBCD177E DUP4 PUSH1 0x40 MLOAD DUP3 PUSH4 0xFFFFFFFF AND PUSH1 0xE0 SHL DUP2 MSTORE PUSH1 0x4 ADD PUSH3 0x37B SWAP2 SWAP1 PUSH3 0x6B1 JUMP JUMPDEST PUSH0 PUSH1 0x40 MLOAD DUP1 DUP4 SUB DUP2 PUSH0 DUP8 DUP1 EXTCODESIZE ISZERO DUP1 ISZERO PUSH3 0x393 JUMPI PUSH0 DUP1 REVERT JUMPDEST POP GAS CALL ISZERO DUP1 ISZERO PUSH3 0x3A6 JUMPI RETURNDATASIZE PUSH0 DUP1 RETURNDATACOPY RETURNDATASIZE PUSH0 REVERT JUMPDEST POP POP POP POP DUP3 PUSH20 0xFFFFFFFFFFFFFFFFFFFFFFFFFFFFFFFFFFFFFFFF AND PUSH32 0x69CA02DD4EDD7BF0A4ABB9ED3B7AF3F14778DB5D61921C7DC7CD545266326DE2 DUP4 PUSH1 0x40 MLOAD PUSH3 0x3F2 SWAP2 SWAP1 PUSH3 0x6B1 JUMP JUMPDEST PUSH1 0x40 MLOAD DUP1 SWAP2 SUB SWAP1 LOG2 POP POP POP JUMP JUMPDEST PUSH2 0x1576 DUP1 PUSH3 0x8A0 DUP4 CODECOPY ADD SWAP1 JUMP JUMPDEST PUSH0 PUSH1 0x40 MLOAD SWAP1 POP SWAP1 JUMP JUMPDEST PUSH0 DUP1 REVERT JUMPDEST PUSH0 DUP1 REVERT JUMPDEST PUSH0 PUSH20 0xFFFFFFFFFFFFFFFFFFFFFFFFFFFFFFFFFFFFFFFF DUP3 AND SWAP1 POP SWAP2 SWAP1 POP JUMP JUMPDEST PUSH0 PUSH3 0x449 DUP3 PUSH3 0x41E JUMP JUMPDEST SWAP1 POP SWAP2 SWAP1 POP JUMP JUMPDEST PUSH3 0x45B DUP2 PUSH3 0x43D JUMP JUMPDEST DUP2 EQ PUSH3 0x466 JUMPI PUSH0 DUP1 REVERT JUMPDEST POP JUMP JUMPDEST PUSH0 DUP2 CALLDATALOAD SWAP1 POP PUSH3 0x479 DUP2 PUSH3 0x450 JUMP JUMPDEST SWAP3 SWAP2 POP POP JUMP JUMPDEST PUSH0 DUP1 REVERT JUMPDEST PUSH0 DUP1 REVERT JUMPDEST PUSH0 PUSH1 0x1F NOT PUSH1 0x1F DUP4 ADD AND SWAP1 POP SWAP2 SWAP1 POP JUMP JUMPDEST PUSH32 0x4E487B7100000000000000000000000000000000000000000000000000000000 PUSH0 MSTORE PUSH1 0x41 PUSH1 0x4 MSTORE PUSH1 0x24 PUSH0 REVERT JUMPDEST PUSH3 0x4CF DUP3 PUSH3 0x487 JUMP JUMPDEST DUP2 ADD DUP2 DUP2 LT PUSH8 0xFFFFFFFFFFFFFFFF DUP3 GT OR ISZERO PUSH3 0x4F1 JUMPI PUSH3 0x4F0 PUSH3 0x497 JUMP JUMPDEST JUMPDEST DUP1 PUSH1 0x40 MSTORE POP POP POP JUMP JUMPDEST PUSH0 PUSH3 0x505 PUSH3 0x40D JUMP JUMPDEST SWAP1 POP PUSH3 0x513 DUP3 DUP3 PUSH3 0x4C4 JUMP JUMPDEST SWAP2 SWAP1 POP JUMP JUMPDEST PUSH0 PUSH8 0xFFFFFFFFFFFFFFFF DUP3 GT ISZERO PUSH3 0x535 JUMPI PUSH3 0x534 PUSH3 0x497 JUMP JUMPDEST JUMPDEST PUSH3 0x540 DUP3 PUSH3 0x487 JUMP JUMPDEST SWAP1 POP PUSH1 0x20 DUP2 ADD SWAP1 POP SWAP2 SWAP1 POP JUMP JUMPDEST DUP3 DUP2 DUP4 CALLDATACOPY PUSH0 DUP4 DUP4 ADD MSTORE POP POP POP JUMP JUMPDEST PUSH0 PUSH3 0x571 PUSH3 0x56B DUP5 PUSH3 0x518 JUMP JUMPDEST PUSH3 0x4FA JUMP JUMPDEST SWAP1 POP DUP3 DUP2 MSTORE PUSH1 0x20 DUP2 ADD DUP5 DUP5 DUP5 ADD GT ISZERO PUSH3 0x590 JUMPI PUSH3 0x58F PUSH3 0x483 JUMP JUMPDEST JUMPDEST PUSH3 0x59D DUP5 DUP3 DUP6 PUSH3 0x54D JUMP JUMPDEST POP SWAP4 SWAP3 POP POP POP JUMP JUMPDEST PUSH0 DUP3 PUSH1 0x1F DUP4 ADD SLT PUSH3 0x5BC JUMPI PUSH3 0x5BB PUSH3 0x47F JUMP JUMPDEST JUMPDEST DUP2 CALLDATALOAD PUSH3 0x5CE DUP5 DUP3 PUSH1 0x20 DUP7 ADD PUSH3 0x55B JUMP JUMPDEST SWAP2 POP POP SWAP3 SWAP2 POP POP JUMP JUMPDEST PUSH0 DUP1 PUSH1 0x40 DUP4 DUP6 SUB SLT ISZERO PUSH3 0x5F0 JUMPI PUSH3 0x5EF PUSH3 0x416 JUMP JUMPDEST JUMPDEST PUSH0 PUSH3 0x5FF DUP6 DUP3 DUP7 ADD PUSH3 0x469 JUMP JUMPDEST SWAP3 POP POP PUSH1 0x20 DUP4 ADD CALLDATALOAD PUSH8 0xFFFFFFFFFFFFFFFF DUP2 GT ISZERO PUSH3 0x623 JUMPI PUSH3 0x622 PUSH3 0x41A JUMP JUMPDEST JUMPDEST PUSH3 0x631 DUP6 DUP3 DUP7 ADD PUSH3 0x5A5 JUMP JUMPDEST SWAP2 POP POP SWAP3 POP SWAP3 SWAP1 POP JUMP JUMPDEST PUSH0 PUSH1 0x20 DUP3 DUP5 SUB SLT ISZERO PUSH3 0x653 JUMPI PUSH3 0x652 PUSH3 0x416 JUMP JUMPDEST JUMPDEST PUSH0 PUSH3 0x662 DUP5 DUP3 DUP6 ADD PUSH3 0x469 JUMP JUMPDEST SWAP2 POP POP SWAP3 SWAP2 POP POP JUMP JUMPDEST PUSH3 0x676 DUP2 PUSH3 0x43D JUMP JUMPDEST DUP3 MSTORE POP POP JUMP JUMPDEST PUSH0 PUSH1 0x20 DUP3 ADD SWAP1 POP PUSH3 0x691 PUSH0 DUP4 ADD DUP5 PUSH3 0x66B JUMP JUMPDEST SWAP3 SWAP2 POP POP JUMP JUMPDEST PUSH0 DUP2 SWAP1 POP SWAP2 SWAP1 POP JUMP JUMPDEST PUSH3 0x6AB DUP2 PUSH3 0x697 JUMP JUMPDEST DUP3 MSTORE POP POP JUMP JUMPDEST PUSH0 PUSH1 0x20 DUP3 ADD SWAP1 POP PUSH3 0x6C6 PUSH0 DUP4 ADD DUP5 PUSH3 0x6A0 JUMP JUMPDEST SWAP3 SWAP2 POP POP JUMP JUMPDEST PUSH0 PUSH3 0x6D8 DUP3 PUSH3 0x41E JUMP JUMPDEST SWAP1 POP SWAP2 SWAP1 POP JUMP JUMPDEST PUSH3 0x6EA DUP2 PUSH3 0x6CC JUMP JUMPDEST DUP2 EQ PUSH3 0x6F5 JUMPI PUSH0 DUP1 REVERT JUMPDEST POP JUMP JUMPDEST PUSH0 DUP2 CALLDATALOAD SWAP1 POP PUSH3 0x708 DUP2 PUSH3 0x6DF JUMP JUMPDEST SWAP3 SWAP2 POP POP JUMP JUMPDEST PUSH3 0x719 DUP2 PUSH3 0x697 JUMP JUMPDEST DUP2 EQ PUSH3 0x724 JUMPI PUSH0 DUP1 REVERT JUMPDEST POP JUMP JUMPDEST PUSH0 DUP2 CALLDATALOAD SWAP1 POP PUSH3 0x737 DUP2 PUSH3 0x70E JUMP JUMPDEST SWAP3 SWAP2 POP POP JUMP JUMPDEST PUSH0 DUP1 PUSH1 0x40 DUP4 DUP6 SUB SLT ISZERO PUSH3 0x756 JUMPI PUSH3 0x755 PUSH3 0x416 JUMP JUMPDEST JUMPDEST PUSH0 PUSH3 0x765 DUP6 DUP3 DUP7 ADD PUSH3 0x6F8 JUMP JUMPDEST SWAP3 POP POP PUSH1 0x20 PUSH3 0x778 DUP6 DUP3 DUP7 ADD PUSH3 0x727 JUMP JUMPDEST SWAP2 POP POP SWAP3 POP SWAP3 SWAP1 POP JUMP JUMPDEST PUSH0 DUP2 MLOAD SWAP1 POP SWAP2 SWAP1 POP JUMP JUMPDEST PUSH0 DUP3 DUP3 MSTORE PUSH1 0x20 DUP3 ADD SWAP1 POP SWAP3 SWAP2 POP POP JUMP JUMPDEST PUSH0 JUMPDEST DUP4 DUP2 LT ISZERO PUSH3 0x7BB JUMPI DUP1 DUP3 ADD MLOAD DUP2 DUP5 ADD MSTORE PUSH1 0x20 DUP2 ADD SWAP1 POP PUSH3 0x79E JUMP JUMPDEST PUSH0 DUP5 DUP5 ADD MSTORE POP POP POP POP JUMP JUMPDEST PUSH0 PUSH3 0x7D2 DUP3 PUSH3 0x782 JUMP JUMPDEST PUSH3 0x7DE DUP2 DUP6 PUSH3 0x78C JUMP JUMPDEST SWAP4 POP PUSH3 0x7F0 DUP2 DUP6 PUSH1 0x20 DUP7 ADD PUSH3 0x79C JUMP JUMPDEST PUSH3 0x7FB DUP2 PUSH3 0x487 JUMP JUMPDEST DUP5 ADD SWAP2 POP POP SWAP3 SWAP2 POP POP JUMP JUMPDEST PUSH0 PUSH1 0x40 DUP3 ADD SWAP1 POP PUSH3 0x81B PUSH0 DUP4 ADD DUP6 PUSH3 0x66B JUMP JUMPDEST DUP2 DUP2 SUB PUSH1 0x20 DUP4 ADD MSTORE PUSH3 0x82F DUP2 DUP5 PUSH3 0x7C6 JUMP JUMPDEST SWAP1 POP SWAP4 SWAP3 POP POP POP JUMP JUMPDEST PUSH32 0x4E487B7100000000000000000000000000000000000000000000000000000000 PUSH0 MSTORE PUSH1 0x11 PUSH1 0x4 MSTORE PUSH1 0x24 PUSH0 REVERT JUMPDEST PUSH0 PUSH3 0x871 DUP3 PUSH3 0x697 JUMP JUMPDEST SWAP2 POP PUSH3 0x87E DUP4 PUSH3 0x697 JUMP JUMPDEST SWAP3 POP DUP3 DUP3 ADD SWAP1 POP DUP1 DUP3 GT ISZERO PUSH3 0x899 JUMPI PUSH3 0x898 PUSH3 0x838 JUMP JUMPDEST JUMPDEST SWAP3 SWAP2 POP POP JUMP INVALID PUSH1 0xA0 PUSH1 0x40 MSTORE PUSH1 0x40 MLOAD PUSH3 0x1576 CODESIZE SUB DUP1 PUSH3 0x1576 DUP4 CODECOPY DUP2 DUP2 ADD PUSH1 0x40 MSTORE DUP2 ADD SWAP1 PUSH3 0x29 SWAP2 SWAP1 PUSH3 0x525 JUMP JUMPDEST CALLER PUSH0 PUSH20 0xFFFFFFFFFFFFFFFFFFFFFFFFFFFFFFFFFFFFFFFF AND DUP2 PUSH20 0xFFFFFFFFFFFFFFFFFFFFFFFFFFFFFFFFFFFFFFFF AND SUB PUSH3 0x9D JUMPI PUSH0 PUSH1 0x40 MLOAD PUSH32 0x1E4FBDF700000000000000000000000000000000000000000000000000000000 DUP2 MSTORE PUSH1 0x4 ADD PUSH3 0x94 SWAP2 SWAP1 PUSH3 0x59A JUMP JUMPDEST PUSH1 0x40 MLOAD DUP1 SWAP2 SUB SWAP1 REVERT JUMPDEST PUSH3 0xAE DUP2 PUSH3 0x117 PUSH1 0x20 SHL PUSH1 0x20 SHR JUMP JUMPDEST POP DUP1 PUSH1 0x4 SWAP1 DUP2 PUSH3 0xC0 SWAP2 SWAP1 PUSH3 0x7EC JUMP JUMPDEST POP DUP2 PUSH20 0xFFFFFFFFFFFFFFFFFFFFFFFFFFFFFFFFFFFFFFFF AND PUSH1 0x80 DUP2 PUSH20 0xFFFFFFFFFFFFFFFFFFFFFFFFFFFFFFFFFFFFFFFF AND DUP2 MSTORE POP POP PUSH0 CALLVALUE GT ISZERO PUSH3 0x10F JUMPI PUSH3 0x10E PUSH3 0x1D8 PUSH1 0x20 SHL PUSH1 0x20 SHR JUMP JUMPDEST JUMPDEST POP POP PUSH3 0x963 JUMP JUMPDEST PUSH0 DUP1 PUSH0 SWAP1 SLOAD SWAP1 PUSH2 0x100 EXP SWAP1 DIV PUSH20 0xFFFFFFFFFFFFFFFFFFFFFFFFFFFFFFFFFFFFFFFF AND SWAP1 POP DUP2 PUSH0 DUP1 PUSH2 0x100 EXP DUP2 SLOAD DUP2 PUSH20 0xFFFFFFFFFFFFFFFFFFFFFFFFFFFFFFFFFFFFFFFF MUL NOT AND SWAP1 DUP4 PUSH20 0xFFFFFFFFFFFFFFFFFFFFFFFFFFFFFFFFFFFFFFFF AND MUL OR SWAP1 SSTORE POP DUP2 PUSH20 0xFFFFFFFFFFFFFFFFFFFFFFFFFFFFFFFFFFFFFFFF AND DUP2 PUSH20 0xFFFFFFFFFFFFFFFFFFFFFFFFFFFFFFFFFFFFFFFF AND PUSH32 0x8BE0079C531659141344CD1FD0A4F28419497F9722A3DAAFE3B4186F6B6457E0 PUSH1 0x40 MLOAD PUSH1 0x40 MLOAD DUP1 SWAP2 SUB SWAP1 LOG3 POP POP JUMP JUMPDEST PUSH0 PUSH1 0x5 PUSH0 ORIGIN PUSH20 0xFFFFFFFFFFFFFFFFFFFFFFFFFFFFFFFFFFFFFFFF AND PUSH20 0xFFFFFFFFFFFFFFFFFFFFFFFFFFFFFFFFFFFFFFFF AND DUP2 MSTORE PUSH1 0x20 ADD SWAP1 DUP2 MSTORE PUSH1 0x20 ADD PUSH0 KECCAK256 SLOAD SUB PUSH3 0x27E JUMPI PUSH1 0x3 ORIGIN SWAP1 DUP1 PUSH1 0x1 DUP2 SLOAD ADD DUP1 DUP3 SSTORE DUP1 SWAP2 POP POP PUSH1 0x1 SWAP1 SUB SWAP1 PUSH0 MSTORE PUSH1 0x20 PUSH0 KECCAK256 ADD PUSH0 SWAP1 SWAP2 SWAP1 SWAP2 SWAP1 SWAP2 PUSH2 0x100 EXP DUP2 SLOAD DUP2 PUSH20 0xFFFFFFFFFFFFFFFFFFFFFFFFFFFFFFFFFFFFFFFF MUL NOT AND SWAP1 DUP4 PUSH20 0xFFFFFFFFFFFFFFFFFFFFFFFFFFFFFFFFFFFFFFFF AND MUL OR SWAP1 SSTORE POP JUMPDEST CALLVALUE PUSH1 0x5 PUSH0 ORIGIN PUSH20 0xFFFFFFFFFFFFFFFFFFFFFFFFFFFFFFFFFFFFFFFF AND PUSH20 0xFFFFFFFFFFFFFFFFFFFFFFFFFFFFFFFFFFFFFFFF AND DUP2 MSTORE PUSH1 0x20 ADD SWAP1 DUP2 MSTORE PUSH1 0x20 ADD PUSH0 KECCAK256 PUSH0 DUP3 DUP3 SLOAD PUSH3 0x2CC SWAP2 SWAP1 PUSH3 0x8FD JUMP JUMPDEST SWAP3 POP POP DUP2 SWAP1 SSTORE POP CALLVALUE PUSH1 0x1 PUSH0 DUP3 DUP3 SLOAD PUSH3 0x2E6 SWAP2 SWAP1 PUSH3 0x8FD JUMP JUMPDEST SWAP3 POP POP DUP2 SWAP1 SSTORE POP ORIGIN PUSH20 0xFFFFFFFFFFFFFFFFFFFFFFFFFFFFFFFFFFFFFFFF AND PUSH32 0x69CA02DD4EDD7BF0A4ABB9ED3B7AF3F14778DB5D61921C7DC7CD545266326DE2 CALLVALUE PUSH1 0x40 MLOAD PUSH3 0x335 SWAP2 SWAP1 PUSH3 0x948 JUMP JUMPDEST PUSH1 0x40 MLOAD DUP1 SWAP2 SUB SWAP1 LOG2 JUMP JUMPDEST PUSH0 PUSH1 0x40 MLOAD SWAP1 POP SWAP1 JUMP JUMPDEST PUSH0 DUP1 REVERT JUMPDEST PUSH0 DUP1 REVERT JUMPDEST PUSH0 PUSH20 0xFFFFFFFFFFFFFFFFFFFFFFFFFFFFFFFFFFFFFFFF DUP3 AND SWAP1 POP SWAP2 SWAP1 POP JUMP JUMPDEST PUSH0 PUSH3 0x37B DUP3 PUSH3 0x350 JUMP JUMPDEST SWAP1 POP SWAP2 SWAP1 POP JUMP JUMPDEST PUSH3 0x38D DUP2 PUSH3 0x36F JUMP JUMPDEST DUP2 EQ PUSH3 0x398 JUMPI PUSH0 DUP1 REVERT JUMPDEST POP JUMP JUMPDEST PUSH0 DUP2 MLOAD SWAP1 POP PUSH3 0x3AB DUP2 PUSH3 0x382 JUMP JUMPDEST SWAP3 SWAP2 POP POP JUMP JUMPDEST PUSH0 DUP1 REVERT JUMPDEST PUSH0 DUP1 REVERT JUMPDEST PUSH0 PUSH1 0x1F NOT PUSH1 0x1F DUP4 ADD AND SWAP1 POP SWAP2 SWAP1 POP JUMP JUMPDEST PUSH32 0x4E487B7100000000000000000000000000000000000000000000000000000000 PUSH0 MSTORE PUSH1 0x41 PUSH1 0x4 MSTORE PUSH1 0x24 PUSH0 REVERT JUMPDEST PUSH3 0x401 DUP3 PUSH3 0x3B9 JUMP JUMPDEST DUP2 ADD DUP2 DUP2 LT PUSH8 0xFFFFFFFFFFFFFFFF DUP3 GT OR ISZERO PUSH3 0x423 JUMPI PUSH3 0x422 PUSH3 0x3C9 JUMP JUMPDEST JUMPDEST DUP1 PUSH1 0x40 MSTORE POP POP POP JUMP JUMPDEST PUSH0 PUSH3 0x437 PUSH3 0x33F JUMP JUMPDEST SWAP1 POP PUSH3 0x445 DUP3 DUP3 PUSH3 0x3F6 JUMP JUMPDEST SWAP2 SWAP1 POP JUMP JUMPDEST PUSH0 PUSH8 0xFFFFFFFFFFFFFFFF DUP3 GT ISZERO PUSH3 0x467 JUMPI PUSH3 0x466 PUSH3 0x3C9 JUMP JUMPDEST JUMPDEST PUSH3 0x472 DUP3 PUSH3 0x3B9 JUMP JUMPDEST SWAP1 POP PUSH1 0x20 DUP2 ADD SWAP1 POP SWAP2 SWAP1 POP JUMP JUMPDEST PUSH0 JUMPDEST DUP4 DUP2 LT ISZERO PUSH3 0x49E JUMPI DUP1 DUP3 ADD MLOAD DUP2 DUP5 ADD MSTORE PUSH1 0x20 DUP2 ADD SWAP1 POP PUSH3 0x481 JUMP JUMPDEST PUSH0 DUP5 DUP5 ADD MSTORE POP POP POP POP JUMP JUMPDEST PUSH0 PUSH3 0x4BF PUSH3 0x4B9 DUP5 PUSH3 0x44A JUMP JUMPDEST PUSH3 0x42C JUMP JUMPDEST SWAP1 POP DUP3 DUP2 MSTORE PUSH1 0x20 DUP2 ADD DUP5 DUP5 DUP5 ADD GT ISZERO PUSH3 0x4DE JUMPI PUSH3 0x4DD PUSH3 0x3B5 JUMP JUMPDEST JUMPDEST PUSH3 0x4EB DUP5 DUP3 DUP6 PUSH3 0x47F JUMP JUMPDEST POP SWAP4 SWAP3 POP POP POP JUMP JUMPDEST PUSH0 DUP3 PUSH1 0x1F DUP4 ADD SLT PUSH3 0x50A JUMPI PUSH3 0x509 PUSH3 0x3B1 JUMP JUMPDEST JUMPDEST DUP2 MLOAD PUSH3 0x51C DUP5 DUP3 PUSH1 0x20 DUP7 ADD PUSH3 0x4A9 JUMP JUMPDEST SWAP2 POP POP SWAP3 SWAP2 POP POP JUMP JUMPDEST PUSH0 DUP1 PUSH1 0x40 DUP4 DUP6 SUB SLT ISZERO PUSH3 0x53E JUMPI PUSH3 0x53D PUSH3 0x348 JUMP JUMPDEST JUMPDEST PUSH0 PUSH3 0x54D DUP6 DUP3 DUP7 ADD PUSH3 0x39B JUMP JUMPDEST SWAP3 POP POP PUSH1 0x20 DUP4 ADD MLOAD PUSH8 0xFFFFFFFFFFFFFFFF DUP2 GT ISZERO PUSH3 0x571 JUMPI PUSH3 0x570 PUSH3 0x34C JUMP JUMPDEST JUMPDEST PUSH3 0x57F DUP6 DUP3 DUP7 ADD PUSH3 0x4F3 JUMP JUMPDEST SWAP2 POP POP SWAP3 POP SWAP3 SWAP1 POP JUMP JUMPDEST PUSH3 0x594 DUP2 PUSH3 0x36F JUMP JUMPDEST DUP3 MSTORE POP POP JUMP JUMPDEST PUSH0 PUSH1 0x20 DUP3 ADD SWAP1 POP PUSH3 0x5AF PUSH0 DUP4 ADD DUP5 PUSH3 0x589 JUMP JUMPDEST SWAP3 SWAP2 POP POP JUMP JUMPDEST PUSH0 DUP2 MLOAD SWAP1 POP SWAP2 SWAP1 POP JUMP JUMPDEST PUSH32 0x4E487B7100000000000000000000000000000000000000000000000000000000 PUSH0 MSTORE PUSH1 0x22 PUSH1 0x4 MSTORE PUSH1 0x24 PUSH0 REVERT JUMPDEST PUSH0 PUSH1 0x2 DUP3 DIV SWAP1 POP PUSH1 0x1 DUP3 AND DUP1 PUSH3 0x604 JUMPI PUSH1 0x7F DUP3 AND SWAP2 POP JUMPDEST PUSH1 0x20 DUP3 LT DUP2 SUB PUSH3 0x61A JUMPI PUSH3 0x619 PUSH3 0x5BF JUMP JUMPDEST JUMPDEST POP SWAP2 SWAP1 POP JUMP JUMPDEST PUSH0 DUP2 SWAP1 POP DUP2 PUSH0 MSTORE PUSH1 0x20 PUSH0 KECCAK256 SWAP1 POP SWAP2 SWAP1 POP JUMP JUMPDEST PUSH0 PUSH1 0x20 PUSH1 0x1F DUP4 ADD DIV SWAP1 POP SWAP2 SWAP1 POP JUMP JUMPDEST PUSH0 DUP3 DUP3 SHL SWAP1 POP SWAP3 SWAP2 POP POP JUMP JUMPDEST PUSH0 PUSH1 0x8 DUP4 MUL PUSH3 0x67E PUSH32 0xFFFFFFFFFFFFFFFFFFFFFFFFFFFFFFFFFFFFFFFFFFFFFFFFFFFFFFFFFFFFFFFF DUP3 PUSH3 0x641 JUMP JUMPDEST PUSH3 0x68A DUP7 DUP4 PUSH3 0x641 JUMP JUMPDEST SWAP6 POP DUP1 NOT DUP5 AND SWAP4 POP DUP1 DUP7 AND DUP5 OR SWAP3 POP POP POP SWAP4 SWAP3 POP POP POP JUMP JUMPDEST PUSH0 DUP2 SWAP1 POP SWAP2 SWAP1 POP JUMP JUMPDEST PUSH0 DUP2 SWAP1 POP SWAP2 SWAP1 POP JUMP JUMPDEST PUSH0 PUSH3 0x6D4 PUSH3 0x6CE PUSH3 0x6C8 DUP5 PUSH3 0x6A2 JUMP JUMPDEST PUSH3 0x6AB JUMP JUMPDEST PUSH3 0x6A2 JUMP JUMPDEST SWAP1 POP SWAP2 SWAP1 POP JUMP JUMPDEST PUSH0 DUP2 SWAP1 POP SWAP2 SWAP1 POP JUMP JUMPDEST PUSH3 0x6EF DUP4 PUSH3 0x6B4 JUMP JUMPDEST PUSH3 0x707 PUSH3 0x6FE DUP3 PUSH3 0x6DB JUMP JUMPDEST DUP5 DUP5 SLOAD PUSH3 0x64D JUMP JUMPDEST DUP3 SSTORE POP POP POP POP JUMP JUMPDEST PUSH0 SWAP1 JUMP JUMPDEST PUSH3 0x71D PUSH3 0x70F JUMP JUMPDEST PUSH3 0x72A DUP2 DUP5 DUP5 PUSH3 0x6E4 JUMP JUMPDEST POP POP POP JUMP JUMPDEST JUMPDEST DUP2 DUP2 LT ISZERO PUSH3 0x751 JUMPI PUSH3 0x745 PUSH0 DUP3 PUSH3 0x713 JUMP JUMPDEST PUSH1 0x1 DUP2 ADD SWAP1 POP PUSH3 0x730 JUMP JUMPDEST POP POP JUMP JUMPDEST PUSH1 0x1F DUP3 GT ISZERO PUSH3 0x7A0 JUMPI PUSH3 0x76A DUP2 PUSH3 0x620 JUMP JUMPDEST PUSH3 0x775 DUP5 PUSH3 0x632 JUMP JUMPDEST DUP2 ADD PUSH1 0x20 DUP6 LT ISZERO PUSH3 0x785 JUMPI DUP2 SWAP1 POP JUMPDEST PUSH3 0x79D PUSH3 0x794 DUP6 PUSH3 0x632 JUMP JUMPDEST DUP4 ADD DUP3 PUSH3 0x72F JUMP JUMPDEST POP POP JUMPDEST POP POP POP JUMP JUMPDEST PUSH0 DUP3 DUP3 SHR SWAP1 POP SWAP3 SWAP2 POP POP JUMP JUMPDEST PUSH0 PUSH3 0x7C2 PUSH0 NOT DUP5 PUSH1 0x8 MUL PUSH3 0x7A5 JUMP JUMPDEST NOT DUP1 DUP4 AND SWAP2 POP POP SWAP3 SWAP2 POP POP JUMP JUMPDEST PUSH0 PUSH3 0x7DC DUP4 DUP4 PUSH3 0x7B1 JUMP JUMPDEST SWAP2 POP DUP3 PUSH1 0x2 MUL DUP3 OR SWAP1 POP SWAP3 SWAP2 POP POP JUMP JUMPDEST PUSH3 0x7F7 DUP3 PUSH3 0x5B5 JUMP JUMPDEST PUSH8 0xFFFFFFFFFFFFFFFF DUP2 GT ISZERO PUSH3 0x813 JUMPI PUSH3 0x812 PUSH3 0x3C9 JUMP JUMPDEST JUMPDEST PUSH3 0x81F DUP3 SLOAD PUSH3 0x5EC JUMP JUMPDEST PUSH3 0x82C DUP3 DUP3 DUP6 PUSH3 0x755 JUMP JUMPDEST PUSH0 PUSH1 0x20 SWAP1 POP PUSH1 0x1F DUP4 GT PUSH1 0x1 DUP2 EQ PUSH3 0x862 JUMPI PUSH0 DUP5 ISZERO PUSH3 0x84D JUMPI DUP3 DUP8 ADD MLOAD SWAP1 POP JUMPDEST PUSH3 0x859 DUP6 DUP3 PUSH3 0x7CF JUMP JUMPDEST DUP7 SSTORE POP PUSH3 0x8C8 JUMP JUMPDEST PUSH1 0x1F NOT DUP5 AND PUSH3 0x872 DUP7 PUSH3 0x620 JUMP JUMPDEST PUSH0 JUMPDEST DUP3 DUP2 LT ISZERO PUSH3 0x89B JUMPI DUP5 DUP10 ADD MLOAD DUP3 SSTORE PUSH1 0x1 DUP3 ADD SWAP2 POP PUSH1 0x20 DUP6 ADD SWAP5 POP PUSH1 0x20 DUP2 ADD SWAP1 POP PUSH3 0x874 JUMP JUMPDEST DUP7 DUP4 LT ISZERO PUSH3 0x8BB JUMPI DUP5 DUP10 ADD MLOAD PUSH3 0x8B7 PUSH1 0x1F DUP10 AND DUP3 PUSH3 0x7B1 JUMP JUMPDEST DUP4 SSTORE POP JUMPDEST PUSH1 0x1 PUSH1 0x2 DUP9 MUL ADD DUP9 SSTORE POP POP POP JUMPDEST POP POP POP POP POP POP JUMP JUMPDEST PUSH32 0x4E487B7100000000000000000000000000000000000000000000000000000000 PUSH0 MSTORE PUSH1 0x11 PUSH1 0x4 MSTORE PUSH1 0x24 PUSH0 REVERT JUMPDEST PUSH0 PUSH3 0x909 DUP3 PUSH3 0x6A2 JUMP JUMPDEST SWAP2 POP PUSH3 0x916 DUP4 PUSH3 0x6A2 JUMP JUMPDEST SWAP3 POP DUP3 DUP3 ADD SWAP1 POP DUP1 DUP3 GT ISZERO PUSH3 0x931 JUMPI PUSH3 0x930 PUSH3 0x8D0 JUMP JUMPDEST JUMPDEST SWAP3 SWAP2 POP POP JUMP JUMPDEST PUSH3 0x942 DUP2 PUSH3 0x6A2 JUMP JUMPDEST DUP3 MSTORE POP POP JUMP JUMPDEST PUSH0 PUSH1 0x20 DUP3 ADD SWAP1 POP PUSH3 0x95D PUSH0 DUP4 ADD DUP5 PUSH3 0x937 JUMP JUMPDEST SWAP3 SWAP2 POP POP JUMP JUMPDEST PUSH1 0x80 MLOAD PUSH2 0xBF3 PUSH3 0x983 PUSH0 CODECOPY PUSH0 DUP2 DUP2 PUSH2 0x382 ADD MSTORE PUSH2 0x5BB ADD MSTORE PUSH2 0xBF3 PUSH0 RETURN INVALID PUSH1 0x80 PUSH1 0x40 MSTORE PUSH1 0x4 CALLDATASIZE LT PUSH2 0x89 JUMPI PUSH0 CALLDATALOAD PUSH1 0xE0 SHR DUP1 PUSH4 0xBF1482FA GT PUSH2 0x58 JUMPI DUP1 PUSH4 0xBF1482FA EQ PUSH2 0x122 JUMPI DUP1 PUSH4 0xD5EE1557 EQ PUSH2 0x14C JUMPI DUP1 PUSH4 0xED88C68E EQ PUSH2 0x176 JUMPI DUP1 PUSH4 0xF2FDE38B EQ PUSH2 0x180 JUMPI DUP1 PUSH4 0xF3A01489 EQ PUSH2 0x1A8 JUMPI PUSH2 0x98 JUMP JUMPDEST DUP1 PUSH4 0xBCD177E EQ PUSH2 0x9C JUMPI DUP1 PUSH4 0x715018A6 EQ PUSH2 0xB8 JUMPI DUP1 PUSH4 0x7284E416 EQ PUSH2 0xCE JUMPI DUP1 PUSH4 0x8DA5CB5B EQ PUSH2 0xF8 JUMPI PUSH2 0x98 JUMP JUMPDEST CALLDATASIZE PUSH2 0x98 JUMPI PUSH2 0x96 PUSH2 0x1D2 JUMP JUMPDEST STOP JUMPDEST PUSH0 DUP1 REVERT JUMPDEST PUSH2 0xB6 PUSH1 0x4 DUP1 CALLDATASIZE SUB DUP2 ADD SWAP1 PUSH2 0xB1 SWAP2 SWAP1 PUSH2 0x83E JUMP JUMPDEST PUSH2 0x332 JUMP JUMPDEST STOP JUMPDEST CALLVALUE DUP1 ISZERO PUSH2 0xC3 JUMPI PUSH0 DUP1 REVERT JUMPDEST POP PUSH2 0xCC PUSH2 0x468 JUMP JUMPDEST STOP JUMPDEST CALLVALUE DUP1 ISZERO PUSH2 0xD9 JUMPI PUSH0 DUP1 REVERT JUMPDEST POP PUSH2 0xE2 PUSH2 0x47B JUMP JUMPDEST PUSH1 0x40 MLOAD PUSH2 0xEF SWAP2 SWAP1 PUSH2 0x8F3 JUMP JUMPDEST PUSH1 0x40 MLOAD DUP1 SWAP2 SUB SWAP1 RETURN JUMPDEST CALLVALUE DUP1 ISZERO PUSH2 0x103 JUMPI PUSH0 DUP1 REVERT JUMPDEST POP PUSH2 0x10C PUSH2 0x507 JUMP JUMPDEST PUSH1 0x40 MLOAD PUSH2 0x119 SWAP2 SWAP1 PUSH2 0x952 JUMP JUMPDEST PUSH1 0x40 MLOAD DUP1 SWAP2 SUB SWAP1 RETURN JUMPDEST CALLVALUE DUP1 ISZERO PUSH2 0x12D JUMPI PUSH0 DUP1 REVERT JUMPDEST POP PUSH2 0x136 PUSH2 0x52E JUMP JUMPDEST PUSH1 0x40 MLOAD PUSH2 0x143 SWAP2 SWAP1 PUSH2 0xA22 JUMP JUMPDEST PUSH1 0x40 MLOAD DUP1 SWAP2 SUB SWAP1 RETURN JUMPDEST CALLVALUE DUP1 ISZERO PUSH2 0x157 JUMPI PUSH0 DUP1 REVERT JUMPDEST POP PUSH2 0x160 PUSH2 0x5B9 JUMP JUMPDEST PUSH1 0x40 MLOAD PUSH2 0x16D SWAP2 SWAP1 PUSH2 0x952 JUMP JUMPDEST PUSH1 0x40 MLOAD DUP1 SWAP2 SUB SWAP1 RETURN JUMPDEST PUSH2 0x17E PUSH2 0x5DD JUMP JUMPDEST STOP JUMPDEST CALLVALUE DUP1 ISZERO PUSH2 0x18B JUMPI PUSH0 DUP1 REVERT JUMPDEST POP PUSH2 0x1A6 PUSH1 0x4 DUP1 CALLDATASIZE SUB DUP2 ADD SWAP1 PUSH2 0x1A1 SWAP2 SWAP1 PUSH2 0xA6C JUMP JUMPDEST PUSH2 0x62B JUMP JUMPDEST STOP JUMPDEST CALLVALUE DUP1 ISZERO PUSH2 0x1B3 JUMPI PUSH0 DUP1 REVERT JUMPDEST POP PUSH2 0x1BC PUSH2 0x6AF JUMP JUMPDEST PUSH1 0x40 MLOAD PUSH2 0x1C9 SWAP2 SWAP1 PUSH2 0xAA6 JUMP JUMPDEST PUSH1 0x40 MLOAD DUP1 SWAP2 SUB SWAP1 RETURN JUMPDEST PUSH0 PUSH1 0x5 PUSH0 ORIGIN PUSH20 0xFFFFFFFFFFFFFFFFFFFFFFFFFFFFFFFFFFFFFFFF AND PUSH20 0xFFFFFFFFFFFFFFFFFFFFFFFFFFFFFFFFFFFFFFFF AND DUP2 MSTORE PUSH1 0x20 ADD SWAP1 DUP2 MSTORE PUSH1 0x20 ADD PUSH0 KECCAK256 SLOAD SUB PUSH2 0x277 JUMPI PUSH1 0x3 ORIGIN SWAP1 DUP1 PUSH1 0x1 DUP2 SLOAD ADD DUP1 DUP3 SSTORE DUP1 SWAP2 POP POP PUSH1 0x1 SWAP1 SUB SWAP1 PUSH0 MSTORE PUSH1 0x20 PUSH0 KECCAK256 ADD PUSH0 SWAP1 SWAP2 SWAP1 SWAP2 SWAP1 SWAP2 PUSH2 0x100 EXP DUP2 SLOAD DUP2 PUSH20 0xFFFFFFFFFFFFFFFFFFFFFFFFFFFFFFFFFFFFFFFF MUL NOT AND SWAP1 DUP4 PUSH20 0xFFFFFFFFFFFFFFFFFFFFFFFFFFFFFFFFFFFFFFFF AND MUL OR SWAP1 SSTORE POP JUMPDEST CALLVALUE PUSH1 0x5 PUSH0 ORIGIN PUSH20 0xFFFFFFFFFFFFFFFFFFFFFFFFFFFFFFFFFFFFFFFF AND PUSH20 0xFFFFFFFFFFFFFFFFFFFFFFFFFFFFFFFFFFFFFFFF AND DUP2 MSTORE PUSH1 0x20 ADD SWAP1 DUP2 MSTORE PUSH1 0x20 ADD PUSH0 KECCAK256 PUSH0 DUP3 DUP3 SLOAD PUSH2 0x2C3 SWAP2 SWAP1 PUSH2 0xAEC JUMP JUMPDEST SWAP3 POP POP DUP2 SWAP1 SSTORE POP CALLVALUE PUSH1 0x1 PUSH0 DUP3 DUP3 SLOAD PUSH2 0x2DB SWAP2 SWAP1 PUSH2 0xAEC JUMP JUMPDEST SWAP3 POP POP DUP2 SWAP1 SSTORE POP ORIGIN PUSH20 0xFFFFFFFFFFFFFFFFFFFFFFFFFFFFFFFFFFFFFFFF AND PUSH32 0x69CA02DD4EDD7BF0A4ABB9ED3B7AF3F14778DB5D61921C7DC7CD545266326DE2 CALLVALUE PUSH1 0x40 MLOAD PUSH2 0x328 SWAP2 SWAP1 PUSH2 0xAA6 JUMP JUMPDEST PUSH1 0x40 MLOAD DUP1 SWAP2 SUB SWAP1 LOG2 JUMP JUMPDEST PUSH2 0x33A PUSH2 0x6B8 JUMP JUMPDEST SELFBALANCE DUP2 GT ISZERO PUSH2 0x37F JUMPI CALLER PUSH1 0x40 MLOAD PUSH32 0x30E8FB4300000000000000000000000000000000000000000000000000000000 DUP2 MSTORE PUSH1 0x4 ADD PUSH2 0x376 SWAP2 SWAP1 PUSH2 0x952 JUMP JUMPDEST PUSH1 0x40 MLOAD DUP1 SWAP2 SUB SWAP1 REVERT JUMPDEST PUSH0 PUSH32 0x0 PUSH20 0xFFFFFFFFFFFFFFFFFFFFFFFFFFFFFFFFFFFFFFFF AND CALLVALUE PUSH1 0x40 MLOAD PUSH2 0x3C4 SWAP1 PUSH2 0xB4C JUMP JUMPDEST PUSH0 PUSH1 0x40 MLOAD DUP1 DUP4 SUB DUP2 DUP6 DUP8 GAS CALL SWAP3 POP POP POP RETURNDATASIZE DUP1 PUSH0 DUP2 EQ PUSH2 0x3FE JUMPI PUSH1 0x40 MLOAD SWAP2 POP PUSH1 0x1F NOT PUSH1 0x3F RETURNDATASIZE ADD AND DUP3 ADD PUSH1 0x40 MSTORE RETURNDATASIZE DUP3 MSTORE RETURNDATASIZE PUSH0 PUSH1 0x20 DUP5 ADD RETURNDATACOPY PUSH2 0x403 JUMP JUMPDEST PUSH1 0x60 SWAP2 POP JUMPDEST POP POP SWAP1 POP DUP1 ISZERO PUSH2 0x460 JUMPI CALLER PUSH20 0xFFFFFFFFFFFFFFFFFFFFFFFFFFFFFFFFFFFFFFFF AND PUSH32 0x69CA02DD4EDD7BF0A4ABB9ED3B7AF3F14778DB5D61921C7DC7CD545266326DE2 DUP4 PUSH1 0x40 MLOAD PUSH2 0x453 SWAP2 SWAP1 PUSH2 0xAA6 JUMP JUMPDEST PUSH1 0x40 MLOAD DUP1 SWAP2 SUB SWAP1 LOG2 PUSH2 0x464 JUMP JUMPDEST PUSH0 DUP1 REVERT JUMPDEST POP POP JUMP JUMPDEST PUSH2 0x470 PUSH2 0x6B8 JUMP JUMPDEST PUSH2 0x479 PUSH0 PUSH2 0x73F JUMP JUMPDEST JUMP JUMPDEST PUSH1 0x4 DUP1 SLOAD PUSH2 0x488 SWAP1 PUSH2 0xB8D JUMP JUMPDEST DUP1 PUSH1 0x1F ADD PUSH1 0x20 DUP1 SWAP2 DIV MUL PUSH1 0x20 ADD PUSH1 0x40 MLOAD SWAP1 DUP2 ADD PUSH1 0x40 MSTORE DUP1 SWAP3 SWAP2 SWAP1 DUP2 DUP2 MSTORE PUSH1 0x20 ADD DUP3 DUP1 SLOAD PUSH2 0x4B4 SWAP1 PUSH2 0xB8D JUMP JUMPDEST DUP1 ISZERO PUSH2 0x4FF JUMPI DUP1 PUSH1 0x1F LT PUSH2 0x4D6 JUMPI PUSH2 0x100 DUP1 DUP4 SLOAD DIV MUL DUP4 MSTORE SWAP2 PUSH1 0x20 ADD SWAP2 PUSH2 0x4FF JUMP JUMPDEST DUP3 ADD SWAP2 SWAP1 PUSH0 MSTORE PUSH1 0x20 PUSH0 KECCAK256 SWAP1 JUMPDEST DUP2 SLOAD DUP2 MSTORE SWAP1 PUSH1 0x1 ADD SWAP1 PUSH1 0x20 ADD DUP1 DUP4 GT PUSH2 0x4E2 JUMPI DUP3 SWAP1 SUB PUSH1 0x1F AND DUP3 ADD SWAP2 JUMPDEST POP POP POP POP POP DUP2 JUMP JUMPDEST PUSH0 DUP1 PUSH0 SWAP1 SLOAD SWAP1 PUSH2 0x100 EXP SWAP1 DIV PUSH20 0xFFFFFFFFFFFFFFFFFFFFFFFFFFFFFFFFFFFFFFFF AND SWAP1 POP SWAP1 JUMP JUMPDEST PUSH1 0x60 PUSH1 0x3 DUP1 SLOAD DUP1 PUSH1 0x20 MUL PUSH1 0x20 ADD PUSH1 0x40 MLOAD SWAP1 DUP2 ADD PUSH1 0x40 MSTORE DUP1 SWAP3 SWAP2 SWAP1 DUP2 DUP2 MSTORE PUSH1 0x20 ADD DUP3 DUP1 SLOAD DUP1 ISZERO PUSH2 0x5AF JUMPI PUSH1 0x20 MUL DUP3 ADD SWAP2 SWAP1 PUSH0 MSTORE PUSH1 0x20 PUSH0 KECCAK256 SWAP1 JUMPDEST DUP2 PUSH0 SWAP1 SLOAD SWAP1 PUSH2 0x100 EXP SWAP1 DIV PUSH20 0xFFFFFFFFFFFFFFFFFFFFFFFFFFFFFFFFFFFFFFFF AND PUSH20 0xFFFFFFFFFFFFFFFFFFFFFFFFFFFFFFFFFFFFFFFF AND DUP2 MSTORE PUSH1 0x20 ADD SWAP1 PUSH1 0x1 ADD SWAP1 DUP1 DUP4 GT PUSH2 0x566 JUMPI JUMPDEST POP POP POP POP POP SWAP1 POP SWAP1 JUMP JUMPDEST PUSH32 0x0 DUP2 JUMP JUMPDEST PUSH0 CALLVALUE GT PUSH2 0x621 JUMPI CALLER PUSH1 0x40 MLOAD PUSH32 0x30E8FB4300000000000000000000000000000000000000000000000000000000 DUP2 MSTORE PUSH1 0x4 ADD PUSH2 0x618 SWAP2 SWAP1 PUSH2 0x952 JUMP JUMPDEST PUSH1 0x40 MLOAD DUP1 SWAP2 SUB SWAP1 REVERT JUMPDEST PUSH2 0x629 PUSH2 0x1D2 JUMP JUMPDEST JUMP JUMPDEST PUSH2 0x633 PUSH2 0x6B8 JUMP JUMPDEST PUSH0 PUSH20 0xFFFFFFFFFFFFFFFFFFFFFFFFFFFFFFFFFFFFFFFF AND DUP2 PUSH20 0xFFFFFFFFFFFFFFFFFFFFFFFFFFFFFFFFFFFFFFFF AND SUB PUSH2 0x6A3 JUMPI PUSH0 PUSH1 0x40 MLOAD PUSH32 0x1E4FBDF700000000000000000000000000000000000000000000000000000000 DUP2 MSTORE PUSH1 0x4 ADD PUSH2 0x69A SWAP2 SWAP1 PUSH2 0x952 JUMP JUMPDEST PUSH1 0x40 MLOAD DUP1 SWAP2 SUB SWAP1 REVERT JUMPDEST PUSH2 0x6AC DUP2 PUSH2 0x73F JUMP JUMPDEST POP JUMP JUMPDEST PUSH0 PUSH1 0x1 SLOAD SWAP1 POP SWAP1 JUMP JUMPDEST PUSH2 0x6C0 PUSH2 0x800 JUMP JUMPDEST PUSH20 0xFFFFFFFFFFFFFFFFFFFFFFFFFFFFFFFFFFFFFFFF AND PUSH2 0x6DE PUSH2 0x507 JUMP JUMPDEST PUSH20 0xFFFFFFFFFFFFFFFFFFFFFFFFFFFFFFFFFFFFFFFF AND EQ PUSH2 0x73D JUMPI PUSH2 0x701 PUSH2 0x800 JUMP JUMPDEST PUSH1 0x40 MLOAD PUSH32 0x118CDAA700000000000000000000000000000000000000000000000000000000 DUP2 MSTORE PUSH1 0x4 ADD PUSH2 0x734 SWAP2 SWAP1 PUSH2 0x952 JUMP JUMPDEST PUSH1 0x40 MLOAD DUP1 SWAP2 SUB SWAP1 REVERT JUMPDEST JUMP JUMPDEST PUSH0 DUP1 PUSH0 SWAP1 SLOAD SWAP1 PUSH2 0x100 EXP SWAP1 DIV PUSH20 0xFFFFFFFFFFFFFFFFFFFFFFFFFFFFFFFFFFFFFFFF AND SWAP1 POP DUP2 PUSH0 DUP1 PUSH2 0x100 EXP DUP2 SLOAD DUP2 PUSH20 0xFFFFFFFFFFFFFFFFFFFFFFFFFFFFFFFFFFFFFFFF MUL NOT AND SWAP1 DUP4 PUSH20 0xFFFFFFFFFFFFFFFFFFFFFFFFFFFFFFFFFFFFFFFF AND MUL OR SWAP1 SSTORE POP DUP2 PUSH20 0xFFFFFFFFFFFFFFFFFFFFFFFFFFFFFFFFFFFFFFFF AND DUP2 PUSH20 0xFFFFFFFFFFFFFFFFFFFFFFFFFFFFFFFFFFFFFFFF AND PUSH32 0x8BE0079C531659141344CD1FD0A4F28419497F9722A3DAAFE3B4186F6B6457E0 PUSH1 0x40 MLOAD PUSH1 0x40 MLOAD DUP1 SWAP2 SUB SWAP1 LOG3 POP POP JUMP JUMPDEST PUSH0 CALLER SWAP1 POP SWAP1 JUMP JUMPDEST PUSH0 DUP1 REVERT JUMPDEST PUSH0 DUP2 SWAP1 POP SWAP2 SWAP1 POP JUMP JUMPDEST PUSH2 0x81D DUP2 PUSH2 0x80B JUMP JUMPDEST DUP2 EQ PUSH2 0x827 JUMPI PUSH0 DUP1 REVERT JUMPDEST POP JUMP JUMPDEST PUSH0 DUP2 CALLDATALOAD SWAP1 POP PUSH2 0x838 DUP2 PUSH2 0x814 JUMP JUMPDEST SWAP3 SWAP2 POP POP JUMP JUMPDEST PUSH0 PUSH1 0x20 DUP3 DUP5 SUB SLT ISZERO PUSH2 0x853 JUMPI PUSH2 0x852 PUSH2 0x807 JUMP JUMPDEST JUMPDEST PUSH0 PUSH2 0x860 DUP5 DUP3 DUP6 ADD PUSH2 0x82A JUMP JUMPDEST SWAP2 POP POP SWAP3 SWAP2 POP POP JUMP JUMPDEST PUSH0 DUP2 MLOAD SWAP1 POP SWAP2 SWAP1 POP JUMP JUMPDEST PUSH0 DUP3 DUP3 MSTORE PUSH1 0x20 DUP3 ADD SWAP1 POP SWAP3 SWAP2 POP POP JUMP JUMPDEST PUSH0 JUMPDEST DUP4 DUP2 LT ISZERO PUSH2 0x8A0 JUMPI DUP1 DUP3 ADD MLOAD DUP2 DUP5 ADD MSTORE PUSH1 0x20 DUP2 ADD SWAP1 POP PUSH2 0x885 JUMP JUMPDEST PUSH0 DUP5 DUP5 ADD MSTORE POP POP POP POP JUMP JUMPDEST PUSH0 PUSH1 0x1F NOT PUSH1 0x1F DUP4 ADD AND SWAP1 POP SWAP2 SWAP1 POP JUMP JUMPDEST PUSH0 PUSH2 0x8C5 DUP3 PUSH2 0x869 JUMP JUMPDEST PUSH2 0x8CF DUP2 DUP6 PUSH2 0x873 JUMP JUMPDEST SWAP4 POP PUSH2 0x8DF DUP2 DUP6 PUSH1 0x20 DUP7 ADD PUSH2 0x883 JUMP JUMPDEST PUSH2 0x8E8 DUP2 PUSH2 0x8AB JUMP JUMPDEST DUP5 ADD SWAP2 POP POP SWAP3 SWAP2 POP POP JUMP JUMPDEST PUSH0 PUSH1 0x20 DUP3 ADD SWAP1 POP DUP2 DUP2 SUB PUSH0 DUP4 ADD MSTORE PUSH2 0x90B DUP2 DUP5 PUSH2 0x8BB JUMP JUMPDEST SWAP1 POP SWAP3 SWAP2 POP POP JUMP JUMPDEST PUSH0 PUSH20 0xFFFFFFFFFFFFFFFFFFFFFFFFFFFFFFFFFFFFFFFF DUP3 AND SWAP1 POP SWAP2 SWAP1 POP JUMP JUMPDEST PUSH0 PUSH2 0x93C DUP3 PUSH2 0x913 JUMP JUMPDEST SWAP1 POP SWAP2 SWAP1 POP JUMP JUMPDEST PUSH2 0x94C DUP2 PUSH2 0x932 JUMP JUMPDEST DUP3 MSTORE POP POP JUMP JUMPDEST PUSH0 PUSH1 0x20 DUP3 ADD SWAP1 POP PUSH2 0x965 PUSH0 DUP4 ADD DUP5 PUSH2 0x943 JUMP JUMPDEST SWAP3 SWAP2 POP POP JUMP JUMPDEST PUSH0 DUP2 MLOAD SWAP1 POP SWAP2 SWAP1 POP JUMP JUMPDEST PUSH0 DUP3 DUP3 MSTORE PUSH1 0x20 DUP3 ADD SWAP1 POP SWAP3 SWAP2 POP POP JUMP JUMPDEST PUSH0 DUP2 SWAP1 POP PUSH1 0x20 DUP3 ADD SWAP1 POP SWAP2 SWAP1 POP JUMP JUMPDEST PUSH2 0x99D DUP2 PUSH2 0x932 JUMP JUMPDEST DUP3 MSTORE POP POP JUMP JUMPDEST PUSH0 PUSH2 0x9AE DUP4 DUP4 PUSH2 0x994 JUMP JUMPDEST PUSH1 0x20 DUP4 ADD SWAP1 POP SWAP3 SWAP2 POP POP JUMP JUMPDEST PUSH0 PUSH1 0x20 DUP3 ADD SWAP1 POP SWAP2 SWAP1 POP JUMP JUMPDEST PUSH0 PUSH2 0x9D0 DUP3 PUSH2 0x96B JUMP JUMPDEST PUSH2 0x9DA DUP2 DUP6 PUSH2 0x975 JUMP JUMPDEST SWAP4 POP PUSH2 0x9E5 DUP4 PUSH2 0x985 JUMP JUMPDEST DUP1 PUSH0 JUMPDEST DUP4 DUP2 LT ISZERO PUSH2 0xA15 JUMPI DUP2 MLOAD PUSH2 0x9FC DUP9 DUP3 PUSH2 0x9A3 JUMP JUMPDEST SWAP8 POP PUSH2 0xA07 DUP4 PUSH2 0x9BA JUMP JUMPDEST SWAP3 POP POP PUSH1 0x1 DUP2 ADD SWAP1 POP PUSH2 0x9E8 JUMP JUMPDEST POP DUP6 SWAP4 POP POP POP POP SWAP3 SWAP2 POP POP JUMP JUMPDEST PUSH0 PUSH1 0x20 DUP3 ADD SWAP1 POP DUP2 DUP2 SUB PUSH0 DUP4 ADD MSTORE PUSH2 0xA3A DUP2 DUP5 PUSH2 0x9C6 JUMP JUMPDEST SWAP1 POP SWAP3 SWAP2 POP POP JUMP JUMPDEST PUSH2 0xA4B DUP2 PUSH2 0x932 JUMP JUMPDEST DUP2 EQ PUSH2 0xA55 JUMPI PUSH0 DUP1 REVERT JUMPDEST POP JUMP JUMPDEST PUSH0 DUP2 CALLDATALOAD SWAP1 POP PUSH2 0xA66 DUP2 PUSH2 0xA42 JUMP JUMPDEST SWAP3 SWAP2 POP POP JUMP JUMPDEST PUSH0 PUSH1 0x20 DUP3 DUP5 SUB SLT ISZERO PUSH2 0xA81 JUMPI PUSH2 0xA80 PUSH2 0x807 JUMP JUMPDEST JUMPDEST PUSH0 PUSH2 0xA8E DUP5 DUP3 DUP6 ADD PUSH2 0xA58 JUMP JUMPDEST SWAP2 POP POP SWAP3 SWAP2 POP POP JUMP JUMPDEST PUSH2 0xAA0 DUP2 PUSH2 0x80B JUMP JUMPDEST DUP3 MSTORE POP POP JUMP JUMPDEST PUSH0 PUSH1 0x20 DUP3 ADD SWAP1 POP PUSH2 0xAB9 PUSH0 DUP4 ADD DUP5 PUSH2 0xA97 JUMP JUMPDEST SWAP3 SWAP2 POP POP JUMP JUMPDEST PUSH32 0x4E487B7100000000000000000000000000000000000000000000000000000000 PUSH0 MSTORE PUSH1 0x11 PUSH1 0x4 MSTORE PUSH1 0x24 PUSH0 REVERT JUMPDEST PUSH0 PUSH2 0xAF6 DUP3 PUSH2 0x80B JUMP JUMPDEST SWAP2 POP PUSH2 0xB01 DUP4 PUSH2 0x80B JUMP JUMPDEST SWAP3 POP DUP3 DUP3 ADD SWAP1 POP DUP1 DUP3 GT ISZERO PUSH2 0xB19 JUMPI PUSH2 0xB18 PUSH2 0xABF JUMP JUMPDEST JUMPDEST SWAP3 SWAP2 POP POP JUMP JUMPDEST PUSH0 DUP2 SWAP1 POP SWAP3 SWAP2 POP POP JUMP JUMPDEST POP JUMP JUMPDEST PUSH0 PUSH2 0xB37 PUSH0 DUP4 PUSH2 0xB1F JUMP JUMPDEST SWAP2 POP PUSH2 0xB42 DUP3 PUSH2 0xB29 JUMP JUMPDEST PUSH0 DUP3 ADD SWAP1 POP SWAP2 SWAP1 POP JUMP JUMPDEST PUSH0 PUSH2 0xB56 DUP3 PUSH2 0xB2C JUMP JUMPDEST SWAP2 POP DUP2 SWAP1 POP SWAP2 SWAP1 POP JUMP JUMPDEST PUSH32 0x4E487B7100000000000000000000000000000000000000000000000000000000 PUSH0 MSTORE PUSH1 0x22 PUSH1 0x4 MSTORE PUSH1 0x24 PUSH0 REVERT JUMPDEST PUSH0 PUSH1 0x2 DUP3 DIV SWAP1 POP PUSH1 0x1 DUP3 AND DUP1 PUSH2 0xBA4 JUMPI PUSH1 0x7F DUP3 AND SWAP2 POP JUMPDEST PUSH1 0x20 DUP3 LT DUP2 SUB PUSH2 0xBB7 JUMPI PUSH2 0xBB6 PUSH2 0xB60 JUMP JUMPDEST JUMPDEST POP SWAP2 SWAP1 POP JUMP INVALID LOG2 PUSH5 0x6970667358 0x22 SLT KECCAK256 0xA6 0xCC 0xE7 INVALID 0xE1 0xFC 0xA9 PUSH16 0x1E98F8339D9EE8130BD55B659B2784DD DUP11 0xC7 0xD7 0xED 0xF9 0x1E 0xEB PUSH3 0x64736F PUSH13 0x63430008160033A26469706673 PC 0x22 SLT KECCAK256 DUP15 0x4E MSIZE SELFDESTRUCT PUSH22 0xF43AE067F5DB2FBF01E22AE4ADB884AA404251312449 CALLDATACOPY 0xCE STOP 0xB1 0xC6 PUSH5 0x736F6C6343 STOP ADDMOD AND STOP CALLER "
				},
				"gasEstimates": {
					"creation": {
						"codeDepositCost": "1551000",
						"executionCost": "1622",
						"totalCost": "1552622"
					},
					"external": {
						"createFoundation(address,string)": "infinite",
						"numberOfFoundationsCreated()": "2446",
						"ownersOfFunds(address)": "infinite",
						"transferFundsToReceiver(address,uint256)": "infinite"
					}
				},
				"methodIdentifiers": {
					"createFoundation(address,string)": "99223941",
					"numberOfFoundationsCreated()": "ce154467",
					"ownersOfFunds(address)": "9c05ae80",
					"transferFundsToReceiver(address,uint256)": "fd8adcf7"
				}
			},
			"storageLayout": {
				"storage": [
					{
						"astId": 372,
						"contract": "contracts/FundManager.sol:FundManager",
						"label": "numberOfFoundationsCreated",
						"offset": 0,
						"slot": "0",
						"type": "t_uint256"
					},
					{
						"astId": 376,
						"contract": "contracts/FundManager.sol:FundManager",
						"label": "ownersOfFunds",
						"offset": 0,
						"slot": "1",
						"type": "t_mapping(t_address,t_address)"
					}
				],
				"types": {
					"t_address": {
						"encoding": "inplace",
						"label": "address",
						"numberOfBytes": "20"
					},
					"t_mapping(t_address,t_address)": {
						"encoding": "mapping",
						"key": "t_address",
						"label": "mapping(address => address)",
						"numberOfBytes": "32",
						"value": "t_address"
					},
					"t_uint256": {
						"encoding": "inplace",
						"label": "uint256",
						"numberOfBytes": "32"
					}
				}
			},
			"userdoc": {
				"kind": "user",
				"methods": {},
				"version": 1
			}
		}
	}
}